:100000000C9448000C947C000C947C000C947C00B4
:100010000C947C000C947C000C947C000C947C0070
:100020000C947C000C94120A0C94BB080C94E1090B
:100030000C944E090C947F090C948A080C941D09A9
:100040000C9493050C947C000C943D030C94CC030D
:100050000C947C000C947C000C947C000C947C0030
:100060000C94B0090C94D60A0C94430A0C94740AAC
:100070000C94A50A0C94EC080C940E030C948503C4
:100080000C947C000C947C000C947C00F4041B0504
:1000900011241FBECFEFD0E1DEBFCDBF88E483BF08
:1000A00084E00E94E80612BE87B7816087BF78941B
:1000B00011E0A0E0B1E0EAE0FCE100E00BBF02C02B
:1000C00007900D92A037B107D9F712E0A0E7B1E091
:1000D00001C01D92A935B107E1F710E0C0E9D0E0F9
:1000E00004C02297FE010E94FF0DCC38D107C9F74A
:1000F0000E94070B0C94030E0C9400001F93CF93E7
:10010000DF93C0E0D0E0FE01E25CFE4F1081812F62
:1001100061E00E942E06812F61E00E945E06FE01D2
:10012000EA5BFE4F808160E070E00E94D307229678
:10013000C830D10541F7DF91CF911F910895FC019F
:1001400010828AE090E0938382830895CF93DF93B7
:10015000EC01882777FD8095982F0E94EC0C20E019
:1001600030E044E353E40E94510C20E030E040EFE3
:1001700051E40E94780D20E030E040E251E40E941A
:10018000ED0B0E94BE0CCB016A30710510F48AE0C1
:1001900090E08932910510F088E290E09B838A8399
:1001A000DF91CF910895E0911101E7FD15C0FF2780
:1001B000E7FDF095EE0FFF1FE059FE4F0190F08133
:1001C000E02D818160E00E945E0606C02F5F819174
:1001D0009191892B69F00EC0209111012F5FE22FC0
:1001E000FF27E7FDF0952150EE0FFF1FE059FE4F6E
:1001F000273064F320931101E0911101FF27E7FDFF
:10020000F095EE0FFF1FE059FE4F0190F081E02DB9
:10021000309761F48FEF8093110124EF31E08091EA
:10022000810190918201281B390B12C0818161E00C
:100230000E945E06E0911101FF27E7FDF095EE0FA9
:10024000FF1FE059FE4F0190F081E02D22813381A4
:1002500083B5820F83BD8091810190918201820FCD
:10026000931F9093820180938101845F914020F0DD
:10027000109282011092810108950E94000787B7B1
:100280008F7787BF85E00E94FB0689E063ED70E011
:100290000E941C0783B58C5083BD87B7806887BFD9
:1002A00010928201109281018FEF809311010895C5
:1002B000CF93DF93EC0180918001893010F080E0D2
:1002C0003DC06983862F61E00E942E06E881F0E040
:1002D000EE0FFF1FE059FE4F80819181C817D907AB
:1002E00061F140918001442341F4E0E7F1E0119293
:1002F000119281E0E038F807D1F7E0E7F1E020E083
:1003000030E080819181892B61F4F901EE0FFF1FAC
:10031000E059FE4FD183C08328834F5F4093800113
:1003200006C02F5F3F4F32962830310551F780913C
:100330008001813011F40E943D0181E0DF91CF9175
:100340000895CF93DF93EC018A8160E00E945E06FE
:100350008D8160E00E948E068D8160E00E94B00673
:100360008B8161E00E945E068C8161E00E945E06E6
:100370000000000010C08C8160E00E945E0600005A
:100380000000000000008C8161E00E945E06000019
:100390000000000000008D810E94A50687FDEBCFC4
:1003A0008C8160E00E945E06DF91CF910895FF92FC
:1003B0000F931F938C01F62E0E94A101F8018281F8
:1003C00061E00E945E06F801838160E00E945E06A3
:1003D000F801848161E00E945E06F801858161E098
:1003E0000E948E06F80185816F2D0E94B0060000E4
:1003F000000000000000F801848160E00E945E06B9
:10040000F801858160E00E948E06F80185816FEF1A
:100410000E94B0061F910F91FF900895EF92FF92F6
:100420000F931F93CF93DF937C01042F6115710508
:1004300051F0EB0110E005C0C70169910E94D7019E
:100440001F5F1017C8F3DF91CF911F910F91FF909D
:10045000EF900895DF93CF930F92CDB7DEB7698306
:10046000BE016F5F7F4F41E00E940E020F90CF915F
:10047000DF910895FF920F931F938C01F62E0E9437
:10048000A101F801828160E00E945E06F80183818B
:1004900060E00E945E06F801848161E00E945E06D1
:1004A000F801858161E00E948E06F80185816F2D3B
:1004B0000E94B0060000000000000000F8018481E6
:1004C00060E00E945E06F801858160E00E948E0671
:1004D000F80185816FEF0E94B0061F910F91FF9088
:1004E0000895423031F0433031F0413029F4605CFE
:1004F00003C06C5E01C06C5A60680E943A020895A5
:1005000062E00E943A02089561E00E943A02089572
:100510000F931F938C01FC01828160E00E945E06B4
:10052000F801838160E00E945E06F801848160E04A
:100530000E945E06F801828161E00E942E06F801A9
:10054000838161E00E942E06F801848161E00E94AF
:100550002E06F801858160E00E948E06F8018581F3
:100560006FEF0E94B0061F910F9108950F931F9394
:100570008C010E948802C80168E30E943A02C80107
:1005800061E00E943A02C80166E00E943A02C80196
:100590006CE00E943A02C80162E00E943A02C8017F
:1005A00060E80E943A021F910F9108950F93FC0199
:1005B00082E591E091838083628343832483058372
:1005C000CF010E94B6020F910895FC01248135816C
:1005D000C9010895DC01FC0182819381809714F0A8
:1005E00080E00895FD018281938101969383828347
:1005F00084819581E80FF91F60870196FD0195833D
:1006000084832D913C9111978217930714F481E014
:100610000895FD011582148281E008951F920F92C2
:100620000FB60F920BB60F9211242F933F934F9357
:100630005F936F937F938F939F93AF93BF93EF934A
:10064000FF93E0911902F0911A02608181ED91E02F
:100650000E94EA02FF91EF91BF91AF919F918F911C
:100660007F916F915F914F913F912F910F900BBEB2
:100670000F900FBE0F901F9018951F920F920FB6FC
:100680000F920BB60F9211242F933F934F935F93CA
:100690006F937F938F939F93AF93BF93EF93FF934A
:1006A000E091CD01F091CE01608185E891E00E945A
:1006B000EA02FF91EF91BF91AF919F918F917F914E
:1006C0006F915F914F913F912F910F900BBE0F90C3
:1006D0000FBE0F901F901895DC01FC018281938161
:1006E00001979383828386819781E80FF91F408564
:1006F0000196FD01978386832D913C918217930784
:1007000014F017821682842F08951F920F920FB64D
:100710000F920BB60F9211240F931F932F933F93B9
:100720004F935F936F937F938F939F93AF93BF93F9
:10073000EF93FF938091FB019091FC01181619062D
:1007400054F40091190210911A0289EF91E00E946D
:100750006C03F80180838091FB019091FC01892B4F
:1007600031F4E0911702F091180288E98083FF913B
:10077000EF91BF91AF919F918F917F916F915F9119
:100780004F913F912F911F910F910F900BBE0F90A2
:100790000FBE0F901F9018951F920F920FB60F92D9
:1007A0000BB60F9211240F931F932F933F934F93E8
:1007B0005F936F937F938F939F93AF93BF93EF93C9
:1007C000FF938091AF019091B0011816190654F46F
:1007D0000091CD011091CE018DEA91E00E946C0351
:1007E000F80180838091AF019091B001892B31F4A1
:1007F000E091CB01F091CC0188E98083FF91EF91EA
:10080000BF91AF919F918F917F916F915F914F9128
:100810003F912F911F910F910F900BBE0F900FBE24
:100820000F901F901895DC01FC0182819381019744
:100830009383828386819781E80FF91F4085019613
:10084000FD01978386832D913C918217930714F0C5
:1008500017821682842F0895FC0184819581892B4B
:1008600019F42FEF3FEF06C0CF0102960E94130448
:10087000282F30E0C9010895CF93DF93EC01EE817A
:10088000FF81E80FF91F8085DF91CF910895FC016A
:1008900084819581892B19F42FEF3FEF06C0CF019A
:1008A00002960E943C04282F30E0C9010895FC0103
:1008B00013821282828193819783868395838483B6
:1008C000089502960E9457040895FC0180E290E08A
:1008D00091838083CF010E9457040895DC01FC01BD
:1008E00082819381409714F080E00895FD01828118
:1008F000938101969383828384819581E80FF91F08
:1009000060870196FD01958384832D913C91119719
:100910008217930714F481E00895FD011582148273
:1009200081E00895CF93DF93EC018CA59DA54097BE
:10093000E4F7F894CE018A960E946E04C85BDF4FFC
:10094000E881F9818081806280837894DF91CF9102
:100950000895FC011382128282819381978386839A
:10096000958384830895FC0180E190E091838083E6
:10097000CF010E94A90408956F927F928F929F9257
:10098000AF92BF92CF92DF92EF92FF920F931F939D
:100990006C015B014A013901FC0188E591E081931A
:1009A0009193CF010E946504C6018A960E94B30408
:1009B00082E490E0C80ED91EF601A192B192819214
:1009C00091926192719201931193F182E0821F9151
:1009D0000F91FF90EF90DF90CF90BF90AF909F90DE
:1009E0008F907F906F900895EF92FF920F931F93D7
:1009F00083E891E060E970E049E250E02BE230E00A
:100A00000AE210E0FCE2EF2EF12C0E94BC048FEC15
:100A100091E068E970E049E950E02BE930E00AE94B
:100A200010E0ECE9EE2EF12C0E94BC041F910F9116
:100A3000FF90EF9008950F938BE192E06AE14BE114
:100A40002CE102E00E94D60281E292E00E947E0048
:100A500083E292E00E949F0087E292E00E949F0062
:100A60008BE292E00E949F000F910895CF92DF9257
:100A7000EF92FF920F931F9386E00E94C406AA276D
:100A800097FDA095BA2FBC01CD010E94EC0C20E08F
:100A900030E044E353E40E94780D20E030EC4FE76F
:100AA00054E40E94510C0E94B90C6B017C018BE252
:100AB00092E0B6010E94A6000BE112E0C8010E947C
:100AC0008402C8010E948002C80160E040E00E94E8
:100AD0007102C80160E071E00E94200BC80160E073
:100AE00041E00E947102C801B6010E94E40B62E37A
:100AF00070E080E090E00E9408061F910F91FF9047
:100B0000EF90DF90CF90089580E060E00E948E0625
:100B100081E060E00E948E068BE292E062E270E08B
:100B20000E94580108951F920F920FB60F92112440
:100B30002F933F938F939F93AF93BF9380913302F3
:100B400090913402A0913502B09136023091370273
:100B50000196A11DB11D232F2D5F2D3720F02D579C
:100B60000196A11DB11D209337028093330290930B
:100B70003402A0933502B093360280912F029091F7
:100B80003002A0913102B09132020196A11DB11D37
:100B900080932F0290933002A0933102B0933202DF
:100BA000BF91AF919F918F913F912F910F900FBE69
:100BB0000F901F9018956FB7F89420912F023091E5
:100BC0003002409131025091320282B790E0A0E0B1
:100BD000B0E006B600FE09C08F3F9105A105B10542
:100BE00021F02F5F3F4F4F4F5F4F6FBF542F432F69
:100BF000322F2227280F391F4A1F5B1F82E0220F46
:100C0000331F441F551F8A95D1F7B901CA010895B2
:100C1000EF92FF920F931F93CF93DF937B018C0191
:100C20000E94DB05EB010EC00E94DB056C1B7D0BF7
:100C3000685E7340C8F30894E108F10801091109DE
:100C4000C851DC4FE114F1040105110569F7DF918A
:100C5000CF911F910F91FF90EF900895E82FE695A7
:100C6000E695E695A82FB0E0613099F42FB7F89497
:100C7000F0E0EE0FFF1FE05EFE4F0190F081E02DEF
:100C80009081A770B070AE59BE4F8C91982B908315
:100C900013C02FB7F894F0E0EE0FFF1FE05EFE4F99
:100CA0000190F081E02D9081A770B070AE59BE4FD9
:100CB0008C918095892380832FBF0895E82FE69536
:100CC000E695E695A82FB0E0613099F42FB7F89437
:100CD000F0E0EE0FFF1FEE5EFE4F0190F081E02D81
:100CE0009081A770B070AE59BE4F8C91982B9083B5
:100CF00013C02FB7F894F0E0EE0FFF1FEE5EFE4F2B
:100D00000190F081E02D9081A770B070AE59BE4F78
:100D10008C918095892380832FBF0895E82FF0E080
:100D2000613051F4EE0FFF1FE05EFE4F0190F08145
:100D3000E02D8FEF80830895EE0FFF1FE05EFE4FE2
:100D40000190F081E02D10820895E82FF0E0EE0F81
:100D5000FF1FE25DFE4F0190F081E02D808108953C
:100D6000E82FF0E0EE0FFF1FEE5EFE4F0190F081E6
:100D7000E02D60830895109261001092620080E47B
:100D800087B987EE86B908951F93182F80913C018B
:100D9000813021F40E94BB0610923C0180913D01FC
:100DA000181721F4349A349BFECF0DC010933D01E7
:100DB00087B11770807E812B87B9349A349BFECF20
:100DC000349A349BFECF24B135B1C9011F910895E7
:100DD00093B7987F982B93BF08959EB5987F982BD3
:100DE0009EBD089583E00E94ED061DBC1CBC87B724
:100DF000846087BF089595B5987F982B95BD089519
:100E000082E00E94FB0614BC87B7806487BF089508
:100E1000EAE8F0E09081987F982B9083089583E032
:100E20000E9408071092890010928800EDE7F0E018
:100E30008081846080830895803140F4E82FF0E061
:100E4000EE0FFF1FE75CFD4F7183608308958930CB
:100E500031F48FB582608FBD8FB58E7F0AC08A3026
:100E600019F48FB5826002C08FB58D7F8FBD8FB5AD
:100E700081608FBD1BBC1ABC19BC18BC10927900D4
:100E80001092780008958FB580688FBD8FB58F7BE5
:100E90008FBD08958FB580628FBD8FB58F7E8FBD5A
:100EA00008958FB588608FBD8FB58B7F8FBD0895F6
:100EB0009BBD8ABD089599BD88BD08959093790022
:100EC000809378000895893049F480918B00826086
:100ED00080938B0080918B008E7F0EC08A3021F42E
:100EE00080918B00826003C080918B008D7F809306
:100EF0008B0080918B00816080938B001092870023
:100F00001092860010928500109284001092830047
:100F1000109282000895EBE8F0E080818068808381
:100F200080818F7B80830895EBE8F0E08081806290
:100F3000808380818F7E80830895EBE8F0E080815C
:100F40008860808380818B7F80830895853019F449
:100F50000E9443070895843019F40E944A070895B7
:100F6000833019F40E9451070895823019F40E94C9
:100F70008B070895813019F40E94940708958823FF
:100F800011F40E949D070895909387008093860036
:100F90000895909385008093840008959093830032
:100FA000809382000895EF92FF921F93CF93DF9377
:100FB000182F7B018D31B0F08F3111F413E014C084
:100FC0008E3111F414E010C08D3109F49BC08532CC
:100FD00011F410E03DC0843211F411E039C08332C5
:100FE00019F48EC08330A0F18091380286FD0BC0C9
:100FF0000E94F20678948AE00E94270780913802C6
:1010000080648093380280913802C12FD0E090E054
:10101000012E02C0959587950A94E2F780FD4CC099
:1010200087B3FE01E659FE4F9081892B87BB812F44
:101030000E94A6072091380281E090E0012E02C0B4
:10104000880F991F0A94E2F7282B2093380234C0A6
:101050008091380287FD0BC00E940F0778948AE0C8
:101060000E946307809138028068809338028091E3
:101070003802C12FD0E090E0012E02C095958795EF
:101080000A94E2F780FD24C082B1FE01E659FE4FCA
:101090009081892B82B9812F0E94A6072091380266
:1010A00081E090E0012E02C0880F991F0A94E2F7B8
:1010B000282B209338020CC0153021F4C7010E9460
:1010C000580722C0143021F4C7010E945B071CC0DE
:1010D000133021F4C7010E945E0716C0123021F4BC
:1010E000C7010E94C40710C0113021F4C7010E943B
:1010F000C9070AC0112341F4C7010E94CE0704C0EA
:1011000012E0A6CF15E070CFDF91CF911F91FF9035
:10111000EF9008951F920F920FB60F920BB60F9299
:1011200011242F933F934F935F936F937F938F93EC
:101130009F93AF93BF93EF93FF9380913F02909162
:101140004002892B29F0E0913F02F091400209957D
:10115000FF91EF91BF91AF919F918F917F916F918F
:101160005F914F913F912F910F900BBE0F900FBE4B
:101170000F901F9018951F920F920FB60F920BB6FB
:101180000F9211242F933F934F935F936F937F930D
:101190008F939F93AF93BF93EF93FF9380914902F7
:1011A00090914A02892B29F0E0914902F0914A027C
:1011B0000995FF91EF91BF91AF919F918F917F9191
:1011C0006F915F914F913F912F910F900BBE0F90B8
:1011D0000FBE0F901F9018951F920F920FB60F928F
:1011E0000BB60F9211242F933F934F935F936F93FE
:1011F0007F938F939F93AF93BF93EF93FF938091D0
:101200004F0290915002892B29F0E0914F02F0910A
:1012100050020995FF91EF91BF91AF919F918F91EE
:101220007F916F915F914F913F912F910F900BBEE6
:101230000F900FBE0F901F9018951F920F920FB630
:101240000F920BB60F9211242F933F934F935F93FE
:101250006F937F938F939F93AF93BF93EF93FF937E
:1012600080913B0290913C02892B29F0E0913B0256
:10127000F0913C020995FF91EF91BF91AF919F9141
:101280008F917F916F915F914F913F912F910F902F
:101290000BBE0F900FBE0F901F9018951F920F92CC
:1012A0000FB60F920BB60F9211242F933F934F93CB
:1012B0005F936F937F938F939F93AF93BF93EF93BE
:1012C000FF938091410290914202892B29F0E09195
:1012D0004102F09142020995FF91EF91BF91AF91C8
:1012E0009F918F917F916F915F914F913F912F913E
:1012F0000F900BBE0F900FBE0F901F9018951F926E
:101300000F920FB60F920BB60F9211242F933F93AB
:101310004F935F936F937F938F939F93AF93BF93FD
:10132000EF93FF938091430290914402892B29F01F
:10133000E0914302F09144020995FF91EF91BF9132
:10134000AF919F918F917F916F915F914F913F915D
:101350002F910F900BBE0F900FBE0F901F901895FE
:101360001F920F920FB60F920BB60F9211242F936C
:101370003F934F935F936F937F938F939F93AF931D
:10138000BF93EF93FF938091450290914602892B82
:1013900029F0E0914502F09146020995FF91EF9105
:1013A000BF91AF919F918F917F916F915F914F917D
:1013B0003F912F910F900BBE0F900FBE0F901F907B
:1013C00018951F920F920FB60F920BB60F92112421
:1013D0002F933F934F935F936F937F938F939F933D
:1013E000AF93BF93EF93FF93809147029091480290
:1013F000892B29F0E0914702F09148020995FF916D
:10140000EF91BF91AF919F918F917F916F915F917C
:101410004F913F912F910F900BBE0F900FBE0F90E9
:101420001F9018951F920F920FB60F920BB60F9246
:1014300011242F933F934F935F936F937F938F93D9
:101440009F93AF93BF93EF93FF9380914B02909143
:101450004C02892B29F0E0914B02F0914C02099546
:10146000FF91EF91BF91AF919F918F917F916F917C
:101470005F914F913F912F910F900BBE0F900FBE38
:101480000F901F9018951F920F920FB60F920BB6E8
:101490000F9211242F933F934F935F936F937F93FA
:1014A0008F939F93AF93BF93EF93FF9380915102DC
:1014B00090915202892B29F0E0915102F091520251
:1014C0000995FF91EF91BF91AF919F918F917F917E
:1014D0006F915F914F913F912F910F900BBE0F90A5
:1014E0000FBE0F901F9018951F920F920FB60F927C
:1014F0000BB60F9211242F933F934F935F936F93EB
:101500007F938F939F93AF93BF93EF93FF938091BC
:10151000530290915402892B29F0E0915302F091EB
:1015200054020995FF91EF91BF91AF919F918F91D7
:101530007F916F915F914F913F912F910F900BBED3
:101540000F900FBE0F901F9018951F920F920FB61D
:101550000F920BB60F9211242F933F934F935F93EB
:101560006F937F938F939F93AF93BF93EF93FF936B
:101570008091550290915602892B29F0E0915502F5
:10158000F09156020995FF91EF91BF91AF919F9114
:101590008F917F916F915F914F913F912F910F901C
:1015A0000BBE0F900FBE0F901F9018951F920F92B9
:1015B0000FB60F920BB60F9211242F933F934F93B8
:1015C0005F936F937F938F939F93AF93BF93EF93AB
:1015D000FF938091570290915802892B29F0E09156
:1015E0005702F09158020995FF91EF91BF91AF9189
:1015F0009F918F917F916F915F914F913F912F912B
:101600000F900BBE0F900FBE0F901F90189583E0A8
:1016100061E00E948E0684E061E00E948E0678946C
:101620000E9484050E943605FDCFDC01ED91FC91FE
:101630000190F081E02D099508950E94150B089501
:101640000F931F93CF93DF938C01EB0104C021967E
:10165000C8010E941D0B68816623C9F7DF91CF91F5
:101660001F910F9108952F923F924F925F926F9228
:101670007F928F929F92AF92BF92CF92DF92EF9222
:10168000FF920F931F93DF93CF93CDB7DEB7A09751
:101690000FB6F894DEBF0FBECDBF1C016A017B01FF
:1016A000411551056105710521F460E30E941D0B90
:1016B0004FC0882499245401422E5524662477244F
:1016C00001E010E00C0F1D1F080D191DC701B60128
:1016D000A30192010E94DB0DF80160830894811C34
:1016E000911CA11CB11CC701B601A30192010E946B
:1016F000DB0DC901DA016C017D01C114D104E104E3
:10170000F104F1F681E0E82EF12CEC0EFD1EE80C60
:10171000F91C3E010894611C711CD501C40101979C
:10172000A109B1096C01C818D9080FC0F601EE0D66
:10173000FF1D60816A3010F4605D01C0695CC10109
:101740000E941D0B0894E108F1086E147F0471F7E4
:10175000A0960FB6F894DEBF0FBECDBFCF91DF913C
:101760001F910F91FF90EF90DF90CF90BF90AF90BF
:101770009F908F907F906F905F904F903F902F90B1
:101780000895EF92FF920F931F93CF93DF93EC0195
:101790007A018B0177FF0BC06DE20E941D0B109543
:1017A0000095F094E094E11CF11C011D111DCE0187
:1017B000B801A7012AE00E94330BDF91CF911F915E
:1017C0000F91FF90EF900895AB01662757FD60954C
:1017D000762F0E94C10B08955058BB27AA270ED020
:1017E0004DC13ED130F043D120F031F49F3F11F490
:1017F0001EF433C10EF4E095E7FB29C1E92F4FD168
:1018000080F3BA17620773078407950718F071F41D
:101810009EF567C10EF4E0950B2EBA2FA02D0B019B
:10182000B90190010C01CA01A0011124FF27591B25
:1018300099F0593F50F4503E68F11A16F040A22F2B
:10184000232F342F4427585FF3CF4695379527959C
:10185000A795F0405395C9F77EF41F16BA0B620B9B
:10186000730B840BBAF09150A1F0FF0FBB1F661FE2
:10187000771F881FC2F70EC0BA0F621F731F841F25
:1018800048F4879577956795B795F7959E3F08F04B
:10189000B3CF9395880F08F09927EE0F979587950A
:1018A00008950CD0EBC0E3D040F0DAD030F021F452
:1018B0005F3F19F0CCC0511115C1CFC0F0D098F3E3
:1018C0009923C9F35523B1F3951B550BBB27AA27C1
:1018D00062177307840738F09F5F5F4F220F331F33
:1018E000441FAA1FA9F333D00E2E3AF0E0E830D0FF
:1018F00091505040E695001CCAF729D0FE2F27D002
:10190000660F771F881FBB1F261737074807AB07CF
:10191000B0E809F0BB0B802DBF01FF2793585F4F44
:101920002AF09E3F510568F092C0DCC05F3FECF3A7
:10193000983EDCF3869577956795B795F7959F5F09
:10194000C9F7880F911D9695879597F90895E1E05D
:10195000660F771F881FBB1F621773078407BA07BC
:1019600020F0621B730B840BBA0BEE1F88F7E09517
:10197000089504D06894B111B5C0089598D088F046
:101980009F5790F0B92F9927B751A0F0D1F0660F6B
:10199000771F881F991F1AF0BA95C9F712C0B13086
:1019A00081F09FD0B1E008959CC0672F782F8827E1
:1019B000B85F39F0B93FCCF3869577956795B395C5
:1019C000D9F73EF490958095709561957F4F8F4F34
:1019D0009F4F0895E89409C097FB3EF49095809539
:1019E000709561957F4F8F4F9F4F9923A9F0F92FE5
:1019F00096E9BB279395F695879577956795B79563
:101A0000F111F8CFFAF4BB0F11F460FF1BC06F5F48
:101A10007F4F8F4F9F4F16C0882311F096E911C05A
:101A2000772321F09EE8872F762F05C0662371F07B
:101A300096E8862F70E060E02AF09A95660F771F8F
:101A4000881FDAF7880F9695879597F9089597F983
:101A50009F6780E870E060E008959FEF80EC089554
:101A600000240A941616170618060906089500247D
:101A70000A9412161306140605060895092E0394F7
:101A8000000C11F4882352F0BB0F40F4BF2B11F46B
:101A900060FF04C06F5F7F4F8F4F9F4F089557FDCA
:101AA0009058440F551F59F05F3F71F04795880FCC
:101AB00097FB991F61F09F3F79F087950895121663
:101AC00013061406551FF2CF4695F1DF08C016160F
:101AD00017061806991FF1CF8695710561050894C0
:101AE0000895E894BB2766277727CB0197F90895D7
:101AF0000BD0C4CFB5DF28F0BADF18F0952309F07A
:101B0000A6CFABCF1124EECFCADFA0F3959FD1F3C0
:101B1000950F50E0551F629FF001729FBB27F00D9B
:101B2000B11D639FAA27F00DB11DAA1F649F6627F0
:101B3000B00DA11D661F829F2227B00DA11D621F3F
:101B4000739FB00DA11D621F839FA00D611D221FF9
:101B5000749F3327A00D611D231F849F600D211DDD
:101B6000822F762F6A2F11249F5750408AF0E1F080
:101B700088234AF0EE0FFF1FBB1F661F771F881FC9
:101B800091505040A9F79E3F510570F060CFAACF09
:101B90005F3FECF3983EDCF3869577956795B795B4
:101BA000F795E7959F5FC1F7FE2B880F911D9695DE
:101BB000879597F90895A1E21A2EAA1BBB1BFD0178
:101BC0000DC0AA1FBB1FEE1FFF1FA217B307E4071C
:101BD000F50720F0A21BB30BE40BF50B661F771F74
:101BE000881F991F1A9469F7609570958095909554
:101BF0009B01AC01BD01CF010895EE0FFF1F0590C1
:0A1C0000F491E02D0994F894FFCF51
:101C0A00536572766F6D6F746F7220436E74726C67
:101C1A0000FF320035003B003800230062006500F7
:101C2A00310034003A0037002200610064003000BD
:101C3A0033003900360021002000630001FF18003C
:101C4A00190026002700050004000100000000001A
:101C5A0000002A02000000009204E50247042C0456
:101C6A0061040102040810204080201008804020EE
:00000001FF
