:100000000C9448000C947C000C947C000C947C00B4
:100010000C947C000C947C000C947C000C947C0070
:100020000C947C000C944A0F0C94F30D0C94190F53
:100030000C94860E0C94B70E0C94C20D0C94550EB5
:100040000C94CA0A0C947C000C94D6000C946501A4
:100050000C947C000C947C000C947C000C947C0030
:100060000C94E80E0C940E100C947B0F0C94AC0FB7
:100070000C94DD0F0C94240E0C94A7000C941E011C
:100080000C947C000C947C000C947C008D02690420
:1000900011241FBECFEFD0E1DEBFCDBF88E483BF08
:1000A00084E00E94380C12BE87B7816087BF7894C5
:1000B00012E0A0E0B1E0E2EFF6E200E00BBF02C028
:1000C00007900D92A632B107D9F713E0A6E2B2E08D
:1000D00001C01D92A732B107E1F710E0C0E9D0E0FE
:1000E00004C02297FE010E945E13CC38D107C9F7E5
:1000F0000E943F100C9477130C940000FC012481A3
:100100003581C9010895DC01FC01828193818097CA
:1001100014F080E00895FD0182819381019693831C
:10012000828384819581E80FF91F60870196FD0124
:10013000958384832D913C9111978217930714F432
:1001400081E00895FD011582148281E008951F92D7
:100150000F920FB60F920BB60F9211242F933F936D
:100160004F935F936F937F938F939F93AF93BF93BF
:10017000EF93FF93E091BC02F091BD02608184E7B0
:1001800092E00E948300FF91EF91BF91AF919F9108
:100190008F917F916F915F914F913F912F910F9030
:1001A0000BBE0F900FBE0F901F9018951F920F92CD
:1001B0000FB60F920BB60F9211242F933F934F93CC
:1001C0005F936F937F938F939F93AF93BF93EF93BF
:1001D000FF93E0917002F0917102608188E292E0F9
:1001E0000E948300FF91EF91BF91AF919F918F91FA
:1001F0007F916F915F914F913F912F910F900BBE27
:100200000F900FBE0F901F901895DC01FC018281AA
:10021000938101979383828386819781E80FF91FE9
:1002200040850196FD01978386832D913C9182172D
:10023000930714F017821682842F08951F920F924D
:100240000FB60F920BB60F9211240F931F932F939B
:100250003F934F935F936F937F938F939F93AF934E
:10026000BF93EF93FF9380919E0290919F02181687
:10027000190654F40091BC021091BD028CE992E081
:100280000E940501F801808380919E0290919F0257
:10029000892B31F4E091BA02F091BB0288E98083A6
:1002A000FF91EF91BF91AF919F918F917F916F914E
:1002B0005F914F913F912F911F910F910F900BBE26
:1002C0000F900FBE0F901F9018951F920F920FB6B0
:1002D0000F920BB60F9211240F931F932F933F93FE
:1002E0004F935F936F937F938F939F93AF93BF933E
:1002F000EF93FF93809152029091530218161906C2
:1003000054F4009170021091710280E592E00E9415
:100310000501F80180838091520290915302892B4C
:1003200031F4E0916E02F0916F0288E98083FF91D1
:10033000EF91BF91AF919F918F917F916F915F915D
:100340004F913F912F911F910F910F900BBE0F90E6
:100350000FBE0F901F901895DC01FC0182819381E4
:1003600001979383828386819781E80FF91F4085E7
:100370000196FD01978386832D913C918217930707
:1003800014F017821682842F0895FC0184819581D0
:10039000892B19F42FEF3FEF06C0CF0102960E9480
:1003A000AC01282F30E0C9010895CF93DF93EC0111
:1003B000EE81FF81E80FF91F8085DF91CF910895CD
:1003C000FC0184819581892B19F42FEF3FEF06C042
:1003D000CF0102960E94D501282F30E0C90108956F
:1003E000FC01138212828281938197838683958395
:1003F0008483089502960E94F0010895FC0180E232
:1004000090E091838083CF010E94F0010895DC0188
:10041000FC0182819381409714F080E00895FD01F2
:100420008281938101969383828384819581E80FF1
:10043000F91F60870196FD01958384832D913C917E
:1004400011978217930714F481E00895FD01158236
:10045000148281E00895CF93DF93EC018CA59DA5D4
:100460004097E4F7F894CE018A960E940702C85B91
:10047000DF4FE881F9818081806280837894DF9109
:10048000CF910895FC011382128282819381978318
:100490008683958384830895FC0180E190E09183B5
:1004A0008083CF010E94420208956F927F928F92C3
:1004B0009F92AF92BF92CF92DF92EF92FF920F93F3
:1004C0001F936C015B014A013901FC0187EF91E048
:1004D00081939193CF010E94FE01C6018A960E94EA
:1004E0004C0282E490E0C80ED91EF601A192B192AE
:1004F000819291926192719201931193F182E082C3
:100500001F910F91FF90EF90DF90CF90BF90AF9031
:100510009F908F907F906F900895EF92FF920F932E
:100520001F9386E292E060E970E049E250E02BE23E
:1005300030E00AE210E0FCE2EF2EF12C0E945502BE
:1005400082E792E068E970E049E950E02BE930E0A9
:100550000AE910E0ECE9EE2EF12C0E9455021F9101
:100560000F91FF90EF90089585E060E070E00E94A9
:100570000B0D84E060E070E00E940B0D81E060E014
:1005800070E00E940B0D80E060E070E00E940B0DB7
:1005900008950F931F93CF93DF93EB018A01CC0F44
:1005A000DD1F57FD0CC0FE01EF5FFD4F808161E054
:1005B0000E94AE0BC75FDD4F8881B8010EC0FE01FF
:1005C000EF5FFD4F808160E00E94AE0BC75FDD4FA3
:1005D00066277727601B710B88810E940B0DDF91C6
:1005E000CF911F910F9108951F93CF93DF93C0E098
:1005F000D0E0FE01EF5FFD4F1081812F61E00E948E
:10060000650B812F61E00E94AE0BFE01E75FFD4F9D
:10061000808160E070E00E940B0D2296C830D10509
:1006200041F7DF91CF911F910895FC0110828AE07C
:1006300090E0938382830895CF93DF93EC018A81C6
:1006400060E00E94AE0B8D8160E00E94DE0B8D8128
:1006500060E00E94000C8B8161E00E94AE0B8C81F7
:1006600061E00E94AE0B0000000010C08C8160E0D1
:100670000E94AE0B00000000000000008C8161E0D1
:100680000E94AE0B00000000000000008D810E945F
:10069000F50B87FDEBCF8C8160E00E94AE0BDF9104
:1006A000CF910895FF920F931F938C01F62E0E9415
:1006B0001C03F801828161E00E94AE0BF801838186
:1006C00060E00E94AE0BF801848161E00E94AE0BF5
:1006D000F801858161E00E94DE0BF80185816F2DB4
:1006E0000E94000C0000000000000000F80184815E
:1006F00060E00E94AE0BF801858160E00E94DE0B95
:10070000F80185816FEF0E94000C1F910F91FF90FF
:100710000895EF92FF920F931F93CF93DF937C0185
:10072000042F6115710551F0EB0110E005C0C70100
:1007300069910E9452031F5F1017C8F3DF91CF9198
:100740001F910F91FF90EF900895DF93CF930F9239
:10075000CDB7DEB76983BE016F5F7F4F41E00E9476
:1007600089030F90CF91DF910895FF920F931F930C
:100770008C01F62E0E941C03F801828160E00E9429
:10078000AE0BF801838160E00E94AE0BF80184811A
:1007900061E00E94AE0BF801858161E00E94DE0BF2
:1007A000F80185816F2D0E94000C00000000000000
:1007B0000000F801848160E00E94AE0BF8018581A1
:1007C00060E00E94DE0BF80185816FEF0E94000C53
:1007D0001F910F91FF900895423031F0433031F076
:1007E000413029F4605C03C06C5E01C06C5A6068E3
:1007F0000E94B503089562E00E94B503089561E088
:100800000E94B50308950F931F938C01FC01828110
:1008100060E00E94AE0BF801838160E00E94AE0BA5
:10082000F801848160E00E94AE0BF801828161E0F2
:100830000E94650BF801838161E00E94650BF8015D
:10084000848161E00E94650BF801858160E00E946F
:10085000DE0BF80185816FEF0E94000C1F910F9154
:1008600008950F931F938C010E940304C80168E34D
:100870000E94B503C80161E00E94B503C80166E0AB
:100880000E94B503C8016CE00E94B503C80162E094
:100890000E94B503C80160E80E94B5031F910F9143
:1008A00008950F93FC0185E192E091838083628338
:1008B000438324830583CF010E9431040F9108955F
:1008C000CB01642F0E946A130895CB010E9462132A
:1008D00008950F938FEB92E06AE14BE12CE102E087
:1008E0000E94510485EC92E00E94F40287EC92E0B1
:1008F0000E9415038BEC92E00E9415038FEC92E0AE
:100900000E9415030F910895EF92FF920F931F938A
:100910007C010FEB12E0C80160E041E00E94EC03B3
:10092000C801B7010E9458101F910F91FF90EF90DE
:100930000895EF92FF920F931F937C010FEB12E04B
:10094000C80160E040E00E94EC03C801B7010E94CA
:1009500058101F910F91FF90EF900895EF92FF9222
:100960000F931F937C010FEB12E0C80160E041E0A0
:100970000E94EC03C80160E071E00E945810C801B9
:10098000B7010E941C111F910F91FF90EF900895E5
:1009900081E30E94950B882311F080E008956CE2BA
:1009A00071E080E090E00E943F0B81E008950E949A
:1009B000C8048823E1F308950E94C8048823E1F362
:1009C000089582E30E94950B882311F080E008953A
:1009D0006CE271E080E090E00E943F0B81E00895BE
:1009E0000F931F930FEB12E0C8010E94FF03C80191
:1009F0000E94FB031F910F910895EF92FF920F93B6
:100A00001F937C010E94F0040FEB12E0C80160E02C
:100A100040E00E94EC03C801B7010E945810C801D1
:100A200060E041E00E94EC03C80168E071E00E94D0
:100A300058106091D3027091D402C8010E941C1119
:100A4000C8016BE071E00E9458106091D50270916E
:100A5000D602C8010E941C111F910F91FF90EF90C8
:100A6000089514C00E94F0048FEB92E060E040E033
:100A70000E94EC038FEB92E06FE071E00E9458104F
:100A800068EC70E080E090E00E943F0B0E94C80498
:100A9000882341F30895CF93DF93EC0187E00E9410
:100AA000140C2197C89FB001C99F700DD89F700D7D
:100AB00011242196882777FD8095982F0E94241273
:100AC0002DEC3CEC4CE85FE30E94B01220E030E0FB
:100AD00040E85AE30E94B01220E030E040E85FE3D3
:100AE0000E9425110E94F1119B01C617D7070CF433
:100AF0009E01C901DF91CF910895A0C080E00E94BE
:100B0000140C9C01220F331F220F331F820F931FDF
:100B100060E074E00E9413137093F6026093F50294
:100B200081E00E94140C9C01220F331F220F331FFF
:100B3000820F931F60E074E00E9413137093F80219
:100B40006093F70282E00E94140C9C01220F331F75
:100B5000220F331F820F931F60E074E00E94131373
:100B60007093FA026093F90283E00E94140C9C01D6
:100B7000220F331F220F331F820F931F60E074E098
:100B80000E9413137093FC026093FB020E94F00416
:100B90008FEB92E060E040E00E94EC038FEB92E08C
:100BA0006BE171E00E9458108FEB92E06EE171E012
:100BB0000E9458106091F7027091F8028FEB92E05A
:100BC0000E941C118FEB92E062E271E00E945810CB
:100BD0006091F5027091F6028FEB92E00E941C1179
:100BE0008FEB92E060E041E00E94EC038FEB92E03B
:100BF00066E271E00E9458108FEB92E06EE171E0C6
:100C00000E9458106091FB027091FC028FEB92E001
:100C10000E941C118FEB92E062E271E00E9458107A
:100C20006091F9027091FA028FEB92E00E941C1120
:100C300068EC70E080E090E00E943F0B0E94C804E6
:100C4000882309F45BCF089538C00E94F00489E23C
:100C500091E00E94990483E090E00E944B0582306D
:100C6000910581F083309105C1F0019701F585E38D
:100C700091E00E9484040E94E1048823C1F00E9454
:100C8000DC0415C080E491E00E9484040E94E10429
:100C9000882369F00E94D7040AC089E491E00E9489
:100CA00084040E94E104882311F00E947D0568EC11
:100CB00070E080E090E00E943F0B0E94C80488230F
:100CC00021F20895EF92FF920F931F9332C080E0BC
:100CD0000E94140C8C0181E00E94140C7C010E9483
:100CE000F0048FEB92E060E040E00E94EC038FEBB9
:100CF00092E067E571E00E9458108FEB92E0B80136
:100D00000E941C118FEB92E060E041E00E94EC0336
:100D10008FEB92E06AE571E00E9458108FEB92E051
:100D2000B7010E941C1168EC70E080E090E00E9426
:100D30003F0B0E94C804882351F21F910F91FF902E
:100D4000EF9008950F931F93CF93DF9301E01CEF73
:100D5000CFEFD3E07EC086E00E94140C8F5F9140FD
:100D6000880F991F9093D8028093D70287E00E9442
:100D7000140C8F5F9140880F991F9093DA02809333
:100D8000D9022091D7023091D80244E020303407B4
:100D90002CF0D093D802C093D70207C021503C4F0B
:100DA00024F41093D8020093D70224E080309207F5
:100DB0002CF0D093DA02C093D90207C081509C4F27
:100DC00024F41093DA020093D9024091D702509193
:100DD000D80285EC92E063E070E00E94C902409185
:100DE000D9025091DA0285EC92E062E070E00E9454
:100DF000C9020E94F0048FEB92E060E040E00E94A4
:100E0000EC038FEB92E06DE571E00E945810609169
:100E1000D7027091D8028FEB92E00E941C118FEBE9
:100E200092E060E041E00E94EC038FEB92E062E62A
:100E300071E00E9458106091D9027091DA028FEB34
:100E400092E00E941C1162E370E080E090E00E945A
:100E50003F0B0E94C804882309F47DCF85EC92E003
:100E60000E94B402DF91CF911F910F9108952F92AC
:100E70003F924F925F926F927F928F929F92AF922A
:100E8000BF92CF92DF92EF92FF920F931F93CF9377
:100E9000DF93BBEF4B2EBFEF5B2E22242A94322C24
:100EA000A1E06A2E712C33C180E00E94140C4C0129
:100EB00081E00E94140C5C018091F3029091F40295
:100EC0008815990524F48A159B0564F42DC08816AD
:100ED000990674F58A159B056CF43092DC02209219
:100EE000DB0226C0A816B9061CF57092DC026092DF
:100EF000DB021EC0A816B906DCF48091DB029091DB
:100F0000DC0297FF05C05092DC024092DB0210C069
:100F1000181619063CF485E090E09093DC0280936B
:100F2000DB0206C0892B21F41092DC021092DB0256
:100F3000C091DB02D091DC028091DF029091E0024F
:100F4000C817D90781F09093DE028093DD0280916B
:100F5000E3029091E4029093E2028093E1027092A6
:100F6000E4026092E3028091ED029091EE02C89F4C
:100F70006001C99FD00CD89FD00C1124D092E802F8
:100F8000C092E7026091EF027091F002882777FD2E
:100F90008095982F0E9424127B018C018091DD02A4
:100FA0009091DE02C81BD90BBE01882777FD809582
:100FB000982F0E9424129B01AC01C801B7010E9426
:100FC000B0127B018C016091E1027091E2022091EC
:100FD000E3023091E402620F731F882777FD80954A
:100FE000982F0E9424129B01AC01C801B7010E94F6
:100FF00089110E94F1119B017093EA026093E9024A
:101000002C0D3D1D3093EC022093EB024091F10238
:101010005091F202421B530B85EC92E063E070E0CA
:101020000E94C9024091EB025091EC028091F102C2
:101030009091F202480F591F85EC92E062E070E057
:101040000E94C9028091E5029091E602C29709F0E0
:1010500044C08FEB92E00E94FF038FEB92E00E946E
:10106000FB038FEB92E067E671E00E9458108FEB74
:1010700092E0B4010E941C118FEB92E06BE671E0EC
:101080000E9458108FEB92E0B5010E941C118FEB6B
:1010900092E060E041E00E94EC038FEB92E060E7B9
:1010A00071E00E9458106091ED027091EE028FEB9A
:1010B00092E00E941C118FEB92E064E771E00E94C5
:1010C00058106091EF027091F0028FEB92E00E9455
:1010D0001C111092E6021092E5028091E5029091B7
:1010E000E60201969093E6028093E5028091E30286
:1010F0009091E40201969093E4028093E302809140
:10110000DB029091DC029093E0028093DF020E9468
:10111000C804882309F4C8CE85EC92E00E94B4028A
:10112000DF91CF911F910F91FF90EF90DF90CF90C3
:10113000BF90AF909F908F907F906F905F904F90F7
:101140003F902F9008954AC10E94F00489E791E0F2
:101150000E94990484E090E00E944B058230910542
:1011600009F459C08330910524F4019709F030C186
:1011700008C08330910509F498C0049709F028C18C
:10118000DEC08091ED029091EE029093D4028093A4
:10119000D3028FEB92E064E871E00E9458108091D6
:1011A000ED029091EE020E94AE040E94E1048823B9
:1011B00069F50EC187E00E94140C9093D6028093CB
:1011C000D50284E891E00E94FD040E94E104882396
:1011D000B9F08091D5029091D6029093D402809379
:1011E000D3029093EE028093ED0264E070E00E94DF
:1011F0001313462F8EEB92E061E070E00E946004D2
:1012000068EC70E080E090E00E943F0B0E94C80410
:10121000882381F2DDC08091EF029091F0029093DB
:10122000D4028093D3028FEB92E068E871E00E94D1
:1012300058108091EF029091F0020E94AE040E943B
:10124000E104882369F5C4C087E00E94140C9093E0
:10125000D6028093D50288E891E00E94FD040E94A6
:10126000E1048823B9F08091D5029091D602909341
:10127000D4028093D3029093F0028093EF0264E053
:1012800070E00E941313462F8EEB92E062E070E054
:101290000E94600468EC70E080E090E00E943F0BE8
:1012A0000E94C804882381F293C08091F10290913A
:1012B000F2029093D4028093D3028FEB92E06CE819
:1012C00071E00E9458108091F1029091F2020E9408
:1012D000AE040E94E104882369F57AC087E00E9489
:1012E000140C9093D6028093D5028CE891E00E9472
:1012F000FD040E94E1048823B9F08091D502909109
:10130000D6029093D4028093D3029093F2028093FA
:10131000F10264E070E00E941313462F8EEB92E01E
:1013200063E070E00E94600468EC70E080E090E0B0
:101330000E943F0B0E94C804882381F249C080911B
:10134000F3029091F4029093D4028093D3028FEB36
:1013500092E062E971E00E9458108091F30290914E
:10136000F4020E94AE040E94E104882369F530C0B3
:1013700087E00E94140C9093D6028093D50282E9F4
:1013800091E00E94FD040E94E1048823B9F080915D
:10139000D5029091D6029093D4028093D302909379
:1013A000F4028093F30264E070E00E941313462F6E
:1013B0008EEB92E064E070E00E94600468EC70E004
:1013C00080E090E00E943F0B0E94C804882381F2D5
:1013D00068EC70E080E090E00E943F0B0E94C8043F
:1013E000882309F4B1CE089538C00E94F00489E240
:1013F00091E00E94990483E090E00E944B058230C6
:10140000910581F083309105C1F0019701F585E3E5
:1014100091E00E9484040E94E1048823C1F00E94AC
:10142000A30815C080E491E00E9484040E94E104B6
:10143000882369F00E9437070AC089E491E00E947E
:1014400084040E94E104882311F00E94620668EC83
:1014500070E080E090E00E943F0B0E94C804882367
:1014600021F208950E94F00489E991E00E94990414
:1014700085E090E00E944B058330910529F184308E
:10148000910534F48130910549F00297A9F511C016
:1014900084309105E1F0059779F524C089E291E067
:1014A0000E9484040E94E104882331F10E94F4091F
:1014B00023C082EA91E00E9484040E94E104882310
:1014C000D9F00E94240618C08CEA91E00DC089EB87
:1014D00091E00E9484040E94E104882369F00E9444
:1014E000A2060AC08FEB91E00E9484040E94E104EE
:1014F000882311F00E94310568EC70E080E090E0F4
:101500000E943F0B08950F931F9380E060E00E94BC
:10151000DE0B81E060E00E94DE0B0EEB12E0C80102
:1015200061E070E00E94650490E0880F991F880FC9
:10153000991F9093EE028093ED02C80162E070E083
:101540000E94650490E0880F991F880F991F90935F
:10155000F0028093EF02C80163E070E00E9465042E
:1015600090E0880F991F880F991F9093F202809343
:10157000F102C80164E070E00E94650490E0880F09
:10158000991F880F991F9093F4028093F3021F9183
:101590000F9108951F920F920FB60F9211242F935F
:1015A0003F938F939F93AF93BF938091010390914B
:1015B0000203A0910303B091040330910503019647
:1015C000A11DB11D232F2D5F2D3720F02D57019622
:1015D000A11DB11D20930503809301039093020385
:1015E000A0930303B09304038091FD029091FE0247
:1015F000A091FF02B09100030196A11DB11D80933F
:10160000FD029093FE02A093FF02B0930003BF91EE
:10161000AF919F918F913F912F910F900FBE0F909F
:101620001F9018956FB7F8942091FD023091FE023B
:101630004091FF025091000382B790E0A0E0B0E03B
:1016400006B600FE09C08F3F9105A105B10521F046
:101650002F5F3F4F4F4F5F4F6FBF542F432F322F9E
:101660002227280F391F4A1F5B1F82E0220F331FDA
:10167000441F551F8A95D1F7B901CA010895EF9209
:10168000FF920F931F93CF93DF937B018C010E94F6
:10169000120BEB010EC00E94120B6C1B7D0B685EDF
:1016A0007340C8F30894E108F10801091109C85111
:1016B000DC4FE114F1040105110569F7DF91CF91C9
:1016C0001F910F91FF90EF900895E82FE695E69512
:1016D000E695A82FB0E0613099F42FB7F894F0E0C8
:1016E000EE0FFF1FEB52FE4F0190F081E02D908135
:1016F000A770B070A95EBD4F8C91982B908313C0DA
:101700002FB7F894F0E0EE0FFF1FEB52FE4F019061
:10171000F081E02D9081A770B070A95EBD4F8C91D3
:101720008095892380832FBF0895A82FE82FE69501
:10173000E695E695F0E0EE0FFF1FED51FE4F0190AC
:10174000F081E02DE081B0E0A770B070A95EBD4FE0
:101750008C91E82309F0E1E08E2F0895E82FE695BB
:10176000E695E695A82FB0E0613099F42FB7F8948C
:10177000F0E0EE0FFF1FE953FE4F0190F081E02DE6
:101780009081A770B070A95EBD4F8C91982B90830B
:1017900013C02FB7F894F0E0EE0FFF1FE953FE4F90
:1017A0000190F081E02D9081A770B070A95EBD4FCF
:1017B0008C918095892380832FBF0895E82FF0E0D6
:1017C000613051F4EE0FFF1FEB52FE4F0190F0819C
:1017D000E02D8FEF80830895EE0FFF1FEB52FE4F39
:1017E0000190F081E02D10820895E82FF0E0EE0FD7
:1017F000FF1FED51FE4F0190F081E02D8081089593
:10180000E82FF0E0EE0FFF1FE953FE4F0190F0814B
:10181000E02D60830895109261001092620080E4D0
:1018200087B987EE86B908951F93182F8091F1012B
:10183000813021F40E940B0C1092F1018091F20191
:10184000181721F4349A349BFECF0DC01093F20187
:1018500087B11770807E812B87B9349A349BFECF75
:10186000349A349BFECF24B135B1C9011F9108953C
:1018700093B7987F982B93BF08959EB5987F982B28
:101880009EBD089583E00E943D0C1DBC1CBC87B723
:10189000846087BF0895EAE8F0E09081987F982BF4
:1018A0009083089583E00E944B0C1092890010925F
:1018B0008800EDE7F0E080818460808308958930BE
:1018C00031F48FB582608FBD8FB58E7F0AC08A30AC
:1018D00019F48FB5826002C08FB58D7F8FBD8FB533
:1018E00081608FBD1BBC1ABC19BC18BC109279005A
:1018F0001092780008958FB580688FBD8FB58F7B6B
:101900008FBD08958FB580628FBD8FB58F7E8FBDDF
:1019100008958FB588608FBD8FB58B7F8FBD08957B
:101920009BBD8ABD089599BD88BD089590937900A7
:10193000809378000895893049F480918B0082600B
:1019400080938B0080918B008E7F0EC08A3021F4B3
:1019500080918B00826003C080918B008D7F80938B
:101960008B0080918B00816080938B0010928700A8
:1019700010928600109285001092840010928300CD
:10198000109282000895EBE8F0E080818068808307
:1019900080818F7B80830895EBE8F0E08081806216
:1019A000808380818F7E80830895EBE8F0E08081E2
:1019B0008860808380818B7F80830895853019F4CF
:1019C0000E947B0C0895843019F40E94820C0895C3
:1019D000833019F40E94890C0895823019F40E9412
:1019E000C30C0895813019F40E94CC0C089588230B
:1019F00011F40E94D50C089590938700809386007F
:101A000008959093850080938400089590938300B7
:101A1000809382000895EF92FF921F93CF93DF93FC
:101A2000182F7B018D31B0F08F3111F413E014C009
:101A30008E3111F414E010C08D3109F49BC0853251
:101A400011F410E03DC0843211F411E039C083324A
:101A500019F48EC08330A0F18091060386FD0BC07F
:101A60000E94420C78948AE00E945F0C80910603E9
:101A700080648093060380910603C12FD0E090E03C
:101A8000012E02C0959587950A94E2F780FD4CC01F
:101A900087B3FE01E15EFD4F9081892B87BB812FCB
:101AA0000E94DE0C2091060381E090E0012E02C02E
:101AB000880F991F0A94E2F7282B2093060334C05D
:101AC0008091060387FD0BC00E94520C78948AE037
:101AD0000E949B0C8091060380688093060380918E
:101AE0000603C12FD0E090E0012E02C095958795A6
:101AF0000A94E2F780FD24C082B1FE01E15EFD4F51
:101B00009081892B82B9812F0E94DE0C20910603DF
:101B100081E090E0012E02C0880F991F0A94E2F73D
:101B2000282B209306030CC0153021F4C7010E9416
:101B3000900C22C0143021F4C7010E94930C1CC0E9
:101B4000133021F4C7010E94960C16C0123021F404
:101B5000C7010E94FC0C10C0113021F4C7010E9483
:101B6000010D0AC0112341F4C7010E94060D04C0F3
:101B700012E0A6CF15E070CFDF91CF911F91FF90BB
:101B8000EF9008951F920F920FB60F920BB60F921F
:101B900011242F933F934F935F936F937F938F9372
:101BA0009F93AF93BF93EF93FF9380910D03909119
:101BB0000E03892B29F0E0910D03F0910E03099596
:101BC000FF91EF91BF91AF919F918F917F916F9115
:101BD0005F914F913F912F910F900BBE0F900FBED1
:101BE0000F901F9018951F920F920FB60F920BB681
:101BF0000F9211242F933F934F935F936F937F9393
:101C00008F939F93AF93BF93EF93FF9380911703AD
:101C100090911803892B29F0E0911703F091180394
:101C20000995FF91EF91BF91AF919F918F917F9116
:101C30006F915F914F913F912F910F900BBE0F903D
:101C40000FBE0F901F9018951F920F920FB60F9214
:101C50000BB60F9211242F933F934F935F936F9383
:101C60007F938F939F93AF93BF93EF93FF93809155
:101C70001D0390911E03892B29F0E0911D03F09123
:101C80001E030995FF91EF91BF91AF919F918F91A5
:101C90007F916F915F914F913F912F910F900BBE6C
:101CA0000F900FBE0F901F9018951F920F920FB6B6
:101CB0000F920BB60F9211242F933F934F935F9384
:101CC0006F937F938F939F93AF93BF93EF93FF9304
:101CD0008091090390910A03892B29F0E09109036F
:101CE000F0910A030995FF91EF91BF91AF919F91F8
:101CF0008F917F916F915F914F913F912F910F90B5
:101D00000BBE0F900FBE0F901F9018951F920F9251
:101D10000FB60F920BB60F9211242F933F934F9350
:101D20005F936F937F938F939F93AF93BF93EF9343
:101D3000FF9380910F0390911003892B29F0E0917C
:101D40000F03F09110030995FF91EF91BF91AF91AF
:101D50009F918F917F916F915F914F913F912F91C3
:101D60000F900BBE0F900FBE0F901F9018951F92F3
:101D70000F920FB60F920BB60F9211242F933F9331
:101D80004F935F936F937F938F939F93AF93BF9383
:101D9000EF93FF938091110390911203892B29F007
:101DA000E0911103F09112030995FF91EF91BF911A
:101DB000AF919F918F917F916F915F914F913F91E3
:101DC0002F910F900BBE0F900FBE0F901F90189584
:101DD0001F920F920FB60F920BB60F9211242F93F2
:101DE0003F934F935F936F937F938F939F93AF93A3
:101DF000BF93EF93FF938091130390911403892B6A
:101E000029F0E0911303F09114030995FF91EF91EC
:101E1000BF91AF919F918F917F916F915F914F9102
:101E20003F912F910F900BBE0F900FBE0F901F9000
:101E300018951F920F920FB60F920BB60F921124A6
:101E40002F933F934F935F936F937F938F939F93C2
:101E5000AF93BF93EF93FF93809115039091160377
:101E6000892B29F0E0911503F09116030995FF9154
:101E7000EF91BF91AF919F918F917F916F915F9102
:101E80004F913F912F910F900BBE0F900FBE0F906F
:101E90001F9018951F920F920FB60F920BB60F92CC
:101EA00011242F933F934F935F936F937F938F935F
:101EB0009F93AF93BF93EF93FF93809119039091FA
:101EC0001A03892B29F0E0911903F0911A0309955F
:101ED000FF91EF91BF91AF919F918F917F916F9102
:101EE0005F914F913F912F910F900BBE0F900FBEBE
:101EF0000F901F9018951F920F920FB60F920BB66E
:101F00000F9211242F933F934F935F936F937F937F
:101F10008F939F93AF93BF93EF93FF9380911F0392
:101F200090912003892B29F0E0911F03F091200369
:101F30000995FF91EF91BF91AF919F918F917F9103
:101F40006F915F914F913F912F910F900BBE0F902A
:101F50000FBE0F901F9018951F920F920FB60F9201
:101F60000BB60F9211242F933F934F935F936F9370
:101F70007F938F939F93AF93BF93EF93FF93809142
:101F8000210390912203892B29F0E0912103F09104
:101F900022030995FF91EF91BF91AF919F918F918E
:101FA0007F916F915F914F913F912F910F900BBE59
:101FB0000F900FBE0F901F9018951F920F920FB6A3
:101FC0000F920BB60F9211242F933F934F935F9371
:101FD0006F937F938F939F93AF93BF93EF93FF93F1
:101FE0008091230390912403892B29F0E09123030E
:101FF000F09124030995FF91EF91BF91AF919F91CB
:102000008F917F916F915F914F913F912F910F90A1
:102010000BBE0F900FBE0F901F9018951F920F923E
:102020000FB60F920BB60F9211242F933F934F933D
:102030005F936F937F938F939F93AF93BF93EF9330
:10204000FF938091250390912603892B29F0E0913D
:102050002503F09126030995FF91EF91BF91AF9170
:102060009F918F917F916F915F914F913F912F91B0
:102070000F900BBE0F900FBE0F901F90189583E02E
:1020800061E00E94DE0B84E061E00E94DE0B789448
:102090000E94830A0E94320AFDCFDC01ED91FC917F
:1020A0000190F081E02D099508950E944D1008954A
:1020B0000F931F93CF93DF938C01EB0104C0219604
:1020C000C8010E94551068816623C9F7DF91CF913E
:1020D0001F910F9108952F923F924F925F926F92AE
:1020E0007F928F929F92AF92BF92CF92DF92EF92A8
:1020F000FF920F931F93DF93CF93CDB7DEB7A097D7
:102100000FB6F894DEBF0FBECDBF1C016A017B0184
:10211000411551056105710521F460E30E945510D8
:102120004FC0882499245401422E552466247724D4
:1021300001E010E00C0F1D1F080D191DC701B601AD
:10214000A30192010E942613F80160830894811C68
:10215000911CA11CB11CC701B601A30192010E94F0
:102160002613C901DA016C017D01C114D104E10417
:10217000F104F1F681E0E82EF12CEC0EFD1EE80CE6
:10218000F91C3E010894611C711CD501C401019722
:10219000A109B1096C01C818D9080FC0F601EE0DEC
:1021A000FF1D60816A3010F4605D01C0695CC1018F
:1021B0000E9455100894E108F1086E147F0471F72D
:1021C000A0960FB6F894DEBF0FBECDBFCF91DF91C2
:1021D0001F910F91FF90EF90DF90CF90BF90AF9045
:1021E0009F908F907F906F905F904F903F902F9037
:1021F0000895EF92FF920F931F93CF93DF93EC011B
:102200007A018B0177FF0BC06DE20E94551010958B
:102210000095F094E094E11CF11C011D111DCE010C
:10222000B801A7012AE00E946B10DF91CF911F91A6
:102230000F91FF90EF900895AB01662757FD6095D1
:10224000762F0E94F91008955058BB27AA270ED068
:102250004DC13ED130F043D120F031F49F3F11F415
:102260001EF433C10EF4E095E7FB29C1E92F4FD1ED
:1022700080F3BA17620773078407950718F071F4A3
:102280009EF567C10EF4E0950B2EBA2FA02D0B0121
:10229000B90190010C01CA01A0011124FF27591BAB
:1022A00099F0593F50F4503E68F11A16F040A22FB1
:1022B000232F342F4427585FF3CF46953795279522
:1022C000A795F0405395C9F77EF41F16BA0B620B21
:1022D000730B840BBAF09150A1F0FF0FBB1F661F68
:1022E000771F881FC2F70EC0BA0F621F731F841FAB
:1022F00048F4879577956795B795F7959E3F08F0D1
:10230000B3CF9395880F08F09927EE0F979587958F
:1023100008950CD0EBC0E3D040F0DAD030F021F4D7
:102320005F3F19F0CCC0511115C1CFC0F0D098F368
:102330009923C9F35523B1F3951B550BBB27AA2746
:1023400062177307840738F09F5F5F4F220F331FB8
:10235000441FAA1FA9F333D00E2E3AF0E0E830D084
:1023600091505040E695001CCAF729D0FE2F27D087
:10237000660F771F881FBB1F261737074807AB0755
:10238000B0E809F0BB0B802DBF01FF2793585F4FCA
:102390002AF09E3F510568F092C0DCC05F3FECF32D
:1023A000983EDCF3869577956795B795F7959F5F8F
:1023B000C9F7880F911D9695879597F90895E1E0E3
:1023C000660F771F881FBB1F621773078407BA0742
:1023D00020F0621B730B840BBA0BEE1F88F7E0959D
:1023E000089504D06894B111B5C0089598D088F0CC
:1023F0009F5790F0B92F9927B751A0F0D1F0660FF1
:10240000771F881F991F1AF0BA95C9F712C0B1300B
:1024100081F09FD0B1E008959CC0672F782F882766
:10242000B85F39F0B93FCCF3869577956795B3954A
:10243000D9F73EF490958095709561957F4F8F4FB9
:102440009F4F0895E89409C097FB3EF490958095BE
:10245000709561957F4F8F4F9F4F9923A9F0F92F6A
:1024600096E9BB279395F695879577956795B795E8
:10247000F111F8CFFAF4BB0F11F460FF1BC06F5FCE
:102480007F4F8F4F9F4F16C0882311F096E911C0E0
:10249000772321F09EE8872F762F05C0662371F001
:1024A00096E8862F70E060E02AF09A95660F771F15
:1024B000881FDAF7880F9695879597F9089597F909
:1024C0009F6780E870E060E008959FEF80EC0895DA
:1024D00000240A9416161706180609060895002403
:1024E0000A9412161306140605060895092E03947D
:1024F000000C11F4882352F0BB0F40F4BF2B11F4F1
:1025000060FF04C06F5F7F4F8F4F9F4F089557FD4F
:102510009058440F551F59F05F3F71F04795880F51
:1025200097FB991F61F09F3F79F0879508951216E8
:1025300013061406551FF2CF4695F1DF08C0161694
:1025400017061806991FF1CF869571056105089445
:102550000895E894BB2766277727CB0197F908955C
:102560000BD0C4CFB5DF28F0BADF18F0952309F0FF
:10257000A6CFABCF1124EECFCADFA0F3959FD1F346
:10258000950F50E0551F629FF001729FBB27F00D21
:10259000B11D639FAA27F00DB11DAA1F649F662776
:1025A000B00DA11D661F829F2227B00DA11D621FC5
:1025B000739FB00DA11D621F839FA00D611D221F7F
:1025C000749F3327A00D611D231F849F600D211D63
:1025D000822F762F6A2F11249F5750408AF0E1F006
:1025E00088234AF0EE0FFF1FBB1F661F771F881F4F
:1025F00091505040A9F79E3F510570F060CFAACF8F
:102600005F3FECF3983EDCF3869577956795B79539
:10261000F795E7959F5FC1F7FE2B880F911D969563
:10262000879597F9089597FB092E07260AD077FD1D
:1026300004D02ED006D000201AF4709561957F4FFB
:102640000895F6F7909581959F4F0895A1E21A2E6F
:10265000AA1BBB1BFD010DC0AA1FBB1FEE1FFF1F46
:10266000A217B307E407F50720F0A21BB30BE40B96
:10267000F50B661F771F881F991F1A9469F76095DD
:102680007095809590959B01AC01BD01CF01089597
:10269000AA1BBB1B51E107C0AA1FBB1FA617B70788
:1026A00010F0A61BB70B881F991F5A95A9F78095A4
:1026B0009095BC01CD010895EE0FFF1F0590F49198
:1026C000E02D0994E199FECF9FBB8EBBE09A99273C
:1026D0008DB30895262FE199FECF9FBB8EBB2DBBF6
:1026E0000FB6F894E29AE19A0FBE01960895F89415
:0226F000FFCF1A
:1026F20056616C75653A2000433A00204E3A004913
:102702006E2050726F6772657373004C20004C4FDD
:102712003A0048493A00522000546170652D466FD4
:102722006C6C6F77004564697420566172732E0079
:1027320052756E2044656D6F00436865636B20536C
:10274200656E736F7273004C3A00523A004D313A23
:1027520020004D323A20004C3A200020523A20000C
:102762004B703A00204B643A005661726961626CA8
:10277200653A20004B5F70004B5F640053706565E3
:1027820064005468726573680053656C6563743ADB
:10279200200049522D466F6C6C6F77004172742E87
:1027A20020436F6C6C656374004D6F746F720052DE
:1027B200756E2D416C6C00320035003B00380023F1
:1027C2000062006500310034003A003700220061E7
:1027D200006400300033003900360021002000631D
:1027E2000001FF000000002B027E00E001C501FA9B
:1027F200011800190026002700050004000100004E
:102802000000000000A503010204081020408020FF
:06281200100880402000C8
:00000001FF
