:100000000C9448000C947C000C947C000C947C00B4
:100010000C947C000C947C000C947C000C947C0070
:100020000C947C000C9418090C94C1070C94E708FC
:100030000C9454080C9485080C9490070C94230895
:100040000C94B1040C947C000C94D6000C946501C3
:100050000C947C000C947C000C947C000C947C0030
:100060000C94B6080C94DC090C9449090C947A0998
:100070000C94AB090C94F2070C94A7000C941E018D
:100080000C947C000C947C000C947C008D02210468
:1000900011241FBECFEFD0E1DEBFCDBF88E483BF08
:1000A00084E00E94060612BE87B7816087BF7894FD
:1000B00011E0A0E0B1E0E6E4F9E100E00BBF02C02E
:1000C00007900D92AA37B107D9F712E0AAE7B1E07D
:1000D00001C01D92A035B107E1F710E0C0E9D0E002
:1000E00004C02297FE010E949D0CCC38D107C9F7AD
:1000F0000E940D0A0C94A10C0C940000FC012481B8
:100100003581C9010895DC01FC01828193818097CA
:1001100014F080E00895FD0182819381019693831C
:10012000828384819581E80FF91F60870196FD0124
:10013000958384832D913C9111978217930714F432
:1001400081E00895FD011582148281E008951F92D7
:100150000F920FB60F920BB60F9211242F933F936D
:100160004F935F936F937F938F939F93AF93BF93BF
:10017000EF93FF93E0911002F0911102608188ECFF
:1001800091E00E948300FF91EF91BF91AF919F9109
:100190008F917F916F915F914F913F912F910F9030
:1001A0000BBE0F900FBE0F901F9018951F920F92CD
:1001B0000FB60F920BB60F9211242F933F934F93CC
:1001C0005F936F937F938F939F93AF93BF93EF93BF
:1001D000FF93E091C401F091C50160818CE791E04B
:1001E0000E948300FF91EF91BF91AF919F918F91FA
:1001F0007F916F915F914F913F912F910F900BBE27
:100200000F900FBE0F901F901895DC01FC018281AA
:10021000938101979383828386819781E80FF91FE9
:1002200040850196FD01978386832D913C9182172D
:10023000930714F017821682842F08951F920F924D
:100240000FB60F920BB60F9211240F931F932F939B
:100250003F934F935F936F937F938F939F93AF934E
:10026000BF93EF93FF938091F2019091F3011816E1
:10027000190654F4009110021091110280EF91E0E0
:100280000E940501F80180838091F2019091F301B1
:10029000892B31F4E0910E02F0910F0288E98083FE
:1002A000FF91EF91BF91AF919F918F917F916F914E
:1002B0005F914F913F912F911F910F910F900BBE26
:1002C0000F900FBE0F901F9018951F920F920FB6B0
:1002D0000F920BB60F9211240F931F932F933F93FE
:1002E0004F935F936F937F938F939F93AF93BF933E
:1002F000EF93FF938091A6019091A701181619061C
:1003000054F40091C4011091C50184EA91E00E9467
:100310000501F80180838091A6019091A701892BA6
:1003200031F4E091C201F091C30188E98083FF912B
:10033000EF91BF91AF919F918F917F916F915F915D
:100340004F913F912F911F910F910F900BBE0F90E6
:100350000FBE0F901F901895DC01FC0182819381E4
:1003600001979383828386819781E80FF91F4085E7
:100370000196FD01978386832D913C918217930707
:1003800014F017821682842F0895FC0184819581D0
:10039000892B19F42FEF3FEF06C0CF0102960E9480
:1003A000AC01282F30E0C9010895CF93DF93EC0111
:1003B000EE81FF81E80FF91F8085DF91CF910895CD
:1003C000FC0184819581892B19F42FEF3FEF06C042
:1003D000CF0102960E94D501282F30E0C90108956F
:1003E000FC01138212828281938197838683958395
:1003F0008483089502960E94F0010895FC0180E232
:1004000090E091838083CF010E94F0010895DC0188
:10041000FC0182819381409714F080E00895FD01F2
:100420008281938101969383828384819581E80FF1
:10043000F91F60870196FD01958384832D913C917E
:1004400011978217930714F481E00895FD01158236
:10045000148281E00895CF93DF93EC018CA59DA5D4
:100460004097E4F7F894CE018A960E940702C85B91
:10047000DF4FE881F9818081806280837894DF9109
:10048000CF910895FC011382128282819381978318
:100490008683958384830895FC0180E190E09183B5
:1004A0008083CF010E94420208956F927F928F92C3
:1004B0009F92AF92BF92CF92DF92EF92FF920F93F3
:1004C0001F936C015B014A013901FC018BE491E04F
:1004D00081939193CF010E94FE01C6018A960E94EA
:1004E0004C0282E490E0C80ED91EF601A192B192AE
:1004F000819291926192719201931193F182E082C3
:100500001F910F91FF90EF90DF90CF90BF90AF9031
:100510009F908F907F906F900895EF92FF920F932E
:100520001F938AE791E060E970E049E250E02BE236
:1005300030E00AE210E0FCE2EF2EF12C0E945502BE
:1005400086EC91E068E970E049E950E02BE930E0A1
:100550000AE910E0ECE9EE2EF12C0E9455021F9101
:100560000F91FF90EF9008951F93CF93DF93C0E01A
:10057000D0E0FE01EB5AFE4F1081812F61E00E9416
:100580004C05812F61E00E947C05FE01E35AFE4F7D
:10059000808160E070E00E94D9062296C830D105C3
:1005A00041F7DF91CF911F910895FC0110828AE0FD
:1005B00090E0938382830895CF93DF93EC018A8147
:1005C00060E00E947C058D8160E00E94AC058D8119
:1005D00060E00E94CE058B8161E00E947C058C81E9
:1005E00061E00E947C050000000010C08C8160E08A
:1005F0000E947C0500000000000000008C8161E08A
:100600000E947C0500000000000000008D810E9417
:10061000C30587FDEBCF8C8160E00E947C05DF91F4
:10062000CF910895FF920F931F938C01F62E0E9495
:10063000DC02F801828161E00E947C05F80183817F
:1006400060E00E947C05F801848161E00E947C05E5
:10065000F801858161E00E94AC05F80185816F2D6C
:100660000E94CE050000000000000000F801848117
:1006700060E00E947C05F801858160E00E94AC0585
:10068000F80185816FEF0E94CE051F910F91FF90B9
:100690000895EF92FF920F931F93CF93DF937C0106
:1006A000042F6115710551F0EB0110E005C0C70181
:1006B00069910E9412031F5F1017C8F3DF91CF9159
:1006C0001F910F91FF90EF900895DF93CF930F92BA
:1006D000CDB7DEB76983BE016F5F7F4F41E00E94F7
:1006E00049030F90CF91DF910895FF920F931F93CD
:1006F0008C01F62E0E94DC02F801828160E00E94EB
:100700007C05F801838160E00E947C05F80184810A
:1007100061E00E947C05F801858161E00E94AC05E2
:10072000F80185816F2D0E94CE05000000000000B9
:100730000000F801848160E00E947C05F801858159
:1007400060E00E94AC05F80185816FEF0E94CE0544
:100750001F910F91FF900895423031F0433031F0F6
:10076000413029F4605C03C06C5E01C06C5A606863
:100770000E947503089562E00E947503089561E088
:100780000E94750308950F931F938C01FC018281D1
:1007900060E00E947C05F801838160E00E947C0596
:1007A000F801848160E00E947C05F801828161E0AB
:1007B0000E944C05F801838161E00E944C05F8011C
:1007C000848161E00E944C05F801858160E00E940F
:1007D000AC05F80185816FEF0E94CE051F910F9146
:1007E00008950F931F938C010E94C303C80168E30F
:1007F0000E947503C80161E00E947503C80166E0AC
:100800000E947503C8016CE00E947503C80162E094
:100810000E947503C80160E80E9475031F910F9143
:1008200008950F93FC0189E691E0918380836283B0
:10083000438324830583CF010E94F1030F91089520
:1008400008950F9382E192E06AE14BE12CE102E02E
:100850000E94110488E192E00E94B4028AE192E0D1
:100860000E94D5028EE192E00E94D50282E292E0DF
:100870000E94D5020F9108950F931F9302E112E099
:10088000C8010E94BF03C8010E94BB031F910F91C2
:10089000089586E00E94E205880F991FAA2797FD18
:1008A000A095BA2FBC01CD010E948A0B2DEC3CEC27
:1008B0004CE85FE30E94160C20E030E040E85AE389
:1008C0000E94160C20E030E040E85FE30E94F30A4B
:1008D0000E94570BCB0108950E943C0482E192E0F4
:1008E00060E041E00E94AC0386E00E94E205BC01AA
:1008F00082E192E00E94EA0A83E090E00E944904CB
:100900008230910581F083309105C1F0019711F596
:1009100082E192E060E040E00E94AC0382E192E07C
:1009200060E071E015C082E192E060E040E00E948A
:10093000AC0382E192E069E071E00AC082E192E0FA
:1009400060E040E00E94AC0382E192E062E171E08D
:100950000E94260A68EC70E080E090E00E94260584
:1009600008951F920F920FB60F9211242F933F9369
:100970008F939F93AF93BF9380912A0290912B0204
:10098000A0912C02B0912D0230912E020196A11D52
:10099000B11D232F2D5F2D3720F02D570196A11D5E
:1009A000B11D20932E0280932A0290932B02A093D4
:1009B0002C02B0932D028091260290912702A091E3
:1009C0002802B09129020196A11DB11D8093260233
:1009D00090932702A0932802B0932902BF91AF9170
:1009E0009F918F913F912F910F900FBE0F901F906D
:1009F00018956FB7F8942091260230912702409104
:100A000028025091290282B790E0A0E0B0E006B63B
:100A100000FE09C08F3F9105A105B10521F02F5FB0
:100A20003F4F4F4F5F4F6FBF542F432F322F22271F
:100A3000280F391F4A1F5B1F82E0220F331F441FFC
:100A4000551F8A95D1F7B901CA010895EF92FF9217
:100A50000F931F93CF93DF937B018C010E94F904C6
:100A6000EB010EC00E94F9046C1B7D0B685E7340A5
:100A7000C8F30894E108F10801091109C851DC4FD5
:100A8000E114F1040105110569F7DF91CF911F9180
:100A90000F91FF90EF900895E82FE695E695E69583
:100AA000A82FB0E0613099F42FB7F894F0E0EE0F82
:100AB000FF1FE75DFE4F0190F081E02D9081A77050
:100AC000B070A559BE4F8C91982B908313C02FB74F
:100AD000F894F0E0EE0FFF1FE75DFE4F0190F0810C
:100AE000E02D9081A770B070A559BE4F8C91809574
:100AF000892380832FBF0895E82FE695E695E69534
:100B0000A82FB0E0613099F42FB7F894F0E0EE0F21
:100B1000FF1FE55EFE4F0190F081E02D9081A770F0
:100B2000B070A559BE4F8C91982B908313C02FB7EE
:100B3000F894F0E0EE0FFF1FE55EFE4F0190F081AC
:100B4000E02D9081A770B070A559BE4F8C91809513
:100B5000892380832FBF0895E82FF0E0613051F49E
:100B6000EE0FFF1FE75DFE4F0190F081E02D8FEF4C
:100B700080830895EE0FFF1FE75DFE4F0190F08127
:100B8000E02D10820895E82FF0E0EE0FFF1FE95CE2
:100B9000FE4F0190F081E02D80810895E82FF0E074
:100BA000EE0FFF1FE55EFE4F0190F081E02D6083A8
:100BB0000895109261001092620080E487B987EE78
:100BC00086B908951F93182F80914501813021F433
:100BD0000E94D9051092450180914601181721F411
:100BE000349A349BFECF0DC01093460187B1177025
:100BF000807E812B87B9349A349BFECF349A349B04
:100C0000FECF24B135B1C9011F91089593B7987FE4
:100C1000982B93BF08959EB5987F982B9EBD0895FD
:100C200083E00E940B061DBC1CBC87B7846087BF95
:100C30000895EAE8F0E09081987F982B90830895DA
:100C400083E00E9419061092890010928800EDE757
:100C5000F0E08081846080830895893031F48FB51D
:100C600082608FBD8FB58E7F0AC08A3019F48FB530
:100C7000826002C08FB58D7F8FBD8FB581608FBDC3
:100C80001BBC1ABC19BC18BC1092790010927800D9
:100C900008958FB580688FBD8FB58F7B8FBD089508
:100CA0008FB580628FBD8FB58F7E8FBD08958FB554
:100CB00088608FBD8FB58B7F8FBD08959BBD8ABD2A
:100CC000089599BD88BD0895909379008093780028
:100CD0000895893049F480918B00826080938B0065
:100CE00080918B008E7F0EC08A3021F480918B0022
:100CF000826003C080918B008D7F80938B008091F8
:100D00008B00816080938B00109287001092860088
:100D1000109285001092840010928300109282003D
:100D20000895EBE8F0E080818068808380818F7B8C
:100D300080830895EBE8F0E0808180628083808189
:100D40008F7E80830895EBE8F0E080818860808367
:100D500080818B7F80830895853019F40E94490635
:100D60000895843019F40E9450060895833019F4D0
:100D70000E9457060895823019F40E949106089542
:100D8000813019F40E949A060895882311F40E9474
:100D9000A30608959093870080938600089590930A
:100DA000850080938400089590938300809382004F
:100DB0000895EF92FF921F93CF93DF93182F7B013B
:100DC0008D31B0F08F3111F413E014C08E3111F475
:100DD00014E010C08D3109F49BC0853211F410E08D
:100DE0003DC0843211F411E039C0833219F48EC051
:100DF0008330A0F180912F0286FD0BC00E94100667
:100E000078948AE00E942D0680912F02806480935E
:100E10002F0280912F02C12FD0E090E0012E02C05E
:100E2000959587950A94E2F780FD4CC087B3FE0143
:100E3000ED58FE4F9081892B87BB812F0E94AC0615
:100E400020912F0281E090E0012E02C0880F991FAF
:100E50000A94E2F7282B20932F0234C080912F02AE
:100E600087FD0BC00E94200678948AE00E946906E4
:100E700080912F02806880932F0280912F02C12FD2
:100E8000D0E090E0012E02C0959587950A94E2F794
:100E900080FD24C082B1FE01ED58FE4F9081892B68
:100EA00082B9812F0E94AC0620912F0281E090E050
:100EB000012E02C0880F991F0A94E2F7282B209375
:100EC0002F020CC0153021F4C7010E945E0622C01B
:100ED000143021F4C7010E9461061CC0133021F4B4
:100EE000C7010E94640616C0123021F4C7010E9497
:100EF000CA0610C0113021F4C7010E94CF060AC0F3
:100F0000112341F4C7010E94D40604C012E0A6CF09
:100F100015E070CFDF91CF911F91FF90EF90089572
:100F20001F920F920FB60F920BB60F9211242F93B0
:100F30003F934F935F936F937F938F939F93AF9361
:100F4000BF93EF93FF938091360290913702892BE4
:100F500029F0E0913602F09137020995FF91EF9167
:100F6000BF91AF919F918F917F916F915F914F91C1
:100F70003F912F910F900BBE0F900FBE0F901F90BF
:100F800018951F920F920FB60F920BB60F92112465
:100F90002F933F934F935F936F937F938F939F9381
:100FA000AF93BF93EF93FF938091400290914102E2
:100FB000892B29F0E0914002F09141020995FF91BF
:100FC000EF91BF91AF919F918F917F916F915F91C1
:100FD0004F913F912F910F900BBE0F900FBE0F902E
:100FE0001F9018951F920F920FB60F920BB60F928B
:100FF00011242F933F934F935F936F937F938F931E
:101000009F93AF93BF93EF93FF938091460290918C
:101010004702892B29F0E0914602F0914702099599
:10102000FF91EF91BF91AF919F918F917F916F91C0
:101030005F914F913F912F910F900BBE0F900FBE7C
:101040000F901F9018951F920F920FB60F920BB62C
:101050000F9211242F933F934F935F936F937F933E
:101060008F939F93AF93BF93EF93FF93809132023F
:1010700090913302892B29F0E0913202F0913302F2
:101080000995FF91EF91BF91AF919F918F917F91C2
:101090006F915F914F913F912F910F900BBE0F90E9
:1010A0000FBE0F901F9018951F920F920FB60F92C0
:1010B0000BB60F9211242F933F934F935F936F932F
:1010C0007F938F939F93AF93BF93EF93FF93809101
:1010D000380290913902892B29F0E0913802F09181
:1010E00039020995FF91EF91BF91AF919F918F9137
:1010F0007F916F915F914F913F912F910F900BBE18
:101100000F900FBE0F901F9018951F920F920FB661
:101110000F920BB60F9211242F933F934F935F932F
:101120006F937F938F939F93AF93BF93EF93FF93AF
:1011300080913A0290913B02892B29F0E0913A028A
:10114000F0913B020995FF91EF91BF91AF919F9173
:101150008F917F916F915F914F913F912F910F9060
:101160000BBE0F900FBE0F901F9018951F920F92FD
:101170000FB60F920BB60F9211242F933F934F93FC
:101180005F936F937F938F939F93AF93BF93EF93EF
:10119000FF9380913C0290913D02892B29F0E091D0
:1011A0003C02F0913D020995FF91EF91BF91AF9103
:1011B0009F918F917F916F915F914F913F912F916F
:1011C0000F900BBE0F900FBE0F901F9018951F929F
:1011D0000F920FB60F920BB60F9211242F933F93DD
:1011E0004F935F936F937F938F939F93AF93BF932F
:1011F000EF93FF9380913E0290913F02892B29F05B
:10120000E0913E02F0913F020995FF91EF91BF916D
:10121000AF919F918F917F916F915F914F913F918E
:101220002F910F900BBE0F900FBE0F901F9018952F
:101230001F920F920FB60F920BB60F9211242F939D
:101240003F934F935F936F937F938F939F93AF934E
:10125000BF93EF93FF938091420290914302892BB9
:1012600029F0E0914202F09143020995FF91EF913C
:10127000BF91AF919F918F917F916F915F914F91AE
:101280003F912F910F900BBE0F900FBE0F901F90AC
:1012900018951F920F920FB60F920BB60F92112452
:1012A0002F933F934F935F936F937F938F939F936E
:1012B000AF93BF93EF93FF938091480290914902BF
:1012C000892B29F0E0914802F09149020995FF919C
:1012D000EF91BF91AF919F918F917F916F915F91AE
:1012E0004F913F912F910F900BBE0F900FBE0F901B
:1012F0001F9018951F920F920FB60F920BB60F9278
:1013000011242F933F934F935F936F937F938F930A
:101310009F93AF93BF93EF93FF9380914A02909175
:101320004B02892B29F0E0914A02F0914B0209957A
:10133000FF91EF91BF91AF919F918F917F916F91AD
:101340005F914F913F912F910F900BBE0F900FBE69
:101350000F901F9018951F920F920FB60F920BB619
:101360000F9211242F933F934F935F936F937F932B
:101370008F939F93AF93BF93EF93FF9380914C0212
:1013800090914D02892B29F0E0914C02F0914D0291
:101390000995FF91EF91BF91AF919F918F917F91AF
:1013A0006F915F914F913F912F910F900BBE0F90D6
:1013B0000FBE0F901F9018951F920F920FB60F92AD
:1013C0000BB60F9211242F933F934F935F936F931C
:1013D0007F938F939F93AF93BF93EF93FF938091EE
:1013E0004E0290914F02892B29F0E0914E02F0912C
:1013F0004F020995FF91EF91BF91AF919F918F910E
:101400007F916F915F914F913F912F910F900BBE04
:101410000F900FBE0F901F90189583E061E00E941F
:10142000AC0584E061E00E94AC0578940E94200441
:101430000E946C04FDCFDC01ED91FC910190F081E4
:10144000E02D099508950E941B0A08950F931F939C
:10145000CF93DF938C01EB0104C02196C8010E9459
:10146000230A68816623C9F7DF91CF911F910F91FD
:1014700008952F923F924F925F926F927F928F9238
:101480009F92AF92BF92CF92DF92EF92FF920F9313
:101490001F93DF93CF93CDB7DEB7A0970FB6F89425
:1014A000DEBF0FBECDBF1C016A017B014115510596
:1014B0006105710521F460E30E94230A4FC088246E
:1014C00099245401422E55246624772401E010E02B
:1014D0000C0F1D1F080D191DC701B601A3019201B4
:1014E0000E94790CF80160830894811C911CA11C56
:1014F000B11CC701B601A30192010E94790CC90178
:10150000DA016C017D01C114D104E104F104F1F6AA
:1015100081E0E82EF12CEC0EFD1EE80CF91C3E01DA
:101520000894611C711CD501C4010197A109B1097E
:101530006C01C818D9080FC0F601EE0DFF1D6081BF
:101540006A3010F4605D01C0695CC1010E94230A29
:101550000894E108F1086E147F0471F7A0960FB6A5
:10156000F894DEBF0FBECDBFCF91DF911F910F91D9
:10157000FF90EF90DF90CF90BF90AF909F908F90B3
:101580007F906F905F904F903F902F900895EF92D3
:10159000FF920F931F93CF93DF93EC017A018B019E
:1015A00077FF0BC06DE20E94230A10950095F0941E
:1015B000E094E11CF11C011D111DCE01B801A70131
:1015C0002AE00E94390ADF91CF911F910F91FF907D
:1015D000EF900895AB01662757FD6095762F0E9426
:1015E000C70A08955058BB27AA270ED0E5C0D6D009
:1015F00030F0DBD020F031F49F3F11F41EF4CBC06B
:101600000EF4E095E7FBC1C0E92FE7D080F3BA17ED
:10161000620773078407950718F071F49EF5FFC001
:101620000EF4E0950B2EBA2FA02D0B01B9019001FD
:101630000C01CA01A0011124FF27591B99F0593F41
:1016400050F4503E68F11A16F040A22F232F342F89
:101650004427585FF3CF469537952795A795F040D7
:101660005395C9F77EF41F16BA0B620B730B840BEC
:10167000BAF09150A1F0FF0FBB1F661F771F881FA4
:10168000C2F70EC0BA0F621F731F841F48F48795FC
:1016900077956795B795F7959E3F08F0B3CF9395EB
:1016A000880F08F09927EE0F97958795089504D035
:1016B0006894B111B5C0089598D088F09F5790F004
:1016C000B92F9927B751A0F0D1F0660F771F881F67
:1016D000991F1AF0BA95C9F712C0B13081F09FD0A6
:1016E000B1E008959CC0672F782F8827B85F39F044
:1016F000B93FCCF3869577956795B395D9F73EF4C6
:1017000090958095709561957F4F8F4F9F4F08956D
:10171000E89409C097FB3EF490958095709561958B
:101720007F4F8F4F9F4F9923A9F0F92F96E9BB2741
:101730009395F695879577956795B795F111F8CFBD
:10174000FAF4BB0F11F460FF1BC06F5F7F4F8F4F28
:101750009F4F16C0882311F096E911C0772321F01E
:101760009EE8872F762F05C0662371F096E8862FB6
:1017700070E060E02AF09A95660F771F881FDAF70D
:10178000880F9695879597F9089597F99F6780E850
:1017900070E060E008959FEF80EC089500240A94C3
:1017A0001616170618060906089500240A9412163C
:1017B0001306140605060895092E0394000C11F46F
:1017C000882352F0BB0F40F4BF2B11F460FF04C01C
:1017D0006F5F7F4F8F4F9F4F089557FD9058440F75
:1017E000551F59F05F3F71F04795880F97FB991F80
:1017F00061F09F3F79F0879508951216130614063D
:10180000551FF2CF4695F1DF08C0161617061806C9
:10181000991FF1CF86957105610508940895E894A4
:10182000BB2766277727CB0197F908950BD0C4CF44
:10183000B5DF28F0BADF18F0952309F0A6CFABCFBB
:101840001124EECFCADFA0F3959FD1F3950F50E09E
:10185000551F629FF001729FBB27F00DB11D639F62
:10186000AA27F00DB11DAA1F649F6627B00DA11D08
:10187000661F829F2227B00DA11D621F739FB00DAE
:10188000A11D621F839FA00D611D221F749F33271E
:10189000A00D611D231F849F600D211D822F762FB7
:1018A0006A2F11249F5750408AF0E1F088234AF0B4
:1018B000EE0FFF1FBB1F661F771F881F9150504000
:1018C000A9F79E3F510570F060CFAACF5F3FECF3C0
:1018D000983EDCF3869577956795B795F795E795EC
:1018E0009F5FC1F7FE2B880F911D9695879597F9FD
:1018F0000895A1E21A2EAA1BBB1BFD010DC0AA1F51
:10190000BB1FEE1FFF1FA217B307E407F50720F068
:10191000A21BB30BE40BF50B661F771F881F991FE3
:101920001A9469F760957095809590959B01AC012C
:10193000BD01CF010895EE0FFF1F0590F491E02D3A
:061940000994F894FFCFAA
:1019460043686F69636520310043686F696365208A
:10195600320043686F696365203300320035003B0F
:10196600003800230062006500310034003A003779
:101976000022006100640030003300390036002187
:10198600002000630001FF000000002B027E00E043
:1019960001C501FA011800190026002700050004F8
:1019A60000010000000000000065030102040810A9
:0A19B600204080201008804020002F
:00000001FF
