:100000000C9448000C947C000C947C000C947C00B4
:100010000C947C000C947C000C947C000C947C0070
:100020000C947C000C94EA0D0C94930C0C94B90D78
:100030000C94260D0C94570D0C94620C0C94F50C3A
:100040000C946A090C947C000C94D8000C94680100
:100050000C947C000C947C000C947C000C947C0030
:100060000C94880D0C94AE0E0C941B0E0C944C0E3C
:100070000C947D0E0C94C40C0C94A9000C942201D9
:100080000C947C000C947C000C947C00B3027A04E9
:1000900011241FBECFEFD0E1DEBFCDBF88E483BF08
:1000A00084E00E94D80A12BE87B7816087BF789427
:1000B00012E0A0E0B1E0E2E3F4E200E00BBF02C036
:1000C00007900D92A632B107D9F713E0A6E2B2E08D
:1000D00001C01D92A532B107E1F710E0C0E9D0E000
:1000E00004C02297FE010E94FE11CC38D107C9F747
:1000F0000E94DF0E0C9417120C940000FC01268164
:100100003781C90108951F93CF93DF93EC01162F18
:10011000E881F9810190F081E02D0995809710F038
:1001200080E013C08C819D8101969D838C838E819C
:100130009F81FE01E80FF91F128701969F838E832E
:10014000809714F01F821E8281E0DF91CF911F9172
:1001500008951F920F920FB60F920BB60F921124B3
:100160002F933F934F935F936F937F938F939F93BF
:10017000AF93BF93EF93FF93E091C402F091C50258
:10018000608188E792E00E948300FF91EF91BF9128
:10019000AF919F918F917F916F915F914F913F911F
:1001A0002F910F900BBE0F900FBE0F901F901895C0
:1001B0001F920F920FB60F920BB60F9211242F932E
:1001C0003F934F935F936F937F938F939F93AF93DF
:1001D000BF93EF93FF93E0917402F09175026081F9
:1001E00088E292E00E948300FF91EF91BF91AF916E
:1001F0009F918F917F916F915F914F913F912F913F
:100200000F900BBE0F900FBE0F901F901895FC0122
:1002100024813581C9010895DC01FC018481958127
:1002200001979583848380859185E80FF91F228546
:100230000196FD0191878087409714F01186108602
:10024000822F08951F920F920FB60F920BB60F9246
:1002500011240F931F932F933F934F935F936F93AB
:100260007F938F939F93AF93BF93EF93FF9380916F
:10027000A6029091A702892B51F00091C40210911F
:10028000C50282EA92E00E940C01F801808380910D
:10029000A6029091A702892B31F4E091C202F0915D
:1002A000C30288E98083FF91EF91BF91AF919F9145
:1002B0008F917F916F915F914F913F912F911F91FE
:1002C0000F910F900BBE0F900FBE0F901F901895BF
:1002D0001F920F920FB60F920BB60F9211240F932D
:1002E0001F932F933F934F935F936F937F938F93BE
:1002F0009F93AF93BF93EF93FF938091560290919A
:100300005702892B51F0009174021091750282E519
:1003100092E00E940C01F801808380915602909136
:100320005702892B31F4E0917202F091730288E94F
:100330008083FF91EF91BF91AF919F918F917F91BA
:100340006F915F914F913F912F911F910F910F905E
:100350000BBE0F900FBE0F901F901895FC012481CB
:100360003581C9010895DC01FC01848195810197E3
:100370009583848380859185E80FF91F22850196F6
:10038000FD0191878087809714F011861086822F57
:100390000895FC0186819781892B19F42FEF3FEF97
:1003A00006C0CF0102960E94B301282F30E0C90198
:1003B0000895CF93DF93EC01E885F985E80FF91FE5
:1003C0008285DF91CF910895FC0186819781892BE9
:1003D00019F42FEF3FEF06C0CF0102960E94D9011A
:1003E000282F30E0C9010895FC0115821482848110
:1003F00095819187808797838683089502960E94CE
:10040000F4010895FC0182EF91E09183808380E202
:1004100090E093838283CF010E94F40108951F939B
:10042000CF93DF93EC01162FE881F9810190F081E1
:10043000E02D0995409710F080E013C08C819D81DC
:1004400001969D838C838E819F81FE01E80FF91FA9
:10045000128701969F838E83409714F01F821E821D
:1004600081E0DF91CF911F910895CF93DF93EC014D
:1004700088A999A94097E0F7F894CE018C960E943C
:100480000F02C45BDF4FE881F98180818062808345
:100490007894DF91CF910895FC01158214828481B4
:1004A000958191878087978386830895FC018CEFDF
:1004B00091E09183808380E190E093838283CF01F8
:1004C0000E944C0208956F927F928F929F92AF92FA
:1004D000BF92CF92DF92EF92FF920F931F936C0126
:1004E0005B014A013901FC0184EE91E08193919313
:1004F000CF010E940202C6018C960E94560286E439
:1005000090E0C80ED91EF601A192B192819291920B
:100510006192719201931193F182E0821F910F9188
:10052000FF90EF90DF90CF90BF90AF909F908F9013
:100530007F906F900895665F7F4F680F791FCB01A2
:100540000895665F7F4F680F791FCB010895665F3E
:100550007F4F680F791FCB010895665F7F4F680F4B
:10056000791FCB010895EF92FF920F931F9386E2BC
:1005700092E060E970E049E250E02BE230E00AE20C
:1005800010E0FCE2EF2EF12C0E94630286E792E07D
:1005900068E970E049E950E02BE930E00AE910E051
:1005A000ECE9EE2EF12C0E9463021F910F91FF9057
:1005B000EF9008950F931F93CF93DF93EB018A0180
:1005C000CC0FDD1F57FD0CC0FE01EE5FFD4F80819B
:1005D00061E00E944E0AC65FDD4F8881B8010EC0FF
:1005E000FE01EE5FFD4F808160E00E944E0AC65F13
:1005F000DD4F66277727601B710B88810E94AB0B4C
:10060000DF91CF911F910F9108951F93CF93DF93A7
:10061000C0E0D0E0FE01EE5FFD4F1081812F61E070
:100620000E94050A812F61E00E944E0AFE01E65FEA
:10063000FD4F808160E070E00E94AB0B2296C830D5
:10064000D10541F7DF91CF911F910895FC011082F0
:100650008AE090E0938382830895CF93DF93EC0147
:100660008A8160E00E944E0A8D8160E00E947E0ACD
:100670008D8160E00E94A00A8B8161E00E944E0A99
:100680008C8161E00E944E0A0000000010C08C8145
:1006900060E00E944E0A00000000000000008C8113
:1006A00061E00E944E0A00000000000000008D8101
:1006B0000E94950A87FDEBCF8C8160E00E944E0A74
:1006C000DF91CF910895FF920F931F938C01F62E27
:1006D0000E942D03F801828161E00E944E0AF80118
:1006E000838160E00E944E0AF801848161E00E94EB
:1006F0004E0AF801858161E00E947E0AF801858139
:100700006F2D0E94A00A0000000000000000F80108
:10071000848160E00E944E0AF801858160E00E94B9
:100720007E0AF80185816FEF0E94A00A1F910F9148
:10073000FF900895EF92FF920F931F93CF93DF9353
:100740007C01042F6115710551F0EB0110E005C02B
:10075000C70169910E9463031F5F1017C8F3DF91FF
:10076000CF911F910F91FF90EF900895DF93CF935A
:100770000F92CDB7DEB76983BE016F5F7F4F41E057
:100780000E949A030F90CF91DF910895FF920F93EB
:100790001F938C01F62E0E942D03F801828160E0E8
:1007A0000E944E0AF801838160E00E944E0AF8011F
:1007B000848161E00E944E0AF801858161E00E9417
:1007C0007E0AF80185816F2D0E94A00A00000000BA
:1007D00000000000F801848160E00E944E0AF801E8
:1007E000858160E00E947E0AF80185816FEF0E949A
:1007F000A00A1F910F91FF900895423031F04330CD
:1008000031F0413029F4605C03C06C5E01C06C5A69
:1008100060680E94C603089562E00E94C6030895BE
:1008200061E00E94C60308950F931F938C01FC01A1
:10083000828160E00E944E0AF801838160E00E949C
:100840004E0AF801848160E00E944E0AF80182811C
:1008500061E00E94050AF801838161E00E94050AB7
:10086000F801848161E00E94050AF801858160E059
:100870000E947E0AF80185816FEF0E94A00A1F91F5
:100880000F9108950F931F938C010E941404C801C7
:1008900068E30E94C603C80161E00E94C603C80164
:1008A00066E00E94C603C8016CE00E94C603C8014E
:1008B00062E00E94C603C80160E80E94C6031F915F
:1008C0000F9108950F93FC0186E192E0918380835C
:1008D0006283438324830583CF010E9442040F91E6
:1008E0000895CB01642F0E940A120895CB010E9443
:1008F000021208950F9387EC92E06AE14BE12CE13C
:1009000002E00E9462048DEC92E00E9405038FECED
:1009100092E00E94260383ED92E00E94260387ED79
:1009200092E00E9426030F910895EF92FF920F9399
:100930001F937C0107EC12E0C80160E041E00E94D7
:10094000FD03C801B7010E94F80E1F910F91FF909F
:10095000EF900895EF92FF920F931F937C0107ECA5
:1009600012E0C80160E040E00E94FD03C801B70149
:100970000E94F80E1F910F91FF90EF900895EF9253
:10098000FF920F931F937C0107EC12E0C80160E017
:1009900041E00E94FD03C80160E071E00E94F80E92
:1009A000C801B7010E94BC0F1F910F91FF90EF90FB
:1009B000089581E30E94350A882311F080E00895AC
:1009C0006CE271E080E090E00E94DF0981E0089530
:1009D00082E30E94350A882311F080E008956CE2DA
:1009E00071E080E090E00E94DF0981E008950F93BC
:1009F0001F9307EC12E0C8010E941004C8010E9476
:100A00000C041F910F910895EF92FF920F931F9383
:100A10007C010E94F70407EC12E0C80160E040E0AE
:100A20000E94FD03C801B7010E94F80EC80160E0F2
:100A300041E00E94FD03C80168E071E00E94F80EE9
:100A40006091DB027091DC02C8010E94BC0FC801FA
:100A50006BE071E00E94F80E6091DD027091DE02A1
:100A6000C8010E94BC0F1F910F91FF90EF90089555
:100A700014C00E94F70487EC92E060E040E00E941E
:100A8000FD0387EC92E06FE071E00E94F80E68ECE5
:100A900070E080E090E00E94DF090E94D904882382
:100AA00041F30895CF93DF93EC0187E00E94B40AED
:100AB0002197C89FB001C99F700DD89F700D112458
:100AC0002196882777FD8095982F0E94C4102DECE1
:100AD0003CEC4CE85FE30E94501120E030E040E83D
:100AE0005AE30E94501120E030E040E85FE30E94AA
:100AF000C50F0E9491109B01C617D7070CF49E01E9
:100B0000C901DF91CF910895EF92FF920F931F9348
:100B100032C080E00E94B40A8C0181E00E94B40AD5
:100B20007C010E94F70487EC92E060E040E00E94C4
:100B3000FD0387EC92E06BE171E00E94F80E87EC18
:100B400092E0B8010E94BC0F87EC92E060E041E0C7
:100B50000E94FD0387EC92E06EE171E00E94F80EC6
:100B600087EC92E0B7010E94BC0F68EC70E080E077
:100B700090E00E94DF090E94D904882351F21F915E
:100B80000F91FF90EF9008950F931F93CF93DF93F2
:100B900001E01CEFCFEFD3E07EC086E00E94B40AF4
:100BA0008F5F9140880F991F9093E0028093DF023E
:100BB00087E00E94B40A8F5F9140880F991F90933D
:100BC000E2028093E1022091DF023091E00244E0F2
:100BD000203034072CF0D093E002C093DF0207C02E
:100BE00021503C4F24F41093E0020093DF0224E0F4
:100BF000803092072CF0D093E202C093E10207C04C
:100C000081509C4F24F41093E2020093E102409142
:100C1000DF025091E0028DEC92E063E070E00E9410
:100C2000DA024091E1025091E2028DEC92E062E042
:100C300070E00E94DA020E94F70487EC92E060E024
:100C400040E00E94FD0387EC92E061E271E00E94C7
:100C5000F80E6091DF027091E00287EC92E00E9452
:100C6000BC0F87EC92E060E041E00E94FD0387EC5E
:100C700092E066E271E00E94F80E6091E1027091EC
:100C8000E20287EC92E00E94BC0F62E370E080E039
:100C900090E00E94DF090E94D904882309F47DCFE7
:100CA000DF91CF911F910F9108952F923F924F9214
:100CB0005F926F927F928F929F92AF92BF92CF92EC
:100CC000DF92EF92FF920F931F93CF93DF93222433
:100CD0002A94322C51E0452E512C4CEB642E42E0EC
:100CE000742E3DC180E00E94B40A4C0181E00E9454
:100CF000B40A5C018091B2019091B3018815990505
:100D000044F48A159B0584F41092E4021092E302E5
:100D100028C08816990684F48A159B056CF43092D5
:100D2000E4022092E3021DC0A816B9062CF45092EA
:100D3000E4024092E30215C08230910594F0A816B7
:100D4000B9067CF48091E3029091E40297FF03C01E
:100D50008BEF9FEF02C085E090E09093E4028093D8
:100D6000E302C091E302D091E4028091E702909106
:100D7000E802C817D90781F09093E6028093E50254
:100D80008091EB029091EC029093EA028093E90249
:100D90005092EC024092EB028091F5029091F602A3
:100DA000C89F8001C99F100DD89F100D112410936A
:100DB000F0020093EF026091F7027091F802882729
:100DC00077FD8095982F0E94C4106B017C01809163
:100DD000E5029091E602C81BD90BBE01882777FD7A
:100DE0008095982F0E94C4109B01AC01C701B601E9
:100DF0000E9450116B017C016091E9027091EA023E
:100E00002091EB023091EC02620F731F882777FD6F
:100E10008095982F0E94C4109B01AC01C701B601B8
:100E20000E9429100E9491107093F2026093F102C7
:100E30004091F9025091FA02040F151F060F171F77
:100E40001093F4020093F302C301841B950B8017E7
:100E5000910724F47092F4026092F3028091F302FD
:100E60009091F402481B590B8DEC92E063E070E026
:100E70000E94DA024091F3025091F4028091F9024B
:100E80009091FA02480F591F8DEC92E062E070E0F9
:100E90000E94DA028091ED029091EE02C29709F071
:100EA00044C087EC92E00E94100487EC92E00E941C
:100EB0000C0487EC92E06BE271E00E94F80E87EC84
:100EC00092E0B4010E94BC0F87EC92E06FE271E007
:100ED0000E94F80E87EC92E0B5010E94BC0F87ECEF
:100EE00092E060E041E00E94FD0387EC92E064E361
:100EF00071E00E94F80E6091F5027091F60287ECA5
:100F000092E00E94BC0F87EC92E068E371E00E94DF
:100F1000F80E6091F7027091F80287EC92E00E945F
:100F2000BC0F1092EE021092ED028091ED029091B2
:100F3000EE0201969093EE028093ED028091EB0217
:100F40009091EC0201969093EC028093EB028091D9
:100F5000E3029091E4029093E8028093E7020E94FA
:100F6000D904882309F4BECEDF91CF911F910F9150
:100F7000FF90EF90DF90CF90BF90AF909F908F90B9
:100F80007F906F905F904F903F902F900895DCC0BE
:100F90000E94F7048DE391E00E94AA0483E090E0B0
:100FA0000E9452058230910509F447C083309105B3
:100FB00009F483C0019709F0C1C08091F5029091B6
:100FC000F6029093DC028093DB0287EC92E068E407
:100FD00071E00E94F80E8091F5029091F6020E9455
:100FE000BF040E94E804882391F4A8C087E00E940F
:100FF000B40A9093DE028093DD0288E491E00E94BF
:10100000040568EC70E080E090E00E94DF090E9437
:10101000D904882359F38091DD029091DE029093E8
:10102000F6028093F50264E070E00E94B311462F4F
:1010300086EC92E061E070E07FC08091F7029091D1
:10104000F8029093DC028093DB0287EC92E06CE480
:1010500071E00E94F80E8091F7029091F8020E94D0
:10106000BF040E94E804882391F468C087E00E94CE
:10107000B40A9093DE028093DD028CE491E00E943A
:10108000040568EC70E080E090E00E94DF090E94B7
:10109000D904882359F38091DD029091DE02909368
:1010A000F8028093F70264E070E00E94B311462FCB
:1010B00086EC92E062E070E03FC08091F90290918E
:1010C000FA029093DC028093DB0287EC92E060E509
:1010D00071E00E94F80E8091F9029091FA020E944C
:1010E000BF040E94E804882391F428C087E00E948E
:1010F000B40A9093DE028093DD0280E591E00E94C5
:10110000040568EC70E080E090E00E94DF090E9436
:10111000D904882359F38091DD029091DE029093E7
:10112000FA028093F90264E070E00E94B311462F46
:1011300086EC92E063E070E00E94710468EC70E07D
:1011400080E090E00E94DF090E94D904882309F41E
:101150001FCF089538C00E94F70486E591E00E94F1
:10116000AA0483E090E00E9452058230910581F04C
:1011700083309105C1F0019701F582E691E00E946C
:1011800095040E94E8048823C1F00E94C70715C097
:101190008DE691E00E9495040E94E804882369F09E
:1011A0000E9455060AC086E791E00E9495040E94BD
:1011B000E804882311F00E94840568EC70E080E068
:1011C00090E00E94DF090E94D904882321F208954B
:1011D0000E94F70484E891E00E94AA0485E090E070
:1011E0000E94520583309105E9F08430910534F472
:1011F0008130910549F0029769F511C0843091055D
:10120000A1F0059739F51CC086E591E00E94950490
:101210000E94E8048823F1F00E94AA081BC08DE810
:1012200091E010C087E991E00DC084EA91E00E944E
:1012300095040E94E804882369F00E94C4050AC04E
:101240008AEA91E00E9495040E94E804882311F044
:101250000E94380568EC70E080E090E00E94DF09B1
:1012600008950F931F9380E060E00E947E0A81E062
:1012700060E00E947E0A06EC12E0C80161E070E0C6
:101280000E94760490E0880F991F880F991F909311
:10129000F6028093F502C80162E070E00E947604D5
:1012A00090E0880F991F880F991F9093F802809300
:1012B000F702C80163E070E00E94760490E0880FB6
:1012C000991F880F991F9093FA028093F9021F913A
:1012D0000F9108951F920F920FB60F9211242F9322
:1012E0003F938F939F93AF93BF938091FF02909111
:1012F0000003A0910103B091020330910303019612
:10130000A11DB11D232F2D5F2D3720F02D570196E4
:10131000A11DB11D209303038093FF02909300034E
:10132000A0930103B09302038091FB029091FC0211
:10133000A091FD02B091FE020196A11DB11D809306
:10134000FB029093FC02A093FD02B093FE02BF91BA
:10135000AF919F918F913F912F910F900FBE0F9062
:101360001F9018956FB7F8942091FB023091FC0202
:101370004091FD025091FE0282B790E0A0E0B0E003
:1013800006B600FE09C08F3F9105A105B10521F009
:101390002F5F3F4F4F4F5F4F6FBF542F432F322F61
:1013A0002227280F391F4A1F5B1F82E0220F331F9D
:1013B000441F551F8A95D1F7B901CA010895EF92CC
:1013C000FF920F931F93CF93DF937B018C010E94B9
:1013D000B209EB010EC00E94B2096C1B7D0B685E66
:1013E0007340C8F30894E108F10801091109C851D4
:1013F000DC4FE114F1040105110569F7DF91CF918C
:101400001F910F91FF90EF900895E82FE695E695D4
:10141000E695A82FB0E0613099F42FB7F894F0E08A
:10142000EE0FFF1FEE53FE4F0190F081E02D9081F3
:10143000A770B070A85EBD4F8C91982B908313C09D
:101440002FB7F894F0E0EE0FFF1FEE53FE4F019020
:10145000F081E02D9081A770B070A85EBD4F8C9197
:101460008095892380832FBF0895A82FE82FE695C4
:10147000E695E695F0E0EE0FFF1FE053FE4F01907A
:10148000F081E02DE081B0E0A770B070A85EBD4FA4
:101490008C91E82309F0E1E08E2F0895E82FE6957E
:1014A000E695E695A82FB0E0613099F42FB7F8944F
:1014B000F0E0EE0FFF1FEC54FE4F0190F081E02DA5
:1014C0009081A770B070A85EBD4F8C91982B9083CF
:1014D00013C02FB7F894F0E0EE0FFF1FEC54FE4F4F
:1014E0000190F081E02D9081A770B070A85EBD4F93
:1014F0008C918095892380832FBF0895E82FF0E099
:10150000613051F4EE0FFF1FEE53FE4F0190F0815A
:10151000E02D8FEF80830895EE0FFF1FEE53FE4FF7
:101520000190F081E02D10820895E82FF0E0EE0F99
:10153000FF1FE053FE4F0190F081E02D8081089560
:10154000E82FF0E0EE0FFF1FEC54FE4F0190F0810A
:10155000E02D60830895109261001092620080E493
:1015600087B987EE86B908951F93182F8091DE0101
:10157000813021F40E94AB0A1092DE018091DF01DC
:10158000181721F4349A349BFECF0DC01093DF015D
:1015900087B11770807E812B87B9349A349BFECF38
:1015A000349A349BFECF24B135B1C9011F910895FF
:1015B00093B7987F982B93BF08959EB5987F982BEB
:1015C0009EBD089583E00E94DD0A1DBC1CBC87B748
:1015D000846087BF0895EAE8F0E09081987F982BB7
:1015E0009083089583E00E94EB0A10928900109284
:1015F0008800EDE7F0E08081846080830895893081
:1016000031F48FB582608FBD8FB58E7F0AC08A306E
:1016100019F48FB5826002C08FB58D7F8FBD8FB5F5
:1016200081608FBD1BBC1ABC19BC18BC109279001C
:101630001092780008958FB580688FBD8FB58F7B2D
:101640008FBD08958FB580628FBD8FB58F7E8FBDA2
:1016500008958FB588608FBD8FB58B7F8FBD08953E
:101660009BBD8ABD089599BD88BD0895909379006A
:10167000809378000895893049F480918B008260CE
:1016800080938B0080918B008E7F0EC08A3021F476
:1016900080918B00826003C080918B008D7F80934E
:1016A0008B0080918B00816080938B00109287006B
:1016B0001092860010928500109284001092830090
:1016C000109282000895EBE8F0E0808180688083CA
:1016D00080818F7B80830895EBE8F0E080818062D9
:1016E000808380818F7E80830895EBE8F0E08081A5
:1016F0008860808380818B7F80830895853019F492
:101700000E941B0B0895843019F40E94220B089547
:10171000833019F40E94290B0895823019F40E9435
:10172000630B0895813019F40E946C0B089588238F
:1017300011F40E94750B08959093870080938600A2
:10174000089590938500809384000895909383007A
:10175000809382000895EF92FF921F93CF93DF93BF
:10176000182F7B018D31B0F08F3111F413E014C0CC
:101770008E3111F414E010C08D3109F49BC0853214
:1017800011F410E03DC0843211F411E039C083320D
:1017900019F48EC08330A0F18091040386FD0BC044
:1017A0000E94E20A78948AE00E94FF0A8091040372
:1017B00080648093040380910403C12FD0E090E003
:1017C000012E02C0959587950A94E2F780FD4CC0E2
:1017D00087B3FE01E05EFD4F9081892B87BB812F8F
:1017E0000E947E0B2091040381E090E0012E02C054
:1017F000880F991F0A94E2F7282B2093040334C022
:101800008091040387FD0BC00E94F20A78948AE05D
:101810000E943B0B809104038068809304038091B5
:101820000403C12FD0E090E0012E02C0959587956A
:101830000A94E2F780FD24C082B1FE01E05EFD4F14
:101840009081892B82B9812F0E947E0B2091040305
:1018500081E090E0012E02C0880F991F0A94E2F700
:10186000282B209304030CC0153021F4C7010E94DB
:10187000300B22C0143021F4C7010E94330B1CC06E
:10188000133021F4C7010E94360B16C0123021F428
:10189000C7010E949C0B10C0113021F4C7010E94A7
:1018A000A10B0AC0112341F4C7010E94A60B04C07A
:1018B00012E0A6CF15E070CFDF91CF911F91FF907E
:1018C000EF9008951F920F920FB60F920BB60F92E2
:1018D00011242F933F934F935F936F937F938F9335
:1018E0009F93AF93BF93EF93FF9380910B039091DE
:1018F0000C03892B29F0E0910B03F0910C0309955F
:10190000FF91EF91BF91AF919F918F917F916F91D7
:101910005F914F913F912F910F900BBE0F900FBE93
:101920000F901F9018951F920F920FB60F920BB643
:101930000F9211242F933F934F935F936F937F9355
:101940008F939F93AF93BF93EF93FF938091150372
:1019500090911603892B29F0E0911503F09116035D
:101960000995FF91EF91BF91AF919F918F917F91D9
:101970006F915F914F913F912F910F900BBE0F9000
:101980000FBE0F901F9018951F920F920FB60F92D7
:101990000BB60F9211242F933F934F935F936F9346
:1019A0007F938F939F93AF93BF93EF93FF93809118
:1019B0001B0390911C03892B29F0E0911B03F091EC
:1019C0001C030995FF91EF91BF91AF919F918F916A
:1019D0007F916F915F914F913F912F910F900BBE2F
:1019E0000F900FBE0F901F9018951F920F920FB679
:1019F0000F920BB60F9211242F933F934F935F9347
:101A00006F937F938F939F93AF93BF93EF93FF93C6
:101A10008091070390910803892B29F0E091070337
:101A2000F09108030995FF91EF91BF91AF919F91BC
:101A30008F917F916F915F914F913F912F910F9077
:101A40000BBE0F900FBE0F901F9018951F920F9214
:101A50000FB60F920BB60F9211242F933F934F9313
:101A60005F936F937F938F939F93AF93BF93EF9306
:101A7000FF9380910D0390910E03892B29F0E09143
:101A80000D03F0910E030995FF91EF91BF91AF9176
:101A90009F918F917F916F915F914F913F912F9186
:101AA0000F900BBE0F900FBE0F901F9018951F92B6
:101AB0000F920FB60F920BB60F9211242F933F93F4
:101AC0004F935F936F937F938F939F93AF93BF9346
:101AD000EF93FF9380910F0390911003892B29F0CE
:101AE000E0910F03F09110030995FF91EF91BF91E1
:101AF000AF919F918F917F916F915F914F913F91A6
:101B00002F910F900BBE0F900FBE0F901F90189546
:101B10001F920F920FB60F920BB60F9211242F93B4
:101B20003F934F935F936F937F938F939F93AF9365
:101B3000BF93EF93FF938091110390911203892B30
:101B400029F0E0911103F09112030995FF91EF91B3
:101B5000BF91AF919F918F917F916F915F914F91C5
:101B60003F912F910F900BBE0F900FBE0F901F90C3
:101B700018951F920F920FB60F920BB60F92112469
:101B80002F933F934F935F936F937F938F939F9385
:101B9000AF93BF93EF93FF9380911303909114033E
:101BA000892B29F0E0911303F09114030995FF911B
:101BB000EF91BF91AF919F918F917F916F915F91C5
:101BC0004F913F912F910F900BBE0F900FBE0F9032
:101BD0001F9018951F920F920FB60F920BB60F928F
:101BE00011242F933F934F935F936F937F938F9322
:101BF0009F93AF93BF93EF93FF93809117039091BF
:101C00001803892B29F0E0911703F0911803099527
:101C1000FF91EF91BF91AF919F918F917F916F91C4
:101C20005F914F913F912F910F900BBE0F900FBE80
:101C30000F901F9018951F920F920FB60F920BB630
:101C40000F9211242F933F934F935F936F937F9342
:101C50008F939F93AF93BF93EF93FF9380911D0357
:101C600090911E03892B29F0E0911D03F0911E0332
:101C70000995FF91EF91BF91AF919F918F917F91C6
:101C80006F915F914F913F912F910F900BBE0F90ED
:101C90000FBE0F901F9018951F920F920FB60F92C4
:101CA0000BB60F9211242F933F934F935F936F9333
:101CB0007F938F939F93AF93BF93EF93FF93809105
:101CC0001F0390912003892B29F0E0911F03F091CD
:101CD00020030995FF91EF91BF91AF919F918F9153
:101CE0007F916F915F914F913F912F910F900BBE1C
:101CF0000F900FBE0F901F9018951F920F920FB666
:101D00000F920BB60F9211242F933F934F935F9333
:101D10006F937F938F939F93AF93BF93EF93FF93B3
:101D20008091210390912203892B29F0E0912103D6
:101D3000F09122030995FF91EF91BF91AF919F918F
:101D40008F917F916F915F914F913F912F910F9064
:101D50000BBE0F900FBE0F901F9018951F920F9201
:101D60000FB60F920BB60F9211242F933F934F9300
:101D70005F936F937F938F939F93AF93BF93EF93F3
:101D8000FF938091230390912403892B29F0E09104
:101D90002303F09124030995FF91EF91BF91AF9137
:101DA0009F918F917F916F915F914F913F912F9173
:101DB0000F900BBE0F900FBE0F901F90189583E0F1
:101DC00061E00E947E0A84E061E00E947E0A7894CD
:101DD0000E9431090E94E808FDCFDC01ED91FC91E1
:101DE0000190F081E02D099508950E94ED0E08956F
:101DF0000F931F93CF93DF938C01EB0104C02196C7
:101E0000C8010E94F50E68816623C9F7DF91CF9162
:101E10001F910F9108952F923F924F925F926F9270
:101E20007F928F929F92AF92BF92CF92DF92EF926A
:101E3000FF920F931F93DF93CF93CDB7DEB7A09799
:101E40000FB6F894DEBF0FBECDBF1C016A017B0147
:101E5000411551056105710521F460E30E94F50EFD
:101E60004FC0882499245401422E55246624772497
:101E700001E010E00C0F1D1F080D191DC701B60170
:101E8000A30192010E94C611F80160830894811C8D
:101E9000911CA11CB11CC701B601A30192010E94B3
:101EA000C611C901DA016C017D01C114D104E1043C
:101EB000F104F1F681E0E82EF12CEC0EFD1EE80CA9
:101EC000F91C3E010894611C711CD501C4010197E5
:101ED000A109B1096C01C818D9080FC0F601EE0DAF
:101EE000FF1D60816A3010F4605D01C0695CC10152
:101EF0000E94F50E0894E108F1086E147F0471F752
:101F0000A0960FB6F894DEBF0FBECDBFCF91DF9184
:101F10001F910F91FF90EF90DF90CF90BF90AF9007
:101F20009F908F907F906F905F904F903F902F90F9
:101F30000895EF92FF920F931F93CF93DF93EC01DD
:101F40007A018B0177FF0BC06DE20E94F50E1095B0
:101F50000095F094E094E11CF11C011D111DCE01CF
:101F6000B801A7012AE00E940B0FDF91CF911F91CA
:101F70000F91FF90EF900895AB01662757FD609594
:101F8000762F0E94990F08955058BB27AA270ED08C
:101F90004DC13ED130F043D120F031F49F3F11F4D8
:101FA0001EF433C10EF4E095E7FB29C1E92F4FD1B0
:101FB00080F3BA17620773078407950718F071F466
:101FC0009EF567C10EF4E0950B2EBA2FA02D0B01E4
:101FD000B90190010C01CA01A0011124FF27591B6E
:101FE00099F0593F50F4503E68F11A16F040A22F74
:101FF000232F342F4427585FF3CF469537952795E5
:10200000A795F0405395C9F77EF41F16BA0B620BE3
:10201000730B840BBAF09150A1F0FF0FBB1F661F2A
:10202000771F881FC2F70EC0BA0F621F731F841F6D
:1020300048F4879577956795B795F7959E3F08F093
:10204000B3CF9395880F08F09927EE0F9795879552
:1020500008950CD0EBC0E3D040F0DAD030F021F49A
:102060005F3F19F0CCC0511115C1CFC0F0D098F32B
:102070009923C9F35523B1F3951B550BBB27AA2709
:1020800062177307840738F09F5F5F4F220F331F7B
:10209000441FAA1FA9F333D00E2E3AF0E0E830D047
:1020A00091505040E695001CCAF729D0FE2F27D04A
:1020B000660F771F881FBB1F261737074807AB0718
:1020C000B0E809F0BB0B802DBF01FF2793585F4F8D
:1020D0002AF09E3F510568F092C0DCC05F3FECF3F0
:1020E000983EDCF3869577956795B795F7959F5F52
:1020F000C9F7880F911D9695879597F90895E1E0A6
:10210000660F771F881FBB1F621773078407BA0704
:1021100020F0621B730B840BBA0BEE1F88F7E0955F
:10212000089504D06894B111B5C0089598D088F08E
:102130009F5790F0B92F9927B751A0F0D1F0660FB3
:10214000771F881F991F1AF0BA95C9F712C0B130CE
:1021500081F09FD0B1E008959CC0672F782F882729
:10216000B85F39F0B93FCCF3869577956795B3950D
:10217000D9F73EF490958095709561957F4F8F4F7C
:102180009F4F0895E89409C097FB3EF49095809581
:10219000709561957F4F8F4F9F4F9923A9F0F92F2D
:1021A00096E9BB279395F695879577956795B795AB
:1021B000F111F8CFFAF4BB0F11F460FF1BC06F5F91
:1021C0007F4F8F4F9F4F16C0882311F096E911C0A3
:1021D000772321F09EE8872F762F05C0662371F0C4
:1021E00096E8862F70E060E02AF09A95660F771FD8
:1021F000881FDAF7880F9695879597F9089597F9CC
:102200009F6780E870E060E008959FEF80EC08959C
:1022100000240A94161617061806090608950024C5
:102220000A9412161306140605060895092E03943F
:10223000000C11F4882352F0BB0F40F4BF2B11F4B3
:1022400060FF04C06F5F7F4F8F4F9F4F089557FD12
:102250009058440F551F59F05F3F71F04795880F14
:1022600097FB991F61F09F3F79F0879508951216AB
:1022700013061406551FF2CF4695F1DF08C0161657
:1022800017061806991FF1CF869571056105089408
:102290000895E894BB2766277727CB0197F908951F
:1022A0000BD0C4CFB5DF28F0BADF18F0952309F0C2
:1022B000A6CFABCF1124EECFCADFA0F3959FD1F309
:1022C000950F50E0551F629FF001729FBB27F00DE4
:1022D000B11D639FAA27F00DB11DAA1F649F662739
:1022E000B00DA11D661F829F2227B00DA11D621F88
:1022F000739FB00DA11D621F839FA00D611D221F42
:10230000749F3327A00D611D231F849F600D211D25
:10231000822F762F6A2F11249F5750408AF0E1F0C8
:1023200088234AF0EE0FFF1FBB1F661F771F881F11
:1023300091505040A9F79E3F510570F060CFAACF51
:102340005F3FECF3983EDCF3869577956795B795FC
:10235000F795E7959F5FC1F7FE2B880F911D969526
:10236000879597F9089597FB092E07260AD077FDE0
:1023700004D02ED006D000201AF4709561957F4FBE
:102380000895F6F7909581959F4F0895A1E21A2E32
:10239000AA1BBB1BFD010DC0AA1FBB1FEE1FFF1F09
:1023A000A217B307E407F50720F0A21BB30BE40B59
:1023B000F50B661F771F881F991F1A9469F76095A0
:1023C0007095809590959B01AC01BD01CF0108955A
:1023D000AA1BBB1B51E107C0AA1FBB1FA617B7074B
:1023E00010F0A61BB70B881F991F5A95A9F7809567
:1023F0009095BC01CD010895EE0FFF1F0590F4915B
:10240000E02D0994E199FECF9FBB8EBBE09A9927FE
:102410008DB30895262FE199FECF9FBB8EBB2DBBB8
:102420000FB6F894E29AE19A0FBE01960895F894D7
:02243000FFCFDC
:1024320056616C75653A2000433A00204E3A0049D5
:102442006E2050726F6772657373004C3A00523A95
:10245200004D313A20004D323A20004C3A20002003
:10246200523A20004B703A00204B643A0056617297
:102472006961626C653A20004B5F70004B5F6400DB
:10248200537065656400546170652D466F6C6C6FA6
:1024920077004564697420566172732E0052756E1E
:1024A2002044656D6F00436865636B2053656E73EE
:1024B2006F72730053656C6563743A200049522D44
:1024C200466F6C6C6F77004172742E20436F6C6C98
:1024D200656374004D6F746F720052756E2D416C9E
:1024E2006C00C800320035003B0038002300620057
:1024F2006500310034003A003700220061006400B8
:10250200300033003900360021002000630001FF53
:102512000000000035027E00E401C901FE01000056
:102522000000AE01A702AD020000000007019B02FD
:10253200A10218001900260027000500040001006E
:10254200000000000000B6030102040810204080D1
:062552002010088040206B
:00000001FF
