:100000000C9448000C947C000C947C000C947C00B4
:100010000C947C000C947C000C947C000C947C0070
:100020000C947C000C9442180C94EB160C94111850
:100030000C947E170C94AF170C94BA160C944D17B1
:100040000C94AA130C947C000C94D8000C946801B6
:100050000C947C000C947C000C947C000C947C0030
:100060000C94E0170C9406190C9473180C94A418B3
:100070000C94D5180C941C170C94A9000C94220114
:100080000C947C000C947C000C947C00B3028A05D8
:1000900011241FBECFEFD0E1DEBFCDBF88E483BF08
:1000A00084E00E94181512BE87B7816087BF7894DC
:1000B00012E0A0E0B1E0E2EEF8E300E00BBF02C026
:1000C00007900D92A63DB107D9F713E0A6EDB2E077
:1000D00001C01D92AC3CB107E1F710E0C0E9D0E0EF
:1000E00004C02297FE010E94561CCC38D107C9F7E4
:1000F0000E9437190C946F1C0C940000FC0126819F
:100100003781C90108951F93CF93DF93EC01162F18
:10011000E881F9810190F081E02D0995809710F038
:1001200080E013C08C819D8101969D838C838E819C
:100130009F81FE01E80FF91F128701969F838E832E
:10014000809714F01F821E8281E0DF91CF911F9172
:1001500008951F920F920FB60F920BB60F921124B3
:100160002F933F934F935F936F937F938F939F93BF
:10017000AF93BF93EF93FF93E0917403F0917503F6
:10018000608188E293E00E948300FF91EF91BF912C
:10019000AF919F918F917F916F915F914F913F911F
:1001A0002F910F900BBE0F900FBE0F901F901895C0
:1001B0001F920F920FB60F920BB60F9211242F932E
:1001C0003F934F935F936F937F938F939F93AF93DF
:1001D000BF93EF93FF93E0912403F0912503608197
:1001E00088ED92E00E948300FF91EF91BF91AF9163
:1001F0009F918F917F916F915F914F913F912F913F
:100200000F900BBE0F900FBE0F901F901895FC0122
:1002100024813581C9010895DC01FC018481958127
:1002200001979583848380859185E80FF91F228546
:100230000196FD0191878087409714F01186108602
:10024000822F08951F920F920FB60F920BB60F9246
:1002500011240F931F932F933F934F935F936F93AB
:100260007F938F939F93AF93BF93EF93FF9380916F
:10027000560390915703892B51F00091740310910C
:10028000750382E593E00E940C01F8018083809160
:10029000560390915703892B31F4E0917203F0914A
:1002A000730388E98083FF91EF91BF91AF919F9194
:1002B0008F917F916F915F914F913F912F911F91FE
:1002C0000F910F900BBE0F900FBE0F901F901895BF
:1002D0001F920F920FB60F920BB60F9211240F932D
:1002E0001F932F933F934F935F936F937F938F93BE
:1002F0009F93AF93BF93EF93FF93809106039091E9
:100300000703892B51F0009124031091250382E00B
:1003100093E00E940C01F801808380910603909184
:100320000703892B31F4E0912203F091230388E93C
:100330008083FF91EF91BF91AF919F918F917F91BA
:100340006F915F914F913F912F911F910F910F905E
:100350000BBE0F900FBE0F901F901895FC012481CB
:100360003581C9010895DC01FC01848195810197E3
:100370009583848380859185E80FF91F22850196F6
:10038000FD0191878087809714F011861086822F57
:100390000895FC0186819781892B19F42FEF3FEF97
:1003A00006C0CF0102960E94B301282F30E0C90198
:1003B0000895CF93DF93EC01E885F985E80FF91FE5
:1003C0008285DF91CF910895FC0186819781892BE9
:1003D00019F42FEF3FEF06C0CF0102960E94D9011A
:1003E000282F30E0C9010895FC0115821482848110
:1003F00095819187808797838683089502960E94CE
:10040000F4010895FC0182EA92E09183808380E206
:1004100090E093838283CF010E94F40108951F939B
:10042000CF93DF93EC01162FE881F9810190F081E1
:10043000E02D0995409710F080E013C08C819D81DC
:1004400001969D838C838E819F81FE01E80FF91FA9
:10045000128701969F838E83409714F01F821E821D
:1004600081E0DF91CF911F910895CF93DF93EC014D
:1004700088A999A94097E0F7F894CE018C960E943C
:100480000F02C45BDF4FE881F98180818062808345
:100490007894DF91CF910895FC01158214828481B4
:1004A000958191878087978386830895FC018CEAE4
:1004B00092E09183808380E190E093838283CF01F7
:1004C0000E944C0208956F927F928F929F92AF92FA
:1004D000BF92CF92DF92EF92FF920F931F936C0126
:1004E0005B014A013901FC0184E992E08193919317
:1004F000CF010E940202C6018C960E94560286E439
:1005000090E0C80ED91EF601A192B192819291920B
:100510006192719201931193F182E0821F910F9188
:10052000FF90EF90DF90CF90BF90AF909F908F9013
:100530007F906F900895665F7F4F680F791FCB01A2
:100540000895665F7F4F680F791FCB010895665F3E
:100550007F4F680F791FCB010895665F7F4F680F4B
:10056000791FCB010895EF92FF920F931F9386EDB1
:1005700092E060E970E049E250E02BE230E00AE20C
:1005800010E0FCE2EF2EF12C0E94630286E293E081
:1005900068E970E049E950E02BE930E00AE910E051
:1005A000ECE9EE2EF12C0E9463021F910F91FF9057
:1005B000EF90089585E060E070E00E94031684E00B
:1005C00060E070E00E94031681E060E070E00E944D
:1005D000031680E060E070E00E94031608950F9318
:1005E0001F93CF93DF93EB018A01CC0FDD1F57FDE3
:1005F0000CC0FE01EE54FD4F808161E00E948E141C
:10060000C654DD4F8881B8010EC0FE01EE54FD4F87
:10061000808160E00E948E14C654DD4F66277727E4
:10062000601B710B88810E940316DF91CF911F918F
:100630000F9108951F93CF93DF93C0E0D0E0FE01A8
:10064000EE54FD4F1081812F61E00E944514812FEF
:1006500061E00E948E14FE01E654FD4F808160E04F
:1006600070E00E9403162296C830D10541F7DF9151
:10067000CF911F910895FC0110828AE090E093834E
:1006800082830895CF93DF93EC01882777FD8095CF
:10069000982F0E941C1B20E030E044E353E40E94AA
:1006A000811A20E030E040EF51E40E94A81B20E0D6
:1006B00030E040E251E40E941D1A0E94EE1ACB0184
:1006C0006A30710510F48AE090E08932910510F0EB
:1006D00088E290E09B838A83DF91CF910895E09137
:1006E0006302E7FD15C0FF27E7FDF095EE0FFF1F42
:1006F000EA58FC4F0190F081E02D818160E00E947A
:100700008E1406C02F5F81919191892B69F00EC0E4
:10071000209163022F5FE22FFF27E7FDF095215024
:10072000EE0FFF1FEA58FC4F273064F3209363025B
:10073000E0916302FF27E7FDF095EE0FFF1FEA58F7
:10074000FC4F0190F081E02D309761F48FEF8093A2
:10075000630224EF31E08091870390918803281B86
:10076000390B12C0818161E00E948E14E091630216
:10077000FF27E7FDF095EE0FFF1FEA58FC4F0190B1
:10078000F081E02D2281338183B5820F83BD80917A
:10079000870390918803820F931F9093880380931F
:1007A0008703845F914020F01092880310928703A2
:1007B00008950E94301587B78F7787BF85E00E9424
:1007C0002B1589E06FE673E00E944C1583B58C50C1
:1007D00083BD87B7806887BF109288031092870314
:1007E0008FEF809363020895CF93DF93EC018091A4
:1007F0008603893010F080E03DC06983862F61E078
:100800000E944514E881F0E0EE0FFF1FEA58FC4F0C
:1008100080819181C817D90761F1409186034423F3
:1008200041F4E6E7F3E01192119283E0E638F8072D
:10083000D1F7E6E7F3E020E030E080819181892B79
:1008400061F4F901EE0FFF1FEA58FC4FD183C0831A
:1008500028834F5F4093860306C02F5F3F4F329639
:100860002830310551F780918603813011F40E94C0
:10087000D90381E0DF91CF910895CF93DF93EC010D
:100880008A8160E00E948E148D8160E00E94BE1417
:100890008D8160E00E94E0148B8161E00E948E14E3
:1008A0008C8161E00E948E140000000010C08C81D9
:1008B00060E00E948E1400000000000000008C81A7
:1008C00061E00E948E1400000000000000008D8195
:1008D0000E94D51487FDEBCF8C8160E00E948E14BE
:1008E000DF91CF910895FF920F931F938C01F62E05
:1008F0000E943D04F801828161E00E948E14F8019B
:10090000838160E00E948E14F801848161E00E947E
:100910008E14F801858161E00E94BE14F801858182
:100920006F2D0E94E0140000000000000000F8019C
:10093000848160E00E948E14F801858160E00E944D
:10094000BE14F80185816FEF0E94E0141F910F9192
:10095000FF900895EF92FF920F931F93CF93DF9331
:100960007C01042F6115710551F0EB0110E005C009
:10097000C70169910E9473041F5F1017C8F3DF91CC
:10098000CF911F910F91FF90EF900895DF93CF9338
:100990000F92CDB7DEB76983BE016F5F7F4F41E035
:1009A0000E94AA040F90CF91DF910895FF920F93B8
:1009B0001F938C01F62E0E943D04F801828160E0B5
:1009C0000E948E14F801838160E00E948E14F80169
:1009D000848161E00E948E14F801858161E00E94AB
:1009E000BE14F80185816F2D0E94E0140000000004
:1009F00000000000F801848160E00E948E14F8017C
:100A0000858160E00E94BE14F80185816FEF0E942D
:100A1000E0141F910F91FF900895423031F0433060
:100A200031F0413029F4605C03C06C5E01C06C5A47
:100A300060680E94D604089562E00E94D60408957A
:100A400061E00E94D60408950F931F938C01FC016E
:100A5000828160E00E948E14F801838160E00E9430
:100A60008E14F801848160E00E948E14F801828166
:100A700061E00E944514F801838161E00E94451401
:100A8000F801848161E00E944514F801858160E0ED
:100A90000E94BE14F80185816FEF0E94E0141F913F
:100AA0000F9108950F931F938C010E942405C80194
:100AB00068E30E94D604C80161E00E94D604C80120
:100AC00066E00E94D604C8016CE00E94D604C8010A
:100AD00062E00E94D604C80160E80E94D6041F911B
:100AE0000F9108950F93FC0186EC92E0918380832F
:100AF0006283438324830583CF010E9452050F91B3
:100B00000895CB01642F0E94621C0895CB010E94BE
:100B10005A1C08950F938AE893E06AE14BE12CE1B7
:100B200002E00E94720580E993E00E941A0382E9C4
:100B300093E00E943B0386E993E00E943B038AE92D
:100B400093E00E943B030F910895CF93DF93EC0154
:100B500087E00E94F4142197C89FB001C99F700DCF
:100B6000D89F700D11242196882777FD8095982FA6
:100B70000E941C1B2DEC3CEC4CE85FE30E94A81B80
:100B800020E030E040E85AE30E94A81B20E030E07B
:100B900040E85FE30E941D1A0E94E91A9B01C617F4
:100BA000D7070CF49E01C901DF91CF9108950F93EF
:100BB0001F938C0186E00E94F41420E080179107B7
:100BC0000CF421E0822F1F910F9108950F931F9332
:100BD0000AE813E0C8010E942005C8010E941C0514
:100BE0001F910F910895EF92FF920F931F937C0135
:100BF0000AE813E0C80160E041E00E940D05C80169
:100C0000B7010E9450191F910F91FF90EF90089526
:100C1000EF92FF920F931F937C010AE813E0C80143
:100C200060E040E00E940D05C801B7010E94501924
:100C30001F910F91FF90EF900895EF92FF920F9305
:100C40001F937C010E94E6050AE813E0C80160E0FA
:100C500040E00E940D05C801B7010E945019C8016B
:100C600060E041E00E940D05C80160E071E00E9473
:100C7000501960919E0370919F03C8010E94141A3D
:100C8000C80163E071E00E9450196091A003709167
:100C9000A103C8010E94141A1F910F91FF90EF90B9
:100CA0000895EF92FF920F931F937C010AE813E0DF
:100CB000C80160E041E00E940D05C80167E071E0F5
:100CC0000E945019C801B7010E94141A1F910F9178
:100CD000FF90EF900895AF92BF92CF92DF92EF9284
:100CE000FF920F931F93CF93DF9389E893E068E01F
:100CF00070E00E948605A82EBB24AA0CBB1CAA0C7F
:100D0000BB1C89E893E069E070E00E948605E82E4C
:100D1000FF24EE0CFF1CEE0CFF1C89E893E06AE058
:100D200070E00E948605C82EDD24CC0CDD1CCC0CA6
:100D3000DD1C89E893E06BE070E00E948605082FD7
:100D400010E0000F111F000F111F89E893E06CE005
:100D500070E00E94860580E993E00E94DA02E501D6
:100D60000CC086E993E0BE010E9442036FE070E090
:100D700080E090E00E941F142196CE15DF058CF3D1
:100D8000E6010CC08AE993E0BE010E9442036AE0DA
:100D900070E080E090E00E941F142196C017D107F8
:100DA0008CF382E993E064EB70E00E94420368EE0A
:100DB00073E080E090E00E941F1482E993E060E01D
:100DC00070E00E94420364EF71E080E090E00E94D6
:100DD0001F148AE993E0B6010E94420364EF71E0B8
:100DE00080E090E00E941F1486E993E0B5010E9424
:100DF000420364EF71E080E090E00E941F140E94C3
:100E0000E6058AE893E060E040E00E940D058AE88C
:100E100093E06FE071E00E945019DF91CF911F9134
:100E20000F91FF90EF90DF90CF90BF90AF9008951B
:100E3000AF92BF92CF92DF92EF92FF920F931F93E8
:100E4000CF93DF9389E893E068E070E00E94860525
:100E5000A82EBB24AA0CBB1CAA0CBB1C89E893E0DF
:100E600069E070E00E948605E82EFF24EE0CFF1C6E
:100E7000EE0CFF1C89E893E06AE070E00E948605B2
:100E8000C82EDD24CC0CDD1CCC0CDD1C89E893E0E5
:100E90006BE070E00E948605082F10E0000F111F24
:100EA000000F111F89E893E06CE070E00E94860556
:100EB000C82FD0E0CC0FDD1FCC0FDD1F80E993E001
:100EC0000E94DA028AE893E060E040E00E940D05AB
:100ED0008AE893E064E171E00E945019CE010E941B
:100EE000D7058823D9F30E94E6058AE893E060E0FD
:100EF00040E00E940D058AE893E061E271E00E9403
:100F00005019E5010CC086E993E0BE010E9442033E
:100F10006FE070E080E090E00E941F142196CE15F3
:100F2000DF058CF3E6010CC08AE993E0BE010E9464
:100F300042036AE070E080E090E00E941F14219676
:100F4000C017D1078CF382E993E064EB70E00E9454
:100F5000420368EE73E080E090E00E941F1482E993
:100F600093E060E070E00E94420364EF71E080E093
:100F700090E00E941F148AE993E0B6010E944203A8
:100F800064EF71E080E090E00E941F1486E993E036
:100F9000B5010E94420364EF71E080E090E00E949E
:100FA0001F140E94E6058AE893E060E040E00E949A
:100FB0000D058AE893E06FE071E00E945019DF911F
:100FC000CF911F910F91FF90EF90DF90CF90BF9046
:100FD000AF9008950F931F9309E813E0C80161E0F3
:100FE00070E04EE30E948105C80162E070E046E0D7
:100FF0000E948105C80163E070E04BE40E94810516
:10100000C80164E070E049E10E948105C80165E023
:1010100070E04EE30E948105C80166E070E046E0A2
:101020000E948105C80167E070E044E60E948105E6
:10103000C80168E070E044E00E9481051F910F91B3
:10104000089581E30E947514882311F080E00895CB
:101050006CE271E080E090E00E941F1481E008954E
:101060002F923F924F925F926F927F928F929F92B8
:10107000AF92BF92CF92DF92EF92FF920F931F93A6
:10108000DF93CF93CDB7DEB72F970FB6F894DEBFBF
:101090000FBECDBF89E893E061E070E00E94860555
:1010A000282F30E0220F331F220F331F3F832E8360
:1010B00089E893E062E070E00E948605A82FB0E026
:1010C000AA0FBB1FAA0FBB1FBD83AC8389E893E0A7
:1010D00063E070E00E948605E82FF0E0EE0FFF1F4E
:1010E000EE0FFF1FFB83EA8389E893E064E070E082
:1010F0000E948605A82EBB24AA0CBB1CAA0CBB1CF4
:10110000CC24DD241B861A861986188622243324D3
:1011100044245524198200E010E08C819D81AA2787
:1011200097FDA095BA2F8C879D87AE87BF8739C161
:1011300080E00E94F4143C0181E00E94F4144C0110
:10114000A614B70434F4A816B9066CF4CC24DD2434
:1011500021C06A147B04F4F4A816B9065CF4CC240C
:10116000CA94DC2C17C08A159B05A4F481E0C82E14
:10117000D12C10C08A159B056CF4D7FE05C0BBEFBF
:10118000CB2EBFEFDB2E06C0CD2809F40FC1A5E0A2
:10119000CA2ED12CC016D10639F01B870A87398692
:1011A0002886F1E02F2E312C6C857D858E859F85DC
:1011B0000E941C1B7B018C01B601AA85BB856A1BA2
:1011C0007B0B882777FD8095982F0E941C1B9B0125
:1011D000AC01C801B7010E94A81B7B018C01688586
:1011E0007985620D731D882777FD8095982F0E9461
:1011F0001C1B9B01AC01C801B7010E94811A0E940F
:10120000E91A7B018C01EE81FF81CE9EC001CF9E49
:10121000900DDE9E900D1124E80EF91E4A815B812F
:101220004E195F0980E993E063E070E00E94EF02ED
:101230002A813B81E20EF31E80E993E062E070E0D8
:10124000A7010E94EF0232E34316510409F046C0A1
:1012500083E00E94F4148035910514F481E08983C1
:101260008AE893E00E9420058AE893E00E941C052A
:101270008AE893E06FE271E00E9450198AE893E0F7
:10128000B3010E94141A8AE893E063E371E00E94BC
:1012900050198AE893E0B4010E94141A8AE893E096
:1012A00060E041E00E940D058AE893E068E371E0A8
:1012B0000E9450198AE893E06E817F810E94141A7F
:1012C0008AE893E06CE371E00E9450198AE893E0A9
:1012D0006C817D810E94141A44245524998199239C
:1012E00009F458C080E993E00E94DA0200E110E0BE
:1012F00086E993E0B8010E9442036FE070E080E06D
:1013000090E00E941F140F5F1F4F0436110581F7F4
:1013100000E010E08AE993E0B8010E9442036AE02D
:1013200070E080E090E00E941F140F5F1F4F0639AD
:10133000110581F782E993E064EB70E00E944203BB
:1013400068EE73E080E090E00E941F1482E993E071
:1013500060E070E00E94420364EF71E080E090E0A2
:101360000E941F148AE993E060E070E00E9442034B
:1013700064EF71E080E090E00E941F1486E993E042
:1013800060E170E00E94420364EF71E080E090E071
:101390000E941F140894411C511C0894211C311CEC
:1013A00086010E942108882309F4C2CE80E993E0D7
:1013B0000E94DA022F960FB6F894DEBF0FBECDBFA3
:1013C000CF91DF911F910F91FF90EF90DF90CF9021
:1013D000BF90AF909F908F907F906F905F904F9055
:1013E0003F902F900895EF92FF920F931F9332C07A
:1013F00084E00E94F4148C0185E00E94F4147C01C6
:101400000E94E6058AE893E060E040E00E940D0556
:101410008AE893E061E471E00E9450198AE893E061
:10142000B8010E94141A8AE893E060E041E00E944B
:101430000D058AE893E064E471E00E9450198AE89F
:1014400093E0B7010E94141A68EC70E080E090E02D
:101450000E941F140E942108882351F21F910F91AE
:10146000FF90EF9008954F925F926F927F928F92CC
:101470009F92AF92BF92CF92DF92EF92FF920F9323
:101480001F93CF93DF9389E893E061E070E00E94BF
:101490008605882E9924880C991C880C991C89E84B
:1014A00093E062E070E00E948605A82EBB24AA0C9F
:1014B000BB1CAA0CBB1C89E893E063E070E00E94AF
:1014C0008605C82EDD24CC0CDD1CCC0CDD1C00E018
:1014D00010E0C0E0D0E081C080E00E94F4143C0144
:1014E00081E00E94F4142C017301E81AF90A8DE2DC
:1014F000E81681E0F80624F05CE2E52E51E0F52ED6
:10150000C701801B910B8A9D80018B9D100D9A9DB8
:10151000100D1124E89CC001E99C900DF89C900DE1
:101520001124080F191FA601401B510B80E993E0FD
:1015300063E070E00E94EF020C0D1D1D80E993E056
:1015400062E070E0A8010E94EF02C233D10509F009
:1015500042C08AE893E00E9420058AE893E00E9456
:101560001C058AE893E060E040E00E940D058AE8EF
:1015700093E061E471E00E9450198AE893E0B301BE
:101580000E94141A8AE893E067E471E00E945019FF
:101590008AE893E0B2010E94141A8AE893E060E0BE
:1015A00041E00E940D058AE893E068E371E00E9443
:1015B00050198AE893E0B4010E94141A8AE893E073
:1015C0006CE371E00E9450198AE893E0B5010E9433
:1015D000141AC0E0D0E0219687010E9421088823D8
:1015E00009F47ACF80E993E00E94DA02DF91CF918B
:1015F0001F910F91FF90EF90DF90CF90BF90AF9031
:101600009F908F907F906F905F904F9008952F9252
:101610003F924F925F926F927F928F929F92AF9282
:10162000BF92CF92DF92EF92FF920F931F93DF93BF
:10163000CF93CDB7DEB72E970FB6F894DEBF0FBEAF
:10164000CDBF89E893E061E070E00E948605282F15
:1016500030E0220F331F220F331F3C832B8389E896
:1016600093E062E070E00E948605482F50E0440F4E
:10167000551F440F551F5A83498389E893E063E05F
:1016800070E00E948605282E3324220C331C220C85
:10169000331C89E893E064E070E00E948605C82E60
:1016A000DD24CC0CDD1CCC0CDD1C1E821D821E86B4
:1016B0001D8618861F8200E010E0662477248824A7
:1016C000992489819A81AA2797FDA095BA2F8987A5
:1016D0009A87AB87BC87DBC084E00E94F4142C019E
:1016E00085E00E94F4145C01C414D50434F4C816D7
:1016F000D90664F41E861D8625C04C145D0414F5BD
:10170000C816D9065CF4AFEFBFEF1AC08C159D0563
:10171000CCF4E1E0F0E0FE87ED8714C08C159D0568
:101720008CF42D853E8537FF05C04BEF5FEF5E875C
:101730004D8708C08D859E85892B21F0A5E0B0E0FE
:10174000BE87AD87ED85FE85E017F10739F07E8213
:101750006D8218870F83F1E06F2E712C69857A8571
:101760008B859C850E941C1B7B018C016D857E8571
:101770002F813885621B730B882777FD8095982F02
:101780000E941C1B9B01AC01C801B7010E94A81B51
:101790007B018C016D817E81660D771D882777FD29
:1017A0008095982F0E941C1B9B01AC01C801B701BA
:1017B0000E94811A0E94E91A7B018C014D855E8589
:1017C000AB81BC814A9FC0014B9F900D5A9F900DE9
:1017D0001124E80EF91EA701420D531D80E993E084
:1017E00063E070E00E94EF02A1014E195F0980E9F9
:1017F00093E062E070E00E94EF02B2E38B16910486
:10180000F1F58AE893E00E9420058AE893E00E94BF
:101810001C058AE893E06FE271E00E9450198AE8A3
:1018200093E0B2010E94141A8AE893E063E371E046
:101830000E9450198AE893E0B5010E94141A8AE8C0
:1018400093E060E041E00E940D058AE893E068E3E0
:1018500071E00E9450198AE893E06B817C810E94BC
:10186000141A8AE893E06CE371E00E9450198AE848
:1018700093E069817A810E94141A8824992408943B
:10188000811C911C0894611C711C0D851E850E9491
:101890002108882309F420CF80E993E00E94DA022E
:1018A0002E960FB6F894DEBF0FBECDBFCF91DF915D
:1018B0001F910F91FF90EF90DF90CF90BF90AF906E
:1018C0009F908F907F906F905F904F903F902F9060
:1018D00008952F923F924F925F926F927F928F92D4
:1018E0009F92AF92BF92CF92DF92EF92FF920F93AF
:1018F0001F93DF93CF93CDB7DEB760970FB6F89401
:10190000DEBF0FBECDBF89E893E061E070E00E94CA
:101910008605282F30E0220F331F220F331F3E830E
:101920002D8389E893E062E070E00E948605482FED
:1019300050E0440F551F440F551F5C834B8389E8CB
:1019400093E063E070E00E948605282E3324220C89
:10195000331C220C331C89E893E064E070E00E94A1
:101960008605C82EDD24CC0CDD1CCC0CDD1C89E8E2
:1019700093E06CE070E00E948605A82FB0E0AA0F0B
:10198000BB1FAA0FBB1FBA83A983188A1F861A869A
:10199000198600E010E018861F824424552488240C
:1019A00099242B813C81442737FD4095542F2B8768
:1019B0003C874D875E87E4C089819A810E94D70564
:1019C000882319F00E946B06DBC084E00E94F414A7
:1019D0003C0185E00E94F4145C01C614D70434F481
:1019E000C816D90664F4188A1F8625C06C147D04B5
:1019F00014F5C816D9065CF44FEF5FEF1AC08C15CA
:101A00009D05CCF481E090E0988B8F8714C08C15F5
:101A10009D058CF4AF85B889B7FF05C0EBEFFFEFEC
:101A2000F88BEF8708C02F853889232B21F045E0FC
:101A300050E0588B4F878F8598898017910739F030
:101A40001A87098758864F8281E0482E512C6B8572
:101A50007C858D859E850E941C1B7B018C016F857A
:101A60007889A985BA856A1B7B0B882777FD8095C5
:101A7000982F0E941C1B9B01AC01C801B7010E945A
:101A8000A81B7B018C016F817885640D751D8827EB
:101A900077FD8095982F0E941C1B9B01AC01C8010B
:101AA000B7010E94811A0E94E91A7B018C01EF851F
:101AB000F8892D813E81E29FC001E39F900DF29F46
:101AC000900D1124E80EF91EA701420D531D80E967
:101AD00093E063E070E00E94EF02A1014E195F09FC
:101AE00080E993E062E070E00E94EF0232E3831647
:101AF0009104F1F58AE893E00E9420058AE893E0DA
:101B00000E941C058AE893E06FE271E00E94501980
:101B10008AE893E0B3010E94141A8AE893E063E331
:101B200071E00E9450198AE893E0B5010E94141AEE
:101B30008AE893E060E041E00E940D058AE893E0C6
:101B400068E371E00E9450198AE893E06D817E811C
:101B50000E94141A8AE893E06CE371E00E94501925
:101B60008AE893E06B817C810E94141A882499246E
:101B70000894811C911C0894411C511C0F851889E4
:101B80000E942108882309F417CF80E993E00E947E
:101B9000DA0260960FB6F894DEBF0FBECDBFCF91CC
:101BA000DF911F910F91FF90EF90DF90CF90BF904A
:101BB000AF909F908F907F906F905F904F903F90ED
:101BC0002F9008950F931F93CF93DF9363C086E008
:101BD0000E94F4148C010F5F1140000F111F87E069
:101BE0000E94F4148F5F9140880F991FA8012CEF79
:101BF0000130120714F441E05CEF8A0124E0403028
:101C0000520714F00FEF13E0AC018CEF413058078E
:101C100014F441E05CEFEA0124E04030520714F094
:101C2000CFEFD3E080E993E063E070E0A8010E9489
:101C3000EF0280E993E062E070E0AE010E94EF0203
:101C40000E94E6058AE893E060E040E00E940D050E
:101C50008AE893E06BE471E00E9450198AE893E00F
:101C6000B8010E94141A8AE893E060E041E00E9403
:101C70000D058AE893E060E571E00E9450198AE85A
:101C800093E0BE010E94141A62E370E080E090E0ED
:101C90000E941F140E942108882309F498CF80E92C
:101CA00093E00E94DA02DF91CF911F910F91089586
:101CB0002F923F924F925F926F927F928F929F925C
:101CC000AF92BF92CF92DF92EF92FF920F931F934A
:101CD0008CC080E00E94F4145C0181E00E94F41446
:101CE0007C0182E00E94F4141C0183E00E94F41441
:101CF0003C010E94E6058AE893E060E040E00E9433
:101D00000D058AE893E065E571E00E9450198AE8C4
:101D100093E068E571E00E9450190027F7FC0095F8
:101D2000102FC801B7010E941C1B0E94E91A9B01D9
:101D3000AC018AE893E0B9010E94141A8AE893E0A2
:101D40006CE571E00E945019CC24B7FCC094DC2CE7
:101D5000C601B5010E941C1B0E94E91A9B01AC013F
:101D60008AE893E0B9010E94141A8AE893E060E0DF
:101D700041E00E940D058AE893E060E671E00E9470
:101D800050198AE893E068E571E00E9450198824B0
:101D900077FC8094982CC401B3010E941C1B0E9404
:101DA000E91A9B01AC018AE893E0B9010E94141A78
:101DB0008AE893E06CE571E00E945019442437FCF6
:101DC0004094542CC201B1010E941C1B0E94E91ACC
:101DD0009B01AC018AE893E0B9010E94141A68ECF7
:101DE00070E080E090E00E941F140E942108882388
:101DF00009F46FCF1F910F91FF90EF90DF90CF907C
:101E0000BF90AF909F908F907F906F905F904F901A
:101E10003F902F9008952F923F924F925F926F9232
:101E20007F928F929F92AF92BF92CF92DF92EF926A
:101E3000FF920F931F93CF93DF9389E893E065E0C0
:101E400070E00E948605482E5524440C551C440C15
:101E5000551C89E893E066E070E00E948605682ED4
:101E60007724660C771C660C771C89E893E067E0A2
:101E700070E00E948605882E9924880C991C880C95
:101E8000991C22243324AA24BB2497C080E00E94FA
:101E9000F4147C0181E00E94F414082FD92E82E012
:101EA0000E94F414EC0183E00E94F414AC01CE0112
:101EB0008E0D9F1D815D97401CF467017E0105C05A
:101EC000202F3D2DC9016C017A01E601CE19DF09F1
:101ED000C93CD1051CF0C8ECD0E006C08FEFC83378
:101EE000D80714F4C8E3DFEFCE0182199309869D69
:101EF0008001879D100D969D100D1124C49DC00179
:101F0000C59D900DD49D900D1124080F191FA80197
:101F1000480D591D80E993E063E070E00E94EF02F4
:101F2000A401401B510B80E993E062E070E00E9445
:101F3000EF0222E3A216B104E1F58AE893E00E94E1
:101F400020058AE893E00E941C058AE893E06FE28E
:101F500071E00E9450198AE893E0B6010E94141AB9
:101F60008AE893E063E371E00E9450198AE893E005
:101F7000B7010E94141A8AE893E060E041E00E94F1
:101F80000D058AE893E068E371E00E9450198AE841
:101F900093E0B2010E94141A8AE893E06CE371E0C6
:101FA0000E9450198AE893E0B3010E94141AAA24EF
:101FB000BB240894A11CB11C1E010E942108882387
:101FC00009F464CF80E993E00E94DA02DF91CF91B7
:101FD0001F910F91FF90EF90DF90CF90BF90AF9047
:101FE0009F908F907F906F905F904F903F902F9039
:101FF00008950F931F931DC086E00E94F4148C0176
:102000000E94E6058AE893E060E040E00E940D054A
:102010008AE893E06FE671E00E9450198AE893E045
:10202000B8010E94141A68EC70E080E090E00E9411
:102030001F140E9421088823F9F21F910F9108951F
:1020400082E30E947514882311F080E008956CE209
:1020500071E080E090E00E941F1481E008956F928B
:102060007F928F929F92AF92BF92CF92DF92EF9228
:10207000FF920F931F93CF93DF936C013B01EA0113
:1020800089E893E0B6010E94860590E0880F991FC9
:10209000880F991F90939F0380939E038AE893E093
:1020A000B3010E94501989E893E0B6010E948605A9
:1020B00090E0880F991F880F991F0E9451060E9477
:1020C0002010882309F04FC058C087E00E94F41404
:1020D000AA2797FDA095BA2FBC01CD010E941C1B19
:1020E00020E030E04AE754E40E94811A7B018C0131
:1020F000C501B4010E941C1B9B01AC01C801B701C2
:102100000E94A81B0E94E91A7093A1036093A00388
:10211000C617D70724F4D093A103C093A003C3012B
:102120000E941D060E9420108823B1F08091A00318
:102130009091A10364E070E00E940B1C462F89E897
:1021400093E0B6010E9481058091A0039091A103C4
:1021500090939F0380939E0368EC70E080E090E092
:102160000E941F1405C04E01AA2497FCA094BA2C0B
:102170000E942108882309F4A8CFDF91CF911F91F5
:102180000F91FF90EF90DF90CF90BF90AF909F9016
:102190008F907F906F90089536C00E94E60585E786
:1021A00091E00E94080684E090E00E94A50582303C
:1021B000910589F0833091051CF40197F1F406C074
:1021C0008330910569F00497C1F40FC081E090E07D
:1021D0006BE771E00EC082E090E06FE771E009C04C
:1021E00083E090E063E871E004C084E090E069E897
:1021F00071E048EE53E00E942F1068EC70E080E040
:1022000090E00E941F140E942108882331F2089553
:1022100062C00E94E60585E791E00E94080689E019
:1022200090E00E94A5058530910589F186309105E1
:1022300084F482309105F1F08330910524F4019704
:1022400009F043C012C083309105C9F00497E9F545
:102250001BC08730910529F187309105ECF088305B
:10226000910521F1099789F528C081E090E06BE79D
:1022700071E027C082E090E06FE771E022C083E068
:1022800090E063E871E01DC084E090E018C088E051
:1022900090E060E971E00EC089E090E068E971E0EB
:1022A00009C08AE090E060EA71E004C08BE090E051
:1022B00068EA71E044EB50E006C08CE090E069E829
:1022C00071E048EE53E00E942F1068EC70E080E06F
:1022D00090E00E941F140E942108882309F499CFDE
:1022E00008952AC00E94E60585E791E00E9408064D
:1022F00083E090E00E94A5058230910551F0833083
:10230000910561F0019791F485E090E06BE771E051
:1023100009C086E090E06FE771E004C087E090E0DC
:1023200063E871E048EE53E00E942F1068EC70E023
:1023300080E090E00E941F140E942108882391F2FF
:10234000089540C00E94E60585E791E00E940806D6
:1023500085E090E00E94A50583309105C9F08430A6
:10236000910534F48130910549F0029729F50BC0AD
:102370008430910591F00597F9F416C088E090E05B
:1023800060E971E00EC089E090E068E971E009C0A1
:102390008AE090E060EA71E004C08BE090E068EAD7
:1023A00071E044EB50E006C08CE090E069E871E039
:1023B00048EE53E00E942F1068EC70E080E090E05F
:1023C0000E941F140E942108882309F4BBCF08959E
:1023D0004AC00E94E6058EEA91E00E94080684E069
:1023E00090E00E94A50582309105B9F083309105F7
:1023F0001CF4019791F506C083309105C9F004974C
:1024000061F521C08AEB91E00E94F3050E94201043
:10241000882319F10E94CC1020C085EC91E00E9425
:10242000F3050E9420108823C1F00E94070B15C0FD
:102430008EEC91E00E94F3050E942010882369F041
:102440000E94330A0AC089ED91E00E94F3050E94C0
:102450002010882311F00E94F30968EC70E080E0FE
:1024600090E00E941F140E942108882309F4B1CF34
:1024700008952BC00E94E60587EE91E00E940806B1
:1024800082E090E00E94A5058130910519F0029745
:10249000B1F40BC08FEE91E00E94F3050E94201072
:1024A000882369F00E94690C0AC08AEB91E00E94BF
:1024B000F3050E942010882311F00E94081168EC97
:1024C00070E080E090E00E941F140E9421088823A1
:1024D00089F2089538C00E94E6058EEF91E00E94CF
:1024E000080683E090E00E94A5058230910581F006
:1024F00083309105C1F0019701F58AEB91E00E94CC
:10250000F3050E9420108823C1F00E94711115C0AC
:1025100085EC91E00E94F3050E942010882369F069
:102520000E940B0F0AC089ED91E00E94F3050E9402
:102530002010882311F00E94580E68EC70E080E0B3
:1025400090E00E941F140E942108882321F2089520
:102550003AC00E94E60588E092E00E94080683E007
:1025600090E00E94A5058230910581F083309105AD
:10257000D1F0019711F58AEB91E00E94F3050E94DA
:1025800020108823D1F00E94A11117C085EC91E0A2
:102590000E94F3050E942010882379F00E94E6052E
:1025A0000E9418070AC088E192E00E94F3050E9489
:1025B0002010882311F00E94F90F68EC70E080E091
:1025C00090E00E941F140E942108882311F20895B0
:1025D0000E94E60585E292E00E94080687E090E00E
:1025E0000E94A50584309105E1F18530910554F4F0
:1025F00082309105F1F0833091053CF5019709F0A7
:1026000071C00BC08630910509F441C08630910538
:102610009CF1079709F066C045C08EEA91E00E94E0
:10262000F3050E942010882309F45CC00E94E81181
:1026300059C08EEF91E00E94F3050E94201088237C
:1026400009F450C00E946A124DC08EE292E00E94CE
:10265000F3050E942010882309F444C00E94A812A8
:1026600041C08BE392E00E94F3050E942010882372
:10267000C9F10E94E20D36C087EE91E00E94F30599
:102680000E942010882371F10E9439122BC081E42E
:1026900092E00E94F3050E942010882319F10E9405
:1026A000300820C081E592E00E94F3050E942010CE
:1026B0008823C1F00E94E6050E94EA078AE893E0B9
:1026C00060E040E00E940D058AE893E06DE572E06D
:1026D0000E94501964EF71E080E090E00E941F14A6
:1026E0000E94E60568EC70E080E090E00E941F1414
:1026F0000895EF92FF920F931F9380E060E00E9495
:10270000BE1481E060E00E94BE1482E993E063E2BF
:1027100070E00E94F40336E9E32E33E0F32EC701A4
:102720006FE170E00E94F4030AE913E0C80162E27D
:1027300070E00E94F403C70164E170E00E9442036C
:10274000C80164E270E00E9442031F910F91FF9064
:10275000EF9008951F920F920FB60F9211242F93AE
:102760003F938F939F93AF93BF938091A6039091D4
:10277000A703A091A803B091A9033091AA030196E1
:10278000A11DB11D232F2D5F2D3720F02D57019650
:10279000A11DB11D2093AA038093A6039093A703C4
:1027A000A093A803B093A9038091A2039091A303DF
:1027B000A091A403B091A5030196A11DB11D809322
:1027C000A2039093A303A093A403B093A503BF9186
:1027D000AF919F918F913F912F910F900FBE0F90CE
:1027E0001F9018956FB7F8942091A2033091A3031E
:1027F0004091A4035091A50382B790E0A0E0B0E01F
:1028000006B600FE09C08F3F9105A105B10521F074
:102810002F5F3F4F4F4F5F4F6FBF542F432F322FCC
:102820002227280F391F4A1F5B1F82E0220F331F08
:10283000441F551F8A95D1F7B901CA010895EF9237
:10284000FF920F931F93CF93DF937B018C010E9424
:10285000F213EB010EC00E94F2136C1B7D0B685E3D
:102860007340C8F30894E108F10801091109C8513F
:10287000DC4FE114F1040105110569F7DF91CF91F7
:102880001F910F91FF90EF900895E82FE695E69540
:10289000E695A82FB0E0613099F42FB7F894F0E0F6
:1028A000EE0FFF1FEE58FD4F0190F081E02D90815B
:1028B000A770B070A853BD4F8C91982B908313C014
:1028C0002FB7F894F0E0EE0FFF1FEE58FD4F019088
:1028D000F081E02D9081A770B070A853BD4F8C910E
:1028E0008095892380832FBF0895A82FE82FE69530
:1028F000E695E695F0E0EE0FFF1FE058FD4F0190E2
:10290000F081E02DE081B0E0A770B070A853BD4F1A
:102910008C91E82309F0E1E08E2F0895E82FE695E9
:10292000E695E695A82FB0E0613099F42FB7F894BA
:10293000F0E0EE0FFF1FEC59FD4F0190F081E02D0C
:102940009081A770B070A853BD4F8C91982B908345
:1029500013C02FB7F894F0E0EE0FFF1FEC59FD4FB6
:102960000190F081E02D9081A770B070A853BD4F09
:102970008C918095892380832FBF0895E82FF0E004
:10298000613051F4EE0FFF1FEE58FD4F0190F081C2
:10299000E02D8FEF80830895EE0FFF1FEE58FD4F5F
:1029A0000190F081E02D10820895E82FF0E0EE0F05
:1029B000FF1FE058FD4F0190F081E02D80810895C8
:1029C000E82FF0E0EE0FFF1FEC59FD4F0190F08172
:1029D000E02D60830895109261001092620080E4FF
:1029E00087B987EE86B908951F93182F80918E02BC
:1029F000813021F40E94EB1410928E0280918F029C
:102A0000181721F4349A349BFECF0DC010938F0217
:102A100087B11770807E812B87B9349A349BFECFA3
:102A2000349A349BFECF24B135B1C9011F9108956A
:102A300093B7987F982B93BF08959EB5987F982B56
:102A40009EBD089583E00E941D151DBC1CBC87B768
:102A5000846087BF089595B5987F982B95BD08959C
:102A600082E00E942B1514BC87B7806487BF08954D
:102A7000EAE8F0E09081987F982B9083089583E0B6
:102A80000E9438151092890010928800EDE7F0E05E
:102A90008081846080830895803140F4E82FF0E0E5
:102AA000EE0FFF1FE455FC4F71836083089589305A
:102AB00031F48FB582608FBD8FB58E7F0AC08A30AA
:102AC00019F48FB5826002C08FB58D7F8FBD8FB531
:102AD00081608FBD1BBC1ABC19BC18BC1092790058
:102AE0001092780008958FB580688FBD8FB58F7B69
:102AF0008FBD08958FB580628FBD8FB58F7E8FBDDE
:102B000008958FB588608FBD8FB58B7F8FBD089579
:102B10009BBD8ABD089599BD88BD089590937900A5
:102B2000809378000895893049F480918B00826009
:102B300080938B0080918B008E7F0EC08A3021F4B1
:102B400080918B00826003C080918B008D7F809389
:102B50008B0080918B00816080938B0010928700A6
:102B600010928600109285001092840010928300CB
:102B7000109282000895EBE8F0E080818068808305
:102B800080818F7B80830895EBE8F0E08081806214
:102B9000808380818F7E80830895EBE8F0E08081E0
:102BA0008860808380818B7F80830895853019F4CD
:102BB0000E9473150895843019F40E947A150895BF
:102BC000833019F40E9481150895823019F40E940F
:102BD000BB150895813019F40E94C4150895882307
:102BE00011F40E94CD15089590938700809386007C
:102BF00008959093850080938400089590938300B6
:102C0000809382000895EF92FF921F93CF93DF93FA
:102C1000182F7B018D31B0F08F3111F413E014C007
:102C20008E3111F414E010C08D3109F49BC085324F
:102C300011F410E03DC0843211F411E039C0833248
:102C400019F48EC08330A0F18091AB0386FD0BC0D8
:102C50000E94221578948AE00E9457158091AB0358
:102C600080648093AB038091AB03C12FD0E090E0F0
:102C7000012E02C0959587950A94E2F780FD4CC01D
:102C800087B3FE01E053FD4F9081892B87BB812FD5
:102C90000E94D6152091AB0381E090E0012E02C086
:102CA000880F991F0A94E2F7282B2093AB0334C0B6
:102CB0008091AB0387FD0BC00E943F1578948AE09A
:102CC0000E9493158091AB0380688093AB03809141
:102CD000AB03C12FD0E090E0012E02C095958795FF
:102CE0000A94E2F780FD24C082B1FE01E053FD4F5B
:102CF0009081892B82B9812F0E94D6152091AB0338
:102D000081E090E0012E02C0880F991F0A94E2F73B
:102D1000282B2093AB030CC0153021F4C7010E946F
:102D2000881522C0143021F4C7010E948B151CC0E5
:102D3000133021F4C7010E948E1516C0123021F401
:102D4000C7010E94F41510C0113021F4C7010E9480
:102D5000F9150AC0112341F4C7010E94FE1504C0F1
:102D600012E0A6CF15E070CFDF91CF911F91FF90B9
:102D7000EF9008951F920F920FB60F920BB60F921D
:102D800011242F933F934F935F936F937F938F9370
:102D90009F93AF93BF93EF93FF938091B203909172
:102DA000B303892B29F0E091B203F091B3030995A5
:102DB000FF91EF91BF91AF919F918F917F916F9113
:102DC0005F914F913F912F910F900BBE0F900FBECF
:102DD0000F901F9018951F920F920FB60F920BB67F
:102DE0000F9211242F933F934F935F936F937F9391
:102DF0008F939F93AF93BF93EF93FF938091BC0307
:102E00009091BD03892B29F0E091BC03F091BD03A3
:102E10000995FF91EF91BF91AF919F918F917F9114
:102E20006F915F914F913F912F910F900BBE0F903B
:102E30000FBE0F901F9018951F920F920FB60F9212
:102E40000BB60F9211242F933F934F935F936F9381
:102E50007F938F939F93AF93BF93EF93FF93809153
:102E6000C2039091C303892B29F0E091C203F09132
:102E7000C3030995FF91EF91BF91AF919F918F91FE
:102E80007F916F915F914F913F912F910F900BBE6A
:102E90000F900FBE0F901F9018951F920F920FB6B4
:102EA0000F920BB60F9211242F933F934F935F9382
:102EB0006F937F938F939F93AF93BF93EF93FF9302
:102EC0008091AE039091AF03892B29F0E091AE037E
:102ED000F091AF030995FF91EF91BF91AF919F9151
:102EE0008F917F916F915F914F913F912F910F90B3
:102EF0000BBE0F900FBE0F901F9018951F920F9250
:102F00000FB60F920BB60F9211242F933F934F934E
:102F10005F936F937F938F939F93AF93BF93EF9341
:102F2000FF938091B4039091B503892B29F0E09130
:102F3000B403F091B5030995FF91EF91BF91AF9163
:102F40009F918F917F916F915F914F913F912F91C1
:102F50000F900BBE0F900FBE0F901F9018951F92F1
:102F60000F920FB60F920BB60F9211242F933F932F
:102F70004F935F936F937F938F939F93AF93BF9381
:102F8000EF93FF938091B6039091B703892B29F0BB
:102F9000E091B603F091B7030995FF91EF91BF91CE
:102FA000AF919F918F917F916F915F914F913F91E1
:102FB0002F910F900BBE0F900FBE0F901F90189582
:102FC0001F920F920FB60F920BB60F9211242F93F0
:102FD0003F934F935F936F937F938F939F93AF93A1
:102FE000BF93EF93FF938091B8039091B903892B1E
:102FF00029F0E091B803F091B9030995FF91EF91A1
:10300000BF91AF919F918F917F916F915F914F9100
:103010003F912F910F900BBE0F900FBE0F901F90FE
:1030200018951F920F920FB60F920BB60F921124A4
:103030002F933F934F935F936F937F938F939F93C0
:10304000AF93BF93EF93FF938091BA039091BB032B
:10305000892B29F0E091BA03F091BB030995FF9108
:10306000EF91BF91AF919F918F917F916F915F9100
:103070004F913F912F910F900BBE0F900FBE0F906D
:103080001F9018951F920F920FB60F920BB60F92CA
:1030900011242F933F934F935F936F937F938F935D
:1030A0009F93AF93BF93EF93FF938091BE03909153
:1030B000BF03892B29F0E091BE03F091BF0309956E
:1030C000FF91EF91BF91AF919F918F917F916F9100
:1030D0005F914F913F912F910F900BBE0F900FBEBC
:1030E0000F901F9018951F920F920FB60F920BB66C
:1030F0000F9211242F933F934F935F936F937F937E
:103100008F939F93AF93BF93EF93FF938091C403EB
:103110009091C503892B29F0E091C403F091C50378
:103120000995FF91EF91BF91AF919F918F917F9101
:103130006F915F914F913F912F910F900BBE0F9028
:103140000FBE0F901F9018951F920F920FB60F92FF
:103150000BB60F9211242F933F934F935F936F936E
:103160007F938F939F93AF93BF93EF93FF93809140
:10317000C6039091C703892B29F0E091C603F09113
:10318000C7030995FF91EF91BF91AF919F918F91E7
:103190007F916F915F914F913F912F910F900BBE57
:1031A0000F900FBE0F901F9018951F920F920FB6A1
:1031B0000F920BB60F9211242F933F934F935F936F
:1031C0006F937F938F939F93AF93BF93EF93FF93EF
:1031D0008091C8039091C903892B29F0E091C8031D
:1031E000F091C9030995FF91EF91BF91AF919F9124
:1031F0008F917F916F915F914F913F912F910F90A0
:103200000BBE0F900FBE0F901F9018951F920F923C
:103210000FB60F920BB60F9211242F933F934F933B
:103220005F936F937F938F939F93AF93BF93EF932E
:10323000FF938091CA039091CB03892B29F0E091F1
:10324000CA03F091CB030995FF91EF91BF91AF9124
:103250009F918F917F916F915F914F913F912F91AE
:103260000F900BBE0F900FBE0F901F90189583E02C
:1032700061E00E94BE1484E061E00E94BE14789474
:103280000E9479130E94E812FDCFDC01ED91FC91C0
:103290000190F081E02D099508950E944519089547
:1032A0000F931F93CF93DF938C01EB0104C0219602
:1032B000C8010E944D1968816623C9F7DF91CF913B
:1032C0001F910F9108952F923F924F925F926F92AC
:1032D0007F928F929F92AF92BF92CF92DF92EF92A6
:1032E000FF920F931F93DF93CF93CDB7DEB7A097D5
:1032F0000FB6F894DEBF0FBECDBF1C016A017B0183
:10330000411551056105710521F460E30E944D19D5
:103310004FC0882499245401422E552466247724D2
:1033200001E010E00C0F1D1F080D191DC701B601AB
:10333000A30192010E941E1CF80160830894811C65
:10334000911CA11CB11CC701B601A30192010E94EE
:103350001E1CC901DA016C017D01C114D104E10414
:10336000F104F1F681E0E82EF12CEC0EFD1EE80CE4
:10337000F91C3E010894611C711CD501C401019720
:10338000A109B1096C01C818D9080FC0F601EE0DEA
:10339000FF1D60816A3010F4605D01C0695CC1018D
:1033A0000E944D190894E108F1086E147F0471F72A
:1033B000A0960FB6F894DEBF0FBECDBFCF91DF91C0
:1033C0001F910F91FF90EF90DF90CF90BF90AF9043
:1033D0009F908F907F906F905F904F903F902F9035
:1033E0000895EF92FF920F931F93CF93DF93EC0119
:1033F0007A018B0177FF0BC06DE20E944D19109589
:103400000095F094E094E11CF11C011D111DCE010A
:10341000B801A7012AE00E946319DF91CF911F91A3
:103420000F91FF90EF900895AB01662757FD6095CF
:10343000762F0E94F11908955058BB27AA270ED065
:103440004DC13ED130F043D120F031F49F3F11F413
:103450001EF433C10EF4E095E7FB29C1E92F4FD1EB
:1034600080F3BA17620773078407950718F071F4A1
:103470009EF567C10EF4E0950B2EBA2FA02D0B011F
:10348000B90190010C01CA01A0011124FF27591BA9
:1034900099F0593F50F4503E68F11A16F040A22FAF
:1034A000232F342F4427585FF3CF46953795279520
:1034B000A795F0405395C9F77EF41F16BA0B620B1F
:1034C000730B840BBAF09150A1F0FF0FBB1F661F66
:1034D000771F881FC2F70EC0BA0F621F731F841FA9
:1034E00048F4879577956795B795F7959E3F08F0CF
:1034F000B3CF9395880F08F09927EE0F979587958E
:1035000008950CD0EBC0E3D040F0DAD030F021F4D5
:103510005F3F19F0CCC0511115C1CFC0F0D098F366
:103520009923C9F35523B1F3951B550BBB27AA2744
:1035300062177307840738F09F5F5F4F220F331FB6
:10354000441FAA1FA9F333D00E2E3AF0E0E830D082
:1035500091505040E695001CCAF729D0FE2F27D085
:10356000660F771F881FBB1F261737074807AB0753
:10357000B0E809F0BB0B802DBF01FF2793585F4FC8
:103580002AF09E3F510568F092C0DCC05F3FECF32B
:10359000983EDCF3869577956795B795F7959F5F8D
:1035A000C9F7880F911D9695879597F90895E1E0E1
:1035B000660F771F881FBB1F621773078407BA0740
:1035C00020F0621B730B840BBA0BEE1F88F7E0959B
:1035D000089504D06894B111B5C0089598D088F0CA
:1035E0009F5790F0B92F9927B751A0F0D1F0660FEF
:1035F000771F881F991F1AF0BA95C9F712C0B1300A
:1036000081F09FD0B1E008959CC0672F782F882764
:10361000B85F39F0B93FCCF3869577956795B39548
:10362000D9F73EF490958095709561957F4F8F4FB7
:103630009F4F0895E89409C097FB3EF490958095BC
:10364000709561957F4F8F4F9F4F9923A9F0F92F68
:1036500096E9BB279395F695879577956795B795E6
:10366000F111F8CFFAF4BB0F11F460FF1BC06F5FCC
:103670007F4F8F4F9F4F16C0882311F096E911C0DE
:10368000772321F09EE8872F762F05C0662371F0FF
:1036900096E8862F70E060E02AF09A95660F771F13
:1036A000881FDAF7880F9695879597F9089597F907
:1036B0009F6780E870E060E008959FEF80EC0895D8
:1036C00000240A9416161706180609060895002401
:1036D0000A9412161306140605060895092E03947B
:1036E000000C11F4882352F0BB0F40F4BF2B11F4EF
:1036F00060FF04C06F5F7F4F8F4F9F4F089557FD4E
:103700009058440F551F59F05F3F71F04795880F4F
:1037100097FB991F61F09F3F79F0879508951216E6
:1037200013061406551FF2CF4695F1DF08C0161692
:1037300017061806991FF1CF869571056105089443
:103740000895E894BB2766277727CB0197F908955A
:103750000BD0C4CFB5DF28F0BADF18F0952309F0FD
:10376000A6CFABCF1124EECFCADFA0F3959FD1F344
:10377000950F50E0551F629FF001729FBB27F00D1F
:10378000B11D639FAA27F00DB11DAA1F649F662774
:10379000B00DA11D661F829F2227B00DA11D621FC3
:1037A000739FB00DA11D621F839FA00D611D221F7D
:1037B000749F3327A00D611D231F849F600D211D61
:1037C000822F762F6A2F11249F5750408AF0E1F004
:1037D00088234AF0EE0FFF1FBB1F661F771F881F4D
:1037E00091505040A9F79E3F510570F060CFAACF8D
:1037F0005F3FECF3983EDCF3869577956795B79538
:10380000F795E7959F5FC1F7FE2B880F911D969561
:10381000879597F9089597FB092E07260AD077FD1B
:1038200004D02ED006D000201AF4709561957F4FF9
:103830000895F6F7909581959F4F0895A1E21A2E6D
:10384000AA1BBB1BFD010DC0AA1FBB1FEE1FFF1F44
:10385000A217B307E407F50720F0A21BB30BE40B94
:10386000F50B661F771F881F991F1A9469F76095DB
:103870007095809590959B01AC01BD01CF01089595
:10388000AA1BBB1B51E107C0AA1FBB1FA617B70786
:1038900010F0A61BB70B881F991F5A95A9F78095A2
:1038A0009095BC01CD010895EE0FFF1F0590F49196
:1038B000E02D0994E199FECF9FBB8EBBE09A99273A
:1038C0008DB30895262FE199FECF9FBB8EBB2DBBF4
:1038D0000FB6F894E29AE19A0FBE01960895F89413
:0238E000FFCF18
:1038E200433A00204E3A0056616C75653A20004416
:1038F2006F6E6500536561726368696E672E2E2E66
:1039020000436F6C6C656374696E672E2E2E004CDB
:103912003A200020523A20004B703A00204B643A81
:10392200004C3A00523A0020523A004D313A2000FF
:103932004D323A20004C20004C4F3A0048493A00A0
:10394200522000496E2050726F6772657373004196
:1039520072742E3A005661723A20004B5F70004B2F
:103962005F64005370656564005468726573680033
:103972005374617274204800526169736520480073
:103982005374617274204100456E64204100546199
:1039920070652D466F6C6C6F7700456469742056B4
:1039A2006172732E0052756E2044656D6F00416E18
:1039B200616C6F672050494400436865636B205314
:1039C200656E736F72730052756E2D416C6C00419F
:1039D20072742B53746F7020436F6C6C2E004952BB
:1039E2002D466F6C6C6F77004172742E20436F6CA2
:1039F2006C656374696F6E0053656E736F722043FA
:103A02006865636B0053656C6563743A20004172AC
:103A1200742E20436F6C6C656374004D6F746F720B
:103A22000054696D6520547269616C2044656D6F44
:103A320000526573657420566172733F005361765C
:103A4200656400FF320035003B003800230062004D
:103A52006500310034003A00370022006100640042
:103A6200300033003900360021002000630001FFDE
:103A72000000000035027E00E401C901FE010000E1
:103A82000000AE01A702AD020000000007019B0288
:103A9200A1021800190026002700050004000100F9
:103AA200000000000000C60401020408102040804B
:063AB200201008804020F6
:00000001FF
