:100000000C9448000C947C000C947C000C947C00B4
:100010000C947C000C947C000C947C000C947C0070
:100020000C947C000C947B0B0C94240A0C944A0BCB
:100030000C94B70A0C94E80A0C94F3090C94860A01
:100040000C94E3060C947C000C94D6000C9465018F
:100050000C947C000C947C000C947C000C947C0030
:100060000C94190B0C943F0C0C94AC0B0C94DD0B02
:100070000C940E0C0C94550A0C94A7000C941E01C1
:100080000C947C000C947C000C947C008D021B056D
:1000900011241FBECFEFD0E1DEBFCDBF88E483BF08
:1000A00084E00E94510812BE87B7816087BF7894B0
:1000B00011E0A0E0B1E0E0E2FFE100E00BBF02C030
:1000C00007900D92AC3EB107D9F712E0ACEEB1E06B
:1000D00001C01D92A53DB107E1F710E0C0E9D0E0F5
:1000E00004C02297FE010E948A0FCC38D107C9F7BD
:1000F0000E94700C0C948E0F0C940000FC01248163
:100100003581C9010895DC01FC01828193818097CA
:1001100014F080E00895FD0182819381019693831C
:10012000828384819581E80FF91F60870196FD0124
:10013000958384832D913C9111978217930714F432
:1001400081E00895FD011582148281E008951F92D7
:100150000F920FB60F920BB60F9211242F933F936D
:100160004F935F936F937F938F939F93AF93BF93BF
:10017000EF93FF93E0918202F091830260818AE322
:1001800092E00E948300FF91EF91BF91AF919F9108
:100190008F917F916F915F914F913F912F910F9030
:1001A0000BBE0F900FBE0F901F9018951F920F92CD
:1001B0000FB60F920BB60F9211242F933F934F93CC
:1001C0005F936F937F938F939F93AF93BF93EF93BF
:1001D000FF93E0913602F091370260818EEE91E05C
:1001E0000E948300FF91EF91BF91AF919F918F91FA
:1001F0007F916F915F914F913F912F910F900BBE27
:100200000F900FBE0F901F901895DC01FC018281AA
:10021000938101979383828386819781E80FF91FE9
:1002200040850196FD01978386832D913C9182172D
:10023000930714F017821682842F08951F920F924D
:100240000FB60F920BB60F9211240F931F932F939B
:100250003F934F935F936F937F938F939F93AF934E
:10026000BF93EF93FF9380916402909165021816FB
:10027000190654F4009182021091830282E692E002
:100280000E940501F80180838091640290916502CB
:10029000892B31F4E0918002F091810288E980831A
:1002A000FF91EF91BF91AF919F918F917F916F914E
:1002B0005F914F913F912F911F910F910F900BBE26
:1002C0000F900FBE0F901F9018951F920F920FB6B0
:1002D0000F920BB60F9211240F931F932F933F93FE
:1002E0004F935F936F937F938F939F93AF93BF933E
:1002F000EF93FF9380911802909119021816190636
:1003000054F4009136021091370286E192E00E9487
:100310000501F80180838091180290911902892BC0
:1003200031F4E0913402F091350288E98083FF9145
:10033000EF91BF91AF919F918F917F916F915F915D
:100340004F913F912F911F910F910F900BBE0F90E6
:100350000FBE0F901F901895DC01FC0182819381E4
:1003600001979383828386819781E80FF91F4085E7
:100370000196FD01978386832D913C918217930707
:1003800014F017821682842F0895FC0184819581D0
:10039000892B19F42FEF3FEF06C0CF0102960E9480
:1003A000AC01282F30E0C9010895CF93DF93EC0111
:1003B000EE81FF81E80FF91F8085DF91CF910895CD
:1003C000FC0184819581892B19F42FEF3FEF06C042
:1003D000CF0102960E94D501282F30E0C90108956F
:1003E000FC01138212828281938197838683958395
:1003F0008483089502960E94F0010895FC0180E232
:1004000090E091838083CF010E94F0010895DC0188
:10041000FC0182819381409714F080E00895FD01F2
:100420008281938101969383828384819581E80FF1
:10043000F91F60870196FD01958384832D913C917E
:1004400011978217930714F481E00895FD01158236
:10045000148281E00895CF93DF93EC018CA59DA5D4
:100460004097E4F7F894CE018A960E940702C85B91
:10047000DF4FE881F9818081806280837894DF9109
:10048000CF910895FC011382128282819381978318
:100490008683958384830895FC0180E190E09183B5
:1004A0008083CF010E94420208956F927F928F92C3
:1004B0009F92AF92BF92CF92DF92EF92FF920F93F3
:1004C0001F936C015B014A013901FC018EEB91E045
:1004D00081939193CF010E94FE01C6018A960E94EA
:1004E0004C0282E490E0C80ED91EF601A192B192AE
:1004F000819291926192719201931193F182E082C3
:100500001F910F91FF90EF90DF90CF90BF90AF9031
:100510009F908F907F906F900895EF92FF920F932E
:100520001F938CEE91E060E970E049E250E02BE22D
:1005300030E00AE210E0FCE2EF2EF12C0E945502BE
:1005400088E392E068E970E049E950E02BE930E0A7
:100550000AE910E0ECE9EE2EF12C0E9455021F9101
:100560000F91FF90EF9008951F93CF93DF93C0E01A
:10057000D0E0FE01E853FE4F1081812F61E00E9420
:100580007E07812F61E00E94C707FE01E053FE4F06
:10059000808160E070E00E943C092296C830D1055D
:1005A00041F7DF91CF911F910895FC0110828AE0FD
:1005B00090E0938382830895CF93DF93EC018827A3
:1005C00077FD8095982F0E94500E20E030E044E3A4
:1005D00053E40E94BA0D20E030E040EF51E40E9465
:1005E000DC0E20E030E040E251E40E94560D0E9413
:1005F000220ECB016A30710510F48AE090E0893256
:10060000910510F088E290E09B838A83DF91CF917F
:100610000895E0915101E7FD15C0FF27E7FDF09532
:10062000EE0FFF1FEC57FD4F0190F081E02D81810F
:1006300060E00E94C70706C02F5F81919191892BCE
:1006400069F00EC0209151012F5FE22FFF27E7FDD7
:10065000F0952150EE0FFF1FEC57FD4F273064F34C
:1006600020935101E0915101FF27E7FDF095EE0F36
:10067000FF1FEC57FD4F0190F081E02D309761F4A2
:100680008FEF8093510124EF31E08091950290919A
:100690009602281B390B12C0818161E00E94C707B6
:1006A000E0915101FF27E7FDF095EE0FFF1FEC579A
:1006B000FD4F0190F081E02D2281338183B5820FBF
:1006C00083BD8091950290919602820F931F909323
:1006D000960280939502845F914020F010929602DA
:1006E0001092950208950E94690887B78F7787BF97
:1006F00085E00E94640889E069E073E00E94850853
:1007000083B58C5083BD87B7806887BF10929602EF
:10071000109295028FEF809351010895CF93DF934C
:10072000EC0180919402893010F080E03DC0698333
:10073000862F61E00E947E07E881F0E0EE0FFF1F48
:10074000EC57FD4F80819181C817D90761F1409125
:100750009402442341F4E4E8F2E01192119282E021
:10076000E439F807D1F7E4E8F2E020E030E08081F6
:100770009181892B61F4F901EE0FFF1FEC57FD4FBA
:10078000D183C08328834F5F4093940206C02F5FBC
:100790003F4F32962830310551F7809194028130D5
:1007A00011F40E94730381E0DF91CF910895CF93FC
:1007B000DF93EC018A8160E00E94C7078D8160E0D1
:1007C0000E94F7078D8160E00E9419088B8161E02B
:1007D0000E94C7078C8161E00E94C70700000000EB
:1007E00010C08C8160E00E94C7070000000000007C
:1007F00000008C8161E00E94C7070000000000003B
:1008000000008D810E940E0887FDEBCF8C8160E097
:100810000E94C707DF91CF910895FF920F931F9316
:100820008C01F62E0E94D703F801828161E00E94BC
:10083000C707F801838160E00E94C707F80184813F
:1008400061E00E94C707F801858161E00E94F70717
:10085000F80185816F2D0E9419080000000000003A
:100860000000F801848160E00E94C707F8018581DB
:1008700060E00E94F707F80185816FEF0E94190878
:100880001F910F91FF900895EF92FF920F931F9386
:10089000CF93DF937C01042F6115710551F0EB01BB
:1008A00010E005C0C70169910E940D041F5F101779
:1008B000C8F3DF91CF911F910F91FF90EF900895B2
:1008C000DF93CF930F92CDB7DEB76983BE016F5F21
:1008D0007F4F41E00E9444040F90CF91DF91089533
:1008E000FF920F931F938C01F62E0E94D703F801FD
:1008F000828160E00E94C707F801838160E00E9466
:10090000C707F801848161E00E94C707F80185816B
:1009100061E00E94F707F80185816F2D0E94190898
:100920000000000000000000F801848160E00E94E7
:10093000C707F801858160E00E94F707F80185810B
:100940006FEF0E9419081F910F91FF900895423098
:1009500031F0433031F0413029F4605C03C06C5E0B
:1009600001C06C5A60680E947004089562E00E94A1
:100970007004089561E00E94700408950F931F931E
:100980008C01FC01828160E00E94C707F80183812D
:1009900060E00E94C707F801848160E00E94C707F9
:1009A000F801828161E00E947E07F801838161E0A5
:1009B0000E947E07F801848161E00E947E07F801B1
:1009C000858160E00E94F707F80185816FEF0E9442
:1009D00019081F910F9108950F931F938C010E9486
:1009E000BE04C80168E30E947004C80161E00E946F
:1009F0007004C80166E00E947004C8016CE00E94A7
:100A00007004C80162E00E947004C80160E80E949E
:100A100070041F910F9108950F93FC018CED91E0EC
:100A2000918380836283438324830583CF010E9463
:100A3000EC040F9108950F9387E992E06AE14BE18E
:100A40002CE102E00E940C058DE992E00E94B402C4
:100A50008FE992E00E94D50283EA92E00E94D502DB
:100A600087EA92E00E94D5020F91089587E992E00B
:100A70000E94BA0487E992E00E94B60487E992E0F6
:100A800060E040E00E94A70487E992E060E071E046
:100A90000E94890C87E992E060E041E00E94A7048F
:100AA00087E992E06FE071E00E94890C82E30E9486
:100AB000AE078823D9F70895CF92DF92EF92FF9285
:100AC0000F931F93CF93DF936C01162F072F87E9A6
:100AD00092E00E94BA0487E992E00E94B60487E996
:100AE00092E060E040E00E94A70487E992E06BE1B9
:100AF00071E00E94890C87E992E060E041E00E9489
:100B0000A70487E992E06FE071E00E94890C82E31C
:100B10000E94AE078823D9F7E12EF02E88C086E028
:100B20000E942D088C0187E992E00E94BA0487E9AF
:100B300092E00E94B60487E992E060E040E00E9403
:100B4000A70487E992E06CE271E00E94890CC80179
:100B50006AEF70E00E943F0F8B01000F111FEB0145
:100B600083E0CC0FDD1F8A95E1F7C00FD11FCE0DBA
:100B7000DF1D87E992E0BE010E94890C87E992E0BF
:100B800060E041E00E94A70487E992E063E371E03E
:100B90000E94890C0C0D1D1DF8016081718187E98F
:100BA00092E00E944D0D38C086E00E942D08F801A9
:100BB0009183808387E992E00E94BA0487E992E0FA
:100BC0000E94B60487E992E060E040E00E94A7043A
:100BD00087E992E06CE271E00E94890C87E992E07B
:100BE000BE010E94890C87E992E060E041E00E942A
:100BF000A70487E992E063E371E00E94890CF801A1
:100C00006081718187E992E00E944D0D68EC70E08F
:100C100080E090E00E94580782E30E94AE0788239C
:100C200019F268EC70E080E090E00E94580781E3E0
:100C30000E94AE07882309F072CFDF91CF911F91F8
:100C40000F91FF90EF90DF90CF90089585C087E9D6
:100C500092E00E94BA0487E992E00E94B60487E914
:100C600092E060E040E00E94A70487E992E06BE335
:100C700071E00E94890C8AE00E94AE07813009F081
:100C800059C087E992E060E041E00E94A70487E94B
:100C900092E06BE471E00E94890C62E370E080E016
:100CA00090E00E94580787EA92E06AE570E00E94AF
:100CB000DC0268EE73E080E090E00E94580783EA6F
:100CC00092E06EE170E00E94DC0268EE73E080E08A
:100CD00090E00E9458078FE992E064EB70E00E9478
:100CE000DC0268EB7BE080E090E00E9458078FE92F
:100CF00092E060E070E00E94DC0264EF71E080E06E
:100D000090E00E94580783EA92E060E070E00E9461
:100D1000DC0264EF71E080E090E00E94580787EA0F
:100D200092E060E070E00E94DC0264EF71E080E03D
:100D300090E010C087E992E060E041E00E94A704E3
:100D400087E992E06EE471E00E94890C62E370E052
:100D500080E090E00E94580781E30E94AE0788235C
:100D600009F075CF0895EF92FF920F931F9302E55C
:100D700011E03CE5E32E31E0F32EC801B70145E078
:100D800050E00E945C05C801B70145E050E00E94B8
:100D900036050E9426061F910F91FF90EF9008954F
:100DA0008FE992E063E270E00E948E0383EA92E0B2
:100DB0006FE170E00E948E0387EA92E062E270E0E9
:100DC0000E948E0308951F920F920FB60F92112466
:100DD0002F933F938F939F93AF93BF938091AF02D5
:100DE0009091B002A091B102B091B2023091B302E1
:100DF0000196A11DB11D232F2D5F2D3720F02D57FA
:100E00000196A11DB11D2093B3028093AF02909370
:100E1000B002A093B102B093B2028091AB02909164
:100E2000AC02A091AD02B091AE020196A11DB11D20
:100E30008093AB029093AC02A093AD02B093AE024C
:100E4000BF91AF919F918F913F912F910F900FBEC6
:100E50000F901F9018956FB7F8942091AB023091C6
:100E6000AC024091AD025091AE0282B790E0A0E09A
:100E7000B0E006B600FE09C08F3F9105A105B1059F
:100E800021F02F5F3F4F4F4F5F4F6FBF542F432FC6
:100E9000322F2227280F391F4A1F5B1F82E0220FA3
:100EA000331F441F551F8A95D1F7B901CA01089510
:100EB000EF92FF920F931F93CF93DF937B018C01EF
:100EC0000E942B07EB010EC00E942B076C1B7D0BB1
:100ED000685E7340C8F30894E108F108010911093C
:100EE000C851DC4FE114F1040105110569F7DF91E8
:100EF000CF911F910F91FF90EF900895E82FE69505
:100F0000E695E695A82FB0E0613099F42FB7F894F4
:100F1000F0E0EE0FFF1FE456FE4F0190F081E02D50
:100F20009081A770B070A252BE4F8C91982B908385
:100F300013C02FB7F894F0E0EE0FFF1FE456FE4FFA
:100F40000190F081E02D9081A770B070A252BE4F49
:100F50008C918095892380832FBF0895A82FE82F37
:100F6000E695E695E695F0E0EE0FFF1FE655FE4F9D
:100F70000190F081E02DE081B0E0A770B070A25246
:100F8000BE4F8C91E82309F0E1E08E2F0895E82F01
:100F9000E695E695E695A82FB0E0613099F42FB775
:100FA000F894F0E0EE0FFF1FE257FE4F0190F08142
:100FB000E02D9081A770B070A252BE4F8C91982BFB
:100FC000908313C02FB7F894F0E0EE0FFF1FE257A5
:100FD000FE4F0190F081E02D9081A770B070A25279
:100FE000BE4F8C918095892380832FBF0895E82F71
:100FF000F0E0613051F4EE0FFF1FE456FE4F019018
:10100000F081E02D8FEF80830895EE0FFF1FE456EF
:10101000FE4F0190F081E02D10820895E82FF0E05E
:10102000EE0FFF1FE655FE4F0190F081E02D80810D
:101030000895E82FF0E0EE0FFF1FE257FE4F0190FA
:10104000F081E02D6083089510926100109262009B
:1010500080E487B987EE86B908951F93182F809191
:10106000B801813021F40E9424081092B8018091C7
:10107000B901181721F4349A349BFECF0DC0109398
:10108000B90187B11770807E812B87B9349A349B60
:10109000FECF349A349BFECF24B135B1C9011F91E4
:1010A000089593B7987F982B93BF08959EB5987F26
:1010B000982B9EBD089583E00E9456081DBC1CBC61
:1010C00087B7846087BF089595B5987F982B95BDA5
:1010D000089582E00E94640814BC87B7806487BFCB
:1010E0000895EAE8F0E09081987F982B9083089526
:1010F00083E00E9471081092890010928800EDE749
:10110000F0E08081846080830895803140F4E82F8E
:10111000F0E0EE0FFF1FEB54FD4F718360830895E5
:10112000893031F48FB582608FBD8FB58E7F0AC054
:101130008A3019F48FB5826002C08FB58D7F8FBD64
:101140008FB581608FBD1BBC1ABC19BC18BC109236
:1011500079001092780008958FB580688FBD8FB5A3
:101160008F7B8FBD08958FB580628FBD8FB58F7EC9
:101170008FBD08958FB588608FBD8FB58B7F8FBD74
:1011800008959BBD8ABD089599BD88BD089590932B
:101190007900809378000895893049F480918B001C
:1011A000826080938B0080918B008E7F0EC08A308E
:1011B00021F480918B00826003C080918B008D7F31
:1011C00080938B0080918B00816080938B001092C4
:1011D0008700109286001092850010928400109271
:1011E0008300109282000895EBE8F0E0808180682F
:1011F000808380818F7B80830895EBE8F0E080819D
:101200008062808380818F7E80830895EBE8F0E0A8
:1012100080818860808380818B7F80830895853082
:1012200019F40E94AC080895843019F40E94B308A0
:101230000895833019F40E94BA080895823019F491
:101240000E94F4080895813019F40E94FD08089561
:10125000882311F40E9406090895909387008093D3
:10126000860008959093850080938400089590935C
:101270008300809382000895EF92FF921F93CF9393
:10128000DF93182F7B018D31B0F08F3111F413E013
:1012900014C08E3111F414E010C08D3109F49BC0DC
:1012A000853211F410E03DC0843211F411E039C0F0
:1012B000833219F48EC08330A0F18091B40286FD90
:1012C0000BC00E945B0878948AE00E94900880918D
:1012D000B40280648093B4028091B402C12FD0E044
:1012E00090E0012E02C0959587950A94E2F780FD63
:1012F0004CC087B3FE01EA51FE4F9081892B87BB1A
:10130000812F0E940F092091B40281E090E0012E0C
:1013100002C0880F991F0A94E2F7282B2093B40289
:1013200034C08091B40287FD0BC00E947808789485
:101330008AE00E94CC088091B40280688093B40255
:101340008091B402C12FD0E090E0012E02C09595AB
:1013500087950A94E2F780FD24C082B1FE01EA512C
:10136000FE4F9081892B82B9812F0E940F09209115
:10137000B40281E090E0012E02C0880F991F0A9408
:10138000E2F7282B2093B4020CC0153021F4C701DA
:101390000E94C10822C0143021F4C7010E94C40871
:1013A0001CC0133021F4C7010E94C70816C01230B8
:1013B00021F4C7010E942D0910C0113021F4C7018A
:1013C0000E9432090AC0112341F4C7010E94370963
:1013D00004C012E0A6CF15E070CFDF91CF911F912E
:1013E000FF90EF9008951F920F920FB60F920BB6D9
:1013F0000F9211242F933F934F935F936F937F939B
:101400008F939F93AF93BF93EF93FF938091BB0212
:101410009091BC02892B29F0E091BB02F091BC02B3
:101420000995FF91EF91BF91AF919F918F917F911E
:101430006F915F914F913F912F910F900BBE0F9045
:101440000FBE0F901F9018951F920F920FB60F921C
:101450000BB60F9211242F933F934F935F936F938B
:101460007F938F939F93AF93BF93EF93FF9380915D
:10147000C5029091C602892B29F0E091C502F09136
:10148000C6020995FF91EF91BF91AF919F918F9106
:101490007F916F915F914F913F912F910F900BBE74
:1014A0000F900FBE0F901F9018951F920F920FB6BE
:1014B0000F920BB60F9211242F933F934F935F938C
:1014C0006F937F938F939F93AF93BF93EF93FF930C
:1014D0008091CB029091CC02892B29F0E091CB0234
:1014E000F091CC020995FF91EF91BF91AF919F913F
:1014F0008F917F916F915F914F913F912F910F90BD
:101500000BBE0F900FBE0F901F9018951F920F9259
:101510000FB60F920BB60F9211242F933F934F9358
:101520005F936F937F938F939F93AF93BF93EF934B
:10153000FF938091B7029091B802892B29F0E09136
:10154000B702F091B8020995FF91EF91BF91AF9169
:101550009F918F917F916F915F914F913F912F91CB
:101560000F900BBE0F900FBE0F901F9018951F92FB
:101570000F920FB60F920BB60F9211242F933F9339
:101580004F935F936F937F938F939F93AF93BF938B
:10159000EF93FF938091BD029091BE02892B29F0B9
:1015A000E091BD02F091BE020995FF91EF91BF91CC
:1015B000AF919F918F917F916F915F914F913F91EB
:1015C0002F910F900BBE0F900FBE0F901F9018958C
:1015D0001F920F920FB60F920BB60F9211242F93FA
:1015E0003F934F935F936F937F938F939F93AF93AB
:1015F000BF93EF93FF938091BF029091C002892B1C
:1016000029F0E091BF02F091C0020995FF91EF919E
:10161000BF91AF919F918F917F916F915F914F910A
:101620003F912F910F900BBE0F900FBE0F901F9008
:1016300018951F920F920FB60F920BB60F921124AE
:101640002F933F934F935F936F937F938F939F93CA
:10165000AF93BF93EF93FF938091C1029091C20229
:10166000892B29F0E091C102F091C2020995FF9106
:10167000EF91BF91AF919F918F917F916F915F910A
:101680004F913F912F910F900BBE0F900FBE0F9077
:101690001F9018951F920F920FB60F920BB60F92D4
:1016A00011242F933F934F935F936F937F938F9367
:1016B0009F93AF93BF93EF93FF938091C302909159
:1016C000C402892B29F0E091C302F091C40209956C
:1016D000FF91EF91BF91AF919F918F917F916F910A
:1016E0005F914F913F912F910F900BBE0F900FBEC6
:1016F0000F901F9018951F920F920FB60F920BB676
:101700000F9211242F933F934F935F936F937F9387
:101710008F939F93AF93BF93EF93FF938091C702F3
:101720009091C802892B29F0E091C702F091C8027C
:101730000995FF91EF91BF91AF919F918F917F910B
:101740006F915F914F913F912F910F900BBE0F9032
:101750000FBE0F901F9018951F920F920FB60F9209
:101760000BB60F9211242F933F934F935F936F9378
:101770007F938F939F93AF93BF93EF93FF9380914A
:10178000CD029091CE02892B29F0E091CD02F0910B
:10179000CE020995FF91EF91BF91AF919F918F91EB
:1017A0007F916F915F914F913F912F910F900BBE61
:1017B0000F900FBE0F901F9018951F920F920FB6AB
:1017C0000F920BB60F9211242F933F934F935F9379
:1017D0006F937F938F939F93AF93BF93EF93FF93F9
:1017E0008091CF029091D002892B29F0E091CF0215
:1017F000F091D0020995FF91EF91BF91AF919F9128
:101800008F917F916F915F914F913F912F910F90A9
:101810000BBE0F900FBE0F901F9018951F920F9246
:101820000FB60F920BB60F9211242F933F934F9345
:101830005F936F937F938F939F93AF93BF93EF9338
:10184000FF938091D1029091D202892B29F0E091EF
:10185000D102F091D2020995FF91EF91BF91AF9122
:101860009F918F917F916F915F914F913F912F91B8
:101870000F900BBE0F900FBE0F901F9018951F92E8
:101880000F920FB60F920BB60F9211242F933F9326
:101890004F935F936F937F938F939F93AF93BF9378
:1018A000EF93FF938091D3029091D402892B29F07A
:1018B000E091D302F091D4020995FF91EF91BF918D
:1018C000AF919F918F917F916F915F914F913F91D8
:1018D0002F910F900BBE0F900FBE0F901F90189579
:1018E00083E061E00E94F70784E061E00E94F7076F
:1018F00078940E94D0060E94B306FDCFDC01ED91E2
:10190000FC910190F081E02D099508950E947E0CD4
:1019100008950F931F93CF93DF938C01EB0104C0C5
:101920002196C8010E94860C68816623C9F7DF9161
:10193000CF911F910F9108952F923F924F925F92F6
:101940006F927F928F929F92AF92BF92CF92DF92CF
:10195000EF92FF920F931F93DF93CF93CDB7DEB734
:10196000A0970FB6F894DEBF0FBECDBF1C016A0171
:101970007B01411551056105710521F460E30E9469
:10198000860C4FC0882499245401422E5524662485
:10199000772401E010E00C0F1D1F080D191DC70171
:1019A000B601A30192010E94520FF80160830894CE
:1019B000811C911CA11CB11CC701B601A30192019D
:1019C0000E94520FC901DA016C017D01C114D104DA
:1019D000E104F104F1F681E0E82EF12CEC0EFD1E9D
:1019E000E80CF91C3E010894611C711CD501C4016E
:1019F0000197A109B1096C01C818D9080FC0F601F7
:101A0000EE0DFF1D60816A3010F4605D01C0695CFD
:101A1000C1010E94860C0894E108F1086E147F044D
:101A200071F7A0960FB6F894DEBF0FBECDBFCF9171
:101A3000DF911F910F91FF90EF90DF90CF90BF90BB
:101A4000AF909F908F907F906F905F904F903F905E
:101A50002F900895EF92FF920F931F93CF93DF93F0
:101A6000EC017A018B0177FF0BC06DE20E94860CBE
:101A700010950095F094E094E11CF11C011D111DDE
:101A8000CE01B801A7012AE00E949C0CDF91CF9102
:101A90001F910F91FF90EF900895AB01662757FDBE
:101AA0006095762F0E942A0D08955058BB27AA27CB
:101AB0000ED048C139D130F03ED120F031F49F3FF3
:101AC00011F41EF42EC10EF4E095E7FB24C1E92FBA
:101AD0004AD180F3BA17620773078407950718F095
:101AE00071F49EF562C10EF4E0950B2EBA2FA02D75
:101AF0000B01B90190010C01CA01A0011124FF27BB
:101B0000591B99F0593F50F4503E68F11A16F040B5
:101B1000A22F232F342F4427585FF3CF46953795B4
:101B20002795A795F0405395C9F77EF41F16BA0B79
:101B3000620B730B840BBAF09150A1F0FF0FBB1F27
:101B4000661F771F881FC2F70EC0BA0F621F731F70
:101B5000841F48F4879577956795B795F7959E3FCD
:101B600008F0B3CF9395880F08F09927EE0F97955B
:101B7000879508950CD0E6C0DED040F0D5D030F087
:101B800021F45F3F19F0C7C0511110C1CAC0EBD09A
:101B900098F39923C9F35523B1F3951B550BBB2734
:101BA000AA2762177307840738F09F5F5F4F220FE1
:101BB000331F441FAA1FA9F333D00E2E3AF0E0E8DA
:101BC00030D091505040E695001CCAF729D0FE2F26
:101BD00027D0660F771F881FBB1F261737074807B8
:101BE000AB07B0E809F0BB0B802DBF01FF2793586E
:101BF0005F4F2AF09E3F510568F08DC0D7C05F3F10
:101C0000ECF3983EDCF3869577956795B795F79555
:101C10009F5FC9F7880F911D9695879597F908954D
:101C2000E1E0660F771F881FBB1F621773078407E9
:101C3000BA0720F0621B730B840BBA0BEE1F88F7F8
:101C4000E095089598D088F09F5790F0B92F992784
:101C5000B751A0F0D1F0660F771F881F991F1AF0B7
:101C6000BA95C9F712C0B13081F09FD0B1E00895A4
:101C70009CC0672F782F8827B85F39F0B93FCCF325
:101C8000869577956795B395D9F73EF490958095AD
:101C9000709561957F4F8F4F9F4F0895E89409C0CD
:101CA00097FB3EF490958095709561957F4F8F4F8F
:101CB0009F4F9923A9F0F92F96E9BB279395F695A5
:101CC000879577956795B795F111F8CFFAF4BB0F23
:101CD00011F460FF1BC06F5F7F4F8F4F9F4F16C087
:101CE000882311F096E911C0772321F09EE8872F11
:101CF000762F05C0662371F096E8862F70E060E0CD
:101D00002AF09A95660F771F881FDAF7880F969545
:101D1000879597F9089597F99F6780E870E060E0EC
:101D200008959FEF80EC089500240A941616170674
:101D300018060906089500240A94121613061406BC
:101D400005060895092E0394000C11F4882352F01F
:101D5000BB0F40F4BF2B11F460FF04C06F5F7F4FD7
:101D60008F4F9F4F089557FD9058440F551F59F0BE
:101D70005F3F71F04795880F97FB991F61F09F3F78
:101D800079F087950895121613061406551FF2CFA1
:101D90004695F1DF08C0161617061806991FF1CFF1
:101DA00086957105610508940895E894BB27662718
:101DB0007727CB0197F908950BD0C4CFB5DF28F072
:101DC000BADF18F0952309F0A6CFABCF1124EECFE0
:101DD000CADFA0F3959FD1F3950F50E0551F629F86
:101DE000F001729FBB27F00DB11D639FAA27F00D74
:101DF000B11DAA1F649F6627B00DA11D661F829F9B
:101E00002227B00DA11D621F739FB00DA11D621F7F
:101E1000839FA00D611D221F749F3327A00D611D9C
:101E2000231F849F600D211D822F762F6A2F11247E
:101E30009F5750408AF0E1F088234AF0EE0FFF1FD1
:101E4000BB1F661F771F881F91505040A9F79E3F08
:101E5000510570F060CFAACF5F3FECF3983EDCF302
:101E6000869577956795B795F795E7959F5FC1F745
:101E7000FE2B880F911D9695879597F9089597FBEE
:101E8000092E07260AD077FD04D02ED006D00020D8
:101E90001AF4709561957F4F0895F6F790958195A6
:101EA0009F4F0895A1E21A2EAA1BBB1BFD010DC076
:101EB000AA1FBB1FEE1FFF1FA217B307E407F507FA
:101EC00020F0A21BB30BE40BF50B661F771F881FD6
:101ED000991F1A9469F760957095809590959B016C
:101EE000AC01BD01CF010895AA1BBB1B51E107C086
:101EF000AA1FBB1FA617B70710F0A61BB70B881F9A
:101F0000991F5A95A9F780959095BC01CD01089528
:101F1000EE0FFF1F0590F491E02D0994F894FFCF88
:101F2000496E69742D436F6E7374616E74730050E3
:101F300072657373205374617274004368616E67D5
:101F40006520436F6E7374616E7473004E616D65CE
:101F50003A200056616C75653A20005377697463C6
:101F60006820507265737365643F007965006E6F19
:101F700000FF01000200030000000C00666F6F000C
:101F8000000000000000626172000000000000001C
:101F9000626C6574636800000000666F6F666F6F47
:101FA000000000006C6F6C000000000000003200B8
:101FB00035003B003800230062006500310034002A
:101FC0003A0037002200610064003000330039001D
:101FD000360021002000630001FF000000002B02FA
:101FE0007E00E001C501FA01180019002600270053
:101FF0000500040001000000000000006004010270
:0C200000040810204080201008804020C0
:00000001FF
