:100000000C9448000C947C000C947C000C947C00B4
:100010000C947C000C947C000C947C000C947C0070
:100020000C947C000C94810B0C942A0A0C94500BB9
:100030000C94BD0A0C94EE0A0C94F9090C948C0AE9
:100040000C94E9060C947C000C94D6000C94650189
:100050000C947C000C947C000C947C000C947C0030
:100060000C941F0B0C94450C0C94B20B0C94E30BEA
:100070000C94140C0C945B0A0C94A7000C941E01B5
:100080000C947C000C947C000C947C008D021B056D
:1000900011241FBECFEFD0E1DEBFCDBF88E483BF08
:1000A00084E00E94570812BE87B7816087BF7894AA
:1000B00012E0A0E0B1E0ECE2FFE100E00BBF02C023
:1000C00007900D92A630B107D9F712E0A6E0B2E092
:1000D00001C01D92AF3EB107E1F710E0C0E9D0E0EA
:1000E00004C02297FE010E94900FCC38D107C9F7B7
:1000F0000E94760C0C94940F0C940000FC01248157
:100100003581C9010895DC01FC01828193818097CA
:1001100014F080E00895FD0182819381019693831C
:10012000828384819581E80FF91F60870196FD0124
:10013000958384832D913C9111978217930714F432
:1001400081E00895FD011582148281E008951F92D7
:100150000F920FB60F920BB60F9211242F933F936D
:100160004F935F936F937F938F939F93AF93BF93BF
:10017000EF93FF93E0919C02F0919D02608184E5F2
:1001800092E00E948300FF91EF91BF91AF919F9108
:100190008F917F916F915F914F913F912F910F9030
:1001A0000BBE0F900FBE0F901F9018951F920F92CD
:1001B0000FB60F920BB60F9211242F933F934F93CC
:1001C0005F936F937F938F939F93AF93BF93EF93BF
:1001D000FF93E0915002F0915102608188E092E03B
:1001E0000E948300FF91EF91BF91AF919F918F91FA
:1001F0007F916F915F914F913F912F910F900BBE27
:100200000F900FBE0F901F901895DC01FC018281AA
:10021000938101979383828386819781E80FF91FE9
:1002200040850196FD01978386832D913C9182172D
:10023000930714F017821682842F08951F920F924D
:100240000FB60F920BB60F9211240F931F932F939B
:100250003F934F935F936F937F938F939F93AF934E
:10026000BF93EF93FF9380917E0290917F021816C7
:10027000190654F400919C0210919D028CE792E0C3
:100280000E940501F801808380917E0290917F0297
:10029000892B31F4E0919A02F0919B0288E98083E6
:1002A000FF91EF91BF91AF919F918F917F916F914E
:1002B0005F914F913F912F911F910F910F900BBE26
:1002C0000F900FBE0F901F9018951F920F920FB6B0
:1002D0000F920BB60F9211240F931F932F933F93FE
:1002E0004F935F936F937F938F939F93AF93BF933E
:1002F000EF93FF9380913202909133021816190602
:1003000054F4009150021091510280E392E00E9457
:100310000501F80180838091320290913302892B8C
:1003200031F4E0914E02F0914F0288E98083FF9111
:10033000EF91BF91AF919F918F917F916F915F915D
:100340004F913F912F911F910F910F900BBE0F90E6
:100350000FBE0F901F901895DC01FC0182819381E4
:1003600001979383828386819781E80FF91F4085E7
:100370000196FD01978386832D913C918217930707
:1003800014F017821682842F0895FC0184819581D0
:10039000892B19F42FEF3FEF06C0CF0102960E9480
:1003A000AC01282F30E0C9010895CF93DF93EC0111
:1003B000EE81FF81E80FF91F8085DF91CF910895CD
:1003C000FC0184819581892B19F42FEF3FEF06C042
:1003D000CF0102960E94D501282F30E0C90108956F
:1003E000FC01138212828281938197838683958395
:1003F0008483089502960E94F0010895FC0180E232
:1004000090E091838083CF010E94F0010895DC0188
:10041000FC0182819381409714F080E00895FD01F2
:100420008281938101969383828384819581E80FF1
:10043000F91F60870196FD01958384832D913C917E
:1004400011978217930714F481E00895FD01158236
:10045000148281E00895CF93DF93EC018CA59DA5D4
:100460004097E4F7F894CE018A960E940702C85B91
:10047000DF4FE881F9818081806280837894DF9109
:10048000CF910895FC011382128282819381978318
:100490008683958384830895FC0180E190E09183B5
:1004A0008083CF010E94420208956F927F928F92C3
:1004B0009F92AF92BF92CF92DF92EF92FF920F93F3
:1004C0001F936C015B014A013901FC0187ED91E04A
:1004D00081939193CF010E94FE01C6018A960E94EA
:1004E0004C0282E490E0C80ED91EF601A192B192AE
:1004F000819291926192719201931193F182E082C3
:100500001F910F91FF90EF90DF90CF90BF90AF9031
:100510009F908F907F906F900895EF92FF920F932E
:100520001F9386E092E060E970E049E250E02BE240
:1005300030E00AE210E0FCE2EF2EF12C0E945502BE
:1005400082E592E068E970E049E950E02BE930E0AB
:100550000AE910E0ECE9EE2EF12C0E9455021F9101
:100560000F91FF90EF9008951F93CF93DF93C0E01A
:10057000D0E0FE01EF51FE4F1081812F61E00E941B
:100580008407812F61E00E94CD07FE01E751FE4FF5
:10059000808160E070E00E9442092296C830D10557
:1005A00041F7DF91CF911F910895FC0110828AE0FD
:1005B00090E0938382830895CF93DF93EC018827A3
:1005C00077FD8095982F0E94560E20E030E044E39E
:1005D00053E40E94C00D20E030E040EF51E40E945F
:1005E000E20E20E030E040E251E40E945C0D0E9407
:1005F000280ECB016A30710510F48AE090E0893250
:10060000910510F088E290E09B838A83DF91CF917F
:100610000895E0916A01E7FD15C0FF27E7FDF09519
:10062000EE0FFF1FE256FD4F0190F081E02D81811A
:1006300060E00E94CD0706C02F5F81919191892BC8
:1006400069F00EC020916A012F5FE22FFF27E7FDBE
:10065000F0952150EE0FFF1FE256FD4F273064F357
:1006600020936A01E0916A01FF27E7FDF095EE0F04
:10067000FF1FE256FD4F0190F081E02D309761F4AD
:100680008FEF80936A0124EF31E08091AF02909167
:10069000B002281B390B12C0818161E00E94CD0796
:1006A000E0916A01FF27E7FDF095EE0FFF1FE2568C
:1006B000FD4F0190F081E02D2281338183B5820FBF
:1006C00083BD8091AF029091B002820F931F9093EF
:1006D000B0028093AF02845F914020F01092B0028C
:1006E0001092AF0208950E946F0887B78F7787BF77
:1006F00085E00E946A0889E069E073E00E948B0847
:1007000083B58C5083BD87B7806887BF1092B002D5
:100710001092AF028FEF80936A010895CF93DF9319
:10072000EC018091AE02893010F080E03DC0698319
:10073000862F61E00E948407E881F0E0EE0FFF1F42
:10074000E256FD4F80819181C817D90761F1409130
:10075000AE02442341F4EEE9F2E01192119282E0FC
:10076000EE3AF807D1F7EEE9F2E020E030E08081E0
:100770009181892B61F4F901EE0FFF1FE256FD4FC5
:10078000D183C08328834F5F4093AE0206C02F5FA2
:100790003F4F32962830310551F78091AE028130BB
:1007A00011F40E94730381E0DF91CF910895CF93FC
:1007B000DF93EC018A8160E00E94CD078D8160E0CB
:1007C0000E94FD078D8160E00E941F088B8161E01F
:1007D0000E94CD078C8161E00E94CD0700000000DF
:1007E00010C08C8160E00E94CD0700000000000076
:1007F00000008C8161E00E94CD0700000000000035
:1008000000008D810E94140887FDEBCF8C8160E091
:100810000E94CD07DF91CF910895FF920F931F9310
:100820008C01F62E0E94D703F801828161E00E94BC
:10083000CD07F801838160E00E94CD07F801848133
:1008400061E00E94CD07F801858161E00E94FD070B
:10085000F80185816F2D0E941F0800000000000034
:100860000000F801848160E00E94CD07F8018581D5
:1008700060E00E94FD07F80185816FEF0E941F086C
:100880001F910F91FF900895EF92FF920F931F9386
:10089000CF93DF937C01042F6115710551F0EB01BB
:1008A00010E005C0C70169910E940D041F5F101779
:1008B000C8F3DF91CF911F910F91FF90EF900895B2
:1008C000DF93CF930F92CDB7DEB76983BE016F5F21
:1008D0007F4F41E00E9444040F90CF91DF91089533
:1008E000FF920F931F938C01F62E0E94D703F801FD
:1008F000828160E00E94CD07F801838160E00E9460
:10090000CD07F801848161E00E94CD07F80185815F
:1009100061E00E94FD07F80185816F2D0E941F088C
:100920000000000000000000F801848160E00E94E7
:10093000CD07F801858160E00E94FD07F8018581FF
:100940006FEF0E941F081F910F91FF900895423092
:1009500031F0433031F0413029F4605C03C06C5E0B
:1009600001C06C5A60680E947004089562E00E94A1
:100970007004089561E00E94700408950F931F931E
:100980008C01FC01828160E00E94CD07F801838127
:1009900060E00E94CD07F801848160E00E94CD07ED
:1009A000F801828161E00E948407F801838161E09F
:1009B0000E948407F801848161E00E948407F801A5
:1009C000858160E00E94FD07F80185816FEF0E943C
:1009D0001F081F910F9108950F931F938C010E9480
:1009E000BE04C80168E30E947004C80161E00E946F
:1009F0007004C80166E00E947004C8016CE00E94A7
:100A00007004C80162E00E947004C80160E80E949E
:100A100070041F910F9108950F93FC0185EF91E0F1
:100A2000918380836283438324830583CF010E9463
:100A3000EC040F9108950F9381EB92E06AE14BE192
:100A40002CE102E00E940C0587EB92E00E94B402C8
:100A500089EB92E00E94D5028DEB92E00E94D502D4
:100A600081EC92E00E94D5020F91089581EB92E013
:100A70000E94BA0481EB92E00E94B60481EB92E0FE
:100A800060E040E00E94A70481EB92E069E171E040
:100A90000E948F0C81EB92E060E041E00E94A7048D
:100AA00081EB92E068E271E00E948F0C82E30E9489
:100AB000B4078823D9F70895CF92DF92EF92FF927F
:100AC0000F931F93CF93DF936C01162F072F81EBAA
:100AD00092E00E94BA0481EB92E00E94B60481EB9E
:100AE00092E060E040E00E94A70481EB92E064E3C2
:100AF00071E00E948F0C81EB92E060E041E00E9487
:100B0000A70481EB92E068E271E00E948F0C82E31F
:100B10000E94B4078823D9F7E12EF02E88C086E022
:100B20000E9433088C0181EB92E00E94BA0481EBB1
:100B300092E00E94B60481EB92E060E040E00E9407
:100B4000A70481EB92E065E471E00E948F0CC8017C
:100B50006AEF70E00E94450F8B01000F111FEB013F
:100B600083E0CC0FDD1F8A95E1F7C00FD11FCE0DBA
:100B7000DF1D81EB92E0BE010E948F0C81EB92E0C1
:100B800060E041E00E94A70481EB92E06CE471E038
:100B90000E948F0C0C0D1D1DF8016081718181EB8D
:100BA00092E00E94530D38C086E00E943308F8019D
:100BB0009183808381EB92E00E94BA0481EB92E002
:100BC0000E94B60481EB92E060E040E00E94A7043E
:100BD00081EB92E065E471E00E948F0C81EB92E082
:100BE000BE010E948F0C81EB92E060E041E00E9428
:100BF000A70481EB92E06CE471E00E948F0CF80195
:100C00006081718181EB92E00E94530D68EC70E08D
:100C100080E090E00E945E0782E30E94B407882390
:100C200019F268EC70E080E090E00E945E0781E3DA
:100C30000E94B407882309F072CFDF91CF911F91F2
:100C40000F91FF90EF90DF90CF9008958BC081EBD4
:100C500092E00E94BA0481EB92E00E94B60481EB1C
:100C600092E060E040E00E94A70481EB92E064E53E
:100C700071E00E948F0C8DEB92E064EB70E00E94BB
:100C8000DC028AE00E94B407813009F059C081EB90
:100C900092E060E041E00E94A70481EB92E064E60C
:100CA00071E00E948F0C62E370E080E090E00E94AF
:100CB0005E0781EC92E06AE570E00E94DC0268EE7B
:100CC00073E080E090E00E945E078DEB92E064E6C6
:100CD00070E00E94DC0268EE73E080E090E00E9429
:100CE0005E0789EB92E064EB70E00E94DC0268EB47
:100CF0007BE080E090E00E945E0789EB92E060E09C
:100D000070E00E94DC0264EF71E080E090E00E94FD
:100D10005E078DEB92E064EB70E00E94DC0264EF12
:100D200071E080E090E00E945E0781EC92E060E07C
:100D300070E00E94DC0264EF71E080E090E010C09F
:100D400081EB92E060E041E00E94A70481EB92E039
:100D500067E671E00E948F0C62E370E080E090E053
:100D60000E945E0781E30E94B407882309F06FCFD9
:100D70000895EF92FF920F931F930BE611E035E772
:100D8000E32E31E0F32EC801B70145E050E00E94A8
:100D90005C05C801B70145E050E00E9436050E949D
:100DA00026061F910F91FF90EF90089589EB92E036
:100DB00063E270E00E948E038DEB92E06FE170E0E1
:100DC0000E948E0381EC92E062E270E00E948E034A
:100DD00008951F920F920FB60F9211242F933F93F5
:100DE0008F939F93AF93BF938091C9029091CA0252
:100DF000A091CB02B091CC023091CD020196A11D01
:100E0000B11D232F2D5F2D3720F02D570196A11DE9
:100E1000B11D2093CD028093C9029093CA02A09382
:100E2000CB02B093CC028091C5029091C602A091F2
:100E3000C702B091C8020196A11DB11D8093C502E1
:100E40009093C602A093C702B093C802BF91AF911E
:100E50009F918F913F912F910F900FBE0F901F90F8
:100E600018956FB7F8942091C5023091C602409151
:100E7000C7025091C80282B790E0A0E0B0E006B689
:100E800000FE09C08F3F9105A105B10521F02F5F3C
:100E90003F4F4F4F5F4F6FBF542F432F322F2227AB
:100EA000280F391F4A1F5B1F82E0220F331F441F88
:100EB000551F8A95D1F7B901CA010895EF92FF92A3
:100EC0000F931F93CF93DF937B018C010E94310717
:100ED000EB010EC00E9431076C1B7D0B685E7340F6
:100EE000C8F30894E108F10801091109C851DC4F61
:100EF000E114F1040105110569F7DF91CF911F910C
:100F00000F91FF90EF900895E82FE695E695E6950E
:100F1000A82FB0E0613099F42FB7F894F0E0EE0F0D
:100F2000FF1FEB54FE4F0190F081E02D9081A770E0
:100F3000B070A950BE4F8C91982B908313C02FB7DF
:100F4000F894F0E0EE0FFF1FEB54FE4F0190F0819C
:100F5000E02D9081A770B070A950BE4F8C91809504
:100F6000892380832FBF0895A82FE82FE695E69563
:100F7000E695F0E0EE0FFF1FED53FE4F0190F0817C
:100F8000E02DE081B0E0A770B070A950BE4F8C9109
:100F9000E82309F0E1E08E2F0895E82FE695E69525
:100FA000E695A82FB0E0613099F42FB7F894F0E0FF
:100FB000EE0FFF1FE955FE4F0190F081E02D90816B
:100FC000A770B070A950BE4F8C91982B908313C01E
:100FD0002FB7F894F0E0EE0FFF1FE955FE4F019098
:100FE000F081E02D9081A770B070A950BE4F8C9118
:100FF0008095892380832FBF0895E82FF0E061302A
:1010000051F4EE0FFF1FEB54FE4F0190F081E02DE5
:101010008FEF80830895EE0FFF1FEB54FE4F01907A
:10102000F081E02D10820895E82FF0E0EE0FFF1F11
:10103000ED53FE4F0190F081E02D80810895E82F5F
:10104000F0E0EE0FFF1FE955FE4F0190F081E02D1B
:1010500060830895109261001092620080E487B965
:1010600087EE86B908951F93182F8091D1018130A2
:1010700021F40E942A081092D1018091D201181700
:1010800021F4349A349BFECF0DC01093D20187B166
:101090001770807E812B87B9349A349BFECF349AA7
:1010A000349BFECF24B135B1C9011F91089593B788
:1010B000987F982B93BF08959EB5987F982B9EBDDF
:1010C000089583E00E945C081DBC1CBC87B7846047
:1010D00087BF089595B5987F982B95BD089582E0B8
:1010E0000E946A0814BC87B7806487BF0895EAE845
:1010F000F0E09081987F982B9083089583E00E9480
:1011000077081092890010928800EDE7F0E0808166
:10111000846080830895803140F4E82FF0E0EE0F82
:10112000FF1FE153FD4F718360830895893031F4CF
:101130008FB582608FBD8FB58E7F0AC08A3019F45B
:101140008FB5826002C08FB58D7F8FBD8FB58160F6
:101150008FBD1BBC1ABC19BC18BC10927900109230
:10116000780008958FB580688FBD8FB58F7B8FBD58
:1011700008958FB580628FBD8FB58F7E8FBD089526
:101180008FB588608FBD8FB58B7F8FBD08959BBD58
:101190008ABD089599BD88BD089590937900809384
:1011A00078000895893049F480918B0082608093A3
:1011B0008B0080918B008E7F0EC08A3021F480914D
:1011C0008B00826003C080918B008D7F80938B00A9
:1011D00080918B00816080938B0010928700109229
:1011E0008600109285001092840010928300109265
:1011F00082000895EBE8F0E0808180688083808140
:101200008F7B80830895EBE8F0E0808180628083AB
:1012100080818F7E80830895EBE8F0E08081886094
:10122000808380818B7F80830895853019F40E94AC
:10123000B2080895843019F40E94B90808958330E3
:1012400019F40E94C0080895823019F40E94FA0827
:101250000895813019F40E9403090895882311F438
:101260000E940C090895909387008093860008954A
:1012700090938500809384000895909383008093D9
:1012800082000895EF92FF921F93CF93DF93182F60
:101290007B018D31B0F08F3111F413E014C08E3129
:1012A00011F414E010C08D3109F49BC0853211F4A3
:1012B00010E03DC0843211F411E039C0833219F4DA
:1012C0008EC08330A0F18091CE0286FD0BC00E94BB
:1012D000610878948AE00E9496088091CE0280642A
:1012E0008093CE028091CE02C12FD0E090E0012EFB
:1012F00002C0959587950A94E2F780FD4CC087B3AC
:10130000FE01E150FE4F9081892B87BB812F0E9407
:1013100015092091CE0281E090E0012E02C0880FD5
:10132000991F0A94E2F7282B2093CE0234C08091B3
:10133000CE0287FD0BC00E947E0878948AE00E944E
:10134000D2088091CE0280688093CE028091CE0236
:10135000C12FD0E090E0012E02C0959587950A94A8
:10136000E2F780FD24C082B1FE01E150FE4F908182
:10137000892B82B9812F0E9415092091CE0281E02C
:1013800090E0012E02C0880F991F0A94E2F7282BE3
:101390002093CE020CC0153021F4C7010E94C7086B
:1013A00022C0143021F4C7010E94CA081CC01330A7
:1013B00021F4C7010E94CD0816C0123021F4C701E4
:1013C0000E94330910C0113021F4C7010E9438096E
:1013D0000AC0112341F4C7010E943D0904C012E074
:1013E000A6CF15E070CFDF91CF911F91FF90EF90C6
:1013F00008951F920F920FB60F920BB60F92112401
:101400002F933F934F935F936F937F938F939F930C
:10141000AF93BF93EF93FF938091D5029091D60243
:10142000892B29F0E091D502F091D6020995FF9120
:10143000EF91BF91AF919F918F917F916F915F914C
:101440004F913F912F910F900BBE0F900FBE0F90B9
:101450001F9018951F920F920FB60F920BB60F9216
:1014600011242F933F934F935F936F937F938F93A9
:101470009F93AF93BF93EF93FF938091DF0290917F
:10148000E002892B29F0E091DF02F091E00209955A
:10149000FF91EF91BF91AF919F918F917F916F914C
:1014A0005F914F913F912F910F900BBE0F900FBE08
:1014B0000F901F9018951F920F920FB60F920BB6B8
:1014C0000F9211242F933F934F935F936F937F93CA
:1014D0008F939F93AF93BF93EF93FF938091E50218
:1014E0009091E602892B29F0E091E502F091E60265
:1014F0000995FF91EF91BF91AF919F918F917F914E
:101500006F915F914F913F912F910F900BBE0F9074
:101510000FBE0F901F9018951F920F920FB60F924B
:101520000BB60F9211242F933F934F935F936F93BA
:101530007F938F939F93AF93BF93EF93FF9380918C
:10154000D1029091D202892B29F0E091D102F09141
:10155000D2020995FF91EF91BF91AF919F918F9129
:101560007F916F915F914F913F912F910F900BBEA3
:101570000F900FBE0F901F9018951F920F920FB6ED
:101580000F920BB60F9211242F933F934F935F93BB
:101590006F937F938F939F93AF93BF93EF93FF933B
:1015A0008091D7029091D802892B29F0E091D7023F
:1015B000F091D8020995FF91EF91BF91AF919F9162
:1015C0008F917F916F915F914F913F912F910F90EC
:1015D0000BBE0F900FBE0F901F9018951F920F9289
:1015E0000FB60F920BB60F9211242F933F934F9388
:1015F0005F936F937F938F939F93AF93BF93EF937B
:10160000FF938091D9029091DA02892B29F0E09121
:10161000D902F091DA020995FF91EF91BF91AF9154
:101620009F918F917F916F915F914F913F912F91FA
:101630000F900BBE0F900FBE0F901F9018951F922A
:101640000F920FB60F920BB60F9211242F933F9368
:101650004F935F936F937F938F939F93AF93BF93BA
:10166000EF93FF938091DB029091DC02892B29F0AC
:10167000E091DB02F091DC020995FF91EF91BF91BF
:10168000AF919F918F917F916F915F914F913F911A
:101690002F910F900BBE0F900FBE0F901F901895BB
:1016A0001F920F920FB60F920BB60F9211242F9329
:1016B0003F934F935F936F937F938F939F93AF93DA
:1016C000BF93EF93FF938091DD029091DE02892B0F
:1016D00029F0E091DD02F091DE020995FF91EF9192
:1016E000BF91AF919F918F917F916F915F914F913A
:1016F0003F912F910F900BBE0F900FBE0F901F9038
:1017000018951F920F920FB60F920BB60F921124DD
:101710002F933F934F935F936F937F938F939F93F9
:10172000AF93BF93EF93FF938091E1029091E20218
:10173000892B29F0E091E102F091E2020995FF91F5
:10174000EF91BF91AF919F918F917F916F915F9139
:101750004F913F912F910F900BBE0F900FBE0F90A6
:101760001F9018951F920F920FB60F920BB60F9203
:1017700011242F933F934F935F936F937F938F9396
:101780009F93AF93BF93EF93FF938091E702909164
:10179000E802892B29F0E091E702F091E80209952F
:1017A000FF91EF91BF91AF919F918F917F916F9139
:1017B0005F914F913F912F910F900BBE0F900FBEF5
:1017C0000F901F9018951F920F920FB60F920BB6A5
:1017D0000F9211242F933F934F935F936F937F93B7
:1017E0008F939F93AF93BF93EF93FF938091E90201
:1017F0009091EA02892B29F0E091E902F091EA0246
:101800000995FF91EF91BF91AF919F918F917F913A
:101810006F915F914F913F912F910F900BBE0F9061
:101820000FBE0F901F9018951F920F920FB60F9238
:101830000BB60F9211242F933F934F935F936F93A7
:101840007F938F939F93AF93BF93EF93FF93809179
:10185000EB029091EC02892B29F0E091EB02F091E0
:10186000EC020995FF91EF91BF91AF919F918F91FC
:101870007F916F915F914F913F912F910F900BBE90
:101880000F900FBE0F901F9018951F920F920FB6DA
:101890000F920BB60F9211242F933F934F935F93A8
:1018A0006F937F938F939F93AF93BF93EF93FF9328
:1018B0008091ED029091EE02892B29F0E091ED02EA
:1018C000F091EE020995FF91EF91BF91AF919F9139
:1018D0008F917F916F915F914F913F912F910F90D9
:1018E0000BBE0F900FBE0F901F90189583E061E024
:1018F0000E94FD0784E061E00E94FD0778940E9449
:10190000D6060E94B906FDCFDC01ED91FC91019055
:10191000F081E02D099508950E94840C08950F939D
:101920001F93CF93DF938C01EB0104C02196C80174
:101930000E948C0C68816623C9F7DF91CF911F91BB
:101940000F9108952F923F924F925F926F927F92E4
:101950008F929F92AF92BF92CF92DF92EF92FF92BF
:101960000F931F93DF93CF93CDB7DEB7A0970FB63A
:10197000F894DEBF0FBECDBF1C016A017B0141158B
:1019800051056105710521F460E30E948C0C4FC084
:10199000882499245401422E55246624772401E09A
:1019A00010E00C0F1D1F080D191DC701B601A30182
:1019B00092010E94580FF80160830894811C911CC9
:1019C000A11CB11CC701B601A30192010E94580FCE
:1019D000C901DA016C017D01C114D104E104F104F3
:1019E000F1F681E0E82EF12CEC0EFD1EE80CF91C5E
:1019F0003E010894611C711CD501C4010197A10925
:101A0000B1096C01C818D9080FC0F601EE0DFF1D11
:101A100060816A3010F4605D01C0695CC1010E94A0
:101A20008C0C0894E108F1086E147F0471F7A096FD
:101A30000FB6F894DEBF0FBECDBFCF91DF911F91DF
:101A40000F91FF90EF90DF90CF90BF90AF909F905D
:101A50008F907F906F905F904F903F902F90089560
:101A6000EF92FF920F931F93CF93DF93EC017A01D4
:101A70008B0177FF0BC06DE20E948C0C10950095D6
:101A8000F094E094E11CF11C011D111DCE01B80180
:101A9000A7012AE00E94A20CDF91CF911F910F9124
:101AA000FF90EF900895AB01662757FD6095762F64
:101AB0000E94300D08955058BB27AA270ED048C168
:101AC00039D130F03ED120F031F49F3F11F41EF4B3
:101AD0002EC10EF4E095E7FB24C1E92F4AD180F333
:101AE000BA17620773078407950718F071F49EF51B
:101AF00062C10EF4E0950B2EBA2FA02D0B01B90197
:101B000090010C01CA01A0011124FF27591B99F073
:101B1000593F50F4503E68F11A16F040A22F232F7F
:101B2000342F4427585FF3CF469537952795A795CF
:101B3000F0405395C9F77EF41F16BA0B620B730B76
:101B4000840BBAF09150A1F0FF0FBB1F661F771FE7
:101B5000881FC2F70EC0BA0F621F731F841F48F49C
:101B6000879577956795B795F7959E3F08F0B3CF22
:101B70009395880F08F09927EE0F9795879508950C
:101B80000CD0E6C0DED040F0D5D030F021F45F3F7D
:101B900019F0C7C0511110C1CAC0EBD098F39923F6
:101BA000C9F35523B1F3951B550BBB27AA27621721
:101BB0007307840738F09F5F5F4F220F331F441F66
:101BC000AA1FA9F333D00E2E3AF0E0E830D091509E
:101BD0005040E695001CCAF729D0FE2F27D0660F8B
:101BE000771F881FBB1F261737074807AB07B0E8CA
:101BF00009F0BB0B802DBF01FF2793585F4F2AF0E0
:101C00009E3F510568F08DC0D7C05F3FECF3983E12
:101C1000DCF3869577956795B795F7959F5FC9F73C
:101C2000880F911D9695879597F90895E1E0660FC5
:101C3000771F881FBB1F621773078407BA0720F03E
:101C4000621B730B840BBA0BEE1F88F7E0950895A7
:101C500098D088F09F5790F0B92F9927B751A0F0EE
:101C6000D1F0660F771F881F991F1AF0BA95C9F730
:101C700012C0B13081F09FD0B1E008959CC0672FB1
:101C8000782F8827B85F39F0B93FCCF386957795E0
:101C90006795B395D9F73EF49095809570956195C9
:101CA0007F4F8F4F9F4F0895E89409C097FB3EF4F4
:101CB00090958095709561957F4F8F4F9F4F992399
:101CC000A9F0F92F96E9BB279395F6958795779517
:101CD0006795B795F111F8CFFAF4BB0F11F460FFD7
:101CE0001BC06F5F7F4F8F4F9F4F16C0882311F02F
:101CF00096E911C0772321F09EE8872F762F05C043
:101D0000662371F096E8862F70E060E02AF09A95DD
:101D1000660F771F881FDAF7880F9695879597F9D2
:101D2000089597F99F6780E870E060E008959FEF5D
:101D300080EC089500240A94161617061806090662
:101D4000089500240A941216130614060506089531
:101D5000092E0394000C11F4882352F0BB0F40F4B9
:101D6000BF2B11F460FF04C06F5F7F4F8F4F9F4FF9
:101D7000089557FD9058440F551F59F05F3F71F07B
:101D80004795880F97FB991F61F09F3F79F08795E2
:101D90000895121613061406551FF2CF4695F1DF6B
:101DA00008C0161617061806991FF1CF86957105FB
:101DB000610508940895E894BB2766277727CB012F
:101DC00097F908950BD0C4CFB5DF28F0BADF18F02B
:101DD000952309F0A6CFABCF1124EECFCADFA0F335
:101DE000959FD1F3950F50E0551F629FF001729FB0
:101DF000BB27F00DB11D639FAA27F00DB11DAA1FCF
:101E0000649F6627B00DA11D661F829F2227B00D1B
:101E1000A11D621F739FB00DA11D621F839FA00DA6
:101E2000611D221F749F3327A00D611D231F849FF6
:101E3000600D211D822F762F6A2F11249F5750404D
:101E40008AF0E1F088234AF0EE0FFF1FBB1F661FE8
:101E5000771F881F91505040A9F79E3F510570F0A1
:101E600060CFAACF5F3FECF3983EDCF38695779581
:101E70006795B795F795E7959F5FC1F7FE2B880F9C
:101E8000911D9695879597F9089597FB092E07263A
:101E90000AD077FD04D02ED006D000201AF4709519
:101EA00061957F4F0895F6F7909581959F4F08951E
:101EB000A1E21A2EAA1BBB1BFD010DC0AA1FBB1F4E
:101EC000EE1FFF1FA217B307E407F50720F0A21BC0
:101ED000B30BE40BF50B661F771F881F991F1A942D
:101EE00069F760957095809590959B01AC01BD0157
:101EF000CF010895AA1BBB1B51E107C0AA1FBB1F3E
:101F0000A617B70710F0A61BB70B881F991F5A9585
:101F1000A9F780959095BC01CD010895EE0FFF1FA4
:0C1F20000590F491E02D0994F894FFCF97
:101F2C00504155534544004B703A00204B643A00E5
:101F3C004C3A200020523A2000496E69742D436FB0
:101F4C006E7374616E747300507265737320537486
:101F5C00617274004368616E676520436F6E7374C1
:101F6C00616E7473004E616D653A200056616C753C
:101F7C00653A2000537769746368205072657373F7
:101F8C0065643F007965006E6F00FF01000200037D
:101F9C000000000C007468726573686F6C640073E9
:101FAC00706565640000000000636F6E737433002D
:101FBC00000000636F6E73743400000000636F6E7A
:101FCC0073743500000000320035003B00380023EC
:101FDC000062006500310034003A003700220061D5
:101FEC00006400300033003900360021002000630B
:101FFC000001FF000000002B027E00E001C501FA89
:10200C00011800190026002700050004000100003B
:10201C000000000000600401020408102040802031
:06202C00100880402000B6
:00000001FF
