:100000000C9448000C947C000C947C000C947C00B4
:100010000C947C000C947C000C947C000C947C0070
:100020000C947C000C9447150C94F0130C9416154A
:100030000C9483140C94B4140C94BF130C945214A9
:100040000C94AF100C947C000C94D8000C946801B4
:100050000C947C000C947C000C947C000C947C0030
:100060000C94E5140C940B160C9478150C94A915AB
:100070000C94DA150C9421140C94A9000C94220110
:100080000C947C000C947C000C947C00B3028A05D8
:1000900011241FBECFEFD0E1DEBFCDBF88E483BF08
:1000A00084E00E941D1212BE87B7816087BF7894DA
:1000B00012E0A0E0B1E0ECEEF2E300E00BBF02C022
:1000C00007900D92A83FB107D9F713E0A8EFB2E06F
:1000D00001C01D92AE3EB107E1F710E0C0E9D0E0EB
:1000E00004C02297FE010E945B19CC38D107C9F7E2
:1000F0000E943C160C9474190C940000FC0126819B
:100100003781C90108951F93CF93DF93EC01162F18
:10011000E881F9810190F081E02D0995809710F038
:1001200080E013C08C819D8101969D838C838E819C
:100130009F81FE01E80FF91F128701969F838E832E
:10014000809714F01F821E8281E0DF91CF911F9172
:1001500008951F920F920FB60F920BB60F921124B3
:100160002F933F934F935F936F937F938F939F93BF
:10017000AF93BF93EF93FF93E0919603F0919703B2
:1001800060818AE493E00E948300FF91EF91BF9128
:10019000AF919F918F917F916F915F914F913F911F
:1001A0002F910F900BBE0F900FBE0F901F901895C0
:1001B0001F920F920FB60F920BB60F9211242F932E
:1001C0003F934F935F936F937F938F939F93AF93DF
:1001D000BF93EF93FF93E0914603F0914703608153
:1001E0008AEF92E00E948300FF91EF91BF91AF915F
:1001F0009F918F917F916F915F914F913F912F913F
:100200000F900BBE0F900FBE0F901F901895FC0122
:1002100024813581C9010895DC01FC018481958127
:1002200001979583848380859185E80FF91F228546
:100230000196FD0191878087409714F01186108602
:10024000822F08951F920F920FB60F920BB60F9246
:1002500011240F931F932F933F934F935F936F93AB
:100260007F938F939F93AF93BF93EF93FF9380916F
:10027000780390917903892B51F0009196031091A6
:10028000970384E793E00E940C01F801808380913A
:10029000780390917903892B31F4E0919403F091E4
:1002A000950388E98083FF91EF91BF91AF919F9172
:1002B0008F917F916F915F914F913F912F911F91FE
:1002C0000F910F900BBE0F900FBE0F901F901895BF
:1002D0001F920F920FB60F920BB60F9211240F932D
:1002E0001F932F933F934F935F936F937F938F93BE
:1002F0009F93AF93BF93EF93FF93809128039091C7
:100300002903892B51F0009146031091470384E2A1
:1003100093E00E940C01F801808380912803909162
:100320002903892B31F4E0914403F091450388E9D6
:100330008083FF91EF91BF91AF919F918F917F91BA
:100340006F915F914F913F912F911F910F910F905E
:100350000BBE0F900FBE0F901F901895FC012481CB
:100360003581C9010895DC01FC01848195810197E3
:100370009583848380859185E80FF91F22850196F6
:10038000FD0191878087809714F011861086822F57
:100390000895FC0186819781892B19F42FEF3FEF97
:1003A00006C0CF0102960E94B301282F30E0C90198
:1003B0000895CF93DF93EC01E885F985E80FF91FE5
:1003C0008285DF91CF910895FC0186819781892BE9
:1003D00019F42FEF3FEF06C0CF0102960E94D9011A
:1003E000282F30E0C9010895FC0115821482848110
:1003F00095819187808797838683089502960E94CE
:10040000F4010895FC0183EC92E09183808380E203
:1004100090E093838283CF010E94F40108951F939B
:10042000CF93DF93EC01162FE881F9810190F081E1
:10043000E02D0995409710F080E013C08C819D81DC
:1004400001969D838C838E819F81FE01E80FF91FA9
:10045000128701969F838E83409714F01F821E821D
:1004600081E0DF91CF911F910895CF93DF93EC014D
:1004700088A999A94097E0F7F894CE018C960E943C
:100480000F02C45BDF4FE881F98180818062808345
:100490007894DF91CF910895FC01158214828481B4
:1004A000958191878087978386830895FC018DECE1
:1004B00092E09183808380E190E093838283CF01F7
:1004C0000E944C0208956F927F928F929F92AF92FA
:1004D000BF92CF92DF92EF92FF920F931F936C0126
:1004E0005B014A013901FC0185EB92E08193919314
:1004F000CF010E940202C6018C960E94560286E439
:1005000090E0C80ED91EF601A192B192819291920B
:100510006192719201931193F182E0821F910F9188
:10052000FF90EF90DF90CF90BF90AF909F908F9013
:100530007F906F900895665F7F4F680F791FCB01A2
:100540000895665F7F4F680F791FCB010895665F3E
:100550007F4F680F791FCB010895665F7F4F680F4B
:10056000791FCB010895EF92FF920F931F9388EFAD
:1005700092E060E970E049E250E02BE230E00AE20C
:1005800010E0FCE2EF2EF12C0E94630288E493E07D
:1005900068E970E049E950E02BE930E00AE910E051
:1005A000ECE9EE2EF12C0E9463021F910F91FF9057
:1005B000EF90089585E060E070E00E94081384E009
:1005C00060E070E00E94081381E060E070E00E944B
:1005D000081380E060E070E00E94081308950F9314
:1005E0001F93CF93DF93EB018A01CC0FDD1F57FDE3
:1005F0000CC0FE01ED52FD4F808161E00E9493111D
:10060000C552DD4F8881B8010EC0FE01ED52FD4F8D
:10061000808160E00E949311C552DD4F66277727E5
:10062000601B710B88810E940813DF91CF911F918D
:100630000F9108951F93CF93DF93C0E0D0E0FE01A8
:10064000ED52FD4F1081812F61E00E944A11812FF0
:1006500061E00E949311FE01E552FD4F808160E050
:1006600070E00E9408132296C830D10541F7DF914F
:10067000CF911F910895FC0110828AE090E093834E
:1006800082830895CF93DF93EC01882777FD8095CF
:10069000982F0E94211820E030E044E353E40E94A8
:1006A000861720E030E040EF51E40E94AD1820E0D2
:1006B00030E040E251E40E9422170E94F317CB0180
:1006C0006A30710510F48AE090E08932910510F0EB
:1006D00088E290E09B838A83DF91CF910895E09137
:1006E0008402E7FD15C0FF27E7FDF095EE0FFF1F21
:1006F000E856FC4F0190F081E02D818160E00E947E
:10070000931106C02F5F81919191892B69F00EC0E2
:10071000209184022F5FE22FFF27E7FDF095215003
:10072000EE0FFF1FE856FC4F273064F3209384023E
:10073000E0918402FF27E7FDF095EE0FFF1FE856DA
:10074000FC4F0190F081E02D309761F48FEF8093A2
:10075000840224EF31E08091A9039091AA03281B21
:10076000390B12C0818161E00E949311E0918402F3
:10077000FF27E7FDF095EE0FFF1FE856FC4F0190B5
:10078000F081E02D2281338183B5820F83BD80917A
:10079000A9039091AA03820F931F9093AA038093B9
:1007A000A903845F914020F01092AA031092A9033C
:1007B00008950E94351287B78F7787BF85E00E9422
:1007C000301289E06FE673E00E94511283B58C50BD
:1007D00083BD87B7806887BF1092AA031092A903D0
:1007E0008FEF809384020895CF93DF93EC01809183
:1007F000A803893010F080E03DC06983862F61E056
:100800000E944A11E881F0E0EE0FFF1FE856FC4F0E
:1008100080819181C817D90761F14091A8034423D1
:1008200041F4E8E9F3E01192119283E0E83AF80725
:10083000D1F7E8E9F3E020E030E080819181892B75
:1008400061F4F901EE0FFF1FE856FC4FD183C0831E
:1008500028834F5F4093A80306C02F5F3F4F329617
:100860002830310551F78091A803813011F40E949E
:10087000D90381E0DF91CF910895CF93DF93EC010D
:100880008A8160E00E9493118D8160E00E94C31113
:100890008D8160E00E94E5118B8161E00E949311DF
:1008A0008C8161E00E9493110000000010C08C81D7
:1008B00060E00E94931100000000000000008C81A5
:1008C00061E00E94931100000000000000008D8193
:1008D0000E94DA1187FDEBCF8C8160E00E949311BA
:1008E000DF91CF910895FF920F931F938C01F62E05
:1008F0000E943D04F801828161E00E949311F80199
:10090000838160E00E949311F801848161E00E947C
:100910009311F801858161E00E94C311F80185817E
:100920006F2D0E94E5110000000000000000F8019A
:10093000848160E00E949311F801858160E00E944B
:10094000C311F80185816FEF0E94E5111F910F918E
:10095000FF900895EF92FF920F931F93CF93DF9331
:100960007C01042F6115710551F0EB0110E005C009
:10097000C70169910E9473041F5F1017C8F3DF91CC
:10098000CF911F910F91FF90EF900895DF93CF9338
:100990000F92CDB7DEB76983BE016F5F7F4F41E035
:1009A0000E94AA040F90CF91DF910895FF920F93B8
:1009B0001F938C01F62E0E943D04F801828160E0B5
:1009C0000E949311F801838160E00E949311F80165
:1009D000848161E00E949311F801858161E00E94A9
:1009E000C311F80185816F2D0E94E5110000000000
:1009F00000000000F801848160E00E949311F8017A
:100A0000858160E00E94C311F80185816FEF0E942B
:100A1000E5111F910F91FF900895423031F043305E
:100A200031F0413029F4605C03C06C5E01C06C5A47
:100A300060680E94D604089562E00E94D60408957A
:100A400061E00E94D60408950F931F938C01FC016E
:100A5000828160E00E949311F801838160E00E942E
:100A60009311F801848160E00E949311F801828162
:100A700061E00E944A11F801838161E00E944A11FD
:100A8000F801848161E00E944A11F801858160E0EB
:100A90000E94C311F80185816FEF0E94E5111F913B
:100AA0000F9108950F931F938C010E942405C80194
:100AB00068E30E94D604C80161E00E94D604C80120
:100AC00066E00E94D604C8016CE00E94D604C8010A
:100AD00062E00E94D604C80160E80E94D6041F911B
:100AE0000F9108950F93FC0187EE92E0918380832C
:100AF0006283438324830583CF010E9452050F91B3
:100B00000895CB01642F0E9467190895CB010E94BC
:100B10005F1908950F938CEA93E06AE14BE12CE1B1
:100B200002E00E94720582EB93E00E941A0384EBBC
:100B300093E00E943B0388EB93E00E943B038CEB25
:100B400093E00E943B030F910895CF93DF93EC0154
:100B500087E00E94F9112197C89FB001C99F700DCD
:100B6000D89F700D11242196882777FD8095982FA6
:100B70000E9421182DEC3CEC4CE85FE30E94AD187C
:100B800020E030E040E85AE30E94AD1820E030E079
:100B900040E85FE30E9422170E94EE179B01C617F0
:100BA000D7070CF49E01C901DF91CF9108950F93EF
:100BB0001F938C0186E00E94F91120E008171907A5
:100BC0000CF421E0822F1F910F9108950F931F9332
:100BD0000CEA13E0C8010E942005C8010E941C0510
:100BE0001F910F910895EF92FF920F931F937C0135
:100BF0000CEA13E0C80160E041E00E940D05C80165
:100C0000B7010E9455161F910F91FF90EF90089524
:100C1000EF92FF920F931F937C010CEA13E0C8013F
:100C200060E040E00E940D05C801B7010E94551622
:100C30001F910F91FF90EF900895EF92FF920F9305
:100C40001F937C010E94E6050CEA13E0C80160E0F6
:100C500040E00E940D05C801B7010E945516C80169
:100C600060E041E00E940D05C80160E071E00E9473
:100C700055166091C0037091C103C8010E941917F5
:100C8000C80163E071E00E9455166091C203709143
:100C9000C303C8010E9419171F910F91FF90EF9095
:100CA0000895EF92FF920F931F937C010CEA13E0DB
:100CB000C80160E041E00E940D05C80167E071E0F5
:100CC0000E945516C801B7010E9419171F910F9174
:100CD000FF90EF900895AF92BF92CF92DF92EF9284
:100CE000FF920F931F93CF93DF938BEA93E068E01B
:100CF00070E00E948605A82EBB24AA0CBB1CAA0C7F
:100D0000BB1C8BEA93E069E070E00E948605E82E48
:100D1000FF24EE0CFF1CEE0CFF1C8BEA93E06AE054
:100D200070E00E948605C82EDD24CC0CDD1CCC0CA6
:100D3000DD1C8BEA93E06BE070E00E948605082FD3
:100D400010E0000F111F000F111F8BEA93E06CE001
:100D500070E00E948605C82FD0E0CC0FDD1FCC0FBD
:100D6000DD1F82EB93E00E94DA028CEA93E060E000
:100D700040E00E940D058CEA93E06FE071E00E9474
:100D80005516CE010E94D7058823D9F30E94E605A7
:100D90008CEA93E060E040E00E940D058CEA93E06D
:100DA0006CE171E00E945516E5010CC088EB93E000
:100DB000BE010E9442036FE070E080E090E00E947C
:100DC00024112196CE15DF058CF3E6010CC08CEBC7
:100DD00093E0BE010E9442036AE070E080E090E090
:100DE0000E9424112196C017D1078CF384EB93E065
:100DF00064EB70E00E94420384EB93E060E070E0FB
:100E00000E9442038CEB93E0B6010E94420388EB00
:100E100093E0B5010E9442030E94E6058CEA93E04C
:100E200060E040E00E940D058CEA93E06AE271E028
:100E30000E945516DF91CF911F910F91FF90EF9077
:100E4000DF90CF90BF90AF9008950F931F930BEA60
:100E500013E0C80161E070E04EE30E948105C80123
:100E600062E070E046E00E948105C80163E070E046
:100E70004BE40E948105C80164E070E049E10E94F2
:100E80008105C80165E070E04EE30E948105C8015C
:100E900066E070E046E00E948105C80167E070E00E
:100EA00044E60E948105C80168E070E044E00E94C9
:100EB00081051F910F91089581E30E947A11882383
:100EC00011F080E008956CE271E080E090E00E9413
:100ED000241181E008952F923F924F925F926F927A
:100EE0007F928F929F92AF92BF92CF92DF92EF92BA
:100EF000FF920F931F93DF93CF93CDB7DEB72F975A
:100F00000FB6F894DEBF0FBECDBF8BEA93E061E071
:100F100070E00E948605282F30E0220F331F220F39
:100F2000331F3F832E838BEA93E062E070E00E94E0
:100F30008605A82FB0E0AA0FBB1FAA0FBB1FBD8359
:100F4000AC838BEA93E063E070E00E948605E82FB3
:100F5000F0E0EE0FFF1FEE0FFF1FFB83EA838BEA2B
:100F600093E064E070E00E948605A82EBB24AA0CE2
:100F7000BB1CAA0CBB1C1B861A8600E010E019865D
:100F8000188622243324442455241982CC24DD24B9
:100F90008C819D81AA2797FDA095BA2F8C879D876C
:100FA000AE87BF8739C180E00E94F9113C0181E022
:100FB0000E94F9114C01A614B70434F4A816B9061E
:100FC0006CF4CC24DD2421C06A147B04F4F4A8164C
:100FD000B9065CF4CC24CA94DC2C17C08A159B0596
:100FE000A4F4E1E0CE2ED12C10C08A159B056CF440
:100FF000D7FE05C07BEFC72E7FEFD72E06C0CD28CA
:1010000009F40FC165E0C62ED12CC016D10639F007
:101010001B870A873986288651E0252E312C6C855E
:101020007D858E859F850E9421187B018C01B601EC
:10103000AA85BB856A1B7B0B882777FD8095982F37
:101040000E9421189B01AC01C801B7010E94AD1894
:101050007B018C0168857985620D731D882777FD7A
:101060008095982F0E9421189B01AC01C801B701FF
:101070000E9486170E94EE177B018C01EE81FF8192
:10108000CE9EC001CF9E900DDE9E900D1124E80EE5
:10109000F91E4A815B814E195F0982EB93E063E0A0
:1010A00070E00E94EF022A813B81E20EF31E82EB88
:1010B00093E062E070E0A7010E94EF0232E3431682
:1010C000510409F046C083E00E94F9118035910572
:1010D00014F481E089838CEA93E00E9420058CEA75
:1010E00093E00E941C058CEA93E06FE271E00E949D
:1010F00055168CEA93E0B3010E9419178CEA93E02D
:1011000063E371E00E9455168CEA93E0B4010E94FB
:1011100019178CEA93E060E041E00E940D058CEA2B
:1011200093E068E371E00E9455168CEA93E06E81CB
:101130007F810E9419178CEA93E06CE371E00E94B2
:1011400055168CEA93E06C817D810E941917442426
:1011500055249981992309F458C082EB93E00E94A9
:10116000DA0200E110E088EB93E0B8010E9442034C
:101170006FE070E080E090E00E9424110F5F1F4F4D
:101180000436110581F700E010E08CEB93E0B80124
:101190000E9442036AE070E080E090E00E94241127
:1011A0000F5F1F4F0639110581F784EB93E064EB65
:1011B00070E00E94420368EE73E080E090E00E94DD
:1011C000241184EB93E060E070E00E94420364EF3E
:1011D00071E080E090E00E9424118CEB93E060E0ED
:1011E00070E00E94420364EF71E080E090E00E94B2
:1011F000241188EB93E060E170E00E94420364EF09
:1012000071E080E090E00E9424110894411C511C80
:101210000894211C311C86010E945C07882309F474
:10122000C2CE82EB93E00E94DA022F960FB6F894BA
:10123000DEBF0FBECDBFCF91DF911F910F91FF9009
:10124000EF90DF90CF90BF90AF909F908F907F9066
:101250006F905F904F903F902F900895EF92FF9284
:101260000F931F9332C084E00E94F9118C0185E036
:101270000E94F9117C010E94E6058CEA93E060E08F
:1012800040E00E940D058CEA93E061E471E00E9469
:1012900055168CEA93E0B8010E9419178CEA93E086
:1012A00060E041E00E940D058CEA93E064E471E0A7
:1012B0000E9455168CEA93E0B7010E94191768EC5A
:1012C00070E080E090E00E9424110E945C07882377
:1012D00051F21F910F91FF90EF9008954F925F92FE
:1012E0006F927F928F929F92AF92BF92CF92DF9236
:1012F000EF92FF920F931F93CF93DF938BEA93E0CC
:1013000061E070E00E948605882E9924880C991C63
:10131000880C991C8BEA93E062E070E00E948605DD
:10132000A82EBB24AA0CBB1CAA0CBB1C8BEA93E006
:1013300063E070E00E948605C82EDD24CC0CDD1C25
:10134000CC0CDD1C00E010E0C0E0D0E081C080E00B
:101350000E94F9113C0181E00E94F9112C017301F6
:10136000E81AF90A8DE2E81681E0F80624F08CE22A
:10137000E82E81E0F82EC701801B910B8A9D800129
:101380008B9D100D9A9D100D1124E89CC001E99CC5
:10139000900DF89C900D1124080F191FA601401BF9
:1013A000510B82EB93E063E070E00E94EF020C0DC2
:1013B0001D1D82EB93E062E070E0A8010E94EF0245
:1013C000C233D10509F042C08CEA93E00E942005A7
:1013D0008CEA93E00E941C058CEA93E060E040E018
:1013E0000E940D058CEA93E061E471E00E945516BD
:1013F0008CEA93E0B3010E9419178CEA93E067E44A
:1014000071E00E9455168CEA93E0B2010E94191710
:101410008CEA93E060E041E00E940D058CEA93E0E5
:1014200068E371E00E9455168CEA93E0B4010E94D3
:1014300019178CEA93E06CE371E00E9455168CEA70
:1014400093E0B5010E941917C0E0D0E02196870112
:101450000E945C07882309F47ACF82EB93E00E9414
:10146000DA02DF91CF911F910F91FF90EF90DF9003
:10147000CF90BF90AF909F908F907F906F905F9034
:101480004F9008952F923F924F925F926F927F926A
:101490008F929F92AF92BF92CF92DF92EF92FF9284
:1014A0000F931F93DF93CF93CDB7DEB72E970FB671
:1014B000F894DEBF0FBECDBF8BEA93E061E070E031
:1014C0000E948605282F30E0220F331F220F331F82
:1014D0003C832B838BEA93E062E070E00E948605F8
:1014E000482F50E0440F551F440F551F5A8349831E
:1014F0008BEA93E063E070E00E948605282E332497
:10150000220C331C220C331C8BEA93E064E070E065
:101510000E948605C82EDD24CC0CDD1CCC0CDD1C05
:101520001E861D8618861F8200E010E01E821D8226
:10153000662477248824992489819A81AA2797FD93
:10154000A095BA2F89879A87AB87BC87DBC084E0D8
:101550000E94F9112C0185E00E94F9115C01C4146C
:10156000D50434F4C816D90664F41E861D8625C039
:101570004C145D0414F5C816D9065CF4AFEFBFEF48
:101580001AC08C159D05CCF4E1E0F0E0FE87ED87F4
:1015900014C08C159D058CF42D853E8537FF05C044
:1015A0004BEF5FEF5E874D8708C08D859E85892B49
:1015B00021F0A5E0B0E0BE87AD87ED85FE85E017A0
:1015C000F10739F018870F837E826D8241E0642E27
:1015D000712C69857A858B859C850E9421187B01F9
:1015E0008C016D857E852F813885621B730B882762
:1015F00077FD8095982F0E9421189B01AC01C801AE
:10160000B7010E94AD187B018C016D817E81660D52
:10161000771D882777FD8095982F0E9421189B01C0
:10162000AC01C801B7010E9486170E94EE177B012A
:101630008C014D855E85AB81BC814A9FC0014B9F6B
:10164000900D5A9F900D1124E80EF91EA701420D2E
:10165000531D82EB93E063E070E00E94EF02A10172
:101660004E195F0982EB93E062E070E00E94EF02A6
:10167000B2E38B169104F1F58CEA93E00E94200509
:101680008CEA93E00E941C058CEA93E06FE271E023
:101690000E9455168CEA93E0B2010E9419178CEA59
:1016A00093E063E371E00E9455168CEA93E0B50184
:1016B0000E9419178CEA93E060E041E00E940D055A
:1016C0008CEA93E068E371E00E9455168CEA93E09F
:1016D0006B817C810E9419178CEA93E06CE371E0C6
:1016E0000E9455168CEA93E069817A810E9419174D
:1016F000882499240894811C911C0894611C711CF5
:101700000D851E850E945C07882309F420CF82EB9B
:1017100093E00E94DA022E960FB6F894DEBF0FBE59
:10172000CDBFCF91DF911F910F91FF90EF90DF9090
:10173000CF90BF90AF909F908F907F906F905F9071
:101740004F903F902F9008950E945C078823E1F30B
:1017500008950F931F93CF93DF9363C086E00E9499
:10176000F9118C010F5F1140000F111F87E00E94DB
:10177000F9118F5F9140880F991FA8012CEF01305C
:10178000120714F441E05CEF8A0124E04030520774
:1017900014F00FEF13E0AC018CEF4130580714F454
:1017A00041E05CEFEA0124E04030520714F0CFEF53
:1017B000D3E082EB93E063E070E0A8010E94EF02C7
:1017C00082EB93E062E070E0AE010E94EF020E94C3
:1017D000E6058CEA93E060E040E00E940D058CEAAB
:1017E00093E06BE471E00E9455168CEA93E0B80137
:1017F0000E9419178CEA93E060E041E00E940D0519
:101800008CEA93E060E571E00E9455168CEA93E063
:10181000BE010E94191762E370E080E090E00E9430
:1018200024110E945C07882309F498CF82EB93E08F
:101830000E94DA02DF91CF911F910F9108952F92AC
:101840003F924F925F926F927F928F929F92AF9250
:10185000BF92CF92DF92EF92FF920F931F938CC0B3
:1018600080E00E94F9115C0181E00E94F9117C0185
:1018700082E00E94F9111C0183E00E94F9113C01F1
:101880000E94E6058CEA93E060E040E00E940D05CE
:101890008CEA93E065E571E00E9455168CEA93E0CE
:1018A00068E571E00E9455160027F7FC0095102F9F
:1018B000C801B7010E9421180E94EE179B01AC01DC
:1018C0008CEA93E0B9010E9419178CEA93E06CE569
:1018D00071E00E945516CC24B7FCC094DC2CC601E4
:1018E000B5010E9421180E94EE179B01AC018CEA01
:1018F00093E0B9010E9419178CEA93E060E041E09F
:101900000E940D058CEA93E060E671E00E94551696
:101910008CEA93E068E571E00E945516882477FC14
:101920008094982CC401B3010E9421180E94EE17E4
:101930009B01AC018CEA93E0B9010E9419178CEA73
:1019400093E06CE571E00E945516442437FC409406
:10195000542CC201B1010E9421180E94EE179B0174
:10196000AC018CEA93E0B9010E94191768EC70E0B1
:1019700080E090E00E9424110E945C07882309F413
:101980006FCF1F910F91FF90EF90DF90CF90BF909E
:10199000AF909F908F907F906F905F904F903F900F
:1019A0002F9008952F923F924F925F926F927F9265
:1019B0008F929F92AF92BF92CF92DF92EF92FF925F
:1019C0000F931F93CF93DF938BEA93E065E070E072
:1019D0000E948605482E5524440C551C440C551C69
:1019E0008BEA93E066E070E00E948605682E77241B
:1019F000660C771C660C771C8BEA93E067E070E05E
:101A00000E948605882E9924880C991C880C991CA4
:101A100022243324AA24BB2497C080E00E94F91119
:101A20007C0181E00E94F911082FD92E82E00E94EA
:101A3000F911EC0183E00E94F911AC01CE018E0D89
:101A40009F1D815D97401CF467017E0105C0202F1A
:101A50003D2DC9016C017A01E601CE19DF09C93CAF
:101A6000D1051CF0C8ECD0E006C08FEFC833D80712
:101A700014F4C8E3DFEFCE0182199309869D80013B
:101A8000879D100D969D100D1124C49DC001C59D0C
:101A9000900DD49D900D1124080F191FA801480D19
:101AA000591D82EB93E063E070E00E94EF02A40115
:101AB000401B510B82EB93E062E070E00E94EF026A
:101AC00022E3A216B104E1F58CEA93E00E9420051E
:101AD0008CEA93E00E941C058CEA93E06FE271E0CF
:101AE0000E9455168CEA93E0B6010E9419178CEA01
:101AF00093E063E371E00E9455168CEA93E0B7012E
:101B00000E9419178CEA93E060E041E00E940D0505
:101B10008CEA93E068E371E00E9455168CEA93E04A
:101B2000B2010E9419178CEA93E06CE371E00E9405
:101B300055168CEA93E0B3010E941917AA24BB241E
:101B40000894A11CB11C1E010E945C07882309F4A3
:101B500064CF82EB93E00E94DA02DF91CF911F9174
:101B60000F91FF90EF90DF90CF90BF90AF909F903C
:101B70008F907F906F905F904F903F902F9008953F
:101B800082E30E947A11882311F080E008956CE2CC
:101B900071E080E090E00E94241181E008951CC073
:101BA0000E94E6058CE891E00E94080681E090E042
:101BB0000E94A505019751F484E991E00E94F30584
:101BC0000E94C00D882311F00E94A40B68EC70E005
:101BD00080E090E00E9424110E945C07882301F3BA
:101BE00008956F927F928F929F92AF92BF92CF9201
:101BF000DF92EF92FF920F931F93CF93DF936C01CD
:101C00003B01EA018BEA93E0B6010E94860590E071
:101C1000880F991F880F991F9093C1038093C00369
:101C20008CEA93E0B3010E9455168BEA93E0B6016B
:101C30000E94860590E0880F991F880F991F0E94C7
:101C400051060E94C00D882309F04FC058C087E09C
:101C50000E94F911AA2797FDA095BA2FBC01CD01CA
:101C60000E94211820E030E04AE754E40E948617E1
:101C70007B018C01C501B4010E9421189B01AC01BC
:101C8000C801B7010E94AD180E94EE177093C303FC
:101C90006093C203C617D70724F4D093C303C0933D
:101CA000C203C3010E941D060E94C00D8823B1F02B
:101CB0008091C2039091C30364E070E00E94101908
:101CC000462F8BEA93E0B6010E9481058091C20302
:101CD0009091C3039093C1038093C00368EC70E0BC
:101CE00080E090E00E94241105C04E01AA2497FCD8
:101CF000A094BA2C0E945C07882309F4A8CFDF9136
:101D0000CF911F910F91FF90EF90DF90CF90BF90F8
:101D1000AF909F908F907F906F90089536C00E94F3
:101D2000E60583EA91E00E94080684E090E00E94C4
:101D3000A5058230910589F0833091051CF4019747
:101D4000F1F406C08330910569F00497C1F40FC027
:101D500081E090E06EEA71E00EC082E090E062EB1C
:101D600071E009C083E090E066EB71E004C084E0BC
:101D700090E06CEB71E048EE53E00E94F10D68ECEE
:101D800070E080E090E00E9424110E945C078823AC
:101D900031F208952AC00E94E60583EA91E00E948C
:101DA000080683E090E00E94A5058230910551F07D
:101DB0008330910561F0019791F485E090E06EEA3F
:101DC00071E009C086E090E062EB71E004C087E05A
:101DD00090E066EB71E048EE53E00E94F10D68EC94
:101DE00070E080E090E00E9424110E945C0788234C
:101DF00091F2089540C00E94E60583EA91E00E94B6
:101E0000080685E090E00E94A50583309105C9F0A1
:101E10008430910534F48130910549F0029729F519
:101E20000BC08430910591F00597F9F416C088E055
:101E300090E063EC71E00EC089E090E060ED71E04D
:101E400009C08AE090E06DED71E004C08BE090E0A5
:101E500069EE71E044EB50E006C08CE090E06CEB82
:101E600071E048EE53E00E94F10D68EC70E080E014
:101E700090E00E9424110E945C07882309F4BBCFE4
:101E800008954AC00E94E60583EF91E00E9408068B
:101E900084E090E00E94A50582309105B9F083307E
:101EA00091051CF4019791F506C083309105C9F0A6
:101EB000049761F521C08FEF91E00E94F3050E9425
:101EC000C00D882319F10E948E0E20C08AE092E096
:101ED0000E94F3050E94C00D8823C1F00E94420AAF
:101EE00015C083E192E00E94F3050E94C00D882393
:101EF00069F00E946E090AC08EE192E00E94F3052B
:101F00000E94C00D882311F00E942E0968EC70E039
:101F100080E090E00E9424110E945C07882309F46D
:101F2000B1CF089538C00E94E6058CE292E00E948D
:101F3000080683E090E00E94A5058230910581F0BB
:101F400083309105C1F0019701F58FEF91E00E9478
:101F5000F3050E94C00D8823C1F00E94CA0E15C06F
:101F60008AE092E00E94F3050E94C00D882369F088
:101F70000E94D20C0AC08EE192E00E94F3050E94FA
:101F8000C00D882311F00E941F0C68EC70E080E007
:101F900090E00E9424110E945C07882321F208959A
:101FA0002DC00E94E60586E392E00E94080682E0CA
:101FB00090E00E94A5058130910519F00297C1F4C7
:101FC0000BC08FEF91E00E94F3050E94C00D8823A3
:101FD00079F00E94FA0E0CC08AE092E00E94F305AC
:101FE0000E94C00D882321F00E94E6050E946B0626
:101FF00068EC70E080E090E00E9424110E945C0791
:10200000882379F208950E94E60586E492E00E9412
:10201000080687E090E00E94A50584309105E1F173
:102020008530910554F482309105F1F083309105AB
:102030003CF5019709F071C00BC08630910509F499
:1020400041C0863091059CF1079709F066C045C0F4
:1020500083EF91E00E94F3050E94C00D882309F4EC
:102060005CC00E94410F59C08CE292E00E94F305CF
:102070000E94C00D882309F450C00E94920F4DC0E9
:102080008FE492E00E94F3050E94C00D882309F4BA
:1020900044C00E94D00F41C08CE592E00E94F3053D
:1020A0000E94C00D8823C9F10E94A90B36C08CE89C
:1020B00091E00E94F3050E94C00D882371F10E94F7
:1020C000CF0D2BC082E692E00E94F3050E94C00D66
:1020D000882319F10E946B0720C082E792E00E94DA
:1020E000F3050E94C00D8823C1F00E94E6050E94FE
:1020F00025078CEA93E060E040E00E940D058CEA41
:1021000093E06EE772E00E94551664EF71E080E0A4
:1021100090E00E9424110E94E60568EC70E080E0E7
:1021200090E00E942411089580E060E00E94C311B5
:1021300081E060E00E94C31184EB93E063E270E011
:102140000E94F40388EB93E06FE170E00E94F403D7
:102150008CEB93E062E270E00E94F40308951F921A
:102160000F920FB60F9211242F933F938F939F934B
:10217000AF93BF938091C8039091C903A091CA0304
:10218000B091CB033091CC030196A11DB11D232F3B
:102190002D5F2D3720F02D570196A11DB11D2093E5
:1021A000CC038093C8039093C903A093CA03B09350
:1021B000CB038091C4039091C503A091C603B09155
:1021C000C7030196A11DB11D8093C4039093C5035D
:1021D000A093C603B093C703BF91AF919F918F9116
:1021E0003F912F910F900FBE0F901F9018956FB7D2
:1021F000F8942091C4033091C5034091C6035091D7
:10220000C70382B790E0A0E0B0E006B600FE09C0C8
:102210008F3F9105A105B10521F02F5F3F4F4F4F33
:102220005F4F6FBF542F432F322F2227280F391FA4
:102230004A1F5B1F82E0220F331F441F551F8A95E0
:10224000D1F7B901CA010895EF92FF920F931F933E
:10225000CF93DF937B018C010E94F710EB010EC03E
:102260000E94F7106C1B7D0B685E7340C8F30894E6
:10227000E108F10801091109C851DC4FE114F1042A
:102280000105110569F7DF91CF911F910F91FF9023
:10229000EF900895E82FE695E695E695A82FB0E033
:1022A000613099F42FB7F894F0E0EE0FFF1FED5670
:1022B000FD4F0190F081E02D9081A770B070A75183
:1022C000BD4F8C91982B908313C02FB7F894F0E0FA
:1022D000EE0FFF1FED56FD4F0190F081E02D908134
:1022E000A770B070A751BD4F8C91809589238083D2
:1022F0002FBF0895A82FE82FE695E695E695F0E024
:10230000EE0FFF1FEF55FD4F0190F081E02DE081B2
:10231000B0E0A770B070A751BD4F8C91E82309F0D1
:10232000E1E08E2F0895E82FE695E695E695A82F33
:10233000B0E0613099F42FB7F894F0E0EE0FFF1F92
:10234000EB57FD4F0190F081E02D9081A770B070A8
:10235000A751BD4F8C91982B908313C02FB7F89441
:10236000F0E0EE0FFF1FEB57FD4F0190F081E02DE5
:102370009081A770B070A751BD4F8C918095892333
:1023800080832FBF0895E82FF0E0613051F4EE0F05
:10239000FF1FED56FD4F0190F081E02D8FEF808300
:1023A0000895EE0FFF1FED56FD4F0190F081E02DD7
:1023B00010820895E82FF0E0EE0FFF1FEF55FD4F5C
:1023C0000190F081E02D80810895E82FF0E0EE0F7C
:1023D000FF1FEB57FD4F0190F081E02D60830895C2
:1023E000109261001092620080E487B987EE86B98E
:1023F00008951F93182F8091AF02813021F40E941D
:10240000F0111092AF028091B002181721F4349AA3
:10241000349BFECF0DC01093B00287B11770807E41
:10242000812B87B9349A349BFECF349A349BFECFEC
:1024300024B135B1C9011F91089593B7987F982BA6
:1024400093BF08959EB5987F982B9EBD089583E015
:102450000E9422121DBC1CBC87B7846087BF0895F0
:1024600095B5987F982B95BD089582E00E94301213
:1024700014BC87B7806487BF0895EAE8F0E09081D4
:10248000987F982B9083089583E00E943D121092CC
:10249000890010928800EDE7F0E0808184608083FD
:1024A0000895803140F4E82FF0E0EE0FFF1FE25373
:1024B000FC4F718360830895893031F48FB5826059
:1024C0008FBD8FB58E7F0AC08A3019F48FB58260B8
:1024D00002C08FB58D7F8FBD8FB581608FBD1BBC56
:1024E0001ABC19BC18BC109279001092780008959B
:1024F0008FB580688FBD8FB58F7B8FBD08958FB5E9
:1025000080628FBD8FB58F7E8FBD08958FB5886037
:102510008FBD8FB58B7F8FBD08959BBD8ABD0895FC
:1025200099BD88BD089590937900809378000895AF
:10253000893049F480918B00826080938B00809178
:102540008B008E7F0EC08A3021F480918B008260D8
:1025500003C080918B008D7F80938B0080918B00D6
:10256000816080938B0010928700109286001092F9
:1025700085001092840010928300109282000895CA
:10258000EBE8F0E080818068808380818F7B8083AE
:102590000895EBE8F0E080818062808380818F7E07
:1025A00080830895EBE8F0E08081886080838081FB
:1025B0008B7F80830895853019F40E9478120895E6
:1025C000843019F40E947F120895833019F40E9418
:1025D00086120895823019F40E94C0120895813045
:1025E00019F40E94C9120895882311F40E94D2128E
:1025F00008959093870080938600089590938500B6
:1026000080938400089590938300809382000895BE
:10261000EF92FF921F93CF93DF93182F7B018D31A1
:10262000B0F08F3111F413E014C08E3111F414E0C6
:1026300010C08D3109F49BC0853211F410E03DC00B
:10264000843211F411E039C0833219F48EC0833022
:10265000A0F18091CD0386FD0BC00E9427127894D3
:102660008AE00E945C128091CD0380648093CD0348
:102670008091CD03C12FD0E090E0012E02C095954E
:1026800087950A94E2F780FD4CC087B3FE01EF50B6
:10269000FD4F9081892B87BB812F0E94DB122091F7
:1026A000CD0381E090E0012E02C0880F991F0A94AB
:1026B000E2F7282B2093CD0334C08091CD0387FD12
:1026C0000BC00E94441278948AE00E949812809174
:1026D000CD0380688093CD038091CD03C12FD0E0DE
:1026E00090E0012E02C0959587950A94E2F780FD4F
:1026F00024C082B1FE01EF50FD4F9081892B82B939
:10270000812F0E94DB122091CD0381E090E0012E09
:1027100002C0880F991F0A94E2F7282B2093CD035B
:102720000CC0153021F4C7010E948D1222C0143054
:1027300021F4C7010E9490121CC0133021F4C7017C
:102740000E94931216C0123021F4C7010E94F912A0
:1027500010C0113021F4C7010E94FE120AC01123DB
:1027600041F4C7010E94031304C012E0A6CF15E094
:1027700070CFDF91CF911F91FF90EF9008951F923E
:102780000F920FB60F920BB60F9211242F933F9317
:102790004F935F936F937F938F939F93AF93BF9369
:1027A000EF93FF938091D4039091D503892B29F067
:1027B000E091D403F091D5030995FF91EF91BF917A
:1027C000AF919F918F917F916F915F914F913F91C9
:1027D0002F910F900BBE0F900FBE0F901F9018956A
:1027E0001F920F920FB60F920BB60F9211242F93D8
:1027F0003F934F935F936F937F938F939F93AF9389
:10280000BF93EF93FF938091DE039091DF03892BB9
:1028100029F0E091DE03F091DF030995FF91EF913C
:10282000BF91AF919F918F917F916F915F914F91E8
:102830003F912F910F900BBE0F900FBE0F901F90E6
:1028400018951F920F920FB60F920BB60F9211248C
:102850002F933F934F935F936F937F938F939F93A8
:10286000AF93BF93EF93FF938091E4039091E503BF
:10287000892B29F0E091E403F091E5030995FF919C
:10288000EF91BF91AF919F918F917F916F915F91E8
:102890004F913F912F910F900BBE0F900FBE0F9055
:1028A0001F9018951F920F920FB60F920BB60F92B2
:1028B00011242F933F934F935F936F937F938F9345
:1028C0009F93AF93BF93EF93FF938091D003909129
:1028D000D103892B29F0E091D003F091D103099520
:1028E000FF91EF91BF91AF919F918F917F916F91E8
:1028F0005F914F913F912F910F900BBE0F900FBEA4
:102900000F901F9018951F920F920FB60F920BB653
:102910000F9211242F933F934F935F936F937F9365
:102920008F939F93AF93BF93EF93FF938091D603C1
:102930009091D703892B29F0E091D603F091D7032A
:102940000995FF91EF91BF91AF919F918F917F91E9
:102950006F915F914F913F912F910F900BBE0F9010
:102960000FBE0F901F9018951F920F920FB60F92E7
:102970000BB60F9211242F933F934F935F936F9356
:102980007F938F939F93AF93BF93EF93FF93809128
:10299000D8039091D903892B29F0E091D803F091C5
:1029A000D9030995FF91EF91BF91AF919F918F91BD
:1029B0007F916F915F914F913F912F910F900BBE3F
:1029C0000F900FBE0F901F9018951F920F920FB689
:1029D0000F920BB60F9211242F933F934F935F9357
:1029E0006F937F938F939F93AF93BF93EF93FF93D7
:1029F0008091DA039091DB03892B29F0E091DA03CF
:102A0000F091DB030995FF91EF91BF91AF919F91F9
:102A10008F917F916F915F914F913F912F910F9087
:102A20000BBE0F900FBE0F901F9018951F920F9224
:102A30000FB60F920BB60F9211242F933F934F9323
:102A40005F936F937F938F939F93AF93BF93EF9316
:102A5000FF938091DC039091DD03892B29F0E091B5
:102A6000DC03F091DD030995FF91EF91BF91AF91E8
:102A70009F918F917F916F915F914F913F912F9196
:102A80000F900BBE0F900FBE0F901F9018951F92C6
:102A90000F920FB60F920BB60F9211242F933F9304
:102AA0004F935F936F937F938F939F93AF93BF9356
:102AB000EF93FF938091E0039091E103892B29F03C
:102AC000E091E003F091E1030995FF91EF91BF914F
:102AD000AF919F918F917F916F915F914F913F91B6
:102AE0002F910F900BBE0F900FBE0F901F90189557
:102AF0001F920F920FB60F920BB60F9211242F93C5
:102B00003F934F935F936F937F938F939F93AF9375
:102B1000BF93EF93FF938091E6039091E703892B96
:102B200029F0E091E603F091E7030995FF91EF9119
:102B3000BF91AF919F918F917F916F915F914F91D5
:102B40003F912F910F900BBE0F900FBE0F901F90D3
:102B500018951F920F920FB60F920BB60F92112479
:102B60002F933F934F935F936F937F938F939F9395
:102B7000AF93BF93EF93FF938091E8039091E903A4
:102B8000892B29F0E091E803F091E9030995FF9181
:102B9000EF91BF91AF919F918F917F916F915F91D5
:102BA0004F913F912F910F900BBE0F900FBE0F9042
:102BB0001F9018951F920F920FB60F920BB60F929F
:102BC00011242F933F934F935F936F937F938F9332
:102BD0009F93AF93BF93EF93FF938091EA039091FC
:102BE000EB03892B29F0E091EA03F091EB030995BF
:102BF000FF91EF91BF91AF919F918F917F916F91D5
:102C00005F914F913F912F910F900BBE0F900FBE90
:102C10000F901F9018951F920F920FB60F920BB640
:102C20000F9211242F933F934F935F936F937F9352
:102C30008F939F93AF93BF93EF93FF938091EC0398
:102C40009091ED03892B29F0E091EC03F091ED03D5
:102C50000995FF91EF91BF91AF919F918F917F91D6
:102C60006F915F914F913F912F910F900BBE0F90FD
:102C70000FBE0F901F90189583E061E00E94C31172
:102C800084E061E00E94C31178940E9494100E9435
:102C90000310FDCFDC01ED91FC910190F081E02D5E
:102CA000099508950E944A1608950F931F93CF9394
:102CB000DF938C01EB0104C02196C8010E945216DB
:102CC00068816623C9F7DF91CF911F910F91089515
:102CD0002F923F924F925F926F927F928F929F922C
:102CE000AF92BF92CF92DF92EF92FF920F931F931A
:102CF000DF93CF93CDB7DEB7A0970FB6F894DEBFC2
:102D00000FBECDBF1C016A017B0141155105610554
:102D1000710521F460E30E9452164FC08824992463
:102D20005401422E55246624772401E010E00C0F54
:102D30001D1F080D191DC701B601A30192010E94B4
:102D40002319F80160830894811C911CA11CB11CFB
:102D5000C701B601A30192010E942319C901DA013A
:102D60006C017D01C114D104E104F104F1F681E0AC
:102D7000E82EF12CEC0EFD1EE80CF91C3E01089427
:102D8000611C711CD501C4010197A109B1096C0135
:102D9000C818D9080FC0F601EE0DFF1D60816A301A
:102DA00010F4605D01C0695CC1010E945216089474
:102DB000E108F1086E147F0471F7A0960FB6F8943D
:102DC000DEBF0FBECDBFCF91DF911F910F91FF905E
:102DD000EF90DF90CF90BF90AF909F908F907F90BB
:102DE0006F905F904F903F902F900895EF92FF92D9
:102DF0000F931F93CF93DF93EC017A018B0177FF41
:102E00000BC06DE20E94521610950095F094E0946C
:102E1000E11CF11C011D111DCE01B801A7012AE022
:102E20000E946816DF91CF911F910F91FF90EF9054
:102E30000895AB01662757FD6095762F0E94F61620
:102E400008955058BB27AA270ED04DC13ED130F06F
:102E500043D120F031F49F3F11F41EF433C10EF43E
:102E6000E095E7FB29C1E92F4FD180F3BA1762073C
:102E700073078407950718F071F49EF567C10EF487
:102E8000E0950B2EBA2FA02D0B01B90190010C017A
:102E9000CA01A0011124FF27591B99F0593F50F492
:102EA000503E68F11A16F040A22F232F342F4427EA
:102EB000585FF3CF469537952795A795F0405395E2
:102EC000C9F77EF41F16BA0B620B730B840BBAF0B2
:102ED0009150A1F0FF0FBB1F661F771F881FC2F71D
:102EE0000EC0BA0F621F731F841F48F48795779531
:102EF0006795B795F7959E3F08F0B3CF9395880FE8
:102F000008F09927EE0F9795879508950CD0EBC0A0
:102F1000E3D040F0DAD030F021F45F3F19F0CCC0BC
:102F2000511115C1CFC0F0D098F39923C9F355239F
:102F3000B1F3951B550BBB27AA27621773078407AC
:102F400038F09F5F5F4F220F331F441FAA1FA9F362
:102F500033D00E2E3AF0E0E830D091505040E69554
:102F6000001CCAF729D0FE2F27D0660F771F881FB5
:102F7000BB1F261737074807AB07B0E809F0BB0BA4
:102F8000802DBF01FF2793585F4F2AF09E3F5105C8
:102F900068F092C0DCC05F3FECF3983EDCF38695AE
:102FA00077956795B795F7959F5FC9F7880F911D3E
:102FB0009695879597F90895E1E0660F771F881F2A
:102FC000BB1F621773078407BA0720F0621B730BDD
:102FD000840BBA0BEE1F88F7E095089504D068942F
:102FE000B111B5C0089598D088F09F5790F0B92FCF
:102FF0009927B751A0F0D1F0660F771F881F991F4E
:103000001AF0BA95C9F712C0B13081F09FD0B1E083
:1030100008959CC0672F782F8827B85F39F0B93F93
:10302000CCF3869577956795B395D9F73EF490954F
:103030008095709561957F4F8F4F9F4F0895E894CD
:1030400009C097FB3EF490958095709561957F4FF0
:103050008F4F9F4F9923A9F0F92F96E9BB2793959E
:10306000F695879577956795B795F111F8CFFAF4AE
:10307000BB0F11F460FF1BC06F5F7F4F8F4F9F4FDF
:1030800016C0882311F096E911C0772321F09EE83D
:10309000872F762F05C0662371F096E8862F70E0A3
:1030A00060E02AF09A95660F771F881FDAF7880F7D
:1030B0009695879597F9089597F99F6780E870E04E
:1030C00060E008959FEF80EC089500240A9416169E
:1030D000170618060906089500240A941216130606
:1030E000140605060895092E0394000C11F4882394
:1030F00052F0BB0F40F4BF2B11F460FF04C06F5FB0
:103100007F4F8F4F9F4F089557FD9058440F551F85
:1031100059F05F3F71F04795880F97FB991F61F059
:103120009F3F79F087950895121613061406551FD0
:10313000F2CF4695F1DF08C0161617061806991F3C
:10314000F1CF86957105610508940895E894BB2731
:1031500066277727CB0197F908950BD0C4CFB5DF49
:1031600028F0BADF18F0952309F0A6CFABCF1124D1
:10317000EECFCADFA0F3959FD1F3950F50E0551F16
:10318000629FF001729FBB27F00DB11D639FAA27BC
:10319000F00DB11DAA1F649F6627B00DA11D661F0B
:1031A000829F2227B00DA11D621F739FB00DA11D2C
:1031B000621F839FA00D611D221F749F3327A00DE6
:1031C000611D231F849F600D211D822F762F6A2F82
:1031D00011249F5750408AF0E1F088234AF0EE0F07
:1031E000FF1FBB1F661F771F881F91505040A9F714
:1031F0009E3F510570F060CFAACF5F3FECF3983E41
:10320000DCF3869577956795B795F795E7959F5F7A
:10321000C1F7FE2B880F911D9695879597F9089514
:1032200097FB092E07260AD077FD04D02ED006D0B2
:1032300000201AF4709561957F4F0895F6F79095E8
:1032400081959F4F0895A1E21A2EAA1BBB1BFD0179
:103250000DC0AA1FBB1FEE1FFF1FA217B307E40775
:10326000F50720F0A21BB30BE40BF50B661F771FCD
:10327000881F991F1A9469F76095709580959095AD
:103280009B01AC01BD01CF010895AA1BBB1B51E1FD
:1032900007C0AA1FBB1FA617B70710F0A61BB70BC6
:1032A000881F991F5A95A9F780959095BC01CD016B
:1032B0000895EE0FFF1F0590F491E02D0994E19918
:1032C000FECF9FBB8EBBE09A99278DB30895262F22
:1032D000E199FECF9FBB8EBB2DBB0FB6F894E29A4F
:0C32E000E19A0FBE01960895F894FFCF0C
:1032EC00433A00204E3A0056616C75653A20005303
:1032FC006561726368696E672E2E2E00436F6C6C6D
:10330C00656374696E672E2E2E00446F6E65004CDB
:10331C003A200020523A20004B703A00204B643A7D
:10332C00004C3A00523A0020523A004D313A2000FB
:10333C004D323A20004C20004C4F3A0048493A009C
:10334C00522000496E2050726F6772657373004F84
:10335C00626A6563742044657465637465642100F6
:10336C005363616E6E696E672E2E2E0052756E2D34
:10337C00416C6C0053746174652053776974636895
:10338C006572005661726961626C653A20004B5F30
:10339C0070004B5F6400537065656400546872651F
:1033AC0073680053746172742048656967687400AF
:1033BC00526169736520486569676874005374616C
:1033CC00727420416E676C6500456E6420416E67B7
:1033DC006C6500546170652D466F6C6C6F770045A1
:1033EC0064697420566172732E0052756E204465A8
:1033FC006D6F00416E616C6F6720504944004368EB
:10340C0065636B2053656E736F72730049522D4662
:10341C006F6C6C6F77004172742E20436F6C6C650F
:10342C006374696F6E0053656C6563743A20004178
:10343C0072742E20436F6C6C656374004D6F746FE7
:10344C00720054696D6520547269616C2044656D1D
:10345C006F00526573657420566172733F0053613F
:10346C0076656400FF320035003B003800230062B3
:10347C00006500310034003A00370022006100641E
:10348C0000300033003900360021002000630001B9
:10349C00FF0000000035027E00E401C901FE0100BE
:1034AC00000000AE01A702AD020000000007019B66
:1034BC0002A10218001900260027000500040001D3
:1034CC0000000000000000C60401020408102040A7
:0834DC00802010088040200050
:00000001FF
