:100000000C9448000C947C000C947C000C947C00B4
:100010000C947C000C947C000C947C000C947C0070
:100020000C947C000C946B0F0C94140E0C943A0FEF
:100030000C94A70E0C94D80E0C94E30D0C94760E31
:100040000C94EB0A0C947C000C94D8000C9468017E
:100050000C947C000C947C000C947C000C947C0030
:100060000C94090F0C942F100C949C0F0C94CD0F32
:100070000C94FE0F0C94450E0C94A9000C942201D4
:100080000C947C000C947C000C947C00B302BC04A7
:1000900011241FBECFEFD0E1DEBFCDBF88E483BF08
:1000A00084E00E94590C12BE87B7816087BF7894A4
:1000B00012E0A0E0B1E0E4E3F7E200E00BBF02C031
:1000C00007900D92A636B107D9F713E0A6E6B2E085
:1000D00001C01D92A934B107E1F710E0C0E9D0E0FA
:1000E00004C02297FE010E947F13CC38D107C9F7C4
:1000F0000E9460100C9498130C940000FC0126815F
:100100003781C90108951F93CF93DF93EC01162F18
:10011000E881F9810190F081E02D0995809710F038
:1001200080E013C08C819D8101969D838C838E819C
:100130009F81FE01E80FF91F128701969F838E832E
:10014000809714F01F821E8281E0DF91CF911F9172
:1001500008951F920F920FB60F920BB60F921124B3
:100160002F933F934F935F936F937F938F939F93BF
:10017000AF93BF93EF93FF93E0910403F0910503D6
:10018000608188EB92E00E948300FF91EF91BF9124
:10019000AF919F918F917F916F915F914F913F911F
:1001A0002F910F900BBE0F900FBE0F901F901895C0
:1001B0001F920F920FB60F920BB60F9211242F932E
:1001C0003F934F935F936F937F938F939F93AF93DF
:1001D000BF93EF93FF93E091B402F091B502608179
:1001E00088E692E00E948300FF91EF91BF91AF916A
:1001F0009F918F917F916F915F914F913F912F913F
:100200000F900BBE0F900FBE0F901F901895FC0122
:1002100024813581C9010895DC01FC018481958127
:1002200001979583848380859185E80FF91F228546
:100230000196FD0191878087409714F01186108602
:10024000822F08951F920F920FB60F920BB60F9246
:1002500011240F931F932F933F934F935F936F93AB
:100260007F938F939F93AF93BF93EF93FF9380916F
:10027000E6029091E702892B51F00091040310915E
:10028000050382EE92E00E940C01F80180838091C8
:10029000E6029091E702892B31F4E0910203F0919C
:1002A000030388E98083FF91EF91BF91AF919F9104
:1002B0008F917F916F915F914F913F912F911F91FE
:1002C0000F910F900BBE0F900FBE0F901F901895BF
:1002D0001F920F920FB60F920BB60F9211240F932D
:1002E0001F932F933F934F935F936F937F938F93BE
:1002F0009F93AF93BF93EF93FF938091960290915A
:100300009702892B51F00091B4021091B50282E955
:1003100092E00E940C01F8018083809196029091F6
:100320009702892B31F4E091B202F091B30288E98F
:100330008083FF91EF91BF91AF919F918F917F91BA
:100340006F915F914F913F912F911F910F910F905E
:100350000BBE0F900FBE0F901F901895FC012481CB
:100360003581C9010895DC01FC01848195810197E3
:100370009583848380859185E80FF91F22850196F6
:10038000FD0191878087809714F011861086822F57
:100390000895FC0186819781892B19F42FEF3FEF97
:1003A00006C0CF0102960E94B301282F30E0C90198
:1003B0000895CF93DF93EC01E885F985E80FF91FE5
:1003C0008285DF91CF910895FC0186819781892BE9
:1003D00019F42FEF3FEF06C0CF0102960E94D9011A
:1003E000282F30E0C9010895FC0115821482848110
:1003F00095819187808797838683089502960E94CE
:10040000F4010895FC0182E392E09183808380E20D
:1004100090E093838283CF010E94F40108951F939B
:10042000CF93DF93EC01162FE881F9810190F081E1
:10043000E02D0995409710F080E013C08C819D81DC
:1004400001969D838C838E819F81FE01E80FF91FA9
:10045000128701969F838E83409714F01F821E821D
:1004600081E0DF91CF911F910895CF93DF93EC014D
:1004700088A999A94097E0F7F894CE018C960E943C
:100480000F02C45BDF4FE881F98180818062808345
:100490007894DF91CF910895FC01158214828481B4
:1004A000958191878087978386830895FC018CE3EB
:1004B00092E09183808380E190E093838283CF01F7
:1004C0000E944C0208956F927F928F929F92AF92FA
:1004D000BF92CF92DF92EF92FF920F931F936C0126
:1004E0005B014A013901FC0184E292E0819391931E
:1004F000CF010E940202C6018C960E94560286E439
:1005000090E0C80ED91EF601A192B192819291920B
:100510006192719201931193F182E0821F910F9188
:10052000FF90EF90DF90CF90BF90AF909F908F9013
:100530007F906F900895665F7F4F680F791FCB01A2
:100540000895665F7F4F680F791FCB010895665F3E
:100550007F4F680F791FCB010895665F7F4F680F4B
:10056000791FCB010895EF92FF920F931F9386E6B8
:1005700092E060E970E049E250E02BE230E00AE20C
:1005800010E0FCE2EF2EF12C0E94630286EB92E079
:1005900068E970E049E950E02BE930E00AE910E051
:1005A000ECE9EE2EF12C0E9463021F910F91FF9057
:1005B000EF90089585E060E070E00E942C0D84E0EB
:1005C00060E070E00E942C0D81E060E070E00E942D
:1005D0002C0D80E060E070E00E942C0D08950F93D8
:1005E0001F93CF93DF93EB018A01CC0FDD1F57FDE3
:1005F0000CC0FE01EE5BFD4F808161E00E94CF0BDD
:10060000C65BDD4F8881B8010EC0FE01EE5BFD4F79
:10061000808160E00E94CF0BC65BDD4F66277727A5
:10062000601B710B88810E942C0DDF91CF911F916F
:100630000F9108951F93CF93DF93C0E0D0E0FE01A8
:10064000EE5BFD4F1081812F61E00E94860B812FB0
:1006500061E00E94CF0BFE01E65BFD4F808160E010
:1006600070E00E942C0D2296C830D10541F7DF9131
:10067000CF911F910895FC0110828AE090E093834E
:1006800082830895CF93DF93EC01882777FD8095CF
:10069000982F0E94451220E030E044E353E40E948A
:1006A000AA1120E030E040EF51E40E94D11220E096
:1006B00030E040E251E40E9446110E941712CB0143
:1006C0006A30710510F48AE090E08932910510F0EB
:1006D00088E290E09B838A83DF91CF910895CF9346
:1006E000DF93EC018A8160E00E94CF0B8D8160E096
:1006F0000E94FF0B8D8160E00E94210C8B8161E0E4
:100700000E94CF0B8C8161E00E94CF0B00000000A3
:1007100010C08C8160E00E94CF0B00000000000040
:1007200000008C8161E00E94CF0B000000000000FF
:1007300000008D810E94160C87FDEBCF8C8160E05C
:100740000E94CF0BDF91CF910895FF920F931F93DB
:100750008C01F62E0E946F03F801828161E00E94F5
:10076000CF0BF801838160E00E94CF0BF8018481F8
:1007700061E00E94CF0BF801858161E00E94FF0BD0
:10078000F80185816F2D0E94210C000000000000FF
:100790000000F801848160E00E94CF0BF8018581A0
:1007A00060E00E94FF0BF80185816FEF0E94210C31
:1007B0001F910F91FF900895EF92FF920F931F9357
:1007C000CF93DF937C01042F6115710551F0EB018C
:1007D00010E005C0C70169910E94A5031F5F1017B3
:1007E000C8F3DF91CF911F910F91FF90EF90089583
:1007F000DF93CF930F92CDB7DEB76983BE016F5FF2
:100800007F4F41E00E94DC030F90CF91DF9108956C
:10081000FF920F931F938C01F62E0E946F03F80135
:10082000828160E00E94CF0BF801838160E00E942A
:10083000CF0BF801848161E00E94CF0BF801858124
:1008400061E00E94FF0BF80185816F2D0E94210C51
:100850000000000000000000F801848160E00E94B8
:10086000CF0BF801858160E00E94FF0BF8018581C4
:100870006FEF0E94210C1F910F91FF90089542305D
:1008800031F0433031F0413029F4605C03C06C5EDC
:1008900001C06C5A60680E940804089562E00E94DA
:1008A0000804089561E00E94080408950F931F93BF
:1008B0008C01FC01828160E00E94CF0BF8018381F2
:1008C00060E00E94CF0BF801848160E00E94CF0BB2
:1008D000F801828161E00E94860BF801838161E06A
:1008E0000E94860BF801848161E00E94860BF8016A
:1008F000858160E00E94FF0BF80185816FEF0E9407
:10090000210C1F910F9108950F931F938C010E944A
:100910005604C80168E30E940804C80161E00E940F
:100920000804C80166E00E940804C8016CE00E9447
:100930000804C80162E00E940804C80160E80E943F
:1009400008041F910F9108950F93FC0186E592E032
:10095000918380836283438324830583CF010E9434
:1009600084040F910895CB01642F0E948B13089586
:10097000CB010E94831308950F9387E093E06AE10F
:100980004BE12CE102E00E94A4048DE093E00E9480
:100990001A038FE093E00E943B0383E193E00E94FF
:1009A0003B0387E193E00E943B030F910895CF93AF
:1009B000DF93EC0187E00E94350C2197C89FB001BE
:1009C000C99F700DD89F700D11242196882777FD3F
:1009D0008095982F0E9445122DEC3CEC4CE85FE38B
:1009E0000E94D11220E030E040E85AE30E94D11288
:1009F00020E030E040E85FE30E9446110E941212BE
:100A00009B01C617D7070CF49E01C901DF91CF9156
:100A10000895EF92FF920F931F937C0107E013E07C
:100A2000C80160E041E00E943F04C801B7010E9494
:100A300079101F910F91FF90EF900895EF92FF9220
:100A40000F931F937C0107E013E0C80160E040E0D2
:100A50000E943F04C801B7010E9479101F910F91B5
:100A6000FF90EF900895EF92FF920F931F937C01F8
:100A700007E013E0C80160E041E00E943F04C801C4
:100A800060E071E00E947910C801B7010E943D1139
:100A90001F910F91FF90EF90089581E30E94B60B94
:100AA000882311F080E008956CE271E080E090E02E
:100AB0000E94600B81E008950E944D058823E1F3B8
:100AC00008950E944D058823E1F3089582E30E9472
:100AD000B60B882311F080E008956CE271E080E0AD
:100AE00090E00E94600B81E008950F931F9307E050
:100AF00013E0C8010E945204C8010E944E041F91D5
:100B00000F910895EF92FF920F931F937C010E9423
:100B1000750507E013E0C80160E040E00E943F0473
:100B2000C801B7010E947910C80160E041E00E944D
:100B30003F04C80168E071E00E94791060911B03D6
:100B400070911C03C8010E943D11C8016BE071E067
:100B50000E94791060911D0370911E03C8010E94CC
:100B60003D111F910F91FF90EF9008950F931F93E8
:100B7000CF93DF93EC018B0186E093E0BE010E94EE
:100B8000B80490E0880F991F880F991F90931C0359
:100B900080931B0387E093E0B8010E94791086E000
:100BA00093E0BE010E94B80490E0880F991F880F5F
:100BB000991F0E9433050E946605882359F52EC0AF
:100BC00087E00E94350C90931E0380931D03C8019B
:100BD0000E9482050E9466058823B1F080911D0362
:100BE00090911E0364E070E00E943413462F86E06B
:100BF00093E0BE010E94B30480911D0390911E03F7
:100C000090931C0380931B0368EC70E080E090E0FD
:100C10000E94600B0E944D05882391F2DF91CF91D5
:100C20001F910F91089514C00E94750587E093E00D
:100C300060E040E00E943F0487E093E06FE071E0F5
:100C40000E94791068EC70E080E090E00E94600BF8
:100C50000E944D05882341F308952F923F924F92B1
:100C60005F926F927F928F929F92AF92BF92CF923C
:100C7000DF92EF92FF920F931F938CC080E00E944F
:100C8000350C5C0181E00E94350C7C0182E00E9401
:100C9000350C1C0183E00E94350C3C010E94750557
:100CA00087E093E060E040E00E943F0487E093E04B
:100CB0006BE171E00E94791087E093E06EE171E0F2
:100CC0000E9479100027F7FC0095102FC801B7018A
:100CD0000E9445120E9412129B01AC0187E093E032
:100CE000B9010E943D1187E093E062E271E00E9449
:100CF0007910CC24B7FCC094DC2CC601B5010E944D
:100D000045120E9412129B01AC0187E093E0B901E9
:100D10000E943D1187E093E060E041E00E943F04C3
:100D200087E093E066E271E00E94791087E093E04B
:100D30006EE171E00E947910882477FC8094982CF1
:100D4000C401B3010E9445120E9412129B01AC0122
:100D500087E093E0B9010E943D1187E093E062E2F1
:100D600071E00E947910442437FC4094542CC20155
:100D7000B1010E9445120E9412129B01AC0187E052
:100D800093E0B9010E943D1168EC70E080E090E0D2
:100D90000E94600B0E944D05882309F46FCF1F91BC
:100DA0000F91FF90EF90DF90CF90BF90AF909F900A
:100DB0008F907F906F905F904F903F902F9008950D
:100DC00038C00E94750589E291E00E941E0583E00B
:100DD00090E00E94D7048230910581F08330910524
:100DE000C1F0019701F585E391E00E9409050E9499
:100DF00066058823C1F00E94610515C080E491E07A
:100E00000E9409050E946605882369F00E945C051E
:100E10000AC089E491E00E9409050E9466058823C2
:100E200011F00E942D0668EC70E080E090E00E94D6
:100E3000600B0E944D05882321F20895EF92FF92E6
:100E40000F931F9332C080E00E94350C8C0181E02B
:100E50000E94350C7C010E94750587E093E060E0FC
:100E600040E00E943F0487E093E067E571E00E9464
:100E7000791087E093E0B8010E943D1187E093E08C
:100E800060E041E00E943F0487E093E06AE571E0A2
:100E90000E94791087E093E0B7010E943D1168EC51
:100EA00070E080E090E00E94600B0E944D05882376
:100EB00051F21F910F91FF90EF90089534C00E945E
:100EC00075058DE591E00E941E0584E090E00E948A
:100ED000D7048230910589F0833091051CF4019785
:100EE000E1F406C08330910569F00497B1F40FC0B6
:100EF00081E090E068E671E00EC082E090E06CE690
:100F000071E009C083E090E060E771E004C084E034
:100F100090E066E771E00E94B60568EC70E080E062
:100F200090E00E94600B0E944D05882341F20895D5
:100F3000CF93DF9396C00E94750587E093E060E051
:100F400040E00E943F0483E00E94350CBC0187E032
:100F500093E00E943D1162E370E080E090E00E9427
:100F6000600B83E00E94350C80359105CCF487E05E
:100F700093E060E041E00E943F0487E093E06DE78A
:100F800071E00E94791062E370E080E090E00E94DE
:100F9000600B8DE093E00E94DA02C0E1D0E011C066
:100FA00087E093E060E041E00E943F0487E093E047
:100FB0006EE871E00E94791068EC70E080E090E0EB
:100FC0004EC083E193E0BE010E9442036FE070E0F7
:100FD00080E090E00E94600B2196C436D10589F72D
:100FE000C0E0D0E087E193E0BE010E9442036AE0E6
:100FF00070E080E090E00E94600B2196C639D10538
:1010000089F78FE093E064EB70E00E94420368EEA2
:1010100073E080E090E00E94600B8FE093E060E07E
:1010200070E00E94420364EF71E080E090E00E9473
:10103000600B87E193E060E070E00E94420364EFA0
:1010400071E080E090E00E94600B83E193E060E15A
:1010500070E00E94420364EF71E080E090E00E9443
:10106000600B0E944D05882309F465CFDF91CF9175
:10107000089534C00E9475058AE991E00E941E051A
:1010800083E090E00E94D7048230910561F08330C4
:101090009105A1F00197E1F485E391E00E94090533
:1010A0000E94660515C080E491E00E9409050E9437
:1010B0006605882369F00E9498070AC089E491E0D8
:1010C0000E9409050E946605882311F00E941306FC
:1010D00068EC70E080E090E00E94600B0E944D059B
:1010E000882341F208950F931F93CF93DF9363C03A
:1010F00086E00E94350C8C010F5F1140000F111F1C
:1011000087E00E94350C8F5F9140880F991FA801DE
:101110002CEF0130120714F441E05CEF8A0124E067
:101120004030520714F00FEF13E0AC018CEF413068
:10113000580714F441E05CEFEA0124E04030520724
:1011400014F0CFEFD3E08DE093E063E070E0A8010E
:101150000E94EF028DE093E062E070E0AE010E9439
:10116000EF020E94750587E093E060E040E00E9496
:101170003F0487E093E06AEA71E00E94791087E01B
:1011800093E0B8010E943D1187E093E060E041E008
:101190000E943F0487E093E06FEA71E00E947910BB
:1011A00087E093E0BE010E943D1162E370E080E0C1
:1011B00090E00E94600B0E944D05882309F498CFAF
:1011C0008DE093E00E94DA02DF91CF911F910F91A1
:1011D00008952F923F924F925F926F927F928F92DB
:1011E0009F92AF92BF92CF92DF92EF92FF920F93B6
:1011F0001F93DF93CF93CDB7DEB72E970FB6F8943A
:10120000DEBF0FBECDBF86E093E061E070E00E94DC
:10121000B804282F30E0220F331F220F331F3C83E6
:101220002B8386E093E062E070E00E94B804482FD0
:1012300050E0440F551F440F551F5A83498386E0E1
:1012400093E063E070E00E94B804282E3324220C5F
:10125000331C220C331C86E093E064E070E00E94B3
:10126000B804C82EDD24CC0CDD1CCC0CDD1C1E8685
:101270001D8618861F8200E010E01E821D826624F3
:1012800077248824992489819A81AA2797FDA0959B
:10129000BA2F89879A87AB87BC87DBC080E00E9422
:1012A000350C2C0181E00E94350C5C01C414D5047E
:1012B00034F4C816D90664F41E861D8625C04C1465
:1012C0005D0414F5C816D9065CF4AFEFBFEF1AC081
:1012D0008C159D05CCF4E1E0F0E0FE87ED8714C0AD
:1012E0008C159D058CF42D853E8537FF05C04BEF91
:1012F0005FEF5E874D8708C08D859E85892B21F025
:10130000A5E0B0E0BE87AD87ED85FE85E017F1076B
:1013100039F018870F837E826D8261E0662E712C12
:1013200069857A858B859C850E9445127B018C019D
:101330006D857E852F813885621B730B882777FD2D
:101340008095982F0E9445129B01AC01C801B701FE
:101350000E94D1127B018C016D817E81660D771D0B
:10136000882777FD8095982F0E9445129B01AC013C
:10137000C801B7010E94AA110E9412127B018C01C0
:101380004D855E85AB81BC814A9FC0014B9F900D0E
:101390005A9F900D1124E80EF91EA1014E195F0904
:1013A0008DE093E063E070E00E94EF02E20CF31C3A
:1013B0008DE093E062E070E0A7010E94EF02B2E3EB
:1013C0008B169104F1F587E093E00E94520487E0C8
:1013D00093E00E944E0487E093E064EB71E00E948A
:1013E000791087E093E0B2010E943D1187E093E01D
:1013F00068EB71E00E94791087E093E0B5010E94EC
:101400003D1187E093E060E041E00E943F0487E007
:1014100093E06DEB71E00E94791087E093E06B81BF
:101420007C810E943D1187E093E061EC71E00E94B5
:10143000791087E093E069817A810E943D118824C8
:1014400099240894811C911C0894611C711C0D85C1
:101450001E850E944D05882309F420CF8DE093E07E
:101460000E94DA022E960FB6F894DEBF0FBECDBFF3
:10147000CF91DF911F910F91FF90EF90DF90CF9070
:10148000BF90AF909F908F907F906F905F904F90A4
:101490003F902F90089538C00E94750589E291E031
:1014A0000E941E0583E090E00E94D70482309105DF
:1014B00081F083309105C1F0019701F585E391E05A
:1014C0000E9409050E9466058823C1F00E945E07FC
:1014D00015C080E491E00E9409050E9466058823FA
:1014E00069F00E94E9080AC089E491E00E940905B8
:1014F0000E946605882311F00E941E0768EC70E0C8
:1015000080E090E00E94600B0E944D05882321F24C
:1015100008950E94750586EC91E00E941E0585E005
:1015200090E00E94D7048330910529F18430910521
:1015300034F48130910549F00297E9F511C0843007
:10154000910521F10597B9F52CC089E291E00E943F
:1015500009050E946605882371F10E944B0A2BC081
:101560008FEC91E00E9409050E946605882319F11D
:101570000E94E00620C089ED91E00E9409050E94CA
:1015800066058823C1F00E94390815C086EE91E0F7
:101590000E9409050E946605882369F00E9473086D
:1015A0000AC08CEE91E00E9409050E94660588231E
:1015B00011F00E94130668EC70E080E090E00E9459
:1015C000600B089580E060E00E94FF0B81E060E026
:1015D0000E94FF0B08951F920F920FB60F921124D5
:1015E0002F933F938F939F93AF93BF938091230348
:1015F00090912403A0912503B091260330912703F5
:101600000196A11DB11D232F2D5F2D3720F02D57E1
:101610000196A11DB11D209327038093230390936E
:101620002403A0932503B093260380911F03909178
:101630002003A0912103B09122030196A11DB11DA9
:1016400080931F0390932003A0932103B093220360
:10165000BF91AF919F918F913F912F910F900FBEAE
:101660000F901F9018956FB7F89420911F03309139
:101670002003409121035091220382B790E0A0E023
:10168000B0E006B600FE09C08F3F9105A105B10587
:1016900021F02F5F3F4F4F4F5F4F6FBF542F432FAE
:1016A000322F2227280F391F4A1F5B1F82E0220F8B
:1016B000331F441F551F8A95D1F7B901CA010895F8
:1016C000EF92FF920F931F93CF93DF937B018C01D7
:1016D0000E94330BEB010EC00E94330B6C1B7D0B81
:1016E000685E7340C8F30894E108F1080109110924
:1016F000C851DC4FE114F1040105110569F7DF91D0
:10170000CF911F910F91FF90EF900895E82FE695EC
:10171000E695E695A82FB0E0613099F42FB7F894DC
:10172000F0E0EE0FFF1FEE5FFD4F0190F081E02D26
:101730009081A770B070A85ABD4F8C91982B908360
:1017400013C02FB7F894F0E0EE0FFF1FEE5FFD4FD0
:101750000190F081E02D9081A770B070A85ABD4F24
:101760008C918095892380832FBF0895A82FE82F1F
:10177000E695E695E695F0E0EE0FFF1FE05FFD4F82
:101780000190F081E02DE081B0E0A770B070A85A20
:10179000BD4F8C91E82309F0E1E08E2F0895E82FEA
:1017A000E695E695E695A82FB0E0613099F42FB75D
:1017B000F894F0E0EE0FFF1FEC50FE4F0190F08127
:1017C000E02D9081A770B070A85ABD4F8C91982BD6
:1017D000908313C02FB7F894F0E0EE0FFF1FEC508A
:1017E000FE4F0190F081E02D9081A770B070A85A53
:1017F000BD4F8C918095892380832FBF0895E82F5A
:10180000F0E0613051F4EE0FFF1FEE5FFD4F0190ED
:10181000F081E02D8FEF80830895EE0FFF1FEE5FC4
:10182000FD4F0190F081E02D10820895E82FF0E047
:10183000EE0FFF1FE05FFD4F0190F081E02D8081F2
:101840000895E82FF0E0EE0FFF1FEC50FE4F0190DF
:10185000F081E02D60830895109261001092620083
:1018600080E487B987EE86B908951F93182F809179
:101870001E02813021F40E942C0C10921E028091D5
:101880001F02181721F4349A349BFECF0DC0109319
:101890001F0287B11770807E812B87B9349A349BE1
:1018A000FECF349A349BFECF24B135B1C9011F91CC
:1018B000089593B7987F982B93BF08959EB5987F0E
:1018C000982B9EBD089583E00E945E0C1DBC1CBC3D
:1018D00087B7846087BF0895EAE8F0E09081987F39
:1018E000982B9083089583E00E946C0C10928900DD
:1018F00010928800EDE7F0E0808184608083089595
:10190000893031F48FB582608FBD8FB58E7F0AC06C
:101910008A3019F48FB5826002C08FB58D7F8FBD7C
:101920008FB581608FBD1BBC1ABC19BC18BC10924E
:1019300079001092780008958FB580688FBD8FB5BB
:101940008F7B8FBD08958FB580628FBD8FB58F7EE1
:101950008FBD08958FB588608FBD8FB58B7F8FBD8C
:1019600008959BBD8ABD089599BD88BD0895909343
:101970007900809378000895893049F480918B0034
:10198000826080938B0080918B008E7F0EC08A30A6
:1019900021F480918B00826003C080918B008D7F49
:1019A00080938B0080918B00816080938B001092DC
:1019B0008700109286001092850010928400109289
:1019C0008300109282000895EBE8F0E08081806847
:1019D000808380818F7B80830895EBE8F0E08081B5
:1019E0008062808380818F7E80830895EBE8F0E0C1
:1019F00080818860808380818B7F8083089585309B
:101A000019F40E949C0C0895843019F40E94A30CD0
:101A10000895833019F40E94AA0C0895823019F4B5
:101A20000E94E40C0895813019F40E94ED0C089591
:101A3000882311F40E94F60C0895909387008093F8
:101A40008600089590938500809384000895909374
:101A50008300809382000895EF92FF921F93CF93AB
:101A6000DF93182F7B018D31B0F08F3111F413E02B
:101A700014C08E3111F414E010C08D3109F49BC0F4
:101A8000853211F410E03DC0843211F411E039C008
:101A9000833219F48EC08330A0F18091280386FD33
:101AA0000BC00E94630C78948AE00E94800C8091A5
:101AB000280380648093280380912803C12FD0E0FD
:101AC00090E0012E02C0959587950A94E2F780FD7B
:101AD0004CC087B3FE01E05AFD4F9081892B87BB34
:101AE000812F0E94FF0C2091280381E090E0012EBD
:101AF00002C0880F991F0A94E2F7282B209328032D
:101B000034C08091280387FD0BC00E94730C789429
:101B10008AE00E94BC0C809128038068809328038F
:101B200080912803C12FD0E090E0012E02C095954E
:101B300087950A94E2F780FD24C082B1FE01E05A45
:101B4000FD4F9081892B82B9812F0E94FF0C20913B
:101B5000280381E090E0012E02C0880F991F0A94AB
:101B6000E2F7282B209328030CC0153021F4C7017D
:101B70000E94B10C22C0143021F4C7010E94B40CA1
:101B80001CC0133021F4C7010E94B70C16C01230DC
:101B900021F4C7010E941D0D10C0113021F4C701AE
:101BA0000E94220D0AC0112341F4C7010E94270D93
:101BB00004C012E0A6CF15E070CFDF91CF911F9146
:101BC000FF90EF9008951F920F920FB60F920BB6F1
:101BD0000F9211242F933F934F935F936F937F93B3
:101BE0008F939F93AF93BF93EF93FF9380912F03B6
:101BF00090913003892B29F0E0912F03F09130036D
:101C00000995FF91EF91BF91AF919F918F917F9136
:101C10006F915F914F913F912F910F900BBE0F905D
:101C20000FBE0F901F9018951F920F920FB60F9234
:101C30000BB60F9211242F933F934F935F936F93A3
:101C40007F938F939F93AF93BF93EF93FF93809175
:101C5000390390913A03892B29F0E0913903F091EF
:101C60003A030995FF91EF91BF91AF919F918F91A9
:101C70007F916F915F914F913F912F910F900BBE8C
:101C80000F900FBE0F901F9018951F920F920FB6D6
:101C90000F920BB60F9211242F933F934F935F93A4
:101CA0006F937F938F939F93AF93BF93EF93FF9324
:101CB00080913F0390914003892B29F0E0913F03ED
:101CC000F09140030995FF91EF91BF91AF919F91E2
:101CD0008F917F916F915F914F913F912F910F90D5
:101CE0000BBE0F900FBE0F901F9018951F920F9272
:101CF0000FB60F920BB60F9211242F933F934F9371
:101D00005F936F937F938F939F93AF93BF93EF9363
:101D1000FF9380912B0390912C03892B29F0E09164
:101D20002B03F0912C030995FF91EF91BF91AF9197
:101D30009F918F917F916F915F914F913F912F91E3
:101D40000F900BBE0F900FBE0F901F9018951F9213
:101D50000F920FB60F920BB60F9211242F933F9351
:101D60004F935F936F937F938F939F93AF93BF93A3
:101D7000EF93FF938091310390913203892B29F0E7
:101D8000E0913103F09132030995FF91EF91BF91FA
:101D9000AF919F918F917F916F915F914F913F9103
:101DA0002F910F900BBE0F900FBE0F901F901895A4
:101DB0001F920F920FB60F920BB60F9211242F9312
:101DC0003F934F935F936F937F938F939F93AF93C3
:101DD000BF93EF93FF938091330390913403892B4A
:101DE00029F0E0913303F09134030995FF91EF91CD
:101DF000BF91AF919F918F917F916F915F914F9123
:101E00003F912F910F900BBE0F900FBE0F901F9020
:101E100018951F920F920FB60F920BB60F921124C6
:101E20002F933F934F935F936F937F938F939F93E2
:101E3000AF93BF93EF93FF93809135039091360357
:101E4000892B29F0E0913503F09136030995FF9134
:101E5000EF91BF91AF919F918F917F916F915F9122
:101E60004F913F912F910F900BBE0F900FBE0F908F
:101E70001F9018951F920F920FB60F920BB60F92EC
:101E800011242F933F934F935F936F937F938F937F
:101E90009F93AF93BF93EF93FF93809137039091FC
:101EA0003803892B29F0E0913703F0913803099525
:101EB000FF91EF91BF91AF919F918F917F916F9122
:101EC0005F914F913F912F910F900BBE0F900FBEDE
:101ED0000F901F9018951F920F920FB60F920BB68E
:101EE0000F9211242F933F934F935F936F937F93A0
:101EF0008F939F93AF93BF93EF93FF9380913B0397
:101F000090913C03892B29F0E0913B03F0913C0335
:101F10000995FF91EF91BF91AF919F918F917F9123
:101F20006F915F914F913F912F910F900BBE0F904A
:101F30000FBE0F901F9018951F920F920FB60F9221
:101F40000BB60F9211242F933F934F935F936F9390
:101F50007F938F939F93AF93BF93EF93FF93809162
:101F6000410390914203892B29F0E0914103F091C4
:101F700042030995FF91EF91BF91AF919F918F918E
:101F80007F916F915F914F913F912F910F900BBE79
:101F90000F900FBE0F901F9018951F920F920FB6C3
:101FA0000F920BB60F9211242F933F934F935F9391
:101FB0006F937F938F939F93AF93BF93EF93FF9311
:101FC0008091430390914403892B29F0E0914303CE
:101FD000F09144030995FF91EF91BF91AF919F91CB
:101FE0008F917F916F915F914F913F912F910F90C2
:101FF0000BBE0F900FBE0F901F9018951F920F925F
:102000000FB60F920BB60F9211242F933F934F935D
:102010005F936F937F938F939F93AF93BF93EF9350
:10202000FF938091450390914603892B29F0E0911D
:102030004503F09146030995FF91EF91BF91AF9150
:102040009F918F917F916F915F914F913F912F91D0
:102050000F900BBE0F900FBE0F901F9018951F9200
:102060000F920FB60F920BB60F9211242F933F933E
:102070004F935F936F937F938F939F93AF93BF9390
:10208000EF93FF938091470390914803892B29F0A8
:10209000E0914703F09148030995FF91EF91BF91BB
:1020A000AF919F918F917F916F915F914F913F91F0
:1020B0002F910F900BBE0F900FBE0F901F90189591
:1020C00083E061E00E94FF0B84E061E00E94FF0B6F
:1020D00078940E94E20A0E94890AFDCFDC01ED910A
:1020E000FC910190F081E02D099508950E946E10F9
:1020F00008950F931F93CF93DF938C01EB0104C0DE
:102100002196C8010E94761068816623C9F7DF9185
:10211000CF911F910F9108952F923F924F925F920E
:102120006F927F928F929F92AF92BF92CF92DF92E7
:10213000EF92FF920F931F93DF93CF93CDB7DEB74C
:10214000A0970FB6F894DEBF0FBECDBF1C016A0189
:102150007B01411551056105710521F460E30E9481
:1021600076104FC0882499245401422E55246624A9
:10217000772401E010E00C0F1D1F080D191DC70189
:10218000B601A30192010E944713F80160830894ED
:10219000811C911CA11CB11CC701B601A3019201B5
:1021A0000E944713C901DA016C017D01C114D104F9
:1021B000E104F104F1F681E0E82EF12CEC0EFD1EB5
:1021C000E80CF91C3E010894611C711CD501C40186
:1021D0000197A109B1096C01C818D9080FC0F6010F
:1021E000EE0DFF1D60816A3010F4605D01C0695C16
:1021F000C1010E9476100894E108F1086E147F0472
:1022000071F7A0960FB6F894DEBF0FBECDBFCF9189
:10221000DF911F910F91FF90EF90DF90CF90BF90D3
:10222000AF909F908F907F906F905F904F903F9076
:102230002F900895EF92FF920F931F93CF93DF9308
:10224000EC017A018B0177FF0BC06DE20E947610E2
:1022500010950095F094E094E11CF11C011D111DF6
:10226000CE01B801A7012AE00E948C10DF91CF9126
:102270001F910F91FF90EF900895AB01662757FDD6
:102280006095762F0E941A1108955058BB27AA27EF
:102290000ED04DC13ED130F043D120F031F49F3FFC
:1022A00011F41EF433C10EF4E095E7FB29C1E92FC8
:1022B0004FD180F3BA17620773078407950718F0A8
:1022C00071F49EF567C10EF4E0950B2EBA2FA02D88
:1022D0000B01B90190010C01CA01A0011124FF27D3
:1022E000591B99F0593F50F4503E68F11A16F040CE
:1022F000A22F232F342F4427585FF3CF46953795CD
:102300002795A795F0405395C9F77EF41F16BA0B91
:10231000620B730B840BBAF09150A1F0FF0FBB1F3F
:10232000661F771F881FC2F70EC0BA0F621F731F88
:10233000841F48F4879577956795B795F7959E3FE5
:1023400008F0B3CF9395880F08F09927EE0F979573
:10235000879508950CD0EBC0E3D040F0DAD030F090
:1023600021F45F3F19F0CCC0511115C1CFC0F0D09E
:1023700098F39923C9F35523B1F3951B550BBB274C
:10238000AA2762177307840738F09F5F5F4F220FF9
:10239000331F441FAA1FA9F333D00E2E3AF0E0E8F2
:1023A00030D091505040E695001CCAF729D0FE2F3E
:1023B00027D0660F771F881FBB1F261737074807D0
:1023C000AB07B0E809F0BB0B802DBF01FF27935886
:1023D0005F4F2AF09E3F510568F092C0DCC05F3F1E
:1023E000ECF3983EDCF3869577956795B795F7956E
:1023F0009F5FC9F7880F911D9695879597F9089566
:10240000E1E0660F771F881FBB1F62177307840701
:10241000BA0720F0621B730B840BBA0BEE1F88F710
:10242000E095089504D06894B111B5C0089598D08E
:1024300088F09F5790F0B92F9927B751A0F0D1F0AD
:10244000660F771F881F991F1AF0BA95C9F712C037
:10245000B13081F09FD0B1E008959CC0672F782FF4
:102460008827B85F39F0B93FCCF3869577956795A3
:10247000B395D9F73EF490958095709561957F4F0F
:102480008F4F9F4F0895E89409C097FB3EF49095B5
:102490008095709561957F4F8F4F9F4F9923A9F03D
:1024A000F92F96E9BB279395F695879577956795CC
:1024B000B795F111F8CFFAF4BB0F11F460FF1BC010
:1024C0006F5F7F4F8F4F9F4F16C0882311F096E9A3
:1024D00011C0772321F09EE8872F762F05C0662351
:1024E00071F096E8862F70E060E02AF09A95660F0A
:1024F000771F881FDAF7880F9695879597F90895C3
:1025000097F99F6780E870E060E008959FEF80ECA6
:10251000089500240A941616170618060906089549
:1025200000240A9412161306140605060895092EAF
:102530000394000C11F4882352F0BB0F40F4BF2B1E
:1025400011F460FF04C06F5F7F4F8F4F9F4F08955E
:1025500057FD9058440F551F59F05F3F71F0479554
:10256000880F97FB991F61F09F3F79F08795089539
:10257000121613061406551FF2CF4695F1DF08C058
:10258000161617061806991FF1CF86957105610575
:1025900008940895E894BB2766277727CB0197F91D
:1025A00008950BD0C4CFB5DF28F0BADF18F095231B
:1025B00009F0A6CFABCF1124EECFCADFA0F3959FD1
:1025C000D1F3950F50E0551F629FF001729FBB271A
:1025D000F00DB11D639FAA27F00DB11DAA1F649FC6
:1025E0006627B00DA11D661F829F2227B00DA11D79
:1025F000621F739FB00DA11D621F839FA00D611DFF
:10260000221F749F3327A00D611D231F849F600D1F
:10261000211D822F762F6A2F11249F5750408AF058
:10262000E1F088234AF0EE0FFF1FBB1F661F771FE4
:10263000881F91505040A9F79E3F510570F060CF20
:10264000AACF5F3FECF3983EDCF3869577956795CC
:10265000B795F795E7959F5FC1F7FE2B880F911D02
:102660009695879597F9089597FB092E07260AD026
:1026700077FD04D02ED006D000201AF47095619515
:102680007F4F0895F6F7909581959F4F0895A1E2A9
:102690001A2EAA1BBB1BFD010DC0AA1FBB1FEE1FDC
:1026A000FF1FA217B307E407F50720F0A21BB30B27
:1026B000E40BF50B661F771F881F991F1A9469F7A3
:1026C00060957095809590959B01AC01BD01CF01FF
:1026D0000895AA1BBB1B51E107C0AA1FBB1FA61769
:1026E000B70710F0A61BB70B881F991F5A95A9F7BB
:1026F00080959095BC01CD010895EE0FFF1F0590C8
:10270000F491E02D0994E199FECF9FBB8EBBE09A36
:1027100099278DB30895262FE199FECF9FBB8EBBDD
:102720002DBB0FB6F894E29AE19A0FBE0196089578
:04273000F894FFCF4B
:1027340056616C75653A2000433A00204E3A0049D0
:102744006E2050726F6772657373004C20004C4F9B
:102754003A0048493A00522000546170652D466F92
:102764006C6C6F77004564697420566172732E0037
:1027740052756E2044656D6F00436865636B20532A
:10278400656E736F7273004C3A00523A0056617270
:102794006961626C653A20004B5F70004B5F6400B6
:1027A400537065656400546872657368004F626AAB
:1027B40065637420446574656374656421005363C0
:1027C400616E6E696E672E2E2E004172742E204348
:1027D4006F6C6C656374696F6E004D313A20004D07
:1027E400323A20004C3A200020523A20004B703AF2
:1027F40000204B643A0053656C6563743A200049C9
:10280400522D466F6C6C6F77004172742E20436FAB
:102814006C6C656374004D6F746F720052756E2D2D
:10282400416C6C00320035003B003800230062002C
:102834006500310034003A00370022006100640072
:10284400300033003900360021002000630001FF0E
:102854000000000035027E00E401C901FE01000011
:102864000000AE01A702AD020000000007019B02B8
:10287400A102180019002600270005000400010029
:10288400000000000000F80301020408102040804A
:0628940020100880402026
:00000001FF
