:100000000C9448000C947C000C947C000C947C00B4
:100010000C947C000C947C000C947C000C947C0070
:100020000C947C000C9440120C94E9100C940F1268
:100030000C947C110C94AD110C94B8100C944B11D1
:100040000C94A80D0C947C000C94D6000C946501C3
:100050000C947C000C947C000C947C000C947C0030
:100060000C94DE110C9404130C9471120C94A212D3
:100070000C94D3120C941A110C94A7000C941E012A
:100080000C947C000C947C000C947C008D02640524
:1000900011241FBECFEFD0E1DEBFCDBF88E483BF08
:1000A00084E00E94160F12BE87B7816087BF7894E4
:1000B00012E0A0E0B1E0EEEDFCE200E00BBF02C018
:1000C00007900D92AC36B107D9F713E0ACE6B2E079
:1000D00001C01D92AA35B107E1F710E0C0E9D0E0F8
:1000E00004C02297FE010E945416CC38D107C9F7EC
:1000F0000E9435130C946D160C940000FC012481B1
:100100003581C9010895DC01FC01828193818097CA
:1001100014F080E00895FD0182819381019693831C
:10012000828384819581E80FF91F60870196FD0124
:10013000958384832D913C9111978217930714F432
:1001400081E00895FD011582148281E008951F92D7
:100150000F920FB60F920BB60F9211242F933F936D
:100160004F935F936F937F938F939F93AF93BF93BF
:10017000EF93FF93E0910203F091030360818AEB18
:1001800092E00E948300FF91EF91BF91AF919F9108
:100190008F917F916F915F914F913F912F910F9030
:1001A0000BBE0F900FBE0F901F9018951F920F92CD
:1001B0000FB60F920BB60F9211242F933F934F93CC
:1001C0005F936F937F938F939F93AF93BF93EF93BF
:1001D000FF93E091B602F091B70260818EE692E063
:1001E0000E948300FF91EF91BF91AF919F918F91FA
:1001F0007F916F915F914F913F912F910F900BBE27
:100200000F900FBE0F901F901895DC01FC018281AA
:10021000938101979383828386819781E80FF91FE9
:1002200040850196FD01978386832D913C9182172D
:10023000930714F017821682842F08951F920F924D
:100240000FB60F920BB60F9211240F931F932F939B
:100250003F934F935F936F937F938F939F93AF934E
:10026000BF93EF93FF938091E4029091E5021816FB
:10027000190654F4009102031091030382EE92E0F8
:100280000E940501F80180838091E4029091E502CB
:10029000892B31F4E0910003F091010388E9808318
:1002A000FF91EF91BF91AF919F918F917F916F914E
:1002B0005F914F913F912F911F910F910F900BBE26
:1002C0000F900FBE0F901F9018951F920F920FB6B0
:1002D0000F920BB60F9211240F931F932F933F93FE
:1002E0004F935F936F937F938F939F93AF93BF933E
:1002F000EF93FF9380919802909199021816190636
:1003000054F40091B6021091B70286E992E00E947F
:100310000501F80180838091980290919902892BC0
:1003200031F4E091B402F091B50288E98083FF9145
:10033000EF91BF91AF919F918F917F916F915F915D
:100340004F913F912F911F910F910F900BBE0F90E6
:100350000FBE0F901F901895DC01FC0182819381E4
:1003600001979383828386819781E80FF91F4085E7
:100370000196FD01978386832D913C918217930707
:1003800014F017821682842F0895FC0184819581D0
:10039000892B19F42FEF3FEF06C0CF0102960E9480
:1003A000AC01282F30E0C9010895CF93DF93EC0111
:1003B000EE81FF81E80FF91F8085DF91CF910895CD
:1003C000FC0184819581892B19F42FEF3FEF06C042
:1003D000CF0102960E94D501282F30E0C90108956F
:1003E000FC01138212828281938197838683958395
:1003F0008483089502960E94F0010895FC0180E232
:1004000090E091838083CF010E94F0010895DC0188
:10041000FC0182819381409714F080E00895FD01F2
:100420008281938101969383828384819581E80FF1
:10043000F91F60870196FD01958384832D913C917E
:1004400011978217930714F481E00895FD01158236
:10045000148281E00895CF93DF93EC018CA59DA5D4
:100460004097E4F7F894CE018A960E940702C85B91
:10047000DF4FE881F9818081806280837894DF9109
:10048000CF910895FC011382128282819381978318
:100490008683958384830895FC0180E190E09183B5
:1004A0008083CF010E94420208956F927F928F92C3
:1004B0009F92AF92BF92CF92DF92EF92FF920F93F3
:1004C0001F936C015B014A013901FC018DE392E04D
:1004D00081939193CF010E94FE01C6018A960E94EA
:1004E0004C0282E490E0C80ED91EF601A192B192AE
:1004F000819291926192719201931193F182E082C3
:100500001F910F91FF90EF90DF90CF90BF90AF9031
:100510009F908F907F906F900895EF92FF920F932E
:100520001F938CE692E060E970E049E250E02BE234
:1005300030E00AE210E0FCE2EF2EF12C0E945502BE
:1005400088EB92E068E970E049E950E02BE930E09F
:100550000AE910E0ECE9EE2EF12C0E9455021F9101
:100560000F91FF90EF90089585E060E070E00E94A9
:10057000011084E060E070E00E94011081E060E022
:1005800070E00E94011080E060E070E00E940110C5
:1005900008950F931F93CF93DF93EB018A01CC0F44
:1005A000DD1F57FD0CC0FE01E95BFD4F808161E05E
:1005B0000E948C0EC15BDD4F8881B8010EC0FE0128
:1005C000E95BFD4F808160E00E948C0EC15BDD4FD6
:1005D00066277727601B710B88810E940110DF91CD
:1005E000CF911F910F9108951F93CF93DF93C0E098
:1005F000D0E0FE01E95BFD4F1081812F61E00E9498
:10060000430E812F61E00E948C0EFE01E15BFD4FE5
:10061000808160E070E00E9401102296C830D10510
:1006200041F7DF91CF911F910895FC0110828AE07C
:1006300090E0938382830895CF93DF93EC01882722
:1006400077FD8095982F0E941A1520E030E044E352
:1006500053E40E947F1420E030E040EF51E40E9418
:10066000A61520E030E040E251E40E941B140E94F5
:10067000EC14CB016A30710510F48AE090E0893205
:10068000910510F088E290E09B838A83DF91CF91FF
:100690000895E0910C02E7FD15C0FF27E7FDF095F6
:1006A000EE0FFF1FEC5FFC4F0190F081E02D818188
:1006B00060E00E948C0E06C02F5F81919191892B82
:1006C00069F00EC020910C022F5FE22FFF27E7FD9B
:1006D000F0952150EE0FFF1FEC5FFC4F273064F3C5
:1006E00020930C02E0910C02FF27E7FDF095EE0F3E
:1006F000FF1FEC5FFC4F0190F081E02D309761F41B
:100700008FEF80930C0224EF31E0809115039091DC
:100710001603281B390B12C0818161E00E948C0EE8
:10072000E0910C02FF27E7FDF095EE0FFF1FEC5F55
:10073000FC4F0190F081E02D2281338183B5820F3F
:1007400083BD8091150390911603820F931F9093A0
:10075000160380931503845F914020F010921603D6
:100760001092150308950E942E0F87B78F7787BFC9
:1007700085E00E94290F89E069E473E00E944A0F36
:1007800083B58C5083BD87B7806887BF10921603EE
:10079000109215038FEF80930C020895CF93DF938F
:1007A000EC0180911403893010F080E03DC0698332
:1007B000862F61E00E94430EE881F0E0EE0FFF1FFC
:1007C000EC5FFC4F80819181C817D90761F140919E
:1007D0001403442341F4E4E0F3E01192119283E026
:1007E000E431F807D1F7E4E0F3E020E030E0808185
:1007F0009181892B61F4F901EE0FFF1FEC5FFC4F33
:10080000D183C08328834F5F4093140306C02F5FBA
:100810003F4F32962830310551F7809114038130D3
:1008200011F40E94B30381E0DF91CF910895CF933B
:10083000DF93EC018A8160E00E948C0E8D8160E084
:100840000E94BC0E8D8160E00E94DE0E8B8161E013
:100850000E948C0E8C8161E00E948C0E00000000D2
:1008600010C08C8160E00E948C0E0000000000002F
:1008700000008C8161E00E948C0E000000000000EE
:1008800000008D810E94D30E87FDEBCF8C8160E04C
:100890000E948C0EDF91CF910895FF920F931F93CA
:1008A0008C01F62E0E941704F801828161E00E94FB
:1008B0008C0EF801838160E00E948C0EF801848127
:1008C00061E00E948C0EF801858161E00E94BC0EFF
:1008D000F80185816F2D0E94DE0E000000000000EF
:1008E0000000F801848160E00E948C0EF80185818F
:1008F00060E00E94BC0EF80185816FEF0E94DE0E61
:100900001F910F91FF900895EF92FF920F931F9305
:10091000CF93DF937C01042F6115710551F0EB013A
:1009200010E005C0C70169910E944D041F5F1017B8
:10093000C8F3DF91CF911F910F91FF90EF90089531
:10094000DF93CF930F92CDB7DEB76983BE016F5FA0
:100950007F4F41E00E9484040F90CF91DF91089572
:10096000FF920F931F938C01F62E0E941704F8013B
:10097000828160E00E948C0EF801838160E00E9419
:100980008C0EF801848161E00E948C0EF801858153
:1009900061E00E94BC0EF80185816F2D0E94DE0E81
:1009A0000000000000000000F801848160E00E9467
:1009B0008C0EF801858160E00E94BC0EF8018581F3
:1009C0006FEF0E94DE0E1F910F91FF90089542304D
:1009D00031F0433031F0413029F4605C03C06C5E8B
:1009E00001C06C5A60680E94B004089562E00E94E1
:1009F000B004089561E00E94B00408950F931F931E
:100A00008C01FC01828160E00E948C0EF8018381E0
:100A100060E00E948C0EF801848160E00E948C0EE0
:100A2000F801828161E00E94430EF801838161E058
:100A30000E94430EF801848161E00E94430EF80198
:100A4000858160E00E94BC0EF80185816FEF0E94F5
:100A5000DE0E1F910F9108950F931F938C010E943A
:100A6000FE04C80168E30E94B004C80161E00E946E
:100A7000B004C80166E00E94B004C8016CE00E94A6
:100A8000B004C80162E00E94B004C80160E80E949E
:100A9000B0041F910F9108950F93FC018BE592E034
:100AA000918380836283438324830583CF010E94E3
:100AB0002C050F910895CB01642F0E9460160895B4
:100AC000CB010E94581608950F9388E193E06AE1E4
:100AD0004BE12CE102E00E944C058EE193E00E9484
:100AE000F40280E293E00E94150384E293E00E9406
:100AF000150388E293E00E9415030F910895CF93A8
:100B0000DF93EC0187E00E94F20E2197C89FB001AD
:100B1000C99F700DD89F700D11242196882777FDED
:100B20008095982F0E941A152DEC3CEC4CE85FE361
:100B30000E94A61520E030E040E85AE30E94A61586
:100B400020E030E040E85FE30E941B140E94E714BD
:100B50009B01C617D7070CF49E01C901DF91CF9105
:100B60000895EF92FF920F931F937C0108E113E029
:100B7000C80160E041E00E94E704C801B7010E949B
:100B80004E131F910F91FF90EF900895EF92FF92F7
:100B90000F931F937C0108E113E0C80160E040E07F
:100BA0000E94E704C801B7010E944E131F910F91E4
:100BB000FF90EF900895EF92FF920F931F937C01A7
:100BC00008E113E0C80160E041E00E94E704C801C9
:100BD00060E071E00E944E13C801B7010E94121438
:100BE0001F910F91FF90EF90089581E30E94730E83
:100BF000882311F080E008956CE271E080E090E0DD
:100C00000E941D0E81E008950E94F5058823E1F3FE
:100C1000089582E30E94730E882311F080E0089506
:100C20006CE271E080E090E00E941D0E81E008958A
:100C30000F931F9308E113E0C8010E94FA04C80152
:100C40000E94F6041F910F910895EF92FF920F9367
:100C50001F937C010E94180608E113E0C80160E0C0
:100C600040E00E94E704C801B7010E944E13C8018A
:100C700060E041E00E94E704C80168E071E00E9482
:100C80004E1360912C0370912D03C8010E94121421
:100C9000C8016BE071E00E944E1360912E037091C9
:100CA0002F03C8010E9412141F910F91FF90EF9023
:100CB00008950F931F93CF93DF93EC018B0187E18E
:100CC00093E0BE010E94600590E0880F991F880F95
:100CD000991F90932D0380932C0388E193E0B80132
:100CE0000E944E1387E193E0BE010E94600590E0F0
:100CF000880F991F880F991F0E94DB050E94090623
:100D0000882359F52EC087E00E94F20E90932F039E
:100D100080932E03C8010E9425060E94090688239D
:100D2000B1F080912E0390912F0364E070E00E9457
:100D30000916462F87E193E0BE010E945B05809172
:100D40002E0390912F0390932D0380932C0368EC36
:100D500070E080E090E00E941D0E0E94F50588235F
:100D600091F2DF91CF911F910F91089514C00E94CD
:100D7000180688E193E060E040E00E94E70488E123
:100D800093E06FE071E00E944E1368EC70E080E049
:100D900090E00E941D0E0E94F505882341F30895FE
:100DA00002C00E94B6060E94F5058823D1F308957B
:100DB00002C00E94B6060E94F5058823D1F308956B
:100DC0002F923F924F925F926F927F928F929F925B
:100DD000AF92BF92CF92DF92EF92FF920F931F9349
:100DE0008CC080E00E94F20E5C0181E00E94F20E55
:100DF0007C0182E00E94F20E1C0183E00E94F20E50
:100E00003C010E94180688E193E060E040E00E9407
:100E1000E70488E193E06BE171E00E944E1388E102
:100E200093E06EE171E00E944E130027F7FC0095FD
:100E3000102FC801B7010E941A150E94E7149B01E8
:100E4000AC0188E193E0B9010E94121488E193E0BB
:100E500062E271E00E944E13CC24B7FCC094DC2CFB
:100E6000C601B5010E941A150E94E7149B01AC014E
:100E700088E193E0B9010E94121488E193E060E0F8
:100E800041E00E94E70488E193E066E271E00E949D
:100E90004E1388E193E06EE171E00E944E138824C6
:100EA00077FC8094982CC401B3010E941A150E940B
:100EB000E7149B01AC0188E193E0B9010E94121490
:100EC00088E193E062E271E00E944E13442437FC13
:100ED0004094542CC201B1010E941A150E94E714DB
:100EE0009B01AC0188E193E0B9010E94121468EC07
:100EF00070E080E090E00E941D0E0E94F5058823BE
:100F000009F46FCF1F910F91FF90EF90DF90CF907A
:100F1000BF90AF909F908F907F906F905F904F9019
:100F20003F902F90089538C00E94180689E291E002
:100F30000E94C60583E090E00E947F058230910503
:100F400081F083309105C1F0019701F583E391E0D1
:100F50000E94B1050E9409068823C1F00E94D806AC
:100F600015C08EE391E00E94B1050E940906882316
:100F700069F00E94D0060AC087E491E00E94B105A2
:100F80000E940906882311F00E94E00668EC70E0D8
:100F900080E090E00E941D0E0E94F505882321F25A
:100FA0000895EF92FF920F931F9332C080E00E944A
:100FB000F20E8C0181E00E94F20E7C010E94180664
:100FC00088E193E060E040E00E94E70488E193E07C
:100FD00065E571E00E944E1388E193E0B8010E943C
:100FE000121488E193E060E041E00E94E70488E1A8
:100FF00093E068E571E00E944E1388E193E0B70149
:101000000E94121468EC70E080E090E00E941D0ED7
:101010000E94F505882351F21F910F91FF90EF90E8
:10102000089534C00E9418068BE591E00E94C60521
:1010300084E090E00E947F058230910589F0833042
:1010400091051CF40197E1F406C08330910569F025
:101050000497B1F40FC081E090E066E671E00EC045
:1010600082E090E06AE671E009C083E090E06EE61D
:1010700071E004C084E090E064E771E00E945906EA
:1010800068EC70E080E090E00E941D0E0E94F50583
:10109000882341F208950F931F93CF93DF9363C08A
:1010A00086E00E94F20E8C010F5F1140000F111FAD
:1010B00087E00E94F20E8F5F9140880F991FA80170
:1010C0002CEF0130120714F441E05CEF8A0124E0B8
:1010D0004030520714F00FEF13E0AC018CEF4130B9
:1010E000580714F441E05CEFEA0124E04030520775
:1010F00014F0CFEFD3E08EE193E063E070E0A8015D
:101100000E94C9028EE193E062E070E0AE010E94AD
:10111000C9020E94180688E193E060E040E00E9466
:10112000E70488E193E06BE771E00E944E1388E1E9
:1011300093E0B8010E94121488E193E060E041E07E
:101140000E94E70488E193E060E871E00E944E139A
:1011500088E193E0BE010E94121462E370E080E037
:1011600090E00E941D0E0E94F505882309F498CF97
:101170008EE193E00E94B402DF91CF911F910F9115
:1011800008952F923F924F925F926F927F928F922B
:101190009F92AF92BF92CF92DF92EF92FF920F9306
:1011A0001F93DF93CF93CDB7DEB72E970FB6F8948A
:1011B000DEBF0FBECDBF87E193E061E070E00E942B
:1011C0006005282F30E0220F331F220F331F3C838E
:1011D0002B8387E193E062E070E00E946005482F76
:1011E00050E0440F551F440F551F5A83498387E130
:1011F00093E063E070E00E946005282E3324220C07
:10120000331C220C331C87E193E064E070E00E9401
:101210006005C82EDD24CC0CDD1CCC0CDD1C1E862C
:101220001D8618861F8200E010E01E821D82662443
:1012300077248824992489819A81AA2797FDA095EB
:10124000BA2F89879A87AB87BC87DBC080E00E9472
:10125000F20E2C0181E00E94F20E5C01C414D50450
:1012600034F4C816D90664F41E861D8625C04C14B5
:101270005D0414F5C816D9065CF4AFEFBFEF1AC0D1
:101280008C159D05CCF4E1E0F0E0FE87ED8714C0FD
:101290008C159D058CF42D853E8537FF05C04BEFE1
:1012A0005FEF5E874D8708C08D859E85892B21F075
:1012B000A5E0B0E0BE87AD87ED85FE85E017F107BC
:1012C00039F018870F837E826D8261E0662E712C63
:1012D00069857A858B859C850E941A157B018C0116
:1012E0006D857E852F813885621B730B882777FD7E
:1012F0008095982F0E941A159B01AC01C801B70177
:101300000E94A6157B018C016D817E81660D771D83
:10131000882777FD8095982F0E941A159B01AC01B4
:10132000C801B7010E947F140E94E7147B018C0161
:101330004D855E85AB81BC814A9FC0014B9F900D5E
:101340005A9F900D1124E80EF91EA1014E195F0954
:101350008EE193E063E070E00E94C902E20CF31CAE
:101360008EE193E062E070E0A7010E94C902B2E35F
:101370008B169104F1F588E193E00E94FA0488E16C
:1013800093E00E94F60488E193E065E871E00E9432
:101390004E1388E193E0B2010E94121488E193E0B9
:1013A00069E871E00E944E1388E193E0B5010E9464
:1013B000121488E193E060E041E00E94E70488E1D4
:1013C00093E06EE871E00E944E1388E193E06B8138
:1013D0007C810E94121488E193E062E971E00E942E
:1013E0004E1388E193E069817A810E941214882467
:1013F00099240894811C911C0894611C711C0D8512
:101400001E850E94F505882309F420CF8EE193E024
:101410000E94B4022E960FB6F894DEBF0FBECDBF69
:10142000CF91DF911F910F91FF90EF90DF90CF90C0
:10143000BF90AF909F908F907F906F905F904F90F4
:101440003F902F9008954AC00E94180687E991E0C6
:101450000E94C60584E090E00E947F0582309105DD
:10146000B9F0833091051CF4019791F506C08330E3
:101470009105C9F0049761F521C083E391E00E94D2
:10148000B1050E940906882319F10E94110820C0A5
:101490008EE391E00E94B1050E9409068823C1F005
:1014A0000E94C10815C083EA91E00E94B1050E9424
:1014B0000906882369F00E9404060AC087E491E0C7
:1014C0000E94B1050E940906882311F00E94D107ED
:1014D00068EC70E080E090E00E941D0E0E94F5052F
:1014E000882309F4B1CF08952F923F924F925F92D3
:1014F0006F927F928F929F92AF92BF92CF92DF9224
:10150000EF92FF920F931F93DF93CF93CDB7DEB788
:101510002F970FB6F894DEBF0FBECDBF87E193E0E3
:1015200061E070E00E946005282F30E0220F331F39
:10153000220F331F3F832E8387E193E062E070E048
:101540000E946005A82FB0E0AA0FBB1FAA0FBB1F07
:10155000BD83AC8387E193E063E070E00E946005A7
:10156000E82FF0E0EE0FFF1FEE0FFF1FFB83EA8373
:1015700087E193E064E070E00E946005A82EBB2440
:10158000AA0CBB1CAA0CBB1CCC24DD241B861A860F
:1015900000E010E0198618862224332444245524C0
:1015A00019828C819D81AA2797FDA095BA2F8C87DF
:1015B0009D87AE87BF8739C180E00E94F20E3C0153
:1015C00081E00E94F20E4C01A614B70434F4A81670
:1015D000B9066CF4CC24DD2421C06A147B04F4F435
:1015E000A816B9065CF4CC24CA94DC2C17C08A1562
:1015F0009B05A4F421E0C22ED12C10C08A159B05B6
:101600006CF4D7FE05C09BEFC92E9FEFD92E06C004
:10161000C114D10419F085E0C82ED12CC016D10612
:1016200039F01B870A8739862886B1E02B2E312CAA
:101630006C857D858E859F850E941A157B018C01A6
:10164000B601AA85BB856A1B7B0B882777FD809531
:10165000982F0E941A159B01AC01C801B7010E9486
:10166000A6157B018C0168857985620D731D88271D
:1016700077FD8095982F0E941A159B01AC01C80137
:10168000B7010E947F140E94E7147B018C01EE8158
:10169000FF81CE9EC001CF9E900DDE9E900D112445
:1016A000E80EF91E4A815B814E195F098EE193E0D5
:1016B00063E070E00E94C9022A813B81E20EF31EC2
:1016C0008EE193E062E070E0A7010E94C90232E37C
:1016D0004316510409F046C083E00E94F20E8035A3
:1016E000910514F481E0898388E193E00E94FA0473
:1016F00088E193E00E94F60488E193E065E871E0F8
:101700000E944E1388E193E0B3010E94121488E115
:1017100093E069E871E00E944E1388E193E0B40120
:101720000E94121488E193E060E041E00E94E70427
:1017300088E193E06EE871E00E944E1388E193E047
:101740006E817F810E94121488E193E062E971E06A
:101750000E944E1388E193E06C817D810E941214F7
:10176000442455249981992309F458C08EE193E0CB
:101770000E94B40200E110E084E293E0B8010E940C
:101780001C036FE070E080E090E00E941D0E0F5F90
:101790001F4F0436110581F700E010E088E293E066
:1017A000B8010E941C036AE070E080E090E00E94B3
:1017B0001D0E0F5F1F4F0639110581F780E293E080
:1017C00064EB70E00E941C0368EE73E080E090E040
:1017D0000E941D0E80E293E060E070E00E941C0316
:1017E00064EF71E080E090E00E941D0E88E293E0DB
:1017F00060E070E00E941C0364EF71E080E090E024
:101800000E941D0E84E293E060E170E00E941C03E0
:1018100064EF71E080E090E00E941D0E0894411C8E
:10182000511C0894211C311C86010E94F505882357
:1018300009F4C2CE8EE193E00E94B4022F960FB657
:10184000F894DEBF0FBECDBFCF91DF911F910F91F6
:10185000FF90EF90DF90CF90BF90AF909F908F90D0
:101860007F906F905F904F903F902F9008951CC095
:101870000E94180687E991E00E94C60581E090E089
:101880000E947F05019751F480EB91E00E94B10521
:101890000E940906882311F00E94740A68EC70E027
:1018A00080E090E00E941D0E0E94F505882301F360
:1018B0000895CF93DF9396C00E94180688E193E0C5
:1018C00060E040E00E94E70483E00E94F20EBC0169
:1018D00088E193E00E94121462E370E080E090E0FF
:1018E0000E941D0E83E00E94F20E80359105CCF41B
:1018F00088E193E060E041E00E94E70488E193E042
:101900006BEB71E00E944E1362E370E080E090E0C8
:101910000E941D0E8EE193E00E94B402C0E1D0E06F
:1019200011C088E193E060E041E00E94E70488E1B3
:1019300093E06CEC71E00E944E1368EC70E080E084
:1019400090E04EC084E293E0BE010E941C036FE071
:1019500070E080E090E00E941D0E2196C436D10513
:1019600089F7C0E0D0E088E293E0BE010E941C034A
:101970006AE070E080E090E00E941D0E2196C6397A
:10198000D10589F780E293E064EB70E00E941C03CC
:1019900068EE73E080E090E00E941D0E80E293E02C
:1019A00060E070E00E941C0364EF71E080E090E072
:1019B0000E941D0E88E293E060E070E00E941C032C
:1019C00064EF71E080E090E00E941D0E84E293E0FD
:1019D00060E170E00E941C0364EF71E080E090E041
:1019E0000E941D0E0E94F505882309F465CFDF9142
:1019F000CF91089534C00E94180688ED91E00E94AE
:101A0000C60583E090E00E947F058230910561F079
:101A100083309105A1F00197E1F483E391E00E9406
:101A2000B1050E94090615C08EE391E00E94B10540
:101A30000E940906882369F00E94590C0AC087E4B5
:101A400091E00E94B1050E940906882311F00E94CE
:101A5000B60668EC70E080E090E00E941D0E0E94E7
:101A6000F505882341F208950E94180688EE91E05A
:101A70000E94C60585E090E00E947F0583309105B5
:101A800029F18430910534F48130910549F00297B1
:101A9000E9F511C08430910521F10597B9F52CC005
:101AA00087E991E00E94B1050E940906882371F13F
:101AB0000E94230A2BC089E291E00E94B1050E9496
:101AC0000906882319F10E94930720C081EF91E055
:101AD0000E94B1050E9409068823C1F00E94FA0CF9
:101AE00015C08EEF91E00E94B1050E94090688237F
:101AF00069F00E944B080AC084E092E00E94B105A0
:101B00000E940906882311F00E94370C68EC70E0EF
:101B100080E090E00E941D0E089580E060E00E9449
:101B2000BC0E81E060E00E94BC0E80E293E063E2C4
:101B300070E00E94CE0384E293E06FE170E00E94C7
:101B4000CE0388E293E062E270E00E94CE03089543
:101B50001F920F920FB60F9211242F933F938F93E2
:101B60009F93AF93BF938091340390913503A091DD
:101B70003603B0913703309138030196A11DB11D92
:101B8000232F2D5F2D3720F02D570196A11DB11D5C
:101B9000209338038093340390933503A093360346
:101BA000B09337038091300390913103A0913203B9
:101BB000B09133030196A11DB11D80933003909322
:101BC0003103A0933203B0933303BF91AF919F9140
:101BD0008F913F912F910F900FBE0F901F901895EE
:101BE0006FB7F89420913003309131034091320364
:101BF0005091330382B790E0A0E0B0E006B600FE5B
:101C000009C08F3F9105A105B10521F02F5F3F4F1E
:101C10004F4F5F4F6FBF542F432F322F2227280F74
:101C2000391F4A1F5B1F82E0220F331F441F551FBD
:101C30008A95D1F7B901CA010895EF92FF920F93E7
:101C40001F93CF93DF937B018C010E94F00DEB017A
:101C50000EC00E94F00D6C1B7D0B685E7340C8F3D4
:101C60000894E108F10801091109C851DC4FE11499
:101C7000F1040105110569F7DF91CF911F910F91D3
:101C8000FF90EF900895E82FE695E695E695A82F4A
:101C9000B0E0613099F42FB7F894F0E0EE0FFF1F39
:101CA000E55EFD4F0190F081E02D9081A770B0704E
:101CB000A35ABD4F8C91982B908313C02FB7F894E3
:101CC000F0E0EE0FFF1FE55EFD4F0190F081E02D8B
:101CD0009081A770B070A35ABD4F8C9180958923D5
:101CE00080832FBF0895A82FE82FE695E695E69507
:101CF000F0E0EE0FFF1FE75DFD4F0190F081E02D5A
:101D0000E081B0E0A770B070A35ABD4F8C91E8237A
:101D100009F0E1E08E2F0895E82FE695E695E69527
:101D2000A82FB0E0613099F42FB7F894F0E0EE0FEF
:101D3000FF1FE35FFD4F0190F081E02D9081A770C0
:101D4000B070A35ABD4F8C91982B908313C02FB7BE
:101D5000F894F0E0EE0FFF1FE35FFD4F0190F0817C
:101D6000E02D9081A770B070A35ABD4F8C918095E3
:101D7000892380832FBF0895E82FF0E0613051F46C
:101D8000EE0FFF1FE55EFD4F0190F081E02D8FEF1C
:101D900080830895EE0FFF1FE55EFD4F0190F081F7
:101DA000E02D10820895E82FF0E0EE0FFF1FE75DB1
:101DB000FD4F0190F081E02D80810895E82FF0E043
:101DC000EE0FFF1FE35FFD4F0190F081E02D608378
:101DD0000895109261001092620080E487B987EE46
:101DE00086B908951F93182F80913702813021F40E
:101DF0000E94E90E1092370280913802181721F4E0
:101E0000349A349BFECF0DC01093380287B11770FF
:101E1000807E812B87B9349A349BFECF349A349BD1
:101E2000FECF24B135B1C9011F91089593B7987FB2
:101E3000982B93BF08959EB5987F982B9EBD0895CB
:101E400083E00E941B0F1DBC1CBC87B7846087BF4A
:101E5000089595B5987F982B95BD089582E00E94CE
:101E6000290F14BC87B7806487BF0895EAE8F0E0C3
:101E70009081987F982B9083089583E00E94360F7D
:101E80001092890010928800EDE7F0E08081846074
:101E900080830895803140F4E82FF0E0EE0FFF1FBB
:101EA000E65CFC4F718360830895893031F48FB50F
:101EB00082608FBD8FB58E7F0AC08A3019F48FB5CE
:101EC000826002C08FB58D7F8FBD8FB581608FBD61
:101ED0001BBC1ABC19BC18BC109279001092780077
:101EE00008958FB580688FBD8FB58F7B8FBD0895A6
:101EF0008FB580628FBD8FB58F7E8FBD08958FB5F2
:101F000088608FBD8FB58B7F8FBD08959BBD8ABDC7
:101F1000089599BD88BD08959093790080937800C5
:101F20000895893049F480918B00826080938B0002
:101F300080918B008E7F0EC08A3021F480918B00BF
:101F4000826003C080918B008D7F80938B00809195
:101F50008B00816080938B00109287001092860026
:101F600010928500109284001092830010928200DB
:101F70000895EBE8F0E080818068808380818F7B2A
:101F800080830895EBE8F0E0808180628083808127
:101F90008F7E80830895EBE8F0E080818860808305
:101FA00080818B7F80830895853019F40E94710FA2
:101FB0000895843019F40E94780F0895833019F43D
:101FC0000E947F0F0895823019F40E94B90F08957E
:101FD000813019F40E94C20F0895882311F40E94E1
:101FE000CB0F089590938700809386000895909377
:101FF00085008093840008959093830080938200ED
:102000000895EF92FF921F93CF93DF93182F7B01D8
:102010008D31B0F08F3111F413E014C08E3111F412
:1020200014E010C08D3109F49BC0853211F410E02A
:102030003DC0843211F411E039C0833219F48EC0EE
:102040008330A0F18091390386FD0BC00E94200FE0
:1020500078948AE00E94550F8091390380648093C0
:10206000390380913903C12FD0E090E0012E02C0E6
:10207000959587950A94E2F780FD4CC087B3FE01E1
:10208000EB59FD4F9081892B87BB812F0E94D40F84
:102090002091390381E090E0012E02C0880F991F42
:1020A0000A94E2F7282B2093390334C08091390336
:1020B00087FD0BC00E943D0F78948AE00E94910F2B
:1020C0008091390380688093390380913903C12F4F
:1020D000D0E090E0012E02C0959587950A94E2F732
:1020E00080FD24C082B1FE01EB59FD4F9081892B08
:1020F00082B9812F0E94D40F2091390381E090E0B2
:10210000012E02C0880F991F0A94E2F7282B209312
:1021100039030CC0153021F4C7010E94860F22C07C
:10212000143021F4C7010E94890F1CC0133021F420
:10213000C7010E948C0F16C0123021F4C7010E9403
:10214000F20F10C0113021F4C7010E94F70F0AC02E
:10215000112341F4C7010E94FC0F04C012E0A6CF76
:1021600015E070CFDF91CF911F91FF90EF90089510
:102170001F920F920FB60F920BB60F9211242F934E
:102180003F934F935F936F937F938F939F93AF93FF
:10219000BF93EF93FF938091400390914103892B6C
:1021A00029F0E0914003F09141030995FF91EF91EF
:1021B000BF91AF919F918F917F916F915F914F915F
:1021C0003F912F910F900BBE0F900FBE0F901F905D
:1021D00018951F920F920FB60F920BB60F92112403
:1021E0002F933F934F935F936F937F938F939F931F
:1021F000AF93BF93EF93FF9380914A0390914B036A
:10220000892B29F0E0914A03F0914B030995FF9146
:10221000EF91BF91AF919F918F917F916F915F915E
:102220004F913F912F910F900BBE0F900FBE0F90CB
:102230001F9018951F920F920FB60F920BB60F9228
:1022400011242F933F934F935F936F937F938F93BB
:102250009F93AF93BF93EF93FF938091500390911F
:102260005103892B29F0E0915003F0915103099516
:10227000FF91EF91BF91AF919F918F917F916F915E
:102280005F914F913F912F910F900BBE0F900FBE1A
:102290000F901F9018951F920F920FB60F920BB6CA
:1022A0000F9211242F933F934F935F936F937F93DC
:1022B0008F939F93AF93BF93EF93FF9380913C03D2
:1022C00090913D03892B29F0E0913C03F0913D036F
:1022D0000995FF91EF91BF91AF919F918F917F9160
:1022E0006F915F914F913F912F910F900BBE0F9087
:1022F0000FBE0F901F9018951F920F920FB60F925E
:102300000BB60F9211242F933F934F935F936F93CC
:102310007F938F939F93AF93BF93EF93FF9380919E
:10232000420390914303892B29F0E0914203F091FD
:1023300043030995FF91EF91BF91AF919F918F91C9
:102340007F916F915F914F913F912F910F900BBEB5
:102350000F900FBE0F901F9018951F920F920FB6FF
:102360000F920BB60F9211242F933F934F935F93CD
:102370006F937F938F939F93AF93BF93EF93FF934D
:102380008091440390914503892B29F0E091440307
:10239000F09145030995FF91EF91BF91AF919F9106
:1023A0008F917F916F915F914F913F912F910F90FE
:1023B0000BBE0F900FBE0F901F9018951F920F929B
:1023C0000FB60F920BB60F9211242F933F934F939A
:1023D0005F936F937F938F939F93AF93BF93EF938D
:1023E000FF938091460390914703892B29F0E09158
:1023F0004603F09147030995FF91EF91BF91AF918B
:102400009F918F917F916F915F914F913F912F910C
:102410000F900BBE0F900FBE0F901F9018951F923C
:102420000F920FB60F920BB60F9211242F933F937A
:102430004F935F936F937F938F939F93AF93BF93CC
:10244000EF93FF938091480390914903892B29F0E2
:10245000E0914803F09149030995FF91EF91BF91F5
:10246000AF919F918F917F916F915F914F913F912C
:102470002F910F900BBE0F900FBE0F901F901895CD
:102480001F920F920FB60F920BB60F9211242F933B
:102490003F934F935F936F937F938F939F93AF93EC
:1024A000BF93EF93FF9380914C0390914D03892B41
:1024B00029F0E0914C03F0914D030995FF91EF91C4
:1024C000BF91AF919F918F917F916F915F914F914C
:1024D0003F912F910F900BBE0F900FBE0F901F904A
:1024E00018951F920F920FB60F920BB60F921124F0
:1024F0002F933F934F935F936F937F938F939F930C
:10250000AF93BF93EF93FF93809152039091530346
:10251000892B29F0E0915203F09153030995FF9123
:10252000EF91BF91AF919F918F917F916F915F914B
:102530004F913F912F910F900BBE0F900FBE0F90B8
:102540001F9018951F920F920FB60F920BB60F9215
:1025500011242F933F934F935F936F937F938F93A8
:102560009F93AF93BF93EF93FF9380915403909108
:102570005503892B29F0E0915403F09155030995F7
:10258000FF91EF91BF91AF919F918F917F916F914B
:102590005F914F913F912F910F900BBE0F900FBE07
:1025A0000F901F9018951F920F920FB60F920BB6B7
:1025B0000F9211242F933F934F935F936F937F93C9
:1025C0008F939F93AF93BF93EF93FF9380915603A5
:1025D00090915703892B29F0E0915603F09157030E
:1025E0000995FF91EF91BF91AF919F918F917F914D
:1025F0006F915F914F913F912F910F900BBE0F9074
:102600000FBE0F901F9018951F920F920FB60F924A
:102610000BB60F9211242F933F934F935F936F93B9
:102620007F938F939F93AF93BF93EF93FF9380918B
:10263000580390915903892B29F0E0915803F091A8
:1026400059030995FF91EF91BF91AF919F918F91A0
:102650007F916F915F914F913F912F910F900BBEA2
:102660000F900FBE0F901F90189583E061E00E94BD
:10267000BC0E84E061E00E94BC0E78940E948D0D37
:102680000E94340DFDCFDC01ED91FC910190F081B1
:10269000E02D099508950E94431308950F931F9309
:1026A000CF93DF938C01EB0104C02196C8010E94F7
:1026B0004B1368816623C9F7DF91CF911F910F916A
:1026C00008952F923F924F925F926F927F928F92D6
:1026D0009F92AF92BF92CF92DF92EF92FF920F93B1
:1026E0001F93DF93CF93CDB7DEB7A0970FB6F894C3
:1026F000DEBF0FBECDBF1C016A017B014115510534
:102700006105710521F460E30E944B134FC08824DA
:1027100099245401422E55246624772401E010E0C8
:102720000C0F1D1F080D191DC701B601A301920151
:102730000E941C16F80160830894811C911CA11C46
:10274000B11CC701B601A30192010E941C16C90168
:10275000DA016C017D01C114D104E104F104F1F648
:1027600081E0E82EF12CEC0EFD1EE80CF91C3E0178
:102770000894611C711CD501C4010197A109B1091C
:102780006C01C818D9080FC0F601EE0DFF1D60815D
:102790006A3010F4605D01C0695CC1010E944B1396
:1027A0000894E108F1086E147F0471F7A0960FB643
:1027B000F894DEBF0FBECDBFCF91DF911F910F9177
:1027C000FF90EF90DF90CF90BF90AF909F908F9051
:1027D0007F906F905F904F903F902F900895EF9271
:1027E000FF920F931F93CF93DF93EC017A018B013C
:1027F00077FF0BC06DE20E944B1310950095F0948B
:10280000E094E11CF11C011D111DCE01B801A701CE
:102810002AE00E946113DF91CF911F910F91FF90E9
:10282000EF900895AB01662757FD6095762F0E94C3
:10283000EF1308955058BB27AA270ED04DC13ED1A3
:1028400030F043D120F031F49F3F11F41EF433C136
:102850000EF4E095E7FB29C1E92F4FD180F3BA17B9
:10286000620773078407950718F071F49EF567C136
:102870000EF4E0950B2EBA2FA02D0B01B90190019B
:102880000C01CA01A0011124FF27591B99F0593FDF
:1028900050F4503E68F11A16F040A22F232F342F27
:1028A0004427585FF3CF469537952795A795F04075
:1028B0005395C9F77EF41F16BA0B620B730B840B8A
:1028C000BAF09150A1F0FF0FBB1F661F771F881F42
:1028D000C2F70EC0BA0F621F731F841F48F487959A
:1028E00077956795B795F7959E3F08F0B3CF939589
:1028F000880F08F09927EE0F9795879508950CD0CB
:10290000EBC0E3D040F0DAD030F021F45F3F19F0B3
:10291000CCC0511115C1CFC0F0D098F39923C9F3A1
:102920005523B1F3951B550BBB27AA2762177307D5
:10293000840738F09F5F5F4F220F331F441FAA1F89
:10294000A9F333D00E2E3AF0E0E830D09150504049
:10295000E695001CCAF729D0FE2F27D0660F771FF7
:10296000881FBB1F261737074807AB07B0E809F0D9
:10297000BB0B802DBF01FF2793585F4F2AF09E3F6E
:10298000510568F092C0DCC05F3FECF3983EDCF389
:10299000869577956795B795F7959F5FC9F7880FE7
:1029A000911D9695879597F90895E1E0660F771F39
:1029B000881FBB1F621773078407BA0720F0621BCA
:1029C000730B840BBA0BEE1F88F7E095089504D0C3
:1029D0006894B111B5C0089598D088F09F5790F0D1
:1029E000B92F9927B751A0F0D1F0660F771F881F34
:1029F000991F1AF0BA95C9F712C0B13081F09FD073
:102A0000B1E008959CC0672F782F8827B85F39F010
:102A1000B93FCCF3869577956795B395D9F73EF492
:102A200090958095709561957F4F8F4F9F4F08953A
:102A3000E89409C097FB3EF4909580957095619558
:102A40007F4F8F4F9F4F9923A9F0F92F96E9BB270E
:102A50009395F695879577956795B795F111F8CF8A
:102A6000FAF4BB0F11F460FF1BC06F5F7F4F8F4FF5
:102A70009F4F16C0882311F096E911C0772321F0EB
:102A80009EE8872F762F05C0662371F096E8862F83
:102A900070E060E02AF09A95660F771F881FDAF7DA
:102AA000880F9695879597F9089597F99F6780E81D
:102AB00070E060E008959FEF80EC089500240A9490
:102AC0001616170618060906089500240A94121609
:102AD0001306140605060895092E0394000C11F43C
:102AE000882352F0BB0F40F4BF2B11F460FF04C0E9
:102AF0006F5F7F4F8F4F9F4F089557FD9058440F42
:102B0000551F59F05F3F71F04795880F97FB991F4C
:102B100061F09F3F79F08795089512161306140609
:102B2000551FF2CF4695F1DF08C016161706180696
:102B3000991FF1CF86957105610508940895E89471
:102B4000BB2766277727CB0197F908950BD0C4CF11
:102B5000B5DF28F0BADF18F0952309F0A6CFABCF88
:102B60001124EECFCADFA0F3959FD1F3950F50E06B
:102B7000551F629FF001729FBB27F00DB11D639F2F
:102B8000AA27F00DB11DAA1F649F6627B00DA11DD5
:102B9000661F829F2227B00DA11D621F739FB00D7B
:102BA000A11D621F839FA00D611D221F749F3327EB
:102BB000A00D611D231F849F600D211D822F762F84
:102BC0006A2F11249F5750408AF0E1F088234AF081
:102BD000EE0FFF1FBB1F661F771F881F91505040CD
:102BE000A9F79E3F510570F060CFAACF5F3FECF38D
:102BF000983EDCF3869577956795B795F795E795B9
:102C00009F5FC1F7FE2B880F911D9695879597F9C9
:102C1000089597FB092E07260AD077FD04D02ED001
:102C200006D000201AF4709561957F4F0895F6F74D
:102C3000909581959F4F0895A1E21A2EAA1BBB1B68
:102C4000FD010DC0AA1FBB1FEE1FFF1FA217B30778
:102C5000E407F50720F0A21BB30BE40BF50B661F8E
:102C6000771F881F991F1A9469F760957095809552
:102C700090959B01AC01BD01CF010895AA1BBB1B20
:102C800051E107C0AA1FBB1FA617B70710F0A61B6C
:102C9000B70B881F991F5A95A9F780959095BC018D
:102CA000CD010895EE0FFF1F0590F491E02D0994DA
:102CB000E199FECF9FBB8EBBE09A99278DB3089513
:102CC000262FE199FECF9FBB8EBB2DBB0FB6F8948C
:0E2CD000E29AE19A0FBE01960895F894FFCFA4
:102CDE0056616C75653A2000433A00204E3A004921
:102CEE006E2050726F6772657373004C20004C4FEC
:102CFE003A0048493A0052200049522D466F6C6CFA
:102D0E006F77004564697420566172732E00527598
:102D1E006E2044656D6F00436865636B2053656E6E
:102D2E00736F7273004C3A00523A005661726961C9
:102D3E00626C653A20004B5F70004B5F640053700D
:102D4E0065656400546872657368004D313A200001
:102D5E004D323A20004C3A200020523A20004B705F
:102D6E003A00204B643A00546170652D466F6C6CCE
:102D7E006F770052756E2044656D6F20322E3000D5
:102D8E00466F6C2E2B436F6C6C2E004F626A656320
:102D9E007420446574656374656421005363616EC9
:102DAE006E696E672E2E2E004172742E20436F6C4C
:102DBE006C656374696F6E0053656C6563743A205D
:102DCE00004172742E20436F6C6C656374004D6FFE
:102DDE00746F720052756E2D416C6C00FF320035AF
:102DEE00003B003800230062006500310034003AD9
:102DFE0000370022006100640030003300390036D5
:102E0E000021002000630001FF000000002B027E65
:102E1E0000E001C501FA011800190026002700057F
:102E2E000004000100000000000000A004010204E4
:0C2E3E0008102040802010088040200078
:00000001FF
