:100000000C9448000C947C000C947C000C947C00B4
:100010000C947C000C947C000C947C000C947C0070
:100020000C947C000C94460C0C94EF0A0C94150C68
:100030000C94820B0C94B30B0C94BE0A0C94510BD1
:100040000C94AE070C947C000C94D6000C946501C3
:100050000C947C000C947C000C947C000C947C0030
:100060000C94E40B0C940A0D0C94770C0C94A80CD3
:100070000C94D90C0C94200B0C94A7000C941E012A
:100080000C947C000C947C000C947C008D02460542
:1000900011241FBECFEFD0E1DEBFCDBF88E483BF08
:1000A00084E00E941C0912BE87B7816087BF7894E4
:1000B00011E0A0E0B1E0E2E7F0E200E00BBF02C037
:1000C00007900D92A43FB107D9F712E0A4EFB1E079
:1000D00001C01D92AF3EB107E1F710E0C0E9D0E0EA
:1000E00004C02297FE010E943310CC38D107C9F713
:1000F0000E943B0D0C9437100C940000FC012481ED
:100100003581C9010895DC01FC01828193818097CA
:1001100014F080E00895FD0182819381019693831C
:10012000828384819581E80FF91F60870196FD0124
:10013000958384832D913C9111978217930714F432
:1001400081E00895FD011582148281E008951F92D7
:100150000F920FB60F920BB60F9211242F933F936D
:100160004F935F936F937F938F939F93AF93BF93BF
:10017000EF93FF93E0918A02F0918B02608182E419
:1001800092E00E948300FF91EF91BF91AF919F9108
:100190008F917F916F915F914F913F912F910F9030
:1001A0000BBE0F900FBE0F901F9018951F920F92CD
:1001B0000FB60F920BB60F9211242F933F934F93CC
:1001C0005F936F937F938F939F93AF93BF93EF93BF
:1001D000FF93E0913E02F0913F02608186EF91E053
:1001E0000E948300FF91EF91BF91AF919F918F91FA
:1001F0007F916F915F914F913F912F910F900BBE27
:100200000F900FBE0F901F901895DC01FC018281AA
:10021000938101979383828386819781E80FF91FE9
:1002200040850196FD01978386832D913C9182172D
:10023000930714F017821682842F08951F920F924D
:100240000FB60F920BB60F9211240F931F932F939B
:100250003F934F935F936F937F938F939F93AF934E
:10026000BF93EF93FF9380916C0290916D021816EB
:10027000190654F400918A0210918B028AE692E0EA
:100280000E940501F801808380916C0290916D02BB
:10029000892B31F4E0918802F091890288E980830A
:1002A000FF91EF91BF91AF919F918F917F916F914E
:1002B0005F914F913F912F911F910F910F900BBE26
:1002C0000F900FBE0F901F9018951F920F920FB6B0
:1002D0000F920BB60F9211240F931F932F933F93FE
:1002E0004F935F936F937F938F939F93AF93BF933E
:1002F000EF93FF9380912002909121021816190626
:1003000054F400913E0210913F028EE192E00E946F
:100310000501F80180838091200290912102892BB0
:1003200031F4E0913C02F0913D0288E98083FF9135
:10033000EF91BF91AF919F918F917F916F915F915D
:100340004F913F912F911F910F910F900BBE0F90E6
:100350000FBE0F901F901895DC01FC0182819381E4
:1003600001979383828386819781E80FF91F4085E7
:100370000196FD01978386832D913C918217930707
:1003800014F017821682842F0895FC0184819581D0
:10039000892B19F42FEF3FEF06C0CF0102960E9480
:1003A000AC01282F30E0C9010895CF93DF93EC0111
:1003B000EE81FF81E80FF91F8085DF91CF910895CD
:1003C000FC0184819581892B19F42FEF3FEF06C042
:1003D000CF0102960E94D501282F30E0C90108956F
:1003E000FC01138212828281938197838683958395
:1003F0008483089502960E94F0010895FC0180E232
:1004000090E091838083CF010E94F0010895DC0188
:10041000FC0182819381409714F080E00895FD01F2
:100420008281938101969383828384819581E80FF1
:10043000F91F60870196FD01958384832D913C917E
:1004400011978217930714F481E00895FD01158236
:10045000148281E00895CF93DF93EC018CA59DA5D4
:100460004097E4F7F894CE018A960E940702C85B91
:10047000DF4FE881F9818081806280837894DF9109
:10048000CF910895FC011382128282819381978318
:100490008683958384830895FC0180E190E09183B5
:1004A0008083CF010E94420208956F927F928F92C3
:1004B0009F92AF92BF92CF92DF92EF92FF920F93F3
:1004C0001F936C015B014A013901FC0185EC91E04D
:1004D00081939193CF010E94FE01C6018A960E94EA
:1004E0004C0282E490E0C80ED91EF601A192B192AE
:1004F000819291926192719201931193F182E082C3
:100500001F910F91FF90EF90DF90CF90BF90AF9031
:100510009F908F907F906F900895EF92FF920F932E
:100520001F9384EF91E060E970E049E250E02BE234
:1005300030E00AE210E0FCE2EF2EF12C0E945502BE
:1005400080E492E068E970E049E950E02BE930E0AE
:100550000AE910E0ECE9EE2EF12C0E9455021F9101
:100560000F91FF90EF9008950F931F93CF93DF9318
:10057000EB018A01CC0FDD1F57FD0CC0FE01E153DA
:10058000FE4F808161E00E949208C952DE4F88814F
:10059000B8010EC0FE01E153FE4F808160E00E9471
:1005A0009208C952DE4F66277727601B710B88813E
:1005B0000E94070ADF91CF911F910F9108951F9319
:1005C000CF93DF93C0E0D0E0FE01E153FE4F1081F6
:1005D000812F61E00E944908812F61E00E9492080A
:1005E000FE01E952FE4F808160E070E00E94070A40
:1005F0002296C830D10541F7DF91CF911F91089520
:10060000FC0110828AE090E0938382830895CF9367
:10061000DF93EC01882777FD8095982F0E94200FAB
:1006200020E030E044E353E40E94850E20E030E017
:1006300040EF51E40E94AC0F20E030E040E251E492
:100640000E94210E0E94F20ECB016A30710510F457
:100650008AE090E08932910510F088E290E09B8377
:100660008A83DF91CF910895E0919001E7FD15C055
:10067000FF27E7FDF095EE0FFF1FE457FD4F0190B8
:10068000F081E02D818160E00E94920806C02F5F1A
:1006900081919191892B69F00EC0209190012F5F7B
:1006A000E22FFF27E7FDF0952150EE0FFF1FE457E3
:1006B000FD4F273064F320939001E0919001FF27D4
:1006C000E7FDF095EE0FFF1FE457FD4F0190F0811D
:1006D000E02D309761F48FEF8093900124EF31E0AB
:1006E00080919D0290919E02281B390B12C081813E
:1006F00061E00E949208E0919001FF27E7FDF095EC
:10070000EE0FFF1FE457FD4F0190F081E02D228195
:10071000338183B5820F83BD80919D0290919E02AB
:10072000820F931F90939E0280939D02845F91405D
:1007300020F010929E0210929D0208950E943409AA
:1007400087B78F7787BF85E00E942F0989E064E330
:1007500073E00E94500983B58C5083BD87B78068D1
:1007600087BF10929E0210929D028FEF809390019E
:100770000895CF93DF93EC0180919C02893010F0B3
:1007800080E03DC06983862F61E00E944908E881CE
:10079000F0E0EE0FFF1FE457FD4F80819181C817F5
:1007A000D90761F140919C02442341F4ECE8F2E066
:1007B0001192119282E0EC39F807D1F7ECE8F2E0FF
:1007C00020E030E080819181892B61F4F901EE0F06
:1007D000FF1FE457FD4FD183C08328834F5F4093B1
:1007E0009C0206C02F5F3F4F32962830310551F7EB
:1007F00080919C02813011F40E949E0381E0DF9180
:10080000CF910895CF93DF93EC018A8160E00E943D
:1008100092088D8160E00E94C2088D8160E00E9494
:10082000E4088B8161E00E9492088C8161E00E9463
:1008300092080000000010C08C8160E00E949208C5
:1008400000000000000000008C8161E00E9492081E
:1008500000000000000000008D810E94D90887FD83
:10086000EBCF8C8160E00E949208DF91CF910895D8
:10087000FF920F931F938C01F62E0E940204F80141
:10088000828161E00E949208F801838160E00E9409
:100890009208F801848161E00E949208F801858144
:1008A00061E00E94C208F80185816F2D0E94E40872
:1008B0000000000000000000F801848160E00E9458
:1008C0009208F801858160E00E94C208F8018581E4
:1008D0006FEF0E94E4081F910F91FF900895EF922F
:1008E000FF920F931F93CF93DF937C01042F611529
:1008F000710551F0EB0110E005C0C70169910E943C
:1009000038041F5F1017C8F3DF91CF911F910F912B
:10091000FF90EF900895DF93CF930F92CDB7DEB79E
:100920006983BE016F5F7F4F41E00E946F040F90AB
:10093000CF91DF910895FF920F931F938C01F62EB4
:100940000E940204F801828160E00E949208F8018E
:10095000838160E00E949208F801848161E00E9436
:100960009208F801858161E00E94C208F801858142
:100970006F2D0E94E4080000000000000000F80154
:10098000848160E00E949208F801858160E00E9405
:10099000C208F80185816FEF0E94E4081F910F9152
:1009A000FF900895423031F0433031F0413029F466
:1009B000605C03C06C5E01C06C5A60680E949B045E
:1009C000089562E00E949B04089561E00E949B04E8
:1009D00008950F931F938C01FC01828160E00E94B7
:1009E0009208F801838160E00E949208F8018481F6
:1009F00060E00E949208F801828161E00E9449084B
:100A0000F801838161E00E944908F801848161E076
:100A10000E944908F801858160E00E94C208F8013F
:100A200085816FEF0E94E4081F910F9108950F9345
:100A30001F938C010E94E904C80168E30E949B0493
:100A4000C80161E00E949B04C80166E00E949B040B
:100A5000C8016CE00E949B04C80162E00E949B04F4
:100A6000C80160E80E949B041F910F9108950F93A5
:100A7000FC0183EE91E0918380836283438324832E
:100A80000583CF010E9417050F9108950F938FE9F9
:100A900092E06AE14BE12CE102E00E94370585EA31
:100AA00092E00E94DF0287EA92E00E9400038BEA54
:100AB00092E00E9400038FEA92E00E9400030F91EF
:100AC00008954F925F926F927F928F929F92AF9212
:100AD000BF92CF92DF92EF92FF920F931F93CF932B
:100AE000DF9380E00E94F8084C0181E00E94F80842
:100AF0005C0186E00E94F8083C0187E00E94F8084B
:100B00002C0181E30E947908882309F05AC062E32E
:100B100070E080E090E00E94230881E30E94790861
:100B2000882309F04EC085EA92E063E070E040E07F
:100B300050E00E94B40285EA92E062E070E040E09A
:100B400050E00E94B40238C086E00E94F8088C0190
:100B500087E00E94F8087C018FE992E00E94E5049A
:100B60008FE992E00E94E1048FE992E060E071E099
:100B70000E94540D8FE992E060E041E00E94D204AF
:100B80008FE992E067E071E00E94540D8FE992E0F6
:100B9000B8010E94180E8FE992E06BE071E00E94AC
:100BA000540D8FE992E0B7010E94180E62E370E0E5
:100BB00080E090E00E94230882E30E947908882365
:100BC00019F680919101909192018815990544F44C
:100BD0008A159B0574F41092B4021092B30224C0DB
:100BE0008816990664F48A159B054CF48FEF9FEFE5
:100BF00017C0A816B9061CF481E090E011C082303D
:100C0000910594F0A816B9067CF48091B3029091F6
:100C1000B40297FF03C08BEF9FEF02C085E090E026
:100C20009093B4028093B302C091B302D091B40206
:100C30008091B7029091B802C817D90791F09093AC
:100C4000B6028093B5028091BB029091BC02909352
:100C5000BA028093B90281E090E09093BC02809345
:100C6000BB026C9E80016D9E100D7C9E100D1124A8
:100C70001093C0020093BF02B201882777FD8095D0
:100C8000982F0E94200F6B017C018091B5029091FA
:100C9000B602C81BD90BBE01882777FD8095982F17
:100CA0000E94200F9B01AC01C701B6010E94AC0F4E
:100CB0006B017C016091B9027091BA022091BB0274
:100CC0003091BC02620F731F882777FD8095982FA3
:100CD0000E94200F9B01AC01C701B6010E94850E46
:100CE0000E94ED0E7093C2026093C1024091930185
:100CF00050919401040F151F060F171F1093C40283
:100D00000093C3022CEB32E0C901841B950B8017C2
:100D1000910724F43093C4022093C3028091C3024C
:100D20009091C402481B590B85EA92E063E070E0A1
:100D30000E94B4024091C3025091C4028091930179
:100D400090919401480F591F85EA92E062E070E0AB
:100D50000E94B4028091BD029091BE02C297F1F54B
:100D60008FE992E00E94E5048FE992E00E94E1049D
:100D70008FE992E060E171E00E94540D8FE992E00A
:100D8000B4010E94180E8FE992E064E171E00E94C4
:100D9000540D8FE992E0B5010E94180E8FE992E0A0
:100DA00060E041E00E94D2048FE992E067E071E0E8
:100DB0000E94540D8FE992E0B3010E94180E8FE952
:100DC00092E06BE071E00E94540D8FE992E0B20175
:100DD0000E94180E1092BE021092BD028091BD02B8
:100DE0009091BE0201969093BE028093BD028091C5
:100DF000BB029091BC0201969093BC028093BB020F
:100E00008091B3029091B4029093B8028093B7029C
:100E1000DF91CF911F910F91FF90EF90DF90CF90D6
:100E2000BF90AF909F908F907F906F905F904F900A
:100E300008950F931F930E94610505EA12E0409107
:100E4000930150919401C80163E070E00E94B402E4
:100E50004091930150919401C80162E070E00E94BA
:100E6000B40286E00E94F808909394018093930165
:100E70000FE912E0C80160E040E00E94D204C8011E
:100E800069E171E00E94540DC8016BE040E00E94EE
:100E9000D2046091930170919401C8010E94180ED0
:100EA00062E370E080E090E00E94230862E370E07B
:100EB00080E090E00E942308C8010E94E504C80178
:100EC0000E94E1041F910F91089587EA92E063E286
:100ED00070E00E94B9038BEA92E06FE170E00E943B
:100EE000B9038FEA92E062E270E00E94B9038BEAF4
:100EF00092E060EA70E00E94070326C08FE992E06A
:100F00000E94E5048FE992E00E94E1048FE992E0FB
:100F100060E040E00E94D2048FE992E06CE771E06B
:100F20000E94540D8FE992E060E041E00E94D204FB
:100F30008FE992E063E871E00E94540D62E370E093
:100F400080E090E00E94230882E30E9479088823D1
:100F5000A9F68FE992E00E94E50408951F920F928E
:100F60000FB60F9211242F933F938F939F93AF93BC
:100F7000BF938091C9029091CA02A091CB02B09117
:100F8000CC023091CD020196A11DB11D232F2D5F02
:100F90002D3720F02D570196A11DB11D2093CD02B4
:100FA0008093C9029093CA02A093CB02B093CC0263
:100FB0008091C5029091C602A091C702B091C8026B
:100FC0000196A11DB11D8093C5029093C602A09306
:100FD000C702B093C802BF91AF919F918F913F918B
:100FE0002F910F900FBE0F901F9018956FB7F89428
:100FF0002091C5023091C6024091C7025091C802AB
:1010000082B790E0A0E0B0E006B600FE09C08F3FD6
:101010009105A105B10521F02F5F3F4F4F4F5F4F65
:101020006FBF542F432F322F2227280F391F4A1FFB
:101030005B1F82E0220F331F441F551F8A95D1F793
:10104000B901CA010895EF92FF920F931F93CF93B6
:10105000DF937B018C010E94F607EB010EC00E941A
:10106000F6076C1B7D0B685E7340C8F30894E108BB
:10107000F10801091109C851DC4FE114F10401051F
:10108000110569F7DF91CF911F910F91FF90EF90BC
:101090000895E82FE695E695E695A82FB0E0613033
:1010A00099F42FB7F894F0E0EE0FFF1FED55FE4FC7
:1010B0000190F081E02D9081A770B070AB51BE4FD0
:1010C0008C91982B908313C02FB7F894F0E0EE0F1B
:1010D000FF1FED55FE4F0190F081E02D9081A7702C
:1010E000B070AB51BE4F8C918095892380832FBF08
:1010F0000895A82FE82FE695E695E695F0E0EE0F27
:10110000FF1FEF54FE4F0190F081E02DE081B0E031
:10111000A770B070AB51BE4F8C91E82309F0E1E0AD
:101120008E2F0895E82FE695E695E695A82FB0E076
:10113000613099F42FB7F894F0E0EE0FFF1FEB56F3
:10114000FE4F0190F081E02D9081A770B070AB51FF
:10115000BE4F8C91982B908313C02FB7F894F0E07A
:10116000EE0FFF1FEB56FE4F0190F081E02D9081B6
:10117000A770B070AB51BE4F8C918095892380834E
:101180002FBF0895E82FF0E0613051F4EE0FFF1FFC
:10119000ED55FE4F0190F081E02D8FEF8083089593
:1011A000EE0FFF1FED55FE4F0190F081E02D1082F4
:1011B0000895E82FF0E0EE0FFF1FEF54FE4F01906F
:1011C000F081E02D80810895E82FF0E0EE0FFF1F01
:1011D000EB56FE4F0190F081E02D60830895109250
:1011E00061001092620080E487B987EE86B90895A5
:1011F0001F93182F8091BF01813021F40E94EF08C6
:101200001092BF018091C001181721F4349A349BC9
:10121000FECF0DC01093C00187B11770807E812B67
:1012200087B9349A349BFECF349A349BFECF24B1D5
:1012300035B1C9011F91089593B7987F982B93BF3B
:1012400008959EB5987F982B9EBD089583E00E94D7
:1012500021091DBC1CBC87B7846087BF089595B564
:10126000987F982B95BD089582E00E942F0914BCA9
:1012700087B7806487BF0895EAE8F0E09081987F9F
:10128000982B9083089583E00E943C091092890076
:1012900010928800EDE7F0E08081846080830895FB
:1012A000803140F4E82FF0E0EE0FFF1FE153FD4FD7
:1012B000718360830895893031F48FB582608FBD6A
:1012C0008FB58E7F0AC08A3019F48FB5826002C054
:1012D0008FB58D7F8FBD8FB581608FBD1BBC1ABC54
:1012E00019BC18BC109279001092780008958FB53F
:1012F00080688FBD8FB58F7B8FBD08958FB580625D
:101300008FBD8FB58F7E8FBD08958FB588608FBDDF
:101310008FB58B7F8FBD08959BBD8ABD089599BD04
:1013200088BD08959093790080937800089589305E
:1013300049F480918B00826080938B0080918B00B8
:101340008E7F0EC08A3021F480918B00826003C0B2
:1013500080918B008D7F80938B0080918B008160CA
:1013600080938B0010928700109286001092850067
:101370001092840010928300109282000895EBE88E
:10138000F0E080818068808380818F7B80830895F6
:10139000EBE8F0E080818062808380818F7E8083B3
:1013A0000895EBE8F0E080818860808380818B7F06
:1013B00080830895853019F40E9477090895843058
:1013C00019F40E947E090895833019F40E9485095A
:1013D0000895823019F40E94BF090895813019F4EC
:1013E0000E94C8090895882311F40E94D109089524
:1013F0009093870080938600089590938500809352
:101400008400089590938300809382000895EF9262
:10141000FF921F93CF93DF93182F7B018D31B0F094
:101420008F3111F413E014C08E3111F414E010C0A8
:101430008D3109F49BC0853211F410E03DC0843237
:1014400011F411E039C0833219F48EC08330A0F159
:101450008091CE0286FD0BC00E94260978948AE016
:101460000E945B098091CE0280648093CE028091BD
:10147000CE02C12FD0E090E0012E02C09595879555
:101480000A94E2F780FD4CC087B3FE01E351FE4FA2
:101490009081892B87BB812F0E94DA092091CE028F
:1014A00081E090E0012E02C0880F991F0A94E2F7B4
:1014B000282B2093CE0234C08091CE0287FD0BC032
:1014C0000E94430978948AE00E9497098091CE0295
:1014D00080688093CE028091CE02C12FD0E090E050
:1014E000012E02C0959587950A94E2F780FD24C0ED
:1014F00082B1FE01E351FE4F9081892B82B9812F89
:101500000E94DA092091CE0281E090E0012E02C013
:10151000880F991F0A94E2F7282B2093CE020CC063
:10152000153021F4C7010E948C0922C0143021F427
:10153000C7010E948F091CC0133021F4C7010E940B
:10154000920916C0123021F4C7010E94F80910C098
:10155000113021F4C7010E94FD090AC0112341F492
:10156000C7010E94020A04C012E0A6CF15E070CFA6
:10157000DF91CF911F91FF90EF9008951F920F92EE
:101580000FB60F920BB60F9211242F933F934F93E8
:101590005F936F937F938F939F93AF93BF93EF93DB
:1015A000FF938091D5029091D602892B29F0E0918A
:1015B000D502F091D6020995FF91EF91BF91AF91BD
:1015C0009F918F917F916F915F914F913F912F915B
:1015D0000F900BBE0F900FBE0F901F9018951F928B
:1015E0000F920FB60F920BB60F9211242F933F93C9
:1015F0004F935F936F937F938F939F93AF93BF931B
:10160000EF93FF938091DF029091E002892B29F004
:10161000E091DF02F091E0020995FF91EF91BF9117
:10162000AF919F918F917F916F915F914F913F917A
:101630002F910F900BBE0F900FBE0F901F9018951B
:101640001F920F920FB60F920BB60F9211242F9389
:101650003F934F935F936F937F938F939F93AF933A
:10166000BF93EF93FF938091E5029091E602892B5F
:1016700029F0E091E502F091E6020995FF91EF91E2
:10168000BF91AF919F918F917F916F915F914F919A
:101690003F912F910F900BBE0F900FBE0F901F9098
:1016A00018951F920F920FB60F920BB60F9211243E
:1016B0002F933F934F935F936F937F938F939F935A
:1016C000AF93BF93EF93FF938091D1029091D20299
:1016D000892B29F0E091D102F091D2020995FF9176
:1016E000EF91BF91AF919F918F917F916F915F919A
:1016F0004F913F912F910F900BBE0F900FBE0F9007
:101700001F9018951F920F920FB60F920BB60F9263
:1017100011242F933F934F935F936F937F938F93F6
:101720009F93AF93BF93EF93FF938091D7029091D4
:10173000D802892B29F0E091D702F091D8020995BF
:10174000FF91EF91BF91AF919F918F917F916F9199
:101750005F914F913F912F910F900BBE0F900FBE55
:101760000F901F9018951F920F920FB60F920BB605
:101770000F9211242F933F934F935F936F937F9317
:101780008F939F93AF93BF93EF93FF938091D90271
:101790009091DA02892B29F0E091D902F091DA02D6
:1017A0000995FF91EF91BF91AF919F918F917F919B
:1017B0006F915F914F913F912F910F900BBE0F90C2
:1017C0000FBE0F901F9018951F920F920FB60F9299
:1017D0000BB60F9211242F933F934F935F936F9308
:1017E0007F938F939F93AF93BF93EF93FF938091DA
:1017F000DB029091DC02892B29F0E091DB02F09171
:10180000DC020995FF91EF91BF91AF919F918F916C
:101810007F916F915F914F913F912F910F900BBEF0
:101820000F900FBE0F901F9018951F920F920FB63A
:101830000F920BB60F9211242F933F934F935F9308
:101840006F937F938F939F93AF93BF93EF93FF9388
:101850008091DD029091DE02892B29F0E091DD027A
:10186000F091DE020995FF91EF91BF91AF919F91A9
:101870008F917F916F915F914F913F912F910F9039
:101880000BBE0F900FBE0F901F9018951F920F92D6
:101890000FB60F920BB60F9211242F933F934F93D5
:1018A0005F936F937F938F939F93AF93BF93EF93C8
:1018B000FF938091E1029091E202892B29F0E0915F
:1018C000E102F091E2020995FF91EF91BF91AF9192
:1018D0009F918F917F916F915F914F913F912F9148
:1018E0000F900BBE0F900FBE0F901F9018951F9278
:1018F0000F920FB60F920BB60F9211242F933F93B6
:101900004F935F936F937F938F939F93AF93BF9307
:10191000EF93FF938091E7029091E802892B29F0E1
:10192000E091E702F091E8020995FF91EF91BF91F4
:10193000AF919F918F917F916F915F914F913F9167
:101940002F910F900BBE0F900FBE0F901F90189508
:101950001F920F920FB60F920BB60F9211242F9376
:101960003F934F935F936F937F938F939F93AF9327
:10197000BF93EF93FF938091E9029091EA02892B44
:1019800029F0E091E902F091EA020995FF91EF91C7
:10199000BF91AF919F918F917F916F915F914F9187
:1019A0003F912F910F900BBE0F900FBE0F901F9085
:1019B00018951F920F920FB60F920BB60F9211242B
:1019C0002F933F934F935F936F937F938F939F9347
:1019D000AF93BF93EF93FF938091EB029091EC0252
:1019E000892B29F0E091EB02F091EC020995FF912F
:1019F000EF91BF91AF919F918F917F916F915F9187
:101A00004F913F912F910F900BBE0F900FBE0F90F3
:101A10001F9018951F920F920FB60F920BB60F9250
:101A200011242F933F934F935F936F937F938F93E3
:101A30009F93AF93BF93EF93FF938091ED029091AB
:101A4000EE02892B29F0E091ED02F091EE0209956A
:101A5000FF91EF91BF91AF919F918F917F916F9186
:101A60005F914F913F912F910F900BBE0F900FBE42
:101A70000F901F90189583E061E00E94C20884E0F7
:101A800061E00E94C20878940E9465070E941907CD
:101A9000FDCFDC01ED91FC910190F081E02D0995E5
:101AA00008950E94490D08950F931F93CF93DF93DC
:101AB0008C01EB0104C02196C8010E94510D688180
:101AC0006623C9F7DF91CF911F910F9108952F924F
:101AD0003F924F925F926F927F928F929F92AF92BE
:101AE000BF92CF92DF92EF92FF920F931F93DF93FB
:101AF000CF93CDB7DEB7A0970FB6F894DEBF0FBE79
:101B0000CDBF1C016A017B014115510561057105BD
:101B100021F460E30E94510D4FC0882499245401A0
:101B2000422E55246624772401E010E00C0F1D1F7F
:101B3000080D191DC701B601A30192010E940F10E3
:101B4000F80160830894811C911CA11CB11CC70181
:101B5000B601A30192010E940F10C901DA016C01C4
:101B60007D01C114D104E104F104F1F681E0E82E15
:101B7000F12CEC0EFD1EE80CF91C3E010894611CD2
:101B8000711CD501C4010197A109B1096C01C818E4
:101B9000D9080FC0F601EE0DFF1D60816A3010F408
:101BA000605D01C0695CC1010E94510D0894E108AB
:101BB000F1086E147F0471F7A0960FB6F894DEBF9B
:101BC0000FBECDBFCF91DF911F910F91FF90EF908E
:101BD000DF90CF90BF90AF909F908F907F906F904D
:101BE0005F904F903F902F900895EF92FF920F9348
:101BF0001F93CF93DF93EC017A018B0177FF0BC02A
:101C00006DE20E94510D10950095F094E094E11C56
:101C1000F11C011D111DCE01B801A7012AE00E948F
:101C2000670DDF91CF911F910F91FF90EF90089575
:101C3000AB01662757FD6095762F0E94F50D08953C
:101C40005058BB27AA270ED04DC13ED130F043D10A
:101C500020F031F49F3F11F41EF433C10EF4E095EF
:101C6000E7FB29C1E92F4FD180F3BA176207730749
:101C70008407950718F071F49EF567C10EF4E0959E
:101C80000B2EBA2FA02D0B01B90190010C01CA0136
:101C9000A0011124FF27591B99F0593F50F4503EE1
:101CA00068F11A16F040A22F232F342F4427585FD3
:101CB000F3CF469537952795A795F0405395C9F7EB
:101CC0007EF41F16BA0B620B730B840BBAF09150A3
:101CD000A1F0FF0FBB1F661F771F881FC2F70EC042
:101CE000BA0F621F731F841F48F487957795679515
:101CF000B795F7959E3F08F0B3CF9395880F08F0FE
:101D00009927EE0F9795879508950CD0EBC0E3D0F7
:101D100040F0DAD030F021F45F3F19F0CCC051111F
:101D200015C1CFC0F0D098F39923C9F35523B1F36F
:101D3000951B550BBB27AA2762177307840738F03A
:101D40009F5F5F4F220F331F441FAA1FA9F333D099
:101D50000E2E3AF0E0E830D091505040E695001C4D
:101D6000CAF729D0FE2F27D0660F771F881FBB1F09
:101D7000261737074807AB07B0E809F0BB0B802DE3
:101D8000BF01FF2793585F4F2AF09E3F510568F02F
:101D900092C0DCC05F3FECF3983EDCF3869577950C
:101DA0006795B795F7959F5FC9F7880F911D969531
:101DB000879597F90895E1E0660F771F881FBB1F8D
:101DC000621773078407BA0720F0621B730B840B3A
:101DD000BA0BEE1F88F7E095089504D06894B1110E
:101DE000B5C0089598D088F09F5790F0B92F9927E3
:101DF000B751A0F0D1F0660F771F881F991F1AF016
:101E0000BA95C9F712C0B13081F09FD0B1E0089502
:101E10009CC0672F782F8827B85F39F0B93FCCF383
:101E2000869577956795B395D9F73EF4909580950B
:101E3000709561957F4F8F4F9F4F0895E89409C02B
:101E400097FB3EF490958095709561957F4F8F4FED
:101E50009F4F9923A9F0F92F96E9BB279395F69503
:101E6000879577956795B795F111F8CFFAF4BB0F81
:101E700011F460FF1BC06F5F7F4F8F4F9F4F16C0E5
:101E8000882311F096E911C0772321F09EE8872F6F
:101E9000762F05C0662371F096E8862F70E060E02B
:101EA0002AF09A95660F771F881FDAF7880F9695A4
:101EB000879597F9089597F99F6780E870E060E04B
:101EC00008959FEF80EC089500240A9416161706D3
:101ED00018060906089500240A941216130614061B
:101EE00005060895092E0394000C11F4882352F07E
:101EF000BB0F40F4BF2B11F460FF04C06F5F7F4F36
:101F00008F4F9F4F089557FD9058440F551F59F01C
:101F10005F3F71F04795880F97FB991F61F09F3FD6
:101F200079F087950895121613061406551FF2CFFF
:101F30004695F1DF08C0161617061806991FF1CF4F
:101F400086957105610508940895E894BB27662776
:101F50007727CB0197F908950BD0C4CFB5DF28F0D0
:101F6000BADF18F0952309F0A6CFABCF1124EECF3E
:101F7000CADFA0F3959FD1F3950F50E0551F629FE4
:101F8000F001729FBB27F00DB11D639FAA27F00DD2
:101F9000B11DAA1F649F6627B00DA11D661F829FF9
:101FA0002227B00DA11D621F739FB00DA11D621FDE
:101FB000839FA00D611D221F749F3327A00D611DFB
:101FC000231F849F600D211D822F762F6A2F1124DD
:101FD0009F5750408AF0E1F088234AF0EE0FFF1F30
:101FE000BB1F661F771F881F91505040A9F79E3F67
:101FF000510570F060CFAACF5F3FECF3983EDCF361
:10200000869577956795B795F795E7959F5FC1F7A3
:10201000FE2B880F911D9695879597F90895A1E25B
:102020001A2EAA1BBB1BFD010DC0AA1FBB1FEE1F52
:10203000FF1FA217B307E407F50720F0A21BB30B9D
:10204000E40BF50B661F771F881F991F1A9469F719
:1020500060957095809590959B01AC01BD01CF0175
:102060000895EE0FFF1F0590F491E02D0994F89468
:02207000FFCFA0
:10207200504155534544004B703A00204B643A009E
:102082004C3A200020523A2000526F6C6C696E6705
:1020920020617400496E69742D436F6E7374616EB2
:1020A20074730050726573732053746172740043C9
:1020B20068616E676520436F6E7374616E7473003E
:1020C2004E616D653A200056616C75653A20004F8D
:1020D200626A656374204465746563746564210093
:1020E2005363616E6E696E672E2E2E00486F7764A1
:1020F20079210050726573732053746172742100E8
:10210200FFC800C201320035003B003800230062E4
:10211200006500310034003A00370022006100649B
:102122000030003300390036002100200063000136
:10213200FF000000002B027E00E001C501FA011839
:10214200001900260027000500040001000000001D
:102152000000008B040102040810204080201008B7
:042162008040200099
:00000001FF
