:100000000C9448000C947C000C947C000C947C00B4
:100010000C947C000C947C000C947C000C947C0070
:100020000C947C000C94160A0C94BF080C94E509FF
:100030000C9452090C9483090C948E080C94210999
:100040000C9496050C947C000C94D6000C946501DD
:100050000C947C000C947C000C947C000C947C0030
:100060000C94B4090C94DA0A0C94470A0C94780A9C
:100070000C94A90A0C94F0080C94A7000C941E018F
:100080000C947C000C947C000C947C008D02210468
:1000900011241FBECFEFD0E1DEBFCDBF88E483BF08
:1000A00084E00E94040712BE87B7816087BF7894FE
:1000B00011E0A0E0B1E0ECE8F9E100E00BBF02C024
:1000C00007900D92A43DB107D9F712E0A4EDB1E07D
:1000D00001C01D92AA3AB107E1F710E0C0E9D0E0F3
:1000E00004C02297FE010E94C00CCC38D107C9F78A
:1000F0000E940B0B0C94C40C0C940000FC01248196
:100100003581C9010895DC01FC01828193818097CA
:1001100014F080E00895FD0182819381019693831C
:10012000828384819581E80FF91F60870196FD0124
:10013000958384832D913C9111978217930714F432
:1001400081E00895FD011582148281E008951F92D7
:100150000F920FB60F920BB60F9211242F933F936D
:100160004F935F936F937F938F939F93AF93BF93BF
:10017000EF93FF93E0916A02F0916B02608182E25B
:1001800092E00E948300FF91EF91BF91AF919F9108
:100190008F917F916F915F914F913F912F910F9030
:1001A0000BBE0F900FBE0F901F9018951F920F92CD
:1001B0000FB60F920BB60F9211242F933F934F93CC
:1001C0005F936F937F938F939F93AF93BF93EF93BF
:1001D000FF93E0911E02F0911F02608186ED91E095
:1001E0000E948300FF91EF91BF91AF919F918F91FA
:1001F0007F916F915F914F913F912F910F900BBE27
:100200000F900FBE0F901F901895DC01FC018281AA
:10021000938101979383828386819781E80FF91FE9
:1002200040850196FD01978386832D913C9182172D
:10023000930714F017821682842F08951F920F924D
:100240000FB60F920BB60F9211240F931F932F939B
:100250003F934F935F936F937F938F939F93AF934E
:10026000BF93EF93FF9380914C0290914D0218162B
:10027000190654F400916A0210916B028AE492E02C
:100280000E940501F801808380914C0290914D02FB
:10029000892B31F4E0916802F091690288E980834A
:1002A000FF91EF91BF91AF919F918F917F916F914E
:1002B0005F914F913F912F911F910F910F900BBE26
:1002C0000F900FBE0F901F9018951F920F920FB6B0
:1002D0000F920BB60F9211240F931F932F933F93FE
:1002E0004F935F936F937F938F939F93AF93BF933E
:1002F000EF93FF9380910002909101021816190666
:1003000054F400911E0210911F028EEF91E00E94A2
:100310000501F80180838091000290910102892BF0
:1003200031F4E0911C02F0911D0288E98083FF9175
:10033000EF91BF91AF919F918F917F916F915F915D
:100340004F913F912F911F910F910F900BBE0F90E6
:100350000FBE0F901F901895DC01FC0182819381E4
:1003600001979383828386819781E80FF91F4085E7
:100370000196FD01978386832D913C918217930707
:1003800014F017821682842F0895FC0184819581D0
:10039000892B19F42FEF3FEF06C0CF0102960E9480
:1003A000AC01282F30E0C9010895CF93DF93EC0111
:1003B000EE81FF81E80FF91F8085DF91CF910895CD
:1003C000FC0184819581892B19F42FEF3FEF06C042
:1003D000CF0102960E94D501282F30E0C90108956F
:1003E000FC01138212828281938197838683958395
:1003F0008483089502960E94F0010895FC0180E232
:1004000090E091838083CF010E94F0010895DC0188
:10041000FC0182819381409714F080E00895FD01F2
:100420008281938101969383828384819581E80FF1
:10043000F91F60870196FD01958384832D913C917E
:1004400011978217930714F481E00895FD01158236
:10045000148281E00895CF93DF93EC018CA59DA5D4
:100460004097E4F7F894CE018A960E940702C85B91
:10047000DF4FE881F9818081806280837894DF9109
:10048000CF910895FC011382128282819381978318
:100490008683958384830895FC0180E190E09183B5
:1004A0008083CF010E94420208956F927F928F92C3
:1004B0009F92AF92BF92CF92DF92EF92FF920F93F3
:1004C0001F936C015B014A013901FC0186EA91E04E
:1004D00081939193CF010E94FE01C6018A960E94EA
:1004E0004C0282E490E0C80ED91EF601A192B192AE
:1004F000819291926192719201931193F182E082C3
:100500001F910F91FF90EF90DF90CF90BF90AF9031
:100510009F908F907F906F900895EF92FF920F932E
:100520001F9384ED91E060E970E049E250E02BE236
:1005300030E00AE210E0FCE2EF2EF12C0E945502BE
:1005400080E292E068E970E049E950E02BE930E0B0
:100550000AE910E0ECE9EE2EF12C0E9455021F9101
:100560000F91FF90EF9008951F93CF93DF93C0E01A
:10057000D0E0FE01E055FE4F1081812F61E00E9426
:100580003106812F61E00E947A06FE01E854FE4F99
:10059000808160E070E00E94D7072296C830D105C4
:1005A00041F7DF91CF911F910895FC0110828AE0FD
:1005B00090E0938382830895CF93DF93EC018A8147
:1005C00060E00E947A068D8160E00E94AA068D811B
:1005D00060E00E94CC068B8161E00E947A068C81EB
:1005E00061E00E947A060000000010C08C8160E08B
:1005F0000E947A0600000000000000008C8161E08B
:100600000E947A0600000000000000008D810E9418
:10061000C10687FDEBCF8C8160E00E947A06DF91F6
:10062000CF910895FF920F931F938C01F62E0E9495
:10063000DC02F801828161E00E947A06F801838180
:1006400060E00E947A06F801848161E00E947A06E7
:10065000F801858161E00E94AA06F80185816F2D6D
:100660000E94CC060000000000000000F801848118
:1006700060E00E947A06F801858160E00E94AA0687
:10068000F80185816FEF0E94CC061F910F91FF90BA
:100690000895EF92FF920F931F93CF93DF937C0106
:1006A000042F6115710551F0EB0110E005C0C70181
:1006B00069910E9412031F5F1017C8F3DF91CF9159
:1006C0001F910F91FF90EF900895DF93CF930F92BA
:1006D000CDB7DEB76983BE016F5F7F4F41E00E94F7
:1006E00049030F90CF91DF910895FF920F931F93CD
:1006F0008C01F62E0E94DC02F801828160E00E94EB
:100700007A06F801838160E00E947A06F80184810C
:1007100061E00E947A06F801858161E00E94AA06E4
:10072000F80185816F2D0E94CC06000000000000BA
:100730000000F801848160E00E947A06F80185815A
:1007400060E00E94AA06F80185816FEF0E94CC0646
:100750001F910F91FF900895423031F0433031F0F6
:10076000413029F4605C03C06C5E01C06C5A606863
:100770000E947503089562E00E947503089561E088
:100780000E94750308950F931F938C01FC018281D1
:1007900060E00E947A06F801838160E00E947A0698
:1007A000F801848160E00E947A06F801828161E0AC
:1007B0000E943106F801838161E00E943106F80150
:1007C000848161E00E943106F801858160E00E9429
:1007D000AA06F80185816FEF0E94CC061F910F9148
:1007E00008950F931F938C010E94C303C80168E30F
:1007F0000E947503C80161E00E947503C80166E0AC
:100800000E947503C8016CE00E947503C80162E094
:100810000E947503C80160E80E9475031F910F9143
:1008200008950F93FC0184EC91E0918380836283AF
:10083000438324830583CF010E94F1030F91089520
:1008400008950F938CE692E06AE14BE12CE102E01F
:100850000E94110482E792E00E94B40284E792E0D1
:100860000E94D50288E792E00E94D5028CE792E0D0
:100870000E94D5020F91089581E30E9461068823AA
:1008800011F080E0089564EF71E080E090E00E9454
:100890000B0681E0089582E30E946106882311F02F
:1008A00080E0089564EF71E080E090E00E940B0624
:1008B00081E008950F931F930CE612E0C8010E9497
:1008C000BF03C8010E94BB031F910F910895CF93EE
:1008D000DF93EC0186E00E94E0062197C89FB001FB
:1008E000C99F700DD89F700D11242196882777FD20
:1008F0008095982F0E94CF0B2DEC3CEC4CE85FE3E9
:100900000E945B0C20E030E040E85AE30E945B0C60
:1009100020E030E040E85FE30E94380B0E949C0B2F
:100920009B01C617D7070CF49E01C901DF91CF9137
:10093000089550C00E945A048CE692E060E040E0C6
:100940000E94AC038CE692E060E071E00E94240B10
:1009500083E090E00E9467048230910539F1833092
:10096000910581F1019781F58CE692E060E041E02C
:100970000E94AC038CE692E06EE071E00E94240BD2
:100980000E944B04882369F41FC08CE692E060E06B
:1009900040E00E94AC038CE692E063E171E00E94CB
:1009A000240B0E943C04882381F30EC08CE692E065
:1009B00060E041E00E94AC038CE692E06BE171E004
:1009C0000E94240B0E944B0468EC70E080E090E0F1
:1009D0000E940B060E943C04882309F4ABCF0895C3
:1009E0000E945A048CE692E060E040E00E94AC0372
:1009F0008CE692E062E271E00E94240B84E090E0D9
:100A00000E9467048230910511F18330910524F42E
:100A1000019709F084C007C083309105D9F104978C
:100A200009F07DC05AC08CE692E060E041E00E948F
:100A3000AC038CE692E06BE271E00E94240B0E9412
:100A40004B04882309F46BC00E94990468C08CE6AB
:100A500092E060E041E00E94AC038CE692E067E344
:100A600071E00E94240B0E944B04882369F457C054
:100A70008CE692E060E040E00E94AC038CE692E0FD
:100A800061E471E00E94240B81E30E9461068823E7
:100A900079F745C08CE692E060E041E00E94AC034B
:100AA0008CE692E06DE471E00E94240B0E944B04FE
:100AB000882369F434C08CE692E060E040E00E9454
:100AC000AC038CE692E066E571E00E94240B81E3C2
:100AD0000E946106882379F722C08CE692E060E0EC
:100AE00041E00E94AC038CE692E063E671E00E9474
:100AF000240B0E944B04882369F411C08CE692E019
:100B000060E040E00E94AC038CE692E06BE671E0AE
:100B10000E94240B81E30E946106882379F768EC28
:100B200070E080E090E00E940B0608951F920F9203
:100B30000FB60F9211242F933F938F939F93AF93F0
:100B4000BF938091840290918502A0918602B0911A
:100B50008702309188020196A11DB11D232F2D5FC0
:100B60002D3720F02D570196A11DB11D209388022D
:100B70008093840290938502A0938602B0938702AB
:100B80008091800290918102A0918202B0918302B3
:100B90000196A11DB11D8093800290938102A093C4
:100BA0008202B0938302BF91AF919F918F913F9149
:100BB0002F910F900FBE0F901F9018956FB7F8945C
:100BC00020918002309181024091820250918302F3
:100BD00082B790E0A0E0B0E006B600FE09C08F3F0B
:100BE0009105A105B10521F02F5F3F4F4F4F5F4F9A
:100BF0006FBF542F432F322F2227280F391F4A1F30
:100C00005B1F82E0220F331F441F551F8A95D1F7C7
:100C1000B901CA010895EF92FF920F931F93CF93EA
:100C2000DF937B018C010E94DE05EB010EC00E9468
:100C3000DE056C1B7D0B685E7340C8F30894E10809
:100C4000F10801091109C851DC4FE114F104010553
:100C5000110569F7DF91CF911F910F91FF90EF90F0
:100C60000895E82FE695E695E695A82FB0E0613067
:100C700099F42FB7F894F0E0EE0FFF1FEC57FE4FFA
:100C80000190F081E02D9081A770B070AA53BE4F03
:100C90008C91982B908313C02FB7F894F0E0EE0F4F
:100CA000FF1FEC57FE4F0190F081E02D9081A7705F
:100CB000B070AA53BE4F8C918095892380832FBF3B
:100CC0000895A82FE82FE695E695E695F0E0EE0F5B
:100CD000FF1FEE56FE4F0190F081E02DE081B0E065
:100CE000A770B070AA53BE4F8C91E82309F0E1E0E1
:100CF0008E2F0895E82FE695E695E695A82FB0E0AB
:100D0000613099F42FB7F894F0E0EE0FFF1FEA5826
:100D1000FE4F0190F081E02D9081A770B070AA5332
:100D2000BE4F8C91982B908313C02FB7F894F0E0AE
:100D3000EE0FFF1FEA58FE4F0190F081E02D9081E9
:100D4000A770B070AA53BE4F8C9180958923808381
:100D50002FBF0895E82FF0E0613051F4EE0FFF1F30
:100D6000EC57FE4F0190F081E02D8FEF80830895C6
:100D7000EE0FFF1FEC57FE4F0190F081E02D108227
:100D80000895E82FF0E0EE0FFF1FEE56FE4F0190A2
:100D9000F081E02D80810895E82FF0E0EE0FFF1F35
:100DA000EA58FE4F0190F081E02D60830895109283
:100DB00061001092620080E487B987EE86B90895D9
:100DC0001F93182F8091A001813021F40E94D70633
:100DD0001092A0018091A101181721F4349A349B3C
:100DE000FECF0DC01093A10187B11770807E812BBB
:100DF00087B9349A349BFECF349A349BFECF24B10A
:100E000035B1C9011F91089593B7987F982B93BF6F
:100E100008959EB5987F982B9EBD089583E00E940B
:100E200009071DBC1CBC87B7846087BF0895EAE82A
:100E3000F0E09081987F982B9083089583E00E9442
:100E400017071092890010928800EDE7F0E080818A
:100E5000846080830895893031F48FB582608FBDBE
:100E60008FB58E7F0AC08A3019F48FB5826002C0B8
:100E70008FB58D7F8FBD8FB581608FBD1BBC1ABCB8
:100E800019BC18BC109279001092780008958FB5A3
:100E900080688FBD8FB58F7B8FBD08958FB58062C1
:100EA0008FBD8FB58F7E8FBD08958FB588608FBD44
:100EB0008FB58B7F8FBD08959BBD8ABD089599BD69
:100EC00088BD0895909379008093780008958930C3
:100ED00049F480918B00826080938B0080918B001D
:100EE0008E7F0EC08A3021F480918B00826003C017
:100EF00080918B008D7F80938B0080918B0081602F
:100F000080938B00109287001092860010928500CB
:100F10001092840010928300109282000895EBE8F2
:100F2000F0E080818068808380818F7B808308955A
:100F3000EBE8F0E080818062808380818F7E808317
:100F40000895EBE8F0E080818860808380818B7F6A
:100F500080830895853019F40E94470708958430EE
:100F600019F40E944E070895833019F40E94550722
:100F70000895823019F40E948F070895813019F482
:100F80000E9498070895882311F40E94A1070895EC
:100F900090938700809386000895909385008093B6
:100FA0008400089590938300809382000895EF92C7
:100FB000FF921F93CF93DF93182F7B018D31B0F0F9
:100FC0008F3111F413E014C08E3111F414E010C00D
:100FD0008D3109F49BC0853211F410E03DC084329C
:100FE00011F411E039C0833219F48EC08330A0F1BE
:100FF0008091890286FD0BC00E940E0778948AE0DA
:101000000E942B07809189028064809389028091DD
:101010008902C12FD0E090E0012E02C095958795FE
:101020000A94E2F780FD4CC087B3FE01E253FE4F05
:101030009081892B87BB812F0E94AA07209189026A
:1010400081E090E0012E02C0880F991F0A94E2F718
:10105000282B2093890234C08091890287FD0BC020
:101060000E941E0778948AE00E9467078091890297
:1010700080688093890280918902C12FD0E090E03E
:10108000012E02C0959587950A94E2F780FD24C051
:1010900082B1FE01E253FE4F9081892B82B9812FEC
:1010A0000E94AA072091890281E090E0012E02C0EF
:1010B000880F991F0A94E2F7282B209389020CC00D
:1010C000153021F4C7010E945C0722C0143021F4BE
:1010D000C7010E945F071CC0133021F4C7010E94A2
:1010E000620716C0123021F4C7010E94C80710C061
:1010F000113021F4C7010E94CD070AC0112341F429
:10110000C7010E94D20704C012E0A6CF15E070CF3D
:10111000DF91CF911F91FF90EF9008951F920F9252
:101120000FB60F920BB60F9211242F933F934F934C
:101130005F936F937F938F939F93AF93BF93EF933F
:10114000FF938091900290919102892B29F0E09178
:101150009002F09191020995FF91EF91BF91AF91AB
:101160009F918F917F916F915F914F913F912F91BF
:101170000F900BBE0F900FBE0F901F9018951F92EF
:101180000F920FB60F920BB60F9211242F933F932D
:101190004F935F936F937F938F939F93AF93BF937F
:1011A000EF93FF9380919A0290919B02892B29F0F3
:1011B000E0919A02F0919B020995FF91EF91BF9106
:1011C000AF919F918F917F916F915F914F913F91DF
:1011D0002F910F900BBE0F900FBE0F901F90189580
:1011E0001F920F920FB60F920BB60F9211242F93EE
:1011F0003F934F935F936F937F938F939F93AF939F
:10120000BF93EF93FF938091A0029091A102892B4D
:1012100029F0E091A002F091A1020995FF91EF91D0
:10122000BF91AF919F918F917F916F915F914F91FE
:101230003F912F910F900BBE0F900FBE0F901F90FC
:1012400018951F920F920FB60F920BB60F921124A2
:101250002F933F934F935F936F937F938F939F93BE
:10126000AF93BF93EF93FF9380918C0290918D0287
:10127000892B29F0E0918C02F0918D020995FF9164
:10128000EF91BF91AF919F918F917F916F915F91FE
:101290004F913F912F910F900BBE0F900FBE0F906B
:1012A0001F9018951F920F920FB60F920BB60F92C8
:1012B00011242F933F934F935F936F937F938F935B
:1012C0009F93AF93BF93EF93FF938091920290917E
:1012D0009302892B29F0E0919202F09193020995F3
:1012E000FF91EF91BF91AF919F918F917F916F91FE
:1012F0005F914F913F912F910F900BBE0F900FBEBA
:101300000F901F9018951F920F920FB60F920BB669
:101310000F9211242F933F934F935F936F937F937B
:101320008F939F93AF93BF93EF93FF93809194021A
:1013300090919502892B29F0E0919402F091950209
:101340000995FF91EF91BF91AF919F918F917F91FF
:101350006F915F914F913F912F910F900BBE0F9026
:101360000FBE0F901F9018951F920F920FB60F92FD
:101370000BB60F9211242F933F934F935F936F936C
:101380007F938F939F93AF93BF93EF93FF9380913E
:10139000960290919702892B29F0E0919602F091A4
:1013A00097020995FF91EF91BF91AF919F918F9116
:1013B0007F916F915F914F913F912F910F900BBE55
:1013C0000F900FBE0F901F9018951F920F920FB69F
:1013D0000F920BB60F9211242F933F934F935F936D
:1013E0006F937F938F939F93AF93BF93EF93FF93ED
:1013F0008091980290919902892B29F0E0919802AE
:10140000F09199020995FF91EF91BF91AF919F9152
:101410008F917F916F915F914F913F912F910F909D
:101420000BBE0F900FBE0F901F9018951F920F923A
:101430000FB60F920BB60F9211242F933F934F9339
:101440005F936F937F938F939F93AF93BF93EF932C
:10145000FF9380919C0290919D02892B29F0E0914D
:101460009C02F0919D020995FF91EF91BF91AF9180
:101470009F918F917F916F915F914F913F912F91AC
:101480000F900BBE0F900FBE0F901F9018951F92DC
:101490000F920FB60F920BB60F9211242F933F931A
:1014A0004F935F936F937F938F939F93AF93BF936C
:1014B000EF93FF938091A2029091A302892B29F0D0
:1014C000E091A202F091A3020995FF91EF91BF91E3
:1014D000AF919F918F917F916F915F914F913F91CC
:1014E0002F910F900BBE0F900FBE0F901F9018956D
:1014F0001F920F920FB60F920BB60F9211242F93DB
:101500003F934F935F936F937F938F939F93AF938B
:10151000BF93EF93FF938091A4029091A502892B32
:1015200029F0E091A402F091A5020995FF91EF91B5
:10153000BF91AF919F918F917F916F915F914F91EB
:101540003F912F910F900BBE0F900FBE0F901F90E9
:1015500018951F920F920FB60F920BB60F9211248F
:101560002F933F934F935F936F937F938F939F93AB
:10157000AF93BF93EF93FF938091A6029091A70240
:10158000892B29F0E091A602F091A7020995FF911D
:10159000EF91BF91AF919F918F917F916F915F91EB
:1015A0004F913F912F910F900BBE0F900FBE0F9058
:1015B0001F9018951F920F920FB60F920BB60F92B5
:1015C00011242F933F934F935F936F937F938F9348
:1015D0009F93AF93BF93EF93FF938091A802909155
:1015E000A902892B29F0E091A802F091A90209959E
:1015F000FF91EF91BF91AF919F918F917F916F91EB
:101600005F914F913F912F910F900BBE0F900FBEA6
:101610000F901F90189583E061E00E94AA0684E075
:1016200061E00E94AA0678940E9420040E94F004BF
:10163000FDCFDC01ED91FC910190F081E02D099549
:1016400008950E94190B08950F931F93CF93DF9372
:101650008C01EB0104C02196C8010E94210B688116
:101660006623C9F7DF91CF911F910F9108955058CC
:10167000BB27AA270ED0E5C0D6D030F0DBD020F0B3
:1016800031F49F3F11F41EF4CBC00EF4E095E7FB5C
:10169000C1C0E92FE7D080F3BA1762077307840748
:1016A000950718F071F49EF5FFC00EF4E0950B2E2F
:1016B000BA2FA02D0B01B90190010C01CA01A001A4
:1016C0001124FF27591B99F0593F50F4503E68F1FF
:1016D0001A16F040A22F232F342F4427585FF3CF40
:1016E000469537952795A795F0405395C9F77EF411
:1016F0001F16BA0B620B730B840BBAF09150A1F05A
:10170000FF0FBB1F661F771F881FC2F70EC0BA0FDF
:10171000621F731F841F48F4879577956795B79567
:10172000F7959E3F08F0B3CF9395880F08F099275F
:10173000EE0F97958795089504D06894B111B5C0C0
:10174000089598D088F09F5790F0B92F9927B751F6
:10175000A0F0D1F0660F771F881F991F1AF0BA9575
:10176000C9F712C0B13081F09FD0B1E008959CC09C
:10177000672F782F8827B85F39F0B93FCCF386956B
:1017800077956795B395D9F73EF4909580957095C8
:1017900061957F4F8F4F9F4F0895E89409C097FB45
:1017A0003EF490958095709561957F4F8F4F9F4F38
:1017B0009923A9F0F92F96E9BB279395F69587957C
:1017C00077956795B795F111F8CFFAF4BB0F11F43F
:1017D00060FF1BC06F5F7F4F8F4F9F4F16C08823E6
:1017E00011F096E911C0772321F09EE8872F762F1C
:1017F00005C0662371F096E8862F70E060E02AF05D
:101800009A95660F771F881FDAF7880F9695879548
:1018100097F9089597F99F6780E870E060E0089570
:101820009FEF80EC089500240A94161617061806F8
:101830000906089500240A941216130614060506D4
:101840000895092E0394000C11F4882352F0BB0F65
:1018500040F4BF2B11F460FF04C06F5F7F4F8F4FC8
:101860009F4F089557FD9058440F551F59F05F3F03
:1018700071F04795880F97FB991F61F09F3F79F0B2
:1018800087950895121613061406551FF2CF469534
:10189000F1DF08C0161617061806991FF1CF8695B6
:1018A0007105610508940895E894BB27662777279A
:1018B000CB0197F908950BD0C4CFB5DF28F0BADF7C
:1018C00018F0952309F0A6CFABCF1124EECFCADFD5
:1018D000A0F3959FD1F3950F50E0551F629FF00143
:1018E000729FBB27F00DB11D639FAA27F00DB11D9C
:1018F000AA1F649F6627B00DA11D661F829F222725
:10190000B00DA11D621F739FB00DA11D621F839FAB
:10191000A00D611D221F749F3327A00D611D231F81
:10192000849F600D211D822F762F6A2F11249F57CF
:1019300050408AF0E1F088234AF0EE0FFF1FBB1FF2
:10194000661F771F881F91505040A9F79E3F510591
:1019500070F060CFAACF5F3FECF3983EDCF3869542
:1019600077956795B795F795E7959F5FC1F7FE2B3C
:10197000880F911D9695879597F90895EE0FFF1F93
:0C1980000590F491E02D0994F894FFCF3D
:10198C00546170652D466F6C6C6F773A200044651E
:10199C006D6F0044454D4F494E470053656E736F54
:1019AC00720053656C6563743A2000546170652D48
:1019BC00466F6C6C6F770049522D466F6C6C6F776D
:1019CC0000464F4C4C4F57494E4749520041727498
:1019DC00696661637400434F4C4C41525449464113
:1019EC0043540052554E2D414C4C0052554E4E49CD
:1019FC004E47414C4C00320035003B003800230070
:101A0C0062006500310034003A00370022006100AA
:101A1C0064003000330039003600210020006300E0
:101A2C0001FF000000002B027E00E001C501FA015D
:101A3C001800190026002700050004000100000012
:101A4C0000000000650301020408102040802010F3
:041A5C00088040209E
:00000001FF
