:100000000C9448000C947C000C947C000C947C00B4
:100010000C947C000C947C000C947C000C947C0070
:100020000C947C000C9493150C943C140C94621565
:100030000C94CF140C9400150C940B140C949E1477
:100040000C94FB100C947C000C94D8000C94680168
:100050000C947C000C947C000C947C000C947C0030
:100060000C9431150C9457160C94C4150C94F5157A
:100070000C9426160C946D140C94A9000C94220177
:100080000C947C000C947C000C947C00B3028A05D8
:1000900011241FBECFEFD0E1DEBFCDBF88E483BF08
:1000A00084E00E94691212BE87B7816087BF78948E
:1000B00012E0A0E0B1E0E4E8F3E300E00BBF02C02F
:1000C00007900D92A43FB107D9F713E0A4EFB2E077
:1000D00001C01D92AA3EB107E1F710E0C0E9D0E0EF
:1000E00004C02297FE010E94A719CC38D107C9F796
:1000F0000E9488160C94C0190C940000FC01268103
:100100003781C90108951F93CF93DF93EC01162F18
:10011000E881F9810190F081E02D0995809710F038
:1001200080E013C08C819D8101969D838C838E819C
:100130009F81FE01E80FF91F128701969F838E832E
:10014000809714F01F821E8281E0DF91CF911F9172
:1001500008951F920F920FB60F920BB60F921124B3
:100160002F933F934F935F936F937F938F939F93BF
:10017000AF93BF93EF93FF93E0919203F0919303BA
:10018000608186E493E00E948300FF91EF91BF912C
:10019000AF919F918F917F916F915F914F913F911F
:1001A0002F910F900BBE0F900FBE0F901F901895C0
:1001B0001F920F920FB60F920BB60F9211242F932E
:1001C0003F934F935F936F937F938F939F93AF93DF
:1001D000BF93EF93FF93E0914203F091430360815B
:1001E00086EF92E00E948300FF91EF91BF91AF9163
:1001F0009F918F917F916F915F914F913F912F913F
:100200000F900BBE0F900FBE0F901F901895FC0122
:1002100024813581C9010895DC01FC018481958127
:1002200001979583848380859185E80FF91F228546
:100230000196FD0191878087409714F01186108602
:10024000822F08951F920F920FB60F920BB60F9246
:1002500011240F931F932F933F934F935F936F93AB
:100260007F938F939F93AF93BF93EF93FF9380916F
:10027000740390917503892B51F0009192031091B2
:10028000930380E793E00E940C01F8018083809142
:10029000740390917503892B31F4E0919003F091F0
:1002A000910388E98083FF91EF91BF91AF919F9176
:1002B0008F917F916F915F914F913F912F911F91FE
:1002C0000F910F900BBE0F900FBE0F901F901895BF
:1002D0001F920F920FB60F920BB60F9211240F932D
:1002E0001F932F933F934F935F936F937F938F93BE
:1002F0009F93AF93BF93EF93FF93809124039091CB
:100300002503892B51F0009142031091430380E2B1
:1003100093E00E940C01F801808380912403909166
:100320002503892B31F4E0914003F091410388E9E2
:100330008083FF91EF91BF91AF919F918F917F91BA
:100340006F915F914F913F912F911F910F910F905E
:100350000BBE0F900FBE0F901F901895FC012481CB
:100360003581C9010895DC01FC01848195810197E3
:100370009583848380859185E80FF91F22850196F6
:10038000FD0191878087809714F011861086822F57
:100390000895FC0186819781892B19F42FEF3FEF97
:1003A00006C0CF0102960E94B301282F30E0C90198
:1003B0000895CF93DF93EC01E885F985E80FF91FE5
:1003C0008285DF91CF910895FC0186819781892BE9
:1003D00019F42FEF3FEF06C0CF0102960E94D9011A
:1003E000282F30E0C9010895FC0115821482848110
:1003F00095819187808797838683089502960E94CE
:10040000F4010895FC018FEB92E09183808380E2F8
:1004100090E093838283CF010E94F40108951F939B
:10042000CF93DF93EC01162FE881F9810190F081E1
:10043000E02D0995409710F080E013C08C819D81DC
:1004400001969D838C838E819F81FE01E80FF91FA9
:10045000128701969F838E83409714F01F821E821D
:1004600081E0DF91CF911F910895CF93DF93EC014D
:1004700088A999A94097E0F7F894CE018C960E943C
:100480000F02C45BDF4FE881F98180818062808345
:100490007894DF91CF910895FC01158214828481B4
:1004A000958191878087978386830895FC0189ECE5
:1004B00092E09183808380E190E093838283CF01F7
:1004C0000E944C0208956F927F928F929F92AF92FA
:1004D000BF92CF92DF92EF92FF920F931F936C0126
:1004E0005B014A013901FC0181EB92E08193919318
:1004F000CF010E940202C6018C960E94560286E439
:1005000090E0C80ED91EF601A192B192819291920B
:100510006192719201931193F182E0821F910F9188
:10052000FF90EF90DF90CF90BF90AF909F908F9013
:100530007F906F900895665F7F4F680F791FCB01A2
:100540000895665F7F4F680F791FCB010895665F3E
:100550007F4F680F791FCB010895665F7F4F680F4B
:10056000791FCB010895EF92FF920F931F9384EFB1
:1005700092E060E970E049E250E02BE230E00AE20C
:1005800010E0FCE2EF2EF12C0E94630284E493E081
:1005900068E970E049E950E02BE930E00AE910E051
:1005A000ECE9EE2EF12C0E9463021F910F91FF9057
:1005B000EF90089585E060E070E00E94541384E0BD
:1005C00060E070E00E94541381E060E070E00E94FF
:1005D000541380E060E070E00E94541308950F937C
:1005E0001F93CF93DF93EB018A01CC0FDD1F57FDE3
:1005F0000CC0FE01E153FD4F808161E00E94DF11DC
:10060000C952DD4F8881B8010EC0FE01E153FD4F94
:10061000808160E00E94DF11C952DD4F6627772795
:10062000601B710B88810E945413DF91CF911F9141
:100630000F9108951F93CF93DF93C0E0D0E0FE01A8
:10064000E153FD4F1081812F61E00E949611812FAF
:1006500061E00E94DF11FE01E952FD4F808160E000
:1006600070E00E9454132296C830D10541F7DF9103
:10067000CF911F910895FC0110828AE090E093834E
:1006800082830895CF93DF93EC01882777FD8095CF
:10069000982F0E946D1820E030E044E353E40E945C
:1006A000D21720E030E040EF51E40E94F91820E03A
:1006B00030E040E251E40E946E170E943F18CB01E7
:1006C0006A30710510F48AE090E08932910510F0EB
:1006D00088E290E09B838A83DF91CF910895E09137
:1006E0008002E7FD15C0FF27E7FDF095EE0FFF1F25
:1006F000EC56FC4F0190F081E02D818160E00E947A
:10070000DF1106C02F5F81919191892B69F00EC096
:10071000209180022F5FE22FFF27E7FDF095215007
:10072000EE0FFF1FEC56FC4F273064F3209380023E
:10073000E0918002FF27E7FDF095EE0FFF1FEC56DA
:10074000FC4F0190F081E02D309761F48FEF8093A2
:10075000800224EF31E08091A5039091A603281B2D
:10076000390B12C0818161E00E94DF11E0918002AB
:10077000FF27E7FDF095EE0FFF1FEC56FC4F0190B1
:10078000F081E02D2281338183B5820F83BD80917A
:10079000A5039091A603820F931F9093A6038093C5
:1007A000A503845F914020F01092A6031092A50348
:1007B00008950E94811287B78F7787BF85E00E94D6
:1007C0007C1289E06FE673E00E949D1283B58C5025
:1007D00083BD87B7806887BF1092A6031092A503D8
:1007E0008FEF809380020895CF93DF93EC01809187
:1007F000A403893010F080E03DC06983862F61E05A
:100800000E949611E881F0E0EE0FFF1FEC56FC4FBE
:1008100080819181C817D90761F14091A4034423D5
:1008200041F4E4E9F3E01192119283E0E43AF8072D
:10083000D1F7E4E9F3E020E030E080819181892B79
:1008400061F4F901EE0FFF1FEC56FC4FD183C0831A
:1008500028834F5F4093A40306C02F5F3F4F32961B
:100860002830310551F78091A403813011F40E94A2
:10087000D90381E0DF91CF910895CF93DF93EC010D
:100880008A8160E00E94DF118D8160E00E940F127A
:100890008D8160E00E9431128B8161E00E94DF1146
:1008A0008C8161E00E94DF110000000010C08C818B
:1008B00060E00E94DF1100000000000000008C8159
:1008C00061E00E94DF1100000000000000008D8147
:1008D0000E94261287FDEBCF8C8160E00E94DF1121
:1008E000DF91CF910895FF920F931F938C01F62E05
:1008F0000E943D04F801828161E00E94DF11F8014D
:10090000838160E00E94DF11F801848161E00E9430
:10091000DF11F801858161E00E940F12F8018581E5
:100920006F2D0E9431120000000000000000F8014D
:10093000848160E00E94DF11F801858160E00E94FF
:100940000F12F80185816FEF0E9431121F910F91F4
:10095000FF900895EF92FF920F931F93CF93DF9331
:100960007C01042F6115710551F0EB0110E005C009
:10097000C70169910E9473041F5F1017C8F3DF91CC
:10098000CF911F910F91FF90EF900895DF93CF9338
:100990000F92CDB7DEB76983BE016F5F7F4F41E035
:1009A0000E94AA040F90CF91DF910895FF920F93B8
:1009B0001F938C01F62E0E943D04F801828160E0B5
:1009C0000E94DF11F801838160E00E94DF11F801CD
:1009D000848161E00E94DF11F801858161E00E945D
:1009E0000F12F80185816F2D0E9431120000000066
:1009F00000000000F801848160E00E94DF11F8012E
:100A0000858160E00E940F12F80185816FEF0E94DE
:100A100031121F910F91FF900895423031F0433011
:100A200031F0413029F4605C03C06C5E01C06C5A47
:100A300060680E94D604089562E00E94D60408957A
:100A400061E00E94D60408950F931F938C01FC016E
:100A5000828160E00E94DF11F801838160E00E94E2
:100A6000DF11F801848160E00E94DF11F8018281CA
:100A700061E00E949611F801838161E00E94961165
:100A8000F801848161E00E949611F801858160E09F
:100A90000E940F12F80185816FEF0E9431121F91A1
:100AA0000F9108950F931F938C010E942405C80194
:100AB00068E30E94D604C80161E00E94D604C80120
:100AC00066E00E94D604C8016CE00E94D604C8010A
:100AD00062E00E94D604C80160E80E94D6041F911B
:100AE0000F9108950F93FC0183EE92E09183808330
:100AF0006283438324830583CF010E9452050F91B3
:100B00000895CB01642F0E94B3190895CB010E9470
:100B1000AB1908950F9388EA93E06AE14BE12CE169
:100B200002E00E9472058EEA93E00E941A0380EBB5
:100B300093E00E943B0384EB93E00E943B0388EB2D
:100B400093E00E943B030F910895CF93DF93EC0154
:100B500087E00E9445122197C89FB001C99F700D80
:100B6000D89F700D11242196882777FD8095982FA6
:100B70000E946D182DEC3CEC4CE85FE30E94F918E4
:100B800020E030E040E85AE30E94F91820E030E02D
:100B900040E85FE30E946E170E943A189B01C61757
:100BA000D7070CF49E01C901DF91CF9108950F93EF
:100BB0001F938C0186E00E94451220E08017910768
:100BC0000CF421E0822F1F910F9108950F931F9332
:100BD00008EA13E0C8010E942005C8010E941C0514
:100BE0001F910F910895EF92FF920F931F937C0135
:100BF00008EA13E0C80160E041E00E940D05C80169
:100C0000B7010E94A1161F910F91FF90EF900895D8
:100C1000EF92FF920F931F937C0108EA13E0C80143
:100C200060E040E00E940D05C801B7010E94A116D6
:100C30001F910F91FF90EF900895EF92FF920F9305
:100C40001F937C010E94E60508EA13E0C80160E0FA
:100C500040E00E940D05C801B7010E94A116C8011D
:100C600060E041E00E940D05C80160E071E00E9473
:100C7000A1166091BC037091BD03C8010E94651765
:100C8000C80163E071E00E94A1166091BE037091FB
:100C9000BF03C8010E9465171F910F91FF90EF904D
:100CA0000895EF92FF920F931F937C0108EA13E0DF
:100CB000C80160E041E00E940D05C80167E071E0F5
:100CC0000E94A116C801B7010E9465171F910F91DC
:100CD000FF90EF900895AF92BF92CF92DF92EF9284
:100CE000FF920F931F93CF93DF9387EA93E068E01F
:100CF00070E00E948605A82EBB24AA0CBB1CAA0C7F
:100D0000BB1C87EA93E069E070E00E948605E82E4C
:100D1000FF24EE0CFF1CEE0CFF1C87EA93E06AE058
:100D200070E00E948605C82EDD24CC0CDD1CCC0CA6
:100D3000DD1C87EA93E06BE070E00E948605082FD7
:100D400010E0000F111F000F111F87EA93E06CE005
:100D500070E00E948605C82FD0E0CC0FDD1FCC0FBD
:100D6000DD1F8EEA93E00E94DA0288EA93E060E0F9
:100D700040E00E940D0588EA93E06FE071E00E9478
:100D8000A116CE010E94D7058823D9F30E94E6055B
:100D900088EA93E060E040E00E940D0588EA93E075
:100DA0006CE171E00E94A116E5010CC084EB93E0B8
:100DB000BE010E9442036FE070E080E090E00E947C
:100DC00070112196CE15DF058CF3E6010CC088EB7F
:100DD00093E0BE010E9442036AE070E080E090E090
:100DE0000E9470112196C017D1078CF380EB93E01D
:100DF00064EB70E00E94420368EE73E080E090E0F4
:100E00000E94701180EB93E060E070E00E9442036A
:100E100064EF71E080E090E00E94701188EB93E055
:100E2000B6010E94420364EF71E080E090E00E940E
:100E3000701184EB93E0B5010E94420364EF71E00E
:100E400080E090E00E9470110E94E60588EA93E03D
:100E500060E040E00E940D0588EA93E06AE271E0FC
:100E60000E94A116DF91CF911F910F91FF90EF90FB
:100E7000DF90CF90BF90AF9008950F931F9307EA34
:100E800013E0C80161E070E04EE30E948105C801F3
:100E900062E070E046E00E948105C80163E070E016
:100EA0004BE40E948105C80164E070E049E10E94C2
:100EB0008105C80165E070E04EE30E948105C8012C
:100EC00066E070E046E00E948105C80167E070E0DE
:100ED00044E60E948105C80168E070E044E00E9499
:100EE00081051F910F91089581E30E94C611882307
:100EF00011F080E008956CE271E080E090E00E94E3
:100F0000701181E008952F923F924F925F926F92FD
:100F10007F928F929F92AF92BF92CF92DF92EF9289
:100F2000FF920F931F93DF93CF93CDB7DEB72F9729
:100F30000FB6F894DEBF0FBECDBF87EA93E061E045
:100F400070E00E948605282F30E0220F331F220F09
:100F5000331F3F832E8387EA93E062E070E00E94B4
:100F60008605A82FB0E0AA0FBB1FAA0FBB1FBD8329
:100F7000AC8387EA93E063E070E00E948605E82F87
:100F8000F0E0EE0FFF1FEE0FFF1FFB83EA8387EAFF
:100F900093E064E070E00E948605A82EBB24AA0CB2
:100FA000BB1CAA0CBB1CCC24DD241B861A8600E0CB
:100FB00010E01986188622243324442455241982EB
:100FC0008C819D81AA2797FDA095BA2F8C879D873C
:100FD000AE87BF8739C180E00E9445123C0181E0A5
:100FE0000E9445124C01A614B70434F4A816B906A1
:100FF0006CF4CC24DD2421C06A147B04F4F4A8161C
:10100000B9065CF4CC24CA94DC2C17C08A159B0565
:10101000A4F4E1E0CE2ED12C10C08A159B056CF40F
:10102000D7FE05C07BEFC72E7FEFD72E06C0CD2899
:1010300009F40FC165E0C62ED12CC016D10639F0D7
:101040001B870A873986288651E0252E312C6C852E
:101050007D858E859F850E946D187B018C01B60170
:10106000AA85BB856A1B7B0B882777FD8095982F07
:101070000E946D189B01AC01C801B7010E94F918CC
:101080007B018C0168857985620D731D882777FD4A
:101090008095982F0E946D189B01AC01C801B70183
:1010A0000E94D2170E943A187B018C01EE81FF81C9
:1010B000CE9EC001CF9E900DDE9E900D1124E80EB5
:1010C000F91E4A815B814E195F098EEA93E063E065
:1010D00070E00E94EF022A813B81E20EF31E8EEA4D
:1010E00093E062E070E0A7010E94EF0232E3431652
:1010F000510409F046C083E00E94451280359105F5
:1011000014F481E0898388EA93E00E94200588EA4C
:1011100093E00E941C0588EA93E06FE271E00E9470
:10112000A11688EA93E0B3010E94651788EA93E06C
:1011300063E371E00E94A11688EA93E0B4010E9483
:10114000651788EA93E060E041E00E940D0588EAB7
:1011500093E068E371E00E94A11688EA93E06E8153
:101160007F810E94651788EA93E06CE371E00E943A
:10117000A11688EA93E06C817D810E946517442462
:1011800055249981992309F458C08EEA93E00E946E
:10119000DA0200E110E084EB93E0B8010E94420320
:1011A0006FE070E080E090E00E9470110F5F1F4FD1
:1011B0000436110581F700E010E088EB93E0B801F8
:1011C0000E9442036AE070E080E090E00E947011AB
:1011D0000F5F1F4F0639110581F780EB93E064EB39
:1011E00070E00E94420368EE73E080E090E00E94AD
:1011F000701180EB93E060E070E00E94420364EFC6
:1012000071E080E090E00E94701188EB93E060E074
:1012100070E00E94420364EF71E080E090E00E9481
:10122000701184EB93E060E170E00E94420364EF90
:1012300071E080E090E00E9470110894411C511C04
:101240000894211C311C86010E947407882309F42C
:10125000C2CE8EEA93E00E94DA022F960FB6F8947F
:10126000DEBF0FBECDBFCF91DF911F910F91FF90D9
:10127000EF90DF90CF90BF90AF909F908F907F9036
:101280006F905F904F903F902F9008950F931F9312
:1012900020C084E00E94451285E00E9445128C0126
:1012A0000E94E60588EA93E060E041E00E940D05B7
:1012B00088EA93E061E471E00E94A11688EA93E075
:1012C000B8010E94651768EC70E080E090E00E9431
:1012D00070110E9474078823E1F21F910F91089505
:1012E0004F925F926F927F928F929F92AF92BF9236
:1012F000CF92DF92EF92FF920F931F93CF93DF93E2
:1013000087EA93E061E070E00E948605882E9924C8
:10131000880C991C880C991C87EA93E062E070E0C5
:101320000E948605A82EBB24AA0CBB1CAA0CBB1CC1
:1013300087EA93E063E070E00E948605C82EDD2412
:10134000CC0CDD1CCC0CDD1C00E010E0C0E0D0E0DB
:1013500081C080E00E9445123C0181E00E9445125C
:101360002C017301E81AF90A8DE2E81681E0F8060B
:1013700024F08CE2E82E81E0F82EC701801B910B4F
:101380008A9D80018B9D100D9A9D100D1124E89C63
:10139000C001E99C900DF89C900D1124080F191FB5
:1013A000A601401B510B8EEA93E063E070E00E94BF
:1013B000EF020C0D1D1D8EEA93E062E070E0A801C3
:1013C0000E94EF02C233D10509F042C088EA93E0DF
:1013D0000E94200588EA93E00E941C0588EA93E0B9
:1013E00060E040E00E940D0588EA93E064E471E06B
:1013F0000E94A11688EA93E0B3010E94651788EA6B
:1014000093E067E471E00E94A11688EA93E0B201DC
:101410000E94651788EA93E060E041E00E940D05B4
:1014200088EA93E068E371E00E94A11688EA93E0FD
:10143000B4010E94651788EA93E06CE371E00E94B2
:10144000A11688EA93E0B5010E946517C0E0D0E0DC
:10145000219687010E947407882309F47ACF8EEAC7
:1014600093E00E94DA02DF91CF911F910F91FF90DC
:10147000EF90DF90CF90BF90AF909F908F907F9034
:101480006F905F904F9008952F923F924F925F928E
:101490006F927F928F929F92AF92BF92CF92DF9284
:1014A000EF92FF920F931F93DF93CF93CDB7DEB7E9
:1014B0002E970FB6F894DEBF0FBECDBF87EA93E03C
:1014C00061E070E00E948605282F30E0220F331F74
:1014D000220F331F3C832B8387EA93E062E070E0A6
:1014E0000E948605482F50E0440F551F440F551F9A
:1014F0005A83498387EA93E063E070E00E9486059F
:10150000282E3324220C331C220C331C87EA93E050
:1015100064E070E00E948605C82EDD24CC0CDD1C42
:10152000CC0CDD1C1E861D8618861F8200E010E094
:101530001E821D82662477248824992489819A81B9
:10154000AA2797FDA095BA2F89879A87AB87BC8772
:10155000DBC084E00E9445122C0185E00E94451208
:101560005C01C414D50434F4C816D90664F41E868C
:101570001D8625C04C145D0414F5C816D9065CF40C
:10158000AFEFBFEF1AC08C159D05CCF4E1E0F0E0A1
:10159000FE87ED8714C08C159D058CF42D853E8546
:1015A00037FF05C04BEF5FEF5E874D8708C08D8525
:1015B0009E85892B21F0A5E0B0E0BE87AD87ED8543
:1015C000FE85E017F10739F018870F837E826D8260
:1015D00041E0642E712C69857A858B859C850E94FB
:1015E0006D187B018C016D857E852F813885621B8E
:1015F000730B882777FD8095982F0E946D189B01AB
:10160000AC01C801B7010E94F9187B018C016D8102
:101610007E81660D771D882777FD8095982F0E9423
:101620006D189B01AC01C801B7010E94D2170E943E
:101630003A187B018C014D855E85AB81BC814A9F48
:10164000C0014B9F900D5A9F900D1124E80EF91E7A
:10165000A701420D531D8EEA93E063E070E00E9403
:10166000EF02A1014E195F098EEA93E062E070E09B
:101670000E94EF02B2E38B169104F1F588EA93E041
:101680000E94200588EA93E00E941C0588EA93E006
:101690006FE271E00E94A11688EA93E0B2010E9415
:1016A000651788EA93E063E371E00E94A11688EA77
:1016B00093E0B5010E94651788EA93E060E041E09D
:1016C0000E940D0588EA93E068E371E00E94A1168C
:1016D00088EA93E06B817C810E94651788EA93E039
:1016E0006CE371E00E94A11688EA93E069817A8137
:1016F0000E946517882499240894811C911C0894E1
:10170000611C711C0D851E850E947407882309F4D5
:1017100020CF8EEA93E00E94DA022E960FB6F8945C
:10172000DEBF0FBECDBFCF91DF911F910F91FF9014
:10173000EF90DF90CF90BF90AF909F908F907F9071
:101740006F905F904F903F902F9008950E94740784
:101750008823E1F308950F931F93CF93DF9363C022
:1017600086E00E9445128C010F5F1140000F111F8F
:1017700087E00E9445128F5F9140880F991FA80152
:101780002CEF0130120714F441E05CEF8A0124E0F1
:101790004030520714F00FEF13E0AC018CEF4130F2
:1017A000580714F441E05CEFEA0124E040305207AE
:1017B00014F0CFEFD3E08EEA93E063E070E0A8018D
:1017C0000E94EF028EEA93E062E070E0AE010E94B8
:1017D000EF020E94E60588EA93E060E040E00E94A4
:1017E0000D0588EA93E06BE471E00E94A11688EA97
:1017F00093E0B8010E94651788EA93E060E041E059
:101800000E940D0588EA93E060E571E00E94A11650
:1018100088EA93E0BE010E94651762E370E080E011
:1018200090E00E9470110E947407882309F498CFF9
:101830008EEA93E00E94DA02DF91CF911F910F911F
:1018400008952F923F924F925F926F927F928F9264
:101850009F92AF92BF92CF92DF92EF92FF920F933F
:101860001F938CC080E00E9445125C0181E00E94C1
:1018700045127C0182E00E9445121C0183E00E9417
:1018800045123C010E94E60588EA93E060E040E0F2
:101890000E940D0588EA93E065E571E00E94A116BB
:1018A00088EA93E068E571E00E94A1160027F7FC42
:1018B0000095102FC801B7010E946D180E943A18B8
:1018C0009B01AC0188EA93E0B9010E94651788EAA0
:1018D00093E06CE571E00E94A116CC24B7FCC094A3
:1018E000DC2CC601B5010E946D180E943A189B01BC
:1018F000AC0188EA93E0B9010E94651788EA93E099
:1019000060E041E00E940D0588EA93E060E671E046
:101910000E94A11688EA93E068E571E00E94A11692
:10192000882477FC8094982CC401B3010E946D1820
:101930000E943A189B01AC0188EA93E0B9010E9429
:10194000651788EA93E06CE571E00E94A1164424D3
:1019500037FC4094542CC201B1010E946D180E94C2
:101960003A189B01AC0188EA93E0B9010E9465171F
:1019700068EC70E080E090E00E9470110E947407B3
:10198000882309F46FCF1F910F91FF90EF90DF90A4
:10199000CF90BF90AF909F908F907F906F905F900F
:1019A0004F903F902F9008952F923F924F925F92C9
:1019B0006F927F928F929F92AF92BF92CF92DF925F
:1019C000EF92FF920F931F93CF93DF9387EA93E0F9
:1019D00065E070E00E948605482E5524440C551C95
:1019E000440C551C87EA93E066E070E00E9486058F
:1019F000682E7724660C771C660C771C87EA93E0C8
:101A000067E070E00E948605882E9924880C991C56
:101A1000880C991C22243324AA24BB2497C080E07C
:101A20000E9445127C0181E00E944512082FD92EA8
:101A300082E00E944512EC0183E00E944512AC0155
:101A4000CE018E0D9F1D815D97401CF467017E01C4
:101A500005C0202F3D2DC9016C017A01E601CE1988
:101A6000DF09C93CD1051CF0C8ECD0E006C08FEFFF
:101A7000C833D80714F4C8E3DFEFCE018219930905
:101A8000869D8001879D100D969D100D1124C49D8B
:101A9000C001C59D900DD49D900D1124080F191FF4
:101AA000A801480D591D8EEA93E063E070E00E94A2
:101AB000EF02A401401B510B8EEA93E062E070E05C
:101AC0000E94EF0222E3A216B104E1F588EA93E056
:101AD0000E94200588EA93E00E941C0588EA93E0B2
:101AE0006FE271E00E94A11688EA93E0B6010E94BD
:101AF000651788EA93E063E371E00E94A11688EA23
:101B000093E0B7010E94651788EA93E060E041E046
:101B10000E940D0588EA93E068E371E00E94A11637
:101B200088EA93E0B2010E94651788EA93E06CE3CB
:101B300071E00E94A11688EA93E0B3010E94651744
:101B4000AA24BB240894A11CB11C1E010E94740786
:101B5000882309F464CF8EEA93E00E94DA02DF91D1
:101B6000CF911F910F91FF90EF90DF90CF90BF909A
:101B7000AF909F908F907F906F905F904F903F902D
:101B80002F9008950F931F931DC086E00E94451269
:101B90008C010E94E60588EA93E060E040E00E9444
:101BA0000D0588EA93E06FE671E00E94A11688EACD
:101BB00093E0B8010E94651768EC70E080E090E067
:101BC0000E9470110E9474078823F9F21F910F91EF
:101BD000089582E30E94C611882311F080E00895E1
:101BE0006CE271E080E090E00E94701181E0089565
:101BF0001CC00E94E60582E991E00E94080681E08F
:101C000090E00E94A505019751F48AE991E00E94B5
:101C1000F3050E94E90D882311F00E94A60B68ECE1
:101C200070E080E090E00E9470110E9474078823A9
:101C300001F308956F927F928F929F92AF92BF921D
:101C4000CF92DF92EF92FF920F931F93CF93DF9388
:101C50006C013B01EA0187EA93E0B6010E94860528
:101C600090E0880F991F880F991F9093BD03809370
:101C7000BC0388EA93E0B3010E94A11687EA93E0CF
:101C8000B6010E94860590E0880F991F880F991F62
:101C90000E9451060E94E90D882309F04FC058C0E8
:101CA00087E00E944512AA2797FDA095BA2FBC0194
:101CB000CD010E946D1820E030E04AE754E40E9414
:101CC000D2177B018C01C501B4010E946D189B01E4
:101CD000AC01C801B7010E94F9180E943A1870932C
:101CE000BF036093BE03C617D70724F4D093BF0386
:101CF000C093BE03C3010E941D060E94E90D882304
:101D0000B1F08091BE039091BF0364E070E00E9447
:101D10005C19462F87EA93E0B6010E948105809105
:101D2000BE039091BF039093BD038093BC0368EC06
:101D300070E080E090E00E94701105C04E01AA247E
:101D400097FCA094BA2C0E947407882309F4A8CFAA
:101D5000DF91CF911F910F91FF90EF90DF90CF9087
:101D6000BF90AF909F908F907F906F90089536C0F6
:101D70000E94E60589EA91E00E94080684E090E06E
:101D80000E94A5058230910589F0833091051CF4ED
:101D90000197F1F406C08330910569F00497C1F40E
:101DA0000FC081E090E06FEA71E00EC082E090E049
:101DB00063EB71E009C083E090E067EB71E004C081
:101DC00084E090E06DEB71E048EE53E00E941A0E63
:101DD00068EC70E080E090E00E9470110E9474074F
:101DE000882331F208952AC00E94E60589EA91E02D
:101DF0000E94080683E090E00E94A50582309105CC
:101E000051F08330910561F0019791F485E090E005
:101E10006FEA71E009C086E090E063EB71E004C016
:101E200087E090E067EB71E048EE53E00E941A0E05
:101E300068EC70E080E090E00E9470110E947407EE
:101E4000882391F2089540C00E94E60589EA91E056
:101E50000E94080685E090E00E94A5058330910568
:101E6000C9F08430910534F48130910549F002972E
:101E700029F50BC08430910591F00597F9F416C04F
:101E800088E090E064EC71E00EC089E090E06CECDA
:101E900071E009C08AE090E064ED71E004C08BE07D
:101EA00090E06CED71E044EB50E006C08CE090E017
:101EB0006DEB71E048EE53E00E941A0E68EC70E0A2
:101EC00080E090E00E9470110E947407882309F45A
:101ED000BBCF08954AC00E94E60582EE91E00E94C1
:101EE000080684E090E00E94A50582309105B9F0D3
:101EF000833091051CF4019791F506C0833091055C
:101F0000C9F0049761F521C08EEE91E00E94F305BF
:101F10000E94E90D882319F10E94B70E20C089EFB5
:101F200091E00E94F3050E94E90D8823C1F00E9410
:101F3000440A15C082E092E00E94F3050E94E90D78
:101F4000882369F00E9470090AC08DE092E00E9427
:101F5000F3050E94E90D882311F00E94460968EC00
:101F600070E080E090E00E9470110E947407882366
:101F700009F4B1CF089538C00E94E6058BE192E0E4
:101F80000E94080683E090E00E94A505823091053A
:101F900081F083309105C1F0019701F58EEE91E05B
:101FA0000E94F3050E94E90D8823C1F00E94F30E00
:101FB00015C089EF91E00E94F3050E94E90D882386
:101FC00069F00E94D40C0AC08DE092E00E94F305F3
:101FD0000E94E90D882311F00E94210C68EC70E04A
:101FE00080E090E00E9470110E947407882321F223
:101FF00008953AC00E94E60585E292E00E94080634
:1020000083E090E00E94A5058230910581F0833045
:102010009105D1F0019711F58EEE91E00E94F30544
:102020000E94E90D8823D1F00E94230F17C089EF89
:1020300091E00E94F3050E94E90D882379F00E9447
:10204000E6050E946B060AC085E392E00E94F30554
:102050000E94E90D882311F00E94C20D68EC70E027
:1020600080E090E00E9470110E947407882311F2B2
:1020700008950E94E60582E492E00E94080687E047
:1020800090E00E94A50584309105E1F1853091052D
:1020900054F482309105F1F0833091053CF50197BD
:1020A00009F071C00BC08630910509F441C086303B
:1020B00091059CF1079709F066C045C082EE91E05A
:1020C0000E94F3050E94E90D882309F45CC00E9478
:1020D0006A0F59C08BE192E00E94F3050E94E90D5E
:1020E000882309F450C00E94BB0F4DC08BE492E0DE
:1020F0000E94F3050E94E90D882309F444C00E9460
:10210000F90F41C088E592E00E94F3050E94E90DB5
:102110008823C9F10E94AB0B36C082E991E00E948E
:10212000F3050E94E90D882371F10E94F80D2BC080
:102130008EE592E00E94F3050E94E90D882319F1D3
:102140000E94830720C08EE692E00E94F3050E9461
:10215000E90D8823C1F00E94E6050E943D0788EA48
:1021600093E060E040E00E940D0588EA93E06AE7B2
:1021700072E00E94A11664EF71E080E090E00E949E
:1021800070110E94E60568EC70E080E090E00E942B
:1021900070110895EF92FF920F931F9380E060E01B
:1021A0000E940F1281E060E00E940F1280EB93E02A
:1021B00063E270E00E94F40344EBE42E43E0F42E6B
:1021C000C7016FE170E00E94F40308EB13E0C8015F
:1021D00062E270E00E94F403C70164E170E00E94D3
:1021E0004203C80164E270E00E9442031F910F9114
:1021F000FF90EF9008951F920F920FB60F92112447
:102200002F933F938F939F93AF93BF938091C4037A
:102210009091C503A091C603B091C7033091C80344
:102220000196A11DB11D232F2D5F2D3720F02D57B5
:102230000196A11DB11D2093C8038093C403909300
:10224000C503A093C603B093C7038091C0039091C8
:10225000C103A091C203B091C3030196A11DB11D9A
:102260008093C0039093C103A093C203B093C303B0
:10227000BF91AF919F918F913F912F910F900FBE82
:102280000F901F9018956FB7F8942091C00330916C
:10229000C1034091C2035091C30382B790E0A0E014
:1022A000B0E006B600FE09C08F3F9105A105B1055B
:1022B00021F02F5F3F4F4F4F5F4F6FBF542F432F82
:1022C000322F2227280F391F4A1F5B1F82E0220F5F
:1022D000331F441F551F8A95D1F7B901CA010895CC
:1022E000EF92FF920F931F93CF93DF937B018C01AB
:1022F0000E944311EB010EC00E9443116C1B7D0B29
:10230000685E7340C8F30894E108F10801091109F7
:10231000C851DC4FE114F1040105110569F7DF91A3
:10232000CF911F910F91FF90EF900895E82FE695C0
:10233000E695E695A82FB0E0613099F42FB7F894B0
:10234000F0E0EE0FFF1FE157FD4F0190F081E02D0F
:102350009081A770B070AB51BD4F8C91982B90833A
:1023600013C02FB7F894F0E0EE0FFF1FE157FD4FB9
:102370000190F081E02D9081A770B070AB51BD4FFE
:102380008C918095892380832FBF0895A82FE82FF3
:10239000E695E695E695F0E0EE0FFF1FE356FD4F5C
:1023A0000190F081E02DE081B0E0A770B070AB51FA
:1023B000BD4F8C91E82309F0E1E08E2F0895E82FBE
:1023C000E695E695E695A82FB0E0613099F42FB731
:1023D000F894F0E0EE0FFF1FEF57FD4F0190F081F2
:1023E000E02D9081A770B070AB51BD4F8C91982BB0
:1023F000908313C02FB7F894F0E0EE0FFF1FEF5754
:10240000FD4F0190F081E02D9081A770B070AB512D
:10241000BD4F8C918095892380832FBF0895E82F2D
:10242000F0E0613051F4EE0FFF1FE157FD4F0190D6
:10243000F081E02D8FEF80830895EE0FFF1FE157AD
:10244000FD4F0190F081E02D10820895E82FF0E01B
:10245000EE0FFF1FE356FD4F0190F081E02D8081CC
:102460000895E82FF0E0EE0FFF1FEF57FD4F0190AA
:10247000F081E02D60830895109261001092620057
:1024800080E487B987EE86B908951F93182F80914D
:10249000AB02813021F40E943C121092AB02809179
:1024A000AC02181721F4349A349BFECF0DC0109360
:1024B000AC0287B11770807E812B87B9349A349B28
:1024C000FECF349A349BFECF24B135B1C9011F91A0
:1024D000089593B7987F982B93BF08959EB5987FE2
:1024E000982B9EBD089583E00E946E121DBC1CBCFB
:1024F00087B7846087BF089595B5987F982B95BD61
:10250000089582E00E947C1214BC87B7806487BF64
:102510000895EAE8F0E09081987F982B90830895E1
:1025200083E00E9489121092890010928800EDE7E2
:10253000F0E08081846080830895803140F4E82F4A
:10254000F0E0EE0FFF1FE653FC4F718360830895A8
:10255000893031F48FB582608FBD8FB58E7F0AC010
:102560008A3019F48FB5826002C08FB58D7F8FBD20
:102570008FB581608FBD1BBC1ABC19BC18BC1092F2
:1025800079001092780008958FB580688FBD8FB55F
:102590008F7B8FBD08958FB580628FBD8FB58F7E85
:1025A0008FBD08958FB588608FBD8FB58B7F8FBD30
:1025B00008959BBD8ABD089599BD88BD08959093E7
:1025C0007900809378000895893049F480918B00D8
:1025D000826080938B0080918B008E7F0EC08A304A
:1025E00021F480918B00826003C080918B008D7FED
:1025F00080938B0080918B00816080938B00109280
:10260000870010928600109285001092840010922C
:102610008300109282000895EBE8F0E080818068EA
:10262000808380818F7B80830895EBE8F0E0808158
:102630008062808380818F7E80830895EBE8F0E064
:1026400080818860808380818B7F8083089585303E
:1026500019F40E94C4120895843019F40E94CB1218
:102660000895833019F40E94D2120895823019F42B
:102670000E940C130895813019F40E9415130895D7
:10268000882311F40E941E1308959093870080936D
:102690008600089590938500809384000895909318
:1026A0008300809382000895EF92FF921F93CF934F
:1026B000DF93182F7B018D31B0F08F3111F413E0CF
:1026C00014C08E3111F414E010C08D3109F49BC098
:1026D000853211F410E03DC0843211F411E039C0AC
:1026E000833219F48EC08330A0F18091C90386FD36
:1026F0000BC00E94731278948AE00E94A812809105
:10270000C90380648093C9038091C903C12FD0E0BD
:1027100090E0012E02C0959587950A94E2F780FD1E
:102720004CC087B3FE01E351FD4F9081892B87BBDD
:10273000812F0E9427132091C90381E090E0012E90
:1027400002C0880F991F0A94E2F7282B2093C9032F
:1027500034C08091C90387FD0BC00E949012789409
:102760008AE00E94E4128091C90380688093C903C3
:102770008091C903C12FD0E090E0012E02C0959551
:1027800087950A94E2F780FD24C082B1FE01E351EF
:10279000FD4F9081892B82B9812F0E9427132091B0
:1027A000C90381E090E0012E02C0880F991F0A94AE
:1027B000E2F7282B2093C9030CC0153021F4C70180
:1027C0000E94D91222C0143021F4C7010E94DC12E9
:1027D0001CC0133021F4C7010E94DF1216C0123052
:1027E00021F4C7010E94451310C0113021F4C70124
:1027F0000E944A130AC0112341F4C7010E944F13DB
:1028000004C012E0A6CF15E070CFDF91CF911F91E9
:10281000FF90EF9008951F920F920FB60F920BB694
:102820000F9211242F933F934F935F936F937F9356
:102830008F939F93AF93BF93EF93FF938091D003B8
:102840009091D103892B29F0E091D003F091D1032D
:102850000995FF91EF91BF91AF919F918F917F91DA
:102860006F915F914F913F912F910F900BBE0F9001
:102870000FBE0F901F9018951F920F920FB60F92D8
:102880000BB60F9211242F933F934F935F936F9347
:102890007F938F939F93AF93BF93EF93FF93809119
:1028A000DA039091DB03892B29F0E091DA03F091B0
:1028B000DB030995FF91EF91BF91AF919F918F91AC
:1028C0007F916F915F914F913F912F910F900BBE30
:1028D0000F900FBE0F901F9018951F920F920FB67A
:1028E0000F920BB60F9211242F933F934F935F9348
:1028F0006F937F938F939F93AF93BF93EF93FF93C8
:102900008091E0039091E103892B29F0E091E003AD
:10291000F091E1030995FF91EF91BF91AF919F91E4
:102920008F917F916F915F914F913F912F910F9078
:102930000BBE0F900FBE0F901F9018951F920F9215
:102940000FB60F920BB60F9211242F933F934F9314
:102950005F936F937F938F939F93AF93BF93EF9307
:10296000FF938091CC039091CD03892B29F0E091C6
:10297000CC03F091CD030995FF91EF91BF91AF91F9
:102980009F918F917F916F915F914F913F912F9187
:102990000F900BBE0F900FBE0F901F9018951F92B7
:1029A0000F920FB60F920BB60F9211242F933F93F5
:1029B0004F935F936F937F938F939F93AF93BF9347
:1029C000EF93FF938091D2039091D303892B29F049
:1029D000E091D203F091D3030995FF91EF91BF915C
:1029E000AF919F918F917F916F915F914F913F91A7
:1029F0002F910F900BBE0F900FBE0F901F90189548
:102A00001F920F920FB60F920BB60F9211242F93B5
:102A10003F934F935F936F937F938F939F93AF9366
:102A2000BF93EF93FF938091D4039091D503892BAB
:102A300029F0E091D403F091D5030995FF91EF912E
:102A4000BF91AF919F918F917F916F915F914F91C6
:102A50003F912F910F900BBE0F900FBE0F901F90C4
:102A600018951F920F920FB60F920BB60F9211246A
:102A70002F933F934F935F936F937F938F939F9386
:102A8000AF93BF93EF93FF938091D6039091D703B9
:102A9000892B29F0E091D603F091D7030995FF9196
:102AA000EF91BF91AF919F918F917F916F915F91C6
:102AB0004F913F912F910F900BBE0F900FBE0F9033
:102AC0001F9018951F920F920FB60F920BB60F9290
:102AD00011242F933F934F935F936F937F938F9323
:102AE0009F93AF93BF93EF93FF938091D8039091FF
:102AF000D903892B29F0E091D803F091D9030995E6
:102B0000FF91EF91BF91AF919F918F917F916F91C5
:102B10005F914F913F912F910F900BBE0F900FBE81
:102B20000F901F9018951F920F920FB60F920BB631
:102B30000F9211242F933F934F935F936F937F9343
:102B40008F939F93AF93BF93EF93FF938091DC0399
:102B50009091DD03892B29F0E091DC03F091DD03F6
:102B60000995FF91EF91BF91AF919F918F917F91C7
:102B70006F915F914F913F912F910F900BBE0F90EE
:102B80000FBE0F901F9018951F920F920FB60F92C5
:102B90000BB60F9211242F933F934F935F936F9334
:102BA0007F938F939F93AF93BF93EF93FF93809106
:102BB000E2039091E303892B29F0E091E203F09185
:102BC000E3030995FF91EF91BF91AF919F918F9191
:102BD0007F916F915F914F913F912F910F900BBE1D
:102BE0000F900FBE0F901F9018951F920F920FB667
:102BF0000F920BB60F9211242F933F934F935F9335
:102C00006F937F938F939F93AF93BF93EF93FF93B4
:102C10008091E4039091E503892B29F0E091E4038E
:102C2000F091E5030995FF91EF91BF91AF919F91CD
:102C30008F917F916F915F914F913F912F910F9065
:102C40000BBE0F900FBE0F901F9018951F920F9202
:102C50000FB60F920BB60F9211242F933F934F9301
:102C60005F936F937F938F939F93AF93BF93EF93F4
:102C7000FF938091E6039091E703892B29F0E0917F
:102C8000E603F091E7030995FF91EF91BF91AF91B2
:102C90009F918F917F916F915F914F913F912F9174
:102CA0000F900BBE0F900FBE0F901F9018951F92A4
:102CB0000F920FB60F920BB60F9211242F933F93E2
:102CC0004F935F936F937F938F939F93AF93BF9334
:102CD000EF93FF938091E8039091E903892B29F00A
:102CE000E091E803F091E9030995FF91EF91BF911D
:102CF000AF919F918F917F916F915F914F913F9194
:102D00002F910F900BBE0F900FBE0F901F90189534
:102D100083E061E00E940F1284E061E00E940F12E4
:102D200078940E94CA100E943910FDCFDC01ED9109
:102D3000FC910190F081E02D099508950E9496166E
:102D400008950F931F93CF93DF938C01EB0104C081
:102D50002196C8010E949E1668816623C9F7DF91FB
:102D6000CF911F910F9108952F923F924F925F92B2
:102D70006F927F928F929F92AF92BF92CF92DF928B
:102D8000EF92FF920F931F93DF93CF93CDB7DEB7F0
:102D9000A0970FB6F894DEBF0FBECDBF1C016A012D
:102DA0007B01411551056105710521F460E30E9425
:102DB0009E164FC0882499245401422E552466241F
:102DC000772401E010E00C0F1D1F080D191DC7012D
:102DD000B601A30192010E946F19F8016083089463
:102DE000811C911CA11CB11CC701B601A301920159
:102DF0000E946F19C901DA016C017D01C114D1046F
:102E0000E104F104F1F681E0E82EF12CEC0EFD1E58
:102E1000E80CF91C3E010894611C711CD501C40129
:102E20000197A109B1096C01C818D9080FC0F601B2
:102E3000EE0DFF1D60816A3010F4605D01C0695CB9
:102E4000C1010E949E160894E108F1086E147F04E7
:102E500071F7A0960FB6F894DEBF0FBECDBFCF912D
:102E6000DF911F910F91FF90EF90DF90CF90BF9077
:102E7000AF909F908F907F906F905F904F903F901A
:102E80002F900895EF92FF920F931F93CF93DF93AC
:102E9000EC017A018B0177FF0BC06DE20E949E1658
:102EA00010950095F094E094E11CF11C011D111D9A
:102EB000CE01B801A7012AE00E94B416DF91CF919C
:102EC0001F910F91FF90EF900895AB01662757FD7A
:102ED0006095762F0E94421708955058BB27AA2765
:102EE0000ED04DC13ED130F043D120F031F49F3FA0
:102EF00011F41EF433C10EF4E095E7FB29C1E92F6C
:102F00004FD180F3BA17620773078407950718F04B
:102F100071F49EF567C10EF4E0950B2EBA2FA02D2B
:102F20000B01B90190010C01CA01A0011124FF2776
:102F3000591B99F0593F50F4503E68F11A16F04071
:102F4000A22F232F342F4427585FF3CF4695379570
:102F50002795A795F0405395C9F77EF41F16BA0B35
:102F6000620B730B840BBAF09150A1F0FF0FBB1FE3
:102F7000661F771F881FC2F70EC0BA0F621F731F2C
:102F8000841F48F4879577956795B795F7959E3F89
:102F900008F0B3CF9395880F08F09927EE0F979517
:102FA000879508950CD0EBC0E3D040F0DAD030F034
:102FB00021F45F3F19F0CCC0511115C1CFC0F0D042
:102FC00098F39923C9F35523B1F3951B550BBB27F0
:102FD000AA2762177307840738F09F5F5F4F220F9D
:102FE000331F441FAA1FA9F333D00E2E3AF0E0E896
:102FF00030D091505040E695001CCAF729D0FE2FE2
:1030000027D0660F771F881FBB1F26173707480773
:10301000AB07B0E809F0BB0B802DBF01FF27935829
:103020005F4F2AF09E3F510568F092C0DCC05F3FC1
:10303000ECF3983EDCF3869577956795B795F79511
:103040009F5FC9F7880F911D9695879597F9089509
:10305000E1E0660F771F881FBB1F621773078407A5
:10306000BA0720F0621B730B840BBA0BEE1F88F7B4
:10307000E095089504D06894B111B5C0089598D032
:1030800088F09F5790F0B92F9927B751A0F0D1F051
:10309000660F771F881F991F1AF0BA95C9F712C0DB
:1030A000B13081F09FD0B1E008959CC0672F782F98
:1030B0008827B85F39F0B93FCCF386957795679547
:1030C000B395D9F73EF490958095709561957F4FB3
:1030D0008F4F9F4F0895E89409C097FB3EF4909559
:1030E0008095709561957F4F8F4F9F4F9923A9F0E1
:1030F000F92F96E9BB279395F69587957795679570
:10310000B795F111F8CFFAF4BB0F11F460FF1BC0B3
:103110006F5F7F4F8F4F9F4F16C0882311F096E946
:1031200011C0772321F09EE8872F762F05C06623F4
:1031300071F096E8862F70E060E02AF09A95660FAD
:10314000771F881FDAF7880F9695879597F9089566
:1031500097F99F6780E870E060E008959FEF80EC4A
:10316000089500240A9416161706180609060895ED
:1031700000240A9412161306140605060895092E53
:103180000394000C11F4882352F0BB0F40F4BF2BC2
:1031900011F460FF04C06F5F7F4F8F4F9F4F089502
:1031A00057FD9058440F551F59F05F3F71F04795F8
:1031B000880F97FB991F61F09F3F79F087950895DD
:1031C000121613061406551FF2CF4695F1DF08C0FC
:1031D000161617061806991FF1CF86957105610519
:1031E00008940895E894BB2766277727CB0197F9C1
:1031F00008950BD0C4CFB5DF28F0BADF18F09523BF
:1032000009F0A6CFABCF1124EECFCADFA0F3959F74
:10321000D1F3950F50E0551F629FF001729FBB27BD
:10322000F00DB11D639FAA27F00DB11DAA1F649F69
:103230006627B00DA11D661F829F2227B00DA11D1C
:10324000621F739FB00DA11D621F839FA00D611DA2
:10325000221F749F3327A00D611D231F849F600DC3
:10326000211D822F762F6A2F11249F5750408AF0FC
:10327000E1F088234AF0EE0FFF1FBB1F661F771F88
:10328000881F91505040A9F79E3F510570F060CFC4
:10329000AACF5F3FECF3983EDCF386957795679570
:1032A000B795F795E7959F5FC1F7FE2B880F911DA6
:1032B0009695879597F9089597FB092E07260AD0CA
:1032C00077FD04D02ED006D000201AF470956195B9
:1032D0007F4F0895F6F7909581959F4F0895A1E24D
:1032E0001A2EAA1BBB1BFD010DC0AA1FBB1FEE1F80
:1032F000FF1FA217B307E407F50720F0A21BB30BCB
:10330000E40BF50B661F771F881F991F1A9469F746
:1033100060957095809590959B01AC01BD01CF01A2
:103320000895AA1BBB1B51E107C0AA1FBB1FA6170C
:10333000B70710F0A61BB70B881F991F5A95A9F75E
:1033400080959095BC01CD010895EE0FFF1F05906B
:10335000F491E02D0994E199FECF9FBB8EBBE09ADA
:1033600099278DB30895262FE199FECF9FBB8EBB81
:103370002DBB0FB6F894E29AE19A0FBE019608951C
:04338000F894FFCFEF
:10338400433A00204E3A0056616C75653A2000536A
:103394006561726368696E672E2E2E00436F6C6CD4
:1033A400656374696E672E2E2E00446F6E65004C43
:1033B4003A200020523A20004B703A00204B643AE5
:1033C40000523A004C3A0020523A004D313A200063
:1033D4004D323A20004C20004C4F3A0048493A0004
:1033E400522000496E2050726F67726573730041FA
:1033F40072742E3A004F626A656374204465746582
:103404006374656421005363616E6E696E672E2E6A
:103414002E0052756E2D416C6C00537461746520DE
:103424005377697463686572005661723A20004B81
:103434005F70004B5F64005370656564005468728C
:103444006573680053746172742048005261697333
:10345400652048005374617274204100456E6420F5
:103464004100546170652D466F6C6C6F7700456444
:10347400697420566172732E0052756E2044656D16
:103484006F00416E616C6F6720504944004368656A
:10349400636B2053656E736F72730049522D466FD0
:1034A4006C6C6F77004172742E20436F6C6C656393
:1034B40074696F6E0053656E736F72204368656341
:1034C4006B0053656C6563743A20004172742E205E
:1034D400436F6C6C656374004D6F746F7200546954
:1034E4006D6520547269616C2044656D6F0052658E
:1034F40073657420566172733F005361766564008E
:10350400FF320035003B00380023006200650031C3
:103514000034003A003700220061006400300033B8
:10352400003900360021002000630001FF00000084
:103534000035027E00E401C901FE0100000000AE76
:1035440001A702AD020000000007019B02A10218BE
:1035540000190026002700050004000100000000F7
:10356400000000C604010204081020408020100856
:043574008040200073
:00000001FF
