:100000000C9448000C947C000C947C000C947C00B4
:100010000C947C000C947C000C947C000C947C0070
:100020000C947C000C944F160C94F8140C941E162F
:100030000C948B150C94BC150C94C7140C945A1585
:100040000C94B7110C947C000C94D8000C946801AB
:100050000C947C000C947C000C947C000C947C0030
:100060000C94ED150C9413170C9480160C94B11687
:100070000C94E2160C9429150C94A9000C942201FE
:100080000C947C000C947C000C947C00B3028A05D8
:1000900011241FBECFEFD0E1DEBFCDBF88E483BF08
:1000A00084E00E94251312BE87B7816087BF7894D1
:1000B00012E0A0E0B1E0ECEFF4E300E00BBF02C01F
:1000C00007900D92A63CB107D9F713E0A6ECB2E079
:1000D00001C01D92AC3BB107E1F710E0C0E9D0E0F0
:1000E00004C02297FE010E94631ACC38D107C9F7D9
:1000F0000E9444170C947C1A0C940000FC01268189
:100100003781C90108951F93CF93DF93EC01162F18
:10011000E881F9810190F081E02D0995809710F038
:1001200080E013C08C819D8101969D838C838E819C
:100130009F81FE01E80FF91F128701969F838E832E
:10014000809714F01F821E8281E0DF91CF911F9172
:1001500008951F920F920FB60F920BB60F921124B3
:100160002F933F934F935F936F937F938F939F93BF
:10017000AF93BF93EF93FF93E0916403F091650316
:10018000608188E193E00E948300FF91EF91BF912D
:10019000AF919F918F917F916F915F914F913F911F
:1001A0002F910F900BBE0F900FBE0F901F901895C0
:1001B0001F920F920FB60F920BB60F9211242F932E
:1001C0003F934F935F936F937F938F939F93AF93DF
:1001D000BF93EF93FF93E0911403F09115036081B7
:1001E00088EC92E00E948300FF91EF91BF91AF9164
:1001F0009F918F917F916F915F914F913F912F913F
:100200000F900BBE0F900FBE0F901F901895FC0122
:1002100024813581C9010895DC01FC018481958127
:1002200001979583848380859185E80FF91F228546
:100230000196FD0191878087409714F01186108602
:10024000822F08951F920F920FB60F920BB60F9246
:1002500011240F931F932F933F934F935F936F93AB
:100260007F938F939F93AF93BF93EF93FF9380916F
:10027000460390914703892B51F00091640310913C
:10028000650382E493E00E940C01F8018083809171
:10029000460390914703892B31F4E0916203F0917A
:1002A000630388E98083FF91EF91BF91AF919F91A4
:1002B0008F917F916F915F914F913F912F911F91FE
:1002C0000F910F900BBE0F900FBE0F901F901895BF
:1002D0001F920F920FB60F920BB60F9211240F932D
:1002E0001F932F933F934F935F936F937F938F93BE
:1002F0009F93AF93BF93EF93FF938091F6029091FA
:10030000F702892B51F0009114031091150382EF2D
:1003100092E00E940C01F80180838091F602909196
:10032000F702892B31F4E0911203F091130388E96D
:100330008083FF91EF91BF91AF919F918F917F91BA
:100340006F915F914F913F912F911F910F910F905E
:100350000BBE0F900FBE0F901F901895FC012481CB
:100360003581C9010895DC01FC01848195810197E3
:100370009583848380859185E80FF91F22850196F6
:10038000FD0191878087809714F011861086822F57
:100390000895FC0186819781892B19F42FEF3FEF97
:1003A00006C0CF0102960E94B301282F30E0C90198
:1003B0000895CF93DF93EC01E885F985E80FF91FE5
:1003C0008285DF91CF910895FC0186819781892BE9
:1003D00019F42FEF3FEF06C0CF0102960E94D9011A
:1003E000282F30E0C9010895FC0115821482848110
:1003F00095819187808797838683089502960E94CE
:10040000F4010895FC0182E992E09183808380E207
:1004100090E093838283CF010E94F40108951F939B
:10042000CF93DF93EC01162FE881F9810190F081E1
:10043000E02D0995409710F080E013C08C819D81DC
:1004400001969D838C838E819F81FE01E80FF91FA9
:10045000128701969F838E83409714F01F821E821D
:1004600081E0DF91CF911F910895CF93DF93EC014D
:1004700088A999A94097E0F7F894CE018C960E943C
:100480000F02C45BDF4FE881F98180818062808345
:100490007894DF91CF910895FC01158214828481B4
:1004A000958191878087978386830895FC018CE9E5
:1004B00092E09183808380E190E093838283CF01F7
:1004C0000E944C0208956F927F928F929F92AF92FA
:1004D000BF92CF92DF92EF92FF920F931F936C0126
:1004E0005B014A013901FC0184E892E08193919318
:1004F000CF010E940202C6018C960E94560286E439
:1005000090E0C80ED91EF601A192B192819291920B
:100510006192719201931193F182E0821F910F9188
:10052000FF90EF90DF90CF90BF90AF909F908F9013
:100530007F906F900895665F7F4F680F791FCB01A2
:100540000895665F7F4F680F791FCB010895665F3E
:100550007F4F680F791FCB010895665F7F4F680F4B
:10056000791FCB010895EF92FF920F931F9386ECB2
:1005700092E060E970E049E250E02BE230E00AE20C
:1005800010E0FCE2EF2EF12C0E94630286E193E082
:1005900068E970E049E950E02BE930E00AE910E051
:1005A000ECE9EE2EF12C0E9463021F910F91FF9057
:1005B000EF90089585E060E070E00E94101484E000
:1005C00060E070E00E94101481E060E070E00E9442
:1005D000101480E060E070E00E94101408950F9302
:1005E0001F93CF93DF93EB018A01CC0FDD1F57FDE3
:1005F0000CC0FE01EE55FD4F808161E00E949B1210
:10060000C655DD4F8881B8010EC0FE01EE55FD4F85
:10061000808160E00E949B12C655DD4F66277727D8
:10062000601B710B88810E941014DF91CF911F9184
:100630000F9108951F93CF93DF93C0E0D0E0FE01A8
:10064000EE55FD4F1081812F61E00E945212812FE3
:1006500061E00E949B12FE01E655FD4F808160E043
:1006600070E00E9410142296C830D10541F7DF9146
:10067000CF911F910895FC0110828AE090E093834E
:1006800082830895CF93DF93EC01882777FD8095CF
:10069000982F0E94291920E030E044E353E40E949F
:1006A0008E1820E030E040EF51E40E94B51920E0C0
:1006B00030E040E251E40E942A180E94FB18CB016E
:1006C0006A30710510F48AE090E08932910510F0EB
:1006D00088E290E09B838A83DF91CF910895E09137
:1006E0005302E7FD15C0FF27E7FDF095EE0FFF1F52
:1006F000EA59FC4F0190F081E02D818160E00E9479
:100700009B1206C02F5F81919191892B69F00EC0D9
:10071000209153022F5FE22FFF27E7FDF095215034
:10072000EE0FFF1FEA59FC4F273064F3209353026A
:10073000E0915302FF27E7FDF095EE0FFF1FEA5906
:10074000FC4F0190F081E02D309761F48FEF8093A2
:10075000530224EF31E08091770390917803281BB6
:10076000390B12C0818161E00E949B12E09153021B
:10077000FF27E7FDF095EE0FFF1FEA59FC4F0190B0
:10078000F081E02D2281338183B5820F83BD80917A
:10079000770390917803820F931F9093780380934F
:1007A0007703845F914020F01092780310927703D2
:1007B00008950E943D1387B78F7787BF85E00E9419
:1007C000381389E06FE673E00E94591383B58C50AB
:1007D00083BD87B7806887BF109278031092770334
:1007E0008FEF809353020895CF93DF93EC018091B4
:1007F0007603893010F080E03DC06983862F61E088
:100800000E945212E881F0E0EE0FFF1FEA59FC4F00
:1008100080819181C817D90761F140917603442303
:1008200041F4E6E6F3E01192119283E0E637F8072F
:10083000D1F7E6E6F3E020E030E080819181892B7A
:1008400061F4F901EE0FFF1FEA59FC4FD183C08319
:1008500028834F5F4093760306C02F5F3F4F329649
:100860002830310551F780917603813011F40E94D0
:10087000D90381E0DF91CF910895CF93DF93EC010D
:100880008A8160E00E949B128D8160E00E94CB1201
:100890008D8160E00E94ED128B8161E00E949B12CD
:1008A0008C8161E00E949B120000000010C08C81CE
:1008B00060E00E949B1200000000000000008C819C
:1008C00061E00E949B1200000000000000008D818A
:1008D0000E94E21287FDEBCF8C8160E00E949B12A8
:1008E000DF91CF910895FF920F931F938C01F62E05
:1008F0000E943D04F801828161E00E949B12F80190
:10090000838160E00E949B12F801848161E00E9473
:100910009B12F801858161E00E94CB12F80185816C
:100920006F2D0E94ED120000000000000000F80191
:10093000848160E00E949B12F801858160E00E9442
:10094000CB12F80185816FEF0E94ED121F910F917C
:10095000FF900895EF92FF920F931F93CF93DF9331
:100960007C01042F6115710551F0EB0110E005C009
:10097000C70169910E9473041F5F1017C8F3DF91CC
:10098000CF911F910F91FF90EF900895DF93CF9338
:100990000F92CDB7DEB76983BE016F5F7F4F41E035
:1009A0000E94AA040F90CF91DF910895FF920F93B8
:1009B0001F938C01F62E0E943D04F801828160E0B5
:1009C0000E949B12F801838160E00E949B12F80153
:1009D000848161E00E949B12F801858161E00E94A0
:1009E000CB12F80185816F2D0E94ED1200000000EE
:1009F00000000000F801848160E00E949B12F80171
:100A0000858160E00E94CB12F80185816FEF0E9422
:100A1000ED121F910F91FF900895423031F0433055
:100A200031F0413029F4605C03C06C5E01C06C5A47
:100A300060680E94D604089562E00E94D60408957A
:100A400061E00E94D60408950F931F938C01FC016E
:100A5000828160E00E949B12F801838160E00E9425
:100A60009B12F801848160E00E949B12F801828150
:100A700061E00E945212F801838161E00E945212EB
:100A8000F801848161E00E945212F801858160E0E2
:100A90000E94CB12F80185816FEF0E94ED121F9129
:100AA0000F9108950F931F938C010E942405C80194
:100AB00068E30E94D604C80161E00E94D604C80120
:100AC00066E00E94D604C8016CE00E94D604C8010A
:100AD00062E00E94D604C80160E80E94D6041F911B
:100AE0000F9108950F93FC0186EB92E09183808330
:100AF0006283438324830583CF010E9452050F91B3
:100B00000895CB01642F0E946F1A0895CB010E94B3
:100B1000671A08950F938AE793E06AE14BE12CE1AD
:100B200002E00E94720580E893E00E941A0382E8C6
:100B300093E00E943B0386E893E00E943B038AE82F
:100B400093E00E943B030F9108950F931F9309E7D1
:100B500013E0C80161E070E04EE30E948105C80126
:100B600062E070E046E00E948105C80163E070E049
:100B70004BE40E948105C80164E070E049E10E94F5
:100B80008105C80165E070E04EE30E948105C8015F
:100B900066E070E046E00E948105C80167E070E011
:100BA00044E60E948105C80168E070E044E00E94CC
:100BB00081051F910F910895CF93DF93EC0187E09A
:100BC0000E9401132197C89FB001C99F700DD89F43
:100BD000700D11242196882777FD8095982F0E940B
:100BE00029192DEC3CEC4CE85FE30E94B51920E09C
:100BF00030E040E85AE30E94B51920E030E040E8D8
:100C00005FE30E942A180E94F6189B01C617D707B7
:100C10000CF49E01C901DF91CF91089586E00E94F6
:100C2000011320E0813591050CF021E0822F089519
:100C3000EF92FF920F931F937C010AE713E0C80124
:100C400060E041E00E940D05C801B7010E945D17F8
:100C50001F910F91FF90EF900895EF92FF920F93E5
:100C60001F937C010AE713E0C80160E040E00E94A6
:100C70000D05C801B7010E945D171F910F91FF90EC
:100C8000EF900895EF92FF920F931F937C010AE774
:100C900013E0C80160E041E00E940D05C80160E07A
:100CA00071E00E945D17C801B7010E9421181F91D1
:100CB0000F91FF90EF90089581E30E9482128823A4
:100CC00011F080E008956CE271E080E090E00E9415
:100CD0002C1281E0089582E30E948212882311F091
:100CE00080E008956CE271E080E090E00E942C12B8
:100CF00081E008950F931F930AE713E0C8010E9453
:100D00002005C8010E941C051F910F910895EF92C4
:100D1000FF920F931F937C010E947A060AE713E06B
:100D2000C80160E040E00E940D05C801B7010E94C3
:100D30005D17C80160E041E00E940D05C80168E050
:100D400071E00E945D1760918E0370918F03C8015E
:100D50000E942118C8016BE071E00E945D1760914C
:100D6000900370919103C8010E9421181F910F9167
:100D7000FF90EF9008956F927F928F929F92AF9223
:100D8000BF92CF92DF92EF92FF920F931F93CF9378
:100D9000DF936C013B01EA0189E793E0B6010E9411
:100DA000860590E0880F991F880F991F90938F03F5
:100DB00080938E038AE793E0B3010E945D1789E771
:100DC00093E0B6010E94860590E0880F991F880F76
:100DD000991F0E9442060E946B06882309F04FC0AB
:100DE00058C087E00E940113AA2797FDA095BA2F4B
:100DF000BC01CD010E94291920E030E04AE754E40B
:100E00000E948E187B018C01C501B4010E94291932
:100E10009B01AC01C801B7010E94B5190E94F618E8
:100E20007093910360939003C617D70724F4D0936F
:100E30009103C0939003C3010E9487060E946B0632
:100E40008823B1F0809190039091910364E070E069
:100E50000E94181A462F89E793E0B6010E94810587
:100E6000809190039091910390938F0380938E03D0
:100E700068EC70E080E090E00E942C1205C04E010A
:100E8000AA2497FCA094BA2C0E945C06882309F43B
:100E9000A8CFDF91CF911F910F91FF90EF90DF903E
:100EA000CF90BF90AF909F908F907F906F9008955C
:100EB0001AC00E947A068BE191E00E942D0681E023
:100EC00090E00E94DC05019741F488E090E066E242
:100ED00071E044EB50E00E94BB0668EC70E080E0FB
:100EE00090E00E942C120E945C06882311F3089562
:100EF0002F923F924F925F926F927F928F929F922A
:100F0000AF92BF92CF92DF92EF92FF920F931F9317
:100F10008CC080E00E9401135C0181E00E940113FB
:100F20007C0182E00E9401131C0183E00E940113F6
:100F30003C010E947A068AE793E060E040E00E946C
:100F40000D058AE793E06DE271E00E945D178AE784
:100F500093E060E371E00E945D170027F7FC0095C5
:100F6000102FC801B7010E9429190E94F6189B0191
:100F7000AC018AE793E0B9010E9421188AE793E067
:100F800064E371E00E945D17CC24B7FCC094DC2CB4
:100F9000C601B5010E9429190E94F6189B01AC01F7
:100FA0008AE793E0B9010E9421188AE793E060E0A4
:100FB00041E00E940D058AE793E068E371E00E943A
:100FC0005D178AE793E060E371E00E945D17882473
:100FD00077FC8094982CC401B3010E9429190E94C7
:100FE000F6189B01AC018AE793E0B9010E94211831
:100FF0008AE793E064E371E00E945D17442437FCC4
:101000004094542CC201B1010E9429190E94F61883
:101010009B01AC018AE793E0B9010E94211868ECBA
:1010200070E080E090E00E942C120E945C06882311
:1010300009F46FCF1F910F91FF90EF90DF90CF9049
:10104000BF90AF909F908F907F906F905F904F90E8
:101050003F902F9008952AC00E947A068BE191E07C
:101060000E942D0683E090E00E94DC05823091050D
:1010700051F08330910561F0019791F485E090E0A3
:101080006BE371E009C086E090E06FE371E004C0BB
:1010900087E090E063E471E048EE53E00E94BB0615
:1010A00068EC70E080E090E00E942C120E945C06E8
:1010B000882391F20895EF92FF920F931F9332C00D
:1010C00084E00E9401138C0185E00E9401137C01E1
:1010D0000E947A068AE793E060E040E00E940D05F6
:1010E0008AE793E069E471E00E945D178AE793E084
:1010F000B8010E9421188AE793E060E041E00E9475
:101100000D058AE793E06CE471E00E945D178AE7C1
:1011100093E0B7010E94211868EC70E080E090E055
:101120000E942C120E945C06882351F21F910F919D
:10113000FF90EF90089536C00E947A068BE191E00F
:101140000E942D0684E090E00E94DC05823091052B
:1011500089F0833091051CF40197F1F406C08330C7
:10116000910569F00497C1F40FC081E090E06BE352
:1011700071E00EC082E090E06FE371E009C083E0AF
:1011800090E063E471E004C084E090E06FE471E01B
:1011900048EE53E00E94BB0668EC70E080E090E00F
:1011A0000E942C120E945C06882331F208950F934E
:1011B0001F93CF93DF9363C086E00E9401138C01DD
:1011C0000F5F1140000F111F87E00E9401138F5F16
:1011D0009140880F991FA8012CEF0130120714F4D9
:1011E00041E05CEF8A0124E04030520714F00FEF39
:1011F00013E0AC018CEF4130580714F441E05CEF90
:10120000EA0124E04030520714F0CFEFD3E080E849
:1012100093E063E070E0A8010E94EF0280E893E0B1
:1012200062E070E0AE010E94EF020E947A068AE757
:1012300093E060E040E00E940D058AE793E066E5F8
:1012400071E00E945D178AE793E0B8010E942118BF
:101250008AE793E060E041E00E940D058AE793E0B1
:101260006BE571E00E945D178AE793E0BE010E9482
:10127000211862E370E080E090E00E942C120E944E
:101280005C06882309F498CF80E893E00E94DA0294
:10129000DF91CF911F910F9108952F923F924F921E
:1012A0005F926F927F928F929F92AF92BF92CF92F6
:1012B000DF92EF92FF920F931F93CF93DF9389E713
:1012C00093E065E070E00E948605482E5524440CAA
:1012D000551C440C551C89E793E066E070E00E94C1
:1012E0008605682E7724660C771C660C771C89E7C8
:1012F00093E067E070E00E948605882E9924880CB0
:10130000991C880C991C22243324AA24BB2497C03E
:1013100080E00E9401137C0181E00E940113082FEC
:10132000D92E82E00E940113EC0183E00E94011398
:10133000AC01CE018E0D9F1D815D97401CF46701AD
:101340007E0105C0202F3D2DC9016C017A01E60107
:10135000CE19DF09C93CD1051CF0C8ECD0E006C0AD
:101360008FEFC833D80714F4C8E3DFEFCE0182193A
:101370009309869D8001879D100D969D100D112467
:10138000C49DC001C59D900DD49D900D1124080FE2
:10139000191FA801480D591D80E893E063E070E033
:1013A0000E94EF02A401401B510B80E893E062E031
:1013B00070E00E94EF0222E3A216B104E1F58AE791
:1013C00093E00E9420058AE793E00E941C058AE7CB
:1013D00093E060E671E00E945D178AE793E0B60152
:1013E0000E9421188AE793E064E671E00E945D178D
:1013F0008AE793E0B7010E9421188AE793E060E052
:1014000041E00E940D058AE793E069E671E00E94E1
:101410005D178AE793E0B2010E9421188AE793E002
:101420006DE671E00E945D178AE793E0B3010E94C8
:101430002118AA24BB240894A11CB11C1E010E94DF
:101440005C06882309F464CF80E893E00E94DA0206
:10145000DF91CF911F910F91FF90EF90DF90CF9090
:10146000BF90AF909F908F907F906F905F904F90C4
:101470003F902F90089538C00E947A0682E791E04D
:101480000E942D0683E090E00E94DC0582309105E9
:1014900081F083309105C1F0019701F58CE791E06F
:1014A0000E9418060E946B068823C1F00E942B0838
:1014B00015C087E891E00E9418060E946B068823F9
:1014C00069F00E944D090AC080E991E00E94180667
:1014D0000E946B06882311F00E94780768EC70E088
:1014E00080E090E00E942C120E945C06882321F28A
:1014F00008954F925F926F927F928F929F92AF92D8
:10150000BF92CF92DF92EF92FF920F931F93CF93F0
:10151000DF9389E793E061E070E00E948605882E02
:101520009924880C991C880C991C89E793E062E047
:1015300070E00E948605A82EBB24AA0CBB1CAA0C36
:10154000BB1C89E793E063E070E00E948605C82E2B
:10155000DD24CC0CDD1CCC0CDD1C00E010E0C0E078
:10156000D0E07AC080E00E9401133C0181E00E943B
:1015700001132C017301E81AF90A8DE2E81681E0E3
:10158000F80624F0FCE2EF2EF1E0FF2EC701801BED
:10159000910B8A9D80018B9D100D9A9D100D112439
:1015A000E89CC001E99C900DF89C900D1124080F57
:1015B000191FA601401B510B80E893E063E070E027
:1015C0000E94EF020C0D1D1D80E893E062E070E0C8
:1015D000A8010E94EF02C233D105E1F58AE793E04A
:1015E0000E9420058AE793E00E941C058AE793E0A9
:1015F00060E671E00E945D178AE793E0B3010E9404
:1016000021188AE793E064E671E00E945D178AE79B
:1016100093E0B2010E9421188AE793E060E041E084
:101620000E940D058AE793E069E671E00E945D176C
:101630008AE793E0B4010E9421188AE793E06DE6FF
:1016400071E00E945D178AE793E0B5010E942118BE
:10165000C0E0D0E0219687010E945C06882309F44F
:1016600081CF80E893E00E94DA02DF91CF911F9151
:101670000F91FF90EF90DF90CF90BF90AF909F9031
:101680008F907F906F905F904F9008952F923F9230
:101690004F925F926F927F928F929F92AF92BF9282
:1016A000CF92DF92EF92FF920F931F93DF93CF932E
:1016B000CDB7DEB72E970FB6F894DEBF0FBECDBF05
:1016C00089E793E061E070E00E948605282F30E012
:1016D000220F331F220F331F3C832B8389E793E0B4
:1016E00062E070E00E948605482F50E0440F551FCD
:1016F000440F551F5A83498389E793E063E070E004
:101700000E948605282E3324220C331C220C331C05
:1017100089E793E064E070E00E948605C82EDD242E
:10172000CC0CDD1CCC0CDD1C1E861D8618861F8291
:1017300000E010E01E821D8266247724882499240C
:1017400089819A81AA2797FDA095BA2F89879A87C0
:10175000AB87BC87DBC084E00E9401132C0185E0CD
:101760000E9401135C01C414D50434F4C816D906D0
:1017700064F41E861D8625C04C145D0414F5C8163D
:10178000D9065CF4AFEFBFEF1AC08C159D05CCF401
:10179000E1E0F0E0FE87ED8714C08C159D058CF428
:1017A0002D853E8537FF05C04BEF5FEF5E874D8788
:1017B00008C08D859E85892B21F0A5E0B0E0BE870D
:1017C000AD87ED85FE85E017F10739F018870F83A7
:1017D0007E826D8201E0602E712C69857A858B8511
:1017E0009C850E9429197B018C016D857E852F8146
:1017F0003885621B730B882777FD8095982F0E9490
:1018000029199B01AC01C801B7010E94B5197B01E0
:101810008C016D817E81660D771D882777FD80950F
:10182000982F0E9429199B01AC01C801B7010E94A1
:101830008E180E94F6187B018C014D855E85AB8168
:10184000BC814A9FC0014B9F900D5A9F900D11245F
:10185000E80EF91EA701420D531D80E893E063E0F6
:1018600070E00E94EF02A1014E195F0980E893E049
:1018700062E070E00E94EF02B2E38B169104F1F592
:101880008AE793E00E9420058AE793E00E941C0506
:101890008AE793E060E671E00E945D178AE793E0D3
:1018A000B2010E9421188AE793E064E671E00E9489
:1018B0005D178AE793E0B5010E9421188AE793E05B
:1018C00060E041E00E940D058AE793E069E671E07F
:1018D0000E945D178AE793E06B817C810E9421184A
:1018E0008AE793E06DE671E00E945D178AE793E076
:1018F00069817A810E942118882499240894811C86
:10190000911C0894611C711C0D851E850E945C064B
:10191000882309F420CF80E893E00E94DA022E9613
:101920000FB6F894DEBF0FBECDBFCF91DF911F91F0
:101930000F91FF90EF90DF90CF90BF90AF909F906E
:101940008F907F906F905F904F903F902F90089571
:101950004AC00E947A068EE991E00E942D0684E03A
:1019600090E00E94DC0582309105B9F0833091054A
:101970001CF4019791F506C083309105C9F00497D6
:1019800061F521C08CE791E00E9418060E946B0669
:10199000882319F10E949B0820C087E891E00E94EB
:1019A00018060E946B068823C1F00E94460B15C0E2
:1019B0008AEA91E00E9418060E946B06882369F06B
:1019C0000E94790A0AC080E991E00E9418060E94EC
:1019D0006B06882311F00E945B0868EC70E080E0E1
:1019E00090E00E942C120E945C06882309F4B1CF7B
:1019F00008952F923F924F925F926F927F928F92B3
:101A00009F92AF92BF92CF92DF92EF92FF920F938D
:101A10001F93DF93CF93CDB7DEB72F970FB6F89410
:101A2000DEBF0FBECDBF89E793E061E070E00E94AA
:101A30008605282F30E0220F331F220F331F3F83EC
:101A40002E8389E793E062E070E00E948605A82F6C
:101A5000B0E0AA0FBB1FAA0FBB1FBD83AC8389E7F1
:101A600093E063E070E00E948605E82FF0E0EE0F5F
:101A7000FF1FEE0FFF1FFB83EA8389E793E064E01B
:101A800070E00E948605A82EBB24AA0CBB1CAA0CE1
:101A9000BB1CCC24DD241B861A8600E010E01986CE
:101AA0001886222433244424552419828C819D8154
:101AB000AA2797FDA095BA2F8C879D87AE87BF87F1
:101AC00039C180E00E9401133C0181E00E940113B2
:101AD0004C01A614B70434F4A816B9066CF4CC244F
:101AE000DD2421C06A147B04F4F4A816B9065CF462
:101AF000CC24CA94DC2C17C08A159B05A4F4E1E021
:101B0000CE2ED12C10C08A159B056CF4D7FE05C0D3
:101B10007BEFC72E7FEFD72E06C0CD2809F40FC16B
:101B200065E0C62ED12CC016D10639F01B870A8776
:101B30003986288651E0252E312C6C857D858E8551
:101B40009F850E9429197B018C01B601AA85BB855E
:101B50006A1B7B0B882777FD8095982F0E94291997
:101B60009B01AC01C801B7010E94B5197B018C0132
:101B700068857985620D731D882777FD8095982F7C
:101B80000E9429199B01AC01C801B7010E948E185F
:101B90000E94F6187B018C01EE81FF81CE9EC00170
:101BA000CF9E900DDE9E900D1124E80EF91E4A8105
:101BB0005B814E195F0980E893E063E070E00E946A
:101BC000EF022A813B81E20EF31E80E893E062E09F
:101BD00070E0A7010E94EF0232E34316510409F0BE
:101BE00046C083E00E9401138035910514F481E022
:101BF00089838AE793E00E9420058AE793E00E94A8
:101C00001C058AE793E060E671E00E945D178AE7B1
:101C100093E0B3010E9421188AE793E064E671E043
:101C20000E945D178AE793E0B4010E9421188AE7B9
:101C300093E060E041E00E940D058AE793E069E6E9
:101C400071E00E945D178AE793E06E817F810E94B8
:101C500021188AE793E06DE671E00E945D178AE73C
:101C600093E06C817D810E94211844245524998140
:101C7000992309F458C080E893E00E94DA0200E159
:101C800010E086E893E0B8010E9442036FE070E044
:101C900080E090E00E942C120F5F1F4F0436110568
:101CA00081F700E010E08AE893E0B8010E94420367
:101CB0006AE070E080E090E00E942C120F5F1F4FFE
:101CC0000639110581F782E893E064EB70E00E9429
:101CD000420368EE73E080E090E00E942C1282E8FC
:101CE00093E060E070E00E94420364EF71E080E006
:101CF00090E00E942C128AE893E060E070E00E947D
:101D0000420364EF71E080E090E00E942C1286E8CC
:101D100093E060E170E00E94420364EF71E080E0D4
:101D200090E00E942C120894411C511C0894211C24
:101D3000311C86010E945C06882309F4C2CE80E82B
:101D400093E00E94DA022F960FB6F894DEBF0FBE22
:101D5000CDBFCF91DF911F910F91FF90EF90DF905A
:101D6000CF90BF90AF909F908F907F906F905F903B
:101D70004F903F902F9008950F931F93CF93DF9331
:101D800089E793E068E070E00E948605082F10E084
:101D9000000F111F000F111F80E893E00E94DA026C
:101DA0008AE793E060E040E00E940D058AE793E057
:101DB00065EB71E00E945D170E940E068823E1F337
:101DC0000E947A068AE793E060E040E00E940D05F9
:101DD0008AE793E062EC71E00E945D17E8010CC0B5
:101DE00086E893E0BE010E9442036FE070E080E06D
:101DF00090E00E942C122196C436D1058CF3C0E0ED
:101E0000D0E08AE893E0BE010E9442036AE070E0FD
:101E100080E090E00E942C122196C639D10589F706
:101E200082E893E064EB70E00E94420368EE73E0A6
:101E300080E090E00E942C1282E893E060E070E085
:101E40000E94420364EF71E080E090E00E942C1257
:101E50008AE893E060E070E00E94420364EF71E082
:101E600080E090E00E942C1286E893E0B8010E9486
:101E700042030E947A068AE793E060E040E00E9415
:101E80000D058AE793E060ED71E00E945D17DF9138
:101E9000CF911F910F9108952F923F924F925F9291
:101EA0006F927F928F929F92AF92BF92CF92DF926A
:101EB000EF92FF920F931F93DF93CF93CDB7DEB7CF
:101EC0002E970FB6F894DEBF0FBECDBF89E793E023
:101ED00061E070E00E948605282F30E0220F331F5A
:101EE000220F331F3C832B8389E793E062E070E08D
:101EF0000E948605482F50E0440F551F440F551F80
:101F00005A83498389E793E063E070E00E94860585
:101F1000282E3324220C331C220C331C89E793E037
:101F200064E070E00E948605C82EDD24CC0CDD1C28
:101F3000CC0CDD1C00E010E01E821D8244245524E0
:101F4000882499241E861D8618861F8289819A817D
:101F5000AA2797FDA095BA2F89879A87AB87BC8758
:101F6000E3C080E00E9401133C0181E00E94011364
:101F70005C01C614D70434F4C816D90664F41E866E
:101F80001D8625C06C147D0414F5C816D9065CF4B2
:101F9000AFEFBFEF1AC08C159D05CCF4E1E0F0E087
:101FA000FE87ED8714C08C159D058CF42D853E852C
:101FB00037FF05C04BEF5FEF5E874D8708C08D850B
:101FC0009E85892B21F0A5E0B0E0BE87AD87ED8529
:101FD000FE85E017F10739F05E824D8218870F8386
:101FE00091E0492E512C69857A858B859C850E94CC
:101FF00029197B018C016D857E852F813885621BB7
:10200000730B882777FD8095982F0E9429199B01D3
:10201000AC01C801B7010E94B5197B018C016D812B
:102020007E81640D751D882777FD8095982F0E940D
:1020300029199B01AC01C801B7010E948E180E94AA
:10204000F6187B018C014D855E85AB81BC814A9F72
:10205000C0014B9F900D5A9F900D1124E80EF91E60
:10206000A1014E195F0980E893E063E070E00E94EF
:10207000EF02E20CF31C80E893E062E070E0A7015D
:102080000E94EF02B2E38B169104F1F58AE793E028
:102090000E9420058AE793E00E941C058AE793E0EE
:1020A00060E671E00E945D178AE793E0B3010E9449
:1020B00021188AE793E064E671E00E945D178AE7E1
:1020C00093E0B5010E9421188AE793E060E041E0C7
:1020D0000E940D058AE793E069E671E00E945D17B2
:1020E0008AE793E06B817C810E9421188AE793E064
:1020F0006DE671E00E945D178AE793E069817A815D
:102100000E942118882499240E940E06882321F019
:102110000E947A060E94BC0E0894811C911C0894AF
:10212000411C511C0D851E850E945C06882309F404
:1021300018CF80E893E00E94DA022E960FB6F8944A
:10214000DEBF0FBECDBFCF91DF911F910F91FF90EA
:10215000EF90DF90CF90BF90AF909F908F907F9047
:102160006F905F904F903F902F9008951CC00E94F9
:102170007A0685ED91E00E942D0681E090E00E94B4
:10218000DC05019751F48DED91E00E9418060E9444
:102190006B06882311F00E944C0F68EC70E080E021
:1021A00090E00E942C120E945C06882301F308959F
:1021B0002DC00E947A0688EE91E00E942D0682E0F2
:1021C00090E00E94DC058130910519F00297C1F47E
:1021D0000BC08CE791E00E9418060E946B068823D2
:1021E00079F00E9458070CC087E891E00E94180619
:1021F0000E946B06882321F00E947A060E94BC0E82
:1022000068EC70E080E090E00E942C120E945C0676
:10221000882379F208950E947A0688EF91E00E945F
:102220002D0687E090E00E94DC0584309105E1F105
:102230008530910554F482309105F1F08330910599
:102240003CF5019709F071C00BC08630910509F487
:1022500041C0863091059CF1079709F066C045C0E2
:102260008EE991E00E9418060E946B06882309F40B
:102270005CC00E94A80C59C082E791E00E94180639
:102280000E946B06882309F450C00E943B0A4DC08F
:1022900081E092E00E9418060E946B06882309F4F0
:1022A00044C00E94D81041C08EE092E00E941806FF
:1022B0000E946B068823C9F10E94D70836C085EDBD
:1022C00091E00E9418060E946B06882371F10E941B
:1022D000B6102BC084E192E00E9418060E946B06A3
:1022E000882319F10E94F90C20C084E292E00E9438
:1022F00018060E946B068823C1F00E947A060E948D
:10230000A5058AE793E060E040E00E940D058AE7BA
:1023100093E060E372E00E945D1764EF71E080E09B
:1023200090E00E942C120E947A0668EC70E080E037
:1023300090E00E942C12089580E060E00E94CB1291
:1023400081E060E00E94CB1282E893E063E270E0FB
:102350000E94F40386E893E06FE170E00E94F403CA
:102360008AE893E062E270E00E94F40308951F920D
:102370000F920FB60F9211242F933F938F939F9339
:10238000AF93BF938091960390919703A091980388
:10239000B091990330919A030196A11DB11D232F8D
:1023A0002D5F2D3720F02D570196A11DB11D2093D3
:1023B0009A038093960390939703A0939803B09306
:1023C00099038091920390919303A0919403B0910B
:1023D00095030196A11DB11D8093920390939303E1
:1023E000A0939403B0939503BF91AF919F918F9168
:1023F0003F912F910F900FBE0F901F9018956FB7C0
:10240000F89420919203309193034091940350915A
:10241000950382B790E0A0E0B0E006B600FE09C0E8
:102420008F3F9105A105B10521F02F5F3F4F4F4F21
:102430005F4F6FBF542F432F322F2227280F391F92
:102440004A1F5B1F82E0220F331F441F551F8A95CE
:10245000D1F7B901CA010895EF92FF920F931F932C
:10246000CF93DF937B018C010E94FF11EB010EC023
:102470000E94FF116C1B7D0B685E7340C8F30894CB
:10248000E108F10801091109C851DC4FE114F10418
:102490000105110569F7DF91CF911F910F91FF9011
:1024A000EF900895E82FE695E695E695A82FB0E021
:1024B000613099F42FB7F894F0E0EE0FFF1FEE595A
:1024C000FD4F0190F081E02D9081A770B070A8546D
:1024D000BD4F8C91982B908313C02FB7F894F0E0E8
:1024E000EE0FFF1FEE59FD4F0190F081E02D90811E
:1024F000A770B070A854BD4F8C91809589238083BC
:102500002FBF0895A82FE82FE695E695E695F0E011
:10251000EE0FFF1FE059FD4F0190F081E02DE081AB
:10252000B0E0A770B070A854BD4F8C91E82309F0BB
:10253000E1E08E2F0895E82FE695E695E695A82F21
:10254000B0E0613099F42FB7F894F0E0EE0FFF1F80
:10255000EC5AFD4F0190F081E02D9081A770B07092
:10256000A854BD4F8C91982B908313C02FB7F8942B
:10257000F0E0EE0FFF1FEC5AFD4F0190F081E02DCF
:102580009081A770B070A854BD4F8C91809589231D
:1025900080832FBF0895E82FF0E0613051F4EE0FF3
:1025A000FF1FEE59FD4F0190F081E02D8FEF8083EA
:1025B0000895EE0FFF1FEE59FD4F0190F081E02DC1
:1025C00010820895E82FF0E0EE0FFF1FE059FD4F55
:1025D0000190F081E02D80810895E82FF0E0EE0F6A
:1025E000FF1FEC5AFD4F0190F081E02D60830895AC
:1025F000109261001092620080E487B987EE86B97C
:1026000008951F93182F80917E02813021F40E943B
:10261000F81210927E0280917F02181721F4349AEA
:10262000349BFECF0DC010937F0287B11770807E60
:10263000812B87B9349A349BFECF349A349BFECFDA
:1026400024B135B1C9011F91089593B7987F982B94
:1026500093BF08959EB5987F982B9EBD089583E003
:102660000E942A131DBC1CBC87B7846087BF0895D5
:1026700095B5987F982B95BD089582E00E943813F8
:1026800014BC87B7806487BF0895EAE8F0E09081C2
:10269000987F982B9083089583E00E9445131092B1
:1026A000890010928800EDE7F0E0808184608083EB
:1026B0000895803140F4E82FF0E0EE0FFF1FE4565C
:1026C000FC4F718360830895893031F48FB5826047
:1026D0008FBD8FB58E7F0AC08A3019F48FB58260A6
:1026E00002C08FB58D7F8FBD8FB581608FBD1BBC44
:1026F0001ABC19BC18BC1092790010927800089589
:102700008FB580688FBD8FB58F7B8FBD08958FB5D6
:1027100080628FBD8FB58F7E8FBD08958FB5886025
:102720008FBD8FB58B7F8FBD08959BBD8ABD0895EA
:1027300099BD88BD0895909379008093780008959D
:10274000893049F480918B00826080938B00809166
:102750008B008E7F0EC08A3021F480918B008260C6
:1027600003C080918B008D7F80938B0080918B00C4
:10277000816080938B0010928700109286001092E7
:1027800085001092840010928300109282000895B8
:10279000EBE8F0E080818068808380818F7B80839C
:1027A0000895EBE8F0E080818062808380818F7EF5
:1027B00080830895EBE8F0E08081886080838081E9
:1027C0008B7F80830895853019F40E9480130895CB
:1027D000843019F40E9487130895833019F40E94FD
:1027E0008E130895823019F40E94C8130895813021
:1027F00019F40E94D1130895882311F40E94DA136A
:1028000008959093870080938600089590938500A3
:1028100080938400089590938300809382000895AC
:10282000EF92FF921F93CF93DF93182F7B018D318F
:10283000B0F08F3111F413E014C08E3111F414E0B4
:1028400010C08D3109F49BC0853211F410E03DC0F9
:10285000843211F411E039C0833219F48EC0833010
:10286000A0F180919B0386FD0BC00E942F137894EA
:102870008AE00E94641380919B03806480939B0391
:1028800080919B03C12FD0E090E0012E02C095956E
:1028900087950A94E2F780FD4CC087B3FE01E054AF
:1028A000FD4F9081892B87BB812F0E94E3132091DC
:1028B0009B0381E090E0012E02C0880F991F0A94CB
:1028C000E2F7282B20939B0334C080919B0387FD64
:1028D0000BC00E944C1378948AE00E94A013809150
:1028E0009B03806880939B0380919B03C12FD0E062
:1028F00090E0012E02C0959587950A94E2F780FD3D
:1029000024C082B1FE01E054FD4F9081892B82B931
:10291000812F0E94E31320919B0381E090E0012E20
:1029200002C0880F991F0A94E2F7282B20939B037B
:102930000CC0153021F4C7010E94951322C0143039
:1029400021F4C7010E9498131CC0133021F4C70161
:102950000E949B1316C0123021F4C7010E9401147B
:1029600010C0113021F4C7010E9406140AC01123BF
:1029700041F4C7010E940B1404C012E0A6CF15E079
:1029800070CFDF91CF911F91FF90EF9008951F922C
:102990000F920FB60F920BB60F9211242F933F9305
:1029A0004F935F936F937F938F939F93AF93BF9357
:1029B000EF93FF938091A2039091A303892B29F0B9
:1029C000E091A203F091A3030995FF91EF91BF91CC
:1029D000AF919F918F917F916F915F914F913F91B7
:1029E0002F910F900BBE0F900FBE0F901F90189558
:1029F0001F920F920FB60F920BB60F9211242F93C6
:102A00003F934F935F936F937F938F939F93AF9376
:102A1000BF93EF93FF938091AC039091AD03892B0B
:102A200029F0E091AC03F091AD030995FF91EF918E
:102A3000BF91AF919F918F917F916F915F914F91D6
:102A40003F912F910F900BBE0F900FBE0F901F90D4
:102A500018951F920F920FB60F920BB60F9211247A
:102A60002F933F934F935F936F937F938F939F9396
:102A7000AF93BF93EF93FF938091B2039091B30311
:102A8000892B29F0E091B203F091B3030995FF91EE
:102A9000EF91BF91AF919F918F917F916F915F91D6
:102AA0004F913F912F910F900BBE0F900FBE0F9043
:102AB0001F9018951F920F920FB60F920BB60F92A0
:102AC00011242F933F934F935F936F937F938F9333
:102AD0009F93AF93BF93EF93FF9380919E03909149
:102AE0009F03892B29F0E0919E03F0919F030995A4
:102AF000FF91EF91BF91AF919F918F917F916F91D6
:102B00005F914F913F912F910F900BBE0F900FBE91
:102B10000F901F9018951F920F920FB60F920BB641
:102B20000F9211242F933F934F935F936F937F9353
:102B30008F939F93AF93BF93EF93FF938091A403E1
:102B40009091A503892B29F0E091A403F091A503AE
:102B50000995FF91EF91BF91AF919F918F917F91D7
:102B60006F915F914F913F912F910F900BBE0F90FE
:102B70000FBE0F901F9018951F920F920FB60F92D5
:102B80000BB60F9211242F933F934F935F936F9344
:102B90007F938F939F93AF93BF93EF93FF93809116
:102BA000A6039091A703892B29F0E091A603F09149
:102BB000A7030995FF91EF91BF91AF919F918F91DD
:102BC0007F916F915F914F913F912F910F900BBE2D
:102BD0000F900FBE0F901F9018951F920F920FB677
:102BE0000F920BB60F9211242F933F934F935F9345
:102BF0006F937F938F939F93AF93BF93EF93FF93C5
:102C00008091A8039091A903892B29F0E091A80352
:102C1000F091A9030995FF91EF91BF91AF919F9119
:102C20008F917F916F915F914F913F912F910F9075
:102C30000BBE0F900FBE0F901F9018951F920F9212
:102C40000FB60F920BB60F9211242F933F934F9311
:102C50005F936F937F938F939F93AF93BF93EF9304
:102C6000FF938091AA039091AB03892B29F0E09107
:102C7000AA03F091AB030995FF91EF91BF91AF913A
:102C80009F918F917F916F915F914F913F912F9184
:102C90000F900BBE0F900FBE0F901F9018951F92B4
:102CA0000F920FB60F920BB60F9211242F933F93F2
:102CB0004F935F936F937F938F939F93AF93BF9344
:102CC000EF93FF938091AE039091AF03892B29F08E
:102CD000E091AE03F091AF030995FF91EF91BF91A1
:102CE000AF919F918F917F916F915F914F913F91A4
:102CF0002F910F900BBE0F900FBE0F901F90189545
:102D00001F920F920FB60F920BB60F9211242F93B2
:102D10003F934F935F936F937F938F939F93AF9363
:102D2000BF93EF93FF938091B4039091B503892BE8
:102D300029F0E091B403F091B5030995FF91EF916B
:102D4000BF91AF919F918F917F916F915F914F91C3
:102D50003F912F910F900BBE0F900FBE0F901F90C1
:102D600018951F920F920FB60F920BB60F92112467
:102D70002F933F934F935F936F937F938F939F9383
:102D8000AF93BF93EF93FF938091B6039091B703F6
:102D9000892B29F0E091B603F091B7030995FF91D3
:102DA000EF91BF91AF919F918F917F916F915F91C3
:102DB0004F913F912F910F900BBE0F900FBE0F9030
:102DC0001F9018951F920F920FB60F920BB60F928D
:102DD00011242F933F934F935F936F937F938F9320
:102DE0009F93AF93BF93EF93FF938091B80390911C
:102DF000B903892B29F0E091B803F091B903099543
:102E0000FF91EF91BF91AF919F918F917F916F91C2
:102E10005F914F913F912F910F900BBE0F900FBE7E
:102E20000F901F9018951F920F920FB60F920BB62E
:102E30000F9211242F933F934F935F936F937F9340
:102E40008F939F93AF93BF93EF93FF938091BA03B8
:102E50009091BB03892B29F0E091BA03F091BB0359
:102E60000995FF91EF91BF91AF919F918F917F91C4
:102E70006F915F914F913F912F910F900BBE0F90EB
:102E80000FBE0F901F90189583E061E00E94CB1257
:102E900084E061E00E94CB1278940E949C110E9411
:102EA0000B11FDCFDC01ED91FC910190F081E02D43
:102EB000099508950E94521708950F931F93CF9379
:102EC000DF938C01EB0104C02196C8010E945A17C0
:102ED00068816623C9F7DF91CF911F910F91089503
:102EE0002F923F924F925F926F927F928F929F921A
:102EF000AF92BF92CF92DF92EF92FF920F931F9308
:102F0000DF93CF93CDB7DEB7A0970FB6F894DEBFAF
:102F10000FBECDBF1C016A017B0141155105610542
:102F2000710521F460E30E945A174FC08824992448
:102F30005401422E55246624772401E010E00C0F42
:102F40001D1F080D191DC701B601A30192010E94A2
:102F50002B1AF80160830894811C911CA11CB11CE0
:102F6000C701B601A30192010E942B1AC901DA011F
:102F70006C017D01C114D104E104F104F1F681E09A
:102F8000E82EF12CEC0EFD1EE80CF91C3E01089415
:102F9000611C711CD501C4010197A109B1096C0123
:102FA000C818D9080FC0F601EE0DFF1D60816A3008
:102FB00010F4605D01C0695CC1010E945A17089459
:102FC000E108F1086E147F0471F7A0960FB6F8942B
:102FD000DEBF0FBECDBFCF91DF911F910F91FF904C
:102FE000EF90DF90CF90BF90AF909F908F907F90A9
:102FF0006F905F904F903F902F900895EF92FF92C7
:103000000F931F93CF93DF93EC017A018B0177FF2E
:103010000BC06DE20E945A1710950095F094E09451
:10302000E11CF11C011D111DCE01B801A7012AE010
:103030000E947017DF91CF911F910F91FF90EF9039
:103040000895AB01662757FD6095762F0E94FE1705
:1030500008955058BB27AA270ED04DC13ED130F05D
:1030600043D120F031F49F3F11F41EF433C10EF42C
:10307000E095E7FB29C1E92F4FD180F3BA1762072A
:1030800073078407950718F071F49EF567C10EF475
:10309000E0950B2EBA2FA02D0B01B90190010C0168
:1030A000CA01A0011124FF27591B99F0593F50F480
:1030B000503E68F11A16F040A22F232F342F4427D8
:1030C000585FF3CF469537952795A795F0405395D0
:1030D000C9F77EF41F16BA0B620B730B840BBAF0A0
:1030E0009150A1F0FF0FBB1F661F771F881FC2F70B
:1030F0000EC0BA0F621F731F841F48F4879577951F
:103100006795B795F7959E3F08F0B3CF9395880FD5
:1031100008F09927EE0F9795879508950CD0EBC08E
:10312000E3D040F0DAD030F021F45F3F19F0CCC0AA
:10313000511115C1CFC0F0D098F39923C9F355238D
:10314000B1F3951B550BBB27AA276217730784079A
:1031500038F09F5F5F4F220F331F441FAA1FA9F350
:1031600033D00E2E3AF0E0E830D091505040E69542
:10317000001CCAF729D0FE2F27D0660F771F881FA3
:10318000BB1F261737074807AB07B0E809F0BB0B92
:10319000802DBF01FF2793585F4F2AF09E3F5105B6
:1031A00068F092C0DCC05F3FECF3983EDCF386959C
:1031B00077956795B795F7959F5FC9F7880F911D2C
:1031C0009695879597F90895E1E0660F771F881F18
:1031D000BB1F621773078407BA0720F0621B730BCB
:1031E000840BBA0BEE1F88F7E095089504D068941D
:1031F000B111B5C0089598D088F09F5790F0B92FBD
:103200009927B751A0F0D1F0660F771F881F991F3B
:103210001AF0BA95C9F712C0B13081F09FD0B1E071
:1032200008959CC0672F782F8827B85F39F0B93F81
:10323000CCF3869577956795B395D9F73EF490953D
:103240008095709561957F4F8F4F9F4F0895E894BB
:1032500009C097FB3EF490958095709561957F4FDE
:103260008F4F9F4F9923A9F0F92F96E9BB2793958C
:10327000F695879577956795B795F111F8CFFAF49C
:10328000BB0F11F460FF1BC06F5F7F4F8F4F9F4FCD
:1032900016C0882311F096E911C0772321F09EE82B
:1032A000872F762F05C0662371F096E8862F70E091
:1032B00060E02AF09A95660F771F881FDAF7880F6B
:1032C0009695879597F9089597F99F6780E870E03C
:1032D00060E008959FEF80EC089500240A9416168C
:1032E000170618060906089500240A9412161306F4
:1032F000140605060895092E0394000C11F4882382
:1033000052F0BB0F40F4BF2B11F460FF04C06F5F9D
:103310007F4F8F4F9F4F089557FD9058440F551F73
:1033200059F05F3F71F04795880F97FB991F61F047
:103330009F3F79F087950895121613061406551FBE
:10334000F2CF4695F1DF08C0161617061806991F2A
:10335000F1CF86957105610508940895E894BB271F
:1033600066277727CB0197F908950BD0C4CFB5DF37
:1033700028F0BADF18F0952309F0A6CFABCF1124BF
:10338000EECFCADFA0F3959FD1F3950F50E0551F04
:10339000629FF001729FBB27F00DB11D639FAA27AA
:1033A000F00DB11DAA1F649F6627B00DA11D661FF9
:1033B000829F2227B00DA11D621F739FB00DA11D1A
:1033C000621F839FA00D611D221F749F3327A00DD4
:1033D000611D231F849F600D211D822F762F6A2F70
:1033E00011249F5750408AF0E1F088234AF0EE0FF5
:1033F000FF1FBB1F661F771F881F91505040A9F702
:103400009E3F510570F060CFAACF5F3FECF3983E2E
:10341000DCF3869577956795B795F795E7959F5F68
:10342000C1F7FE2B880F911D9695879597F9089502
:1034300097FB092E07260AD077FD04D02ED006D0A0
:1034400000201AF4709561957F4F0895F6F79095D6
:1034500081959F4F0895A1E21A2EAA1BBB1BFD0167
:103460000DC0AA1FBB1FEE1FFF1FA217B307E40763
:10347000F50720F0A21BB30BE40BF50B661F771FBB
:10348000881F991F1A9469F760957095809590959B
:103490009B01AC01BD01CF010895AA1BBB1B51E1EB
:1034A00007C0AA1FBB1FA617B70710F0A61BB70BB4
:1034B000881F991F5A95A9F780959095BC01CD0159
:1034C0000895EE0FFF1F0590F491E02D0994E19906
:1034D000FECF9FBB8EBBE09A99278DB30895262F10
:1034E000E199FECF9FBB8EBB2DBB0FB6F894E29A3D
:0C34F000E19A0FBE01960895F894FFCFFA
:1034FC0056616C75653A2000433A00204E3A0049FB
:10350C006E2050726F6772657373005661726961D9
:10351C00626C653A2000484549474854004C2000ED
:10352C004C4F3A0048493A005220004B5F70004B18
:10353C005F64005370656564004C3A00523A005465
:10354C006872657368004D313A20004D323A2000A4
:10355C004C3A200020523A20004B703A00204B6429
:10356C003A0049522D466F6C6C6F77004564697454
:10357C0020566172732E0052756E2044656D6F007B
:10358C00436865636B2053656E736F72730054618F
:10359C0070652D466F6C6C6F7700416E616C6F6758
:1035AC002050494400536561726368696E672E2E22
:1035BC002E00436F6C6C656374696E672E2E2E0043
:1035CC00446F6E650052756E2D416C6C00466F6CCD
:1035DC002E2B436F6C6C2E004172742E20436F6C3B
:1035EC006C656374696F6E0053656C6563743A2027
:1035FC00004172742E20436F6C6C656374004D6FC8
:10360C00746F720054696D6520547269616C20444A
:10361C00656D6F00526573657420566172733F005F
:10362C005361766564004F626A6563742044657407
:10363C00656374656421005363616E6E696E672EF9
:10364C002E2E00FF320035003B00380023006200B4
:10365C006500310034003A0037002200610064003C
:10366C00300033003900360021002000630001FFD8
:10367C000000000035027E00E401C901FE010000DB
:10368C000000AE01A702AD020000000007019B0282
:10369C00A1021800190026002700050004000100F3
:1036AC00000000000000C604010204081020408045
:0636BC00201008804020F0
:00000001FF
