:100000000C9448000C947C000C947C000C947C00B4
:100010000C947C000C947C000C947C000C947C0070
:100020000C947C000C94FF0A0C94A8090C94CE0A42
:100030000C943B0A0C946C0A0C9477090C940A0AF1
:100040000C94BA060C947C000C94D6000C946501B8
:100050000C947C000C947C000C947C000C947C0030
:100060000C949D0A0C94C30B0C94300B0C94610BF4
:100070000C94920B0C94D9090C94A7000C941E01BB
:100080000C947C000C947C000C947C008D022E055A
:1000900011241FBECFEFD0E1DEBFCDBF88E483BF08
:1000A00084E00E94D50712BE87B7816087BF78942D
:1000B00011E0A0E0B1E0EAE1FDE100E00BBF02C029
:1000C00007900D92A037B107D9F712E0A0E7B1E091
:1000D00001C01D92A935B107E1F710E0C0E9D0E0F9
:1000E00004C02297FE010E94870ECC38D107C9F7C1
:1000F0000E94F40B0C948B0E0C940000FC012481E4
:100100003581C9010895DC01FC01828193818097CA
:1001100014F080E00895FD0182819381019693831C
:10012000828384819581E80FF91F60870196FD0124
:10013000958384832D913C9111978217930714F432
:1001400081E00895FD011582148281E008951F92D7
:100150000F920FB60F920BB60F9211242F933F936D
:100160004F935F936F937F938F939F93AF93BF93BF
:10017000EF93FF93E0910602F091070260818EEB0E
:1001800091E00E948300FF91EF91BF91AF919F9109
:100190008F917F916F915F914F913F912F910F9030
:1001A0000BBE0F900FBE0F901F9018951F920F92CD
:1001B0000FB60F920BB60F9211242F933F934F93CC
:1001C0005F936F937F938F939F93AF93BF93EF93BF
:1001D000FF93E091BA01F091BB01608182E791E069
:1001E0000E948300FF91EF91BF91AF919F918F91FA
:1001F0007F916F915F914F913F912F910F900BBE27
:100200000F900FBE0F901F901895DC01FC018281AA
:10021000938101979383828386819781E80FF91FE9
:1002200040850196FD01978386832D913C9182172D
:10023000930714F017821682842F08951F920F924D
:100240000FB60F920BB60F9211240F931F932F939B
:100250003F934F935F936F937F938F939F93AF934E
:10026000BF93EF93FF938091E8019091E9011816F5
:10027000190654F4009106021091070286EE91E0EF
:100280000E940501F80180838091E8019091E901C5
:10029000892B31F4E0910402F091050288E9808312
:1002A000FF91EF91BF91AF919F918F917F916F914E
:1002B0005F914F913F912F911F910F910F900BBE26
:1002C0000F900FBE0F901F9018951F920F920FB6B0
:1002D0000F920BB60F9211240F931F932F933F93FE
:1002E0004F935F936F937F938F939F93AF93BF933E
:1002F000EF93FF9380919C0190919D011816190630
:1003000054F40091BA011091BB018AE991E00E9476
:100310000501F801808380919C0190919D01892BBA
:1003200031F4E091B801F091B90188E98083FF913F
:10033000EF91BF91AF919F918F917F916F915F915D
:100340004F913F912F911F910F910F900BBE0F90E6
:100350000FBE0F901F901895DC01FC0182819381E4
:1003600001979383828386819781E80FF91F4085E7
:100370000196FD01978386832D913C918217930707
:1003800014F017821682842F0895FC0184819581D0
:10039000892B19F42FEF3FEF06C0CF0102960E9480
:1003A000AC01282F30E0C9010895CF93DF93EC0111
:1003B000EE81FF81E80FF91F8085DF91CF910895CD
:1003C000FC0184819581892B19F42FEF3FEF06C042
:1003D000CF0102960E94D501282F30E0C90108956F
:1003E000FC01138212828281938197838683958395
:1003F0008483089502960E94F0010895FC0180E232
:1004000090E091838083CF010E94F0010895DC0188
:10041000FC0182819381409714F080E00895FD01F2
:100420008281938101969383828384819581E80FF1
:10043000F91F60870196FD01958384832D913C917E
:1004400011978217930714F481E00895FD01158236
:10045000148281E00895CF93DF93EC018CA59DA5D4
:100460004097E4F7F894CE018A960E940702C85B91
:10047000DF4FE881F9818081806280837894DF9109
:10048000CF910895FC011382128282819381978318
:100490008683958384830895FC0180E190E09183B5
:1004A0008083CF010E94420208956F927F928F92C3
:1004B0009F92AF92BF92CF92DF92EF92FF920F93F3
:1004C0001F936C015B014A013901FC0181E491E059
:1004D00081939193CF010E94FE01C6018A960E94EA
:1004E0004C0282E490E0C80ED91EF601A192B192AE
:1004F000819291926192719201931193F182E082C3
:100500001F910F91FF90EF90DF90CF90BF90AF9031
:100510009F908F907F906F900895EF92FF920F932E
:100520001F9380E791E060E970E049E250E02BE240
:1005300030E00AE210E0FCE2EF2EF12C0E945502BE
:100540008CEB91E068E970E049E950E02BE930E09C
:100550000AE910E0ECE9EE2EF12C0E9455021F9101
:100560000F91FF90EF90089585E060E070E00E94A9
:10057000C00884E060E070E00E94C00881E060E0B4
:1005800070E00E94C00880E060E070E00E94C00857
:1005900008950F931F93CF93DF93EB018A01CC0F44
:1005A000DD1F57FD0CC0FE01E55BFE4F808161E061
:1005B0000E944B07CD5ADE4F8881B8010EC0FE0164
:1005C000E55BFE4F808160E00E944B07CD5ADE4F15
:1005D00066277727601B710B88810E94C008DF9116
:1005E000CF911F910F9108951F93CF93DF93C0E098
:1005F000D0E0FE01E55BFE4F1081812F61E00E949B
:100600000207812F61E00E944B07FE01ED5AFE4F69
:10061000808160E070E00E94C0082296C830D10559
:1006200041F7DF91CF911F910895FC0110828AE07C
:1006300090E0938382830895E0911001E7FD15C057
:10064000FF27E7FDF095EE0FFF1FE85FFD4F0190DC
:10065000F081E02D818160E00E944B0706C02F5F92
:1006600081919191892B69F00EC0209110012F5F2B
:10067000E22FFF27E7FDF0952150EE0FFF1FE85F07
:10068000FD4F273064F320931001E0911001FF2704
:10069000E7FDF095EE0FFF1FE85FFD4F0190F08141
:1006A000E02D309761F48FEF8093100124EF31E05B
:1006B0008091190290911A02281B390B12C0818176
:1006C00061E00E944B07E0911001FF27E7FDF095E4
:1006D000EE0FFF1FE85FFD4F0190F081E02D2281BA
:1006E000338183B5820F83BD8091190290911A02E4
:1006F000820F931F90931A0280931902845F914096
:1007000020F010921A021092190208950E94ED072B
:1007100087B78F7787BF85E00E94E80789E06CE1A3
:1007200073E00E94090883B58C5083BD87B7806849
:1007300087BF10921A02109219028FEF8093100156
:100740000895CF93DF93EC0180911802893010F067
:1007500080E03DC06983862F61E00E940207E88146
:10076000F0E0EE0FFF1FE85FFD4F80819181C81719
:10077000D90761F140911802442341F4E8E0F2E026
:100780001192119282E0E831F807D1F7E8E0F2E047
:1007900020E030E080819181892B61F4F901EE0F36
:1007A000FF1FE85FFD4FD183C08328834F5F4093D5
:1007B000180206C02F5F3F4F32962830310551F79F
:1007C00080911802813011F40E94860381E0DF914C
:1007D000CF910895CF93DF93EC018A8160E00E946E
:1007E0004B078D8160E00E947B078D8160E00E9455
:1007F0009D078B8161E00E944B078C8161E00E9424
:100800004B070000000010C08C8160E00E944B0785
:1008100000000000000000008C8161E00E944B0796
:1008200000000000000000008D810E94920787FDFB
:10083000EBCF8C8160E00E944B07DF91CF91089550
:10084000FF920F931F938C01F62E0E94EA03F8018A
:10085000828161E00E944B07F801838160E00E9481
:100860004B07F801848161E00E944B07F801858104
:1008700061E00E947B07F80185816F2D0E949D0732
:100880000000000000000000F801848160E00E9488
:100890004B07F801858160E00E947B07F8018581A4
:1008A0006FEF0E949D071F910F91FF900895EF92A7
:1008B000FF920F931F93CF93DF937C01042F611559
:1008C000710551F0EB0110E005C0C70169910E946C
:1008D00020041F5F1017C8F3DF91CF911F910F9174
:1008E000FF90EF900895DF93CF930F92CDB7DEB7CF
:1008F0006983BE016F5F7F4F41E00E9457040F90F4
:10090000CF91DF910895FF920F931F938C01F62EE4
:100910000E94EA03F801828160E00E944B07F8011F
:10092000838160E00E944B07F801848161E00E94AE
:100930004B07F801858161E00E947B07F801858102
:100940006F2D0E949D070000000000000000F801CC
:10095000848160E00E944B07F801858160E00E947D
:100960007B07F80185816FEF0E949D071F910F9112
:10097000FF900895423031F0433031F0413029F496
:10098000605C03C06C5E01C06C5A60680E948304A6
:10099000089562E00E948304089561E00E94830448
:1009A00008950F931F938C01FC01828160E00E94E7
:1009B0004B07F801838160E00E944B07F8018481B6
:1009C00060E00E944B07F801828161E00E9402070B
:1009D000F801838161E00E940207F801848161E0EF
:1009E0000E940207F801858160E00E947B07F80100
:1009F00085816FEF0E949D071F910F9108950F93BE
:100A00001F938C010E94D104C80168E30E948304F3
:100A1000C80161E00E948304C80166E00E9483046B
:100A2000C8016CE00E948304C80162E00E94830454
:100A3000C80160E80E9483041F910F9108950F93ED
:100A4000FC018FE591E0918380836283438324835B
:100A50000583CF010E94FF040F9108950F938BE14E
:100A600092E06AE14BE12CE102E00E941F0581E285
:100A700092E00E94F40283E292E00E94150387E272
:100A800092E00E9415038BE292E00E9415030F9101
:100A900008952F923F924F925F926F927F928F9222
:100AA0009F92AF92BF92CF92DF92EF92FF920F93FD
:100AB0001F93DF93CF9300D000D000D0CDB7DEB727
:100AC000CC24DD24222433241C821B821A82198226
:100AD0006624772488249924F9C080E00E94B10715
:100AE0005C0181E00E94B1072C0186E00E94B10701
:100AF0008C0187E00E94B107AA2797FDA095BA2F25
:100B0000BC01CD010E94740D20E030E040E450E4CF
:100B10000E94D90C0E94410D7E836D838DE24816A0
:100B200081E058063CF09DE2A91691E0B9060CF070
:100B3000F0C0F1C0ECE24E16E1E05E0699F0FDE295
:100B4000AF16F1E0BF060CF0F0C0F2C012141304AF
:100B50001CF435E0C32ED12C37FE04C02BEFC22E7F
:100B60002FEFD22EC214D30439F03C822B827A822A
:100B7000698291E0692E712C8D819E81C89E100141
:100B8000C99E300CD89E300C1124B801882777FDFF
:100B90008095982F0E94740D20E030E040E450E4EE
:100BA0000E94D90C0E94410D882777FD8095982FCF
:100BB0000E94740D7B018C01B601EB81FC816E1BE0
:100BC0007F0B882777FD8095982F0E94740D9B01DD
:100BD000AC01C801B7010E94000E7B018C01698144
:100BE0007A81660D771D882777FD8095982F0E9462
:100BF000740D9B01AC01C801B7010E94D90C0E9481
:100C0000410D8B01020D131DFEE18F16910409F0B9
:100C100043C08BE192E00E94CD048BE192E00E9400
:100C2000C9048BE192E060E040E00E94BA048BE1ED
:100C300092E060E071E00E940D0C8BE192E0B50162
:100C40000E94D10C8BE192E064E071E00E940D0CF7
:100C50008BE192E06D817E810E94D10C8BE192E06C
:100C600060E041E00E94BA048BE192E069E071E04B
:100C70000E940D0C8BE192E0B2010E94D10C8BE13D
:100C800092E06CE071E00E940D0C8BE192E0B1010A
:100C90000E94D10C882499240894811C911C0894EA
:100CA000611C711C4EE551E0401B510B81E292E04A
:100CB00061E070E00E94C902025A1E4F81E292E098
:100CC00063E070E0A8010E94C902160182E30E945D
:100CD0003207882309F001CF81E292E00E94B4023A
:100CE00026960FB6F894DEBF0FBECDBFCF91DF9131
:100CF0001F910F91FF90EF90DF90CF90BF90AF903A
:100D00009F908F907F906F905F904F903F902F902B
:100D10000895CC24DD248CE2A81681E0B8060CF0FE
:100D200021CF81E0C82ED12C1DCFCC24CA94DC2C3D
:100D30009CE2A91691E0B9060CF408CF13CF80E02D
:100D400060E00E947B0781E060E00E947B0783E215
:100D500092E063E270E00E94A10387E292E06FE11B
:100D600070E00E94A1038BE292E062E270E00E94D8
:100D7000A10308951F920F920FB60F9211242F9383
:100D80003F938F939F93AF93BF9380913302909142
:100D90003402A0913502B0913602309137020196AB
:100DA000A11DB11D232F2D5F2D3720F02D5701964A
:100DB000A11DB11D2093370280933302909334021A
:100DC000A0933502B093360280912F0290913002A9
:100DD000A0913102B09132020196A11DB11D809304
:100DE0002F0290933002A0933102B0933202BF9150
:100DF000AF919F918F913F912F910F900FBE0F90C8
:100E00001F901895E82FE695E695E695A82FB0E097
:100E1000613099F42FB7F894F0E0EE0FFF1FE15E18
:100E2000FE4F0190F081E02D9081A770B070AF5916
:100E3000BE4F8C91982B908313C02FB7F894F0E09D
:100E4000EE0FFF1FE15EFE4F0190F081E02D9081DB
:100E5000A770B070AF59BE4F8C9180958923808365
:100E60002FBF0895A82FE82FE695E695E695F0E0C8
:100E7000EE0FFF1FE35DFE4F0190F081E02DE0815A
:100E8000B0E0A770B070AF59BE4F8C91E82309F065
:100E9000E1E08E2F0895E82FE695E695E695A82FD8
:100EA000B0E0613099F42FB7F894F0E0EE0FFF1F37
:100EB000EF5EFE4F0190F081E02D9081A770B07041
:100EC000AF59BE4F8C91982B908313C02FB7F894D5
:100ED000F0E0EE0FFF1FEF5EFE4F0190F081E02D7E
:100EE0009081A770B070AF59BE4F8C9180958923C7
:100EF00080832FBF0895E82FF0E0613051F4EE0FAA
:100F0000FF1FE15EFE4F0190F081E02D8FEF8083A7
:100F10000895EE0FFF1FE15EFE4F0190F081E02D7E
:100F200010820895E82FF0E0EE0FFF1FE35DFE4F03
:100F30000190F081E02D80810895E82FF0E0EE0F20
:100F4000FF1FEF5EFE4F0190F081E02D608308955A
:100F5000109261001092620080E487B987EE86B932
:100F600008951F93182F80913B01813021F40E9436
:100F7000A80710923B0180913C01181721F4349A84
:100F8000349BFECF0DC010933C0187B11770807E5B
:100F9000812B87B9349A349BFECF349A349BFECF91
:100FA00024B135B1C9011F91089593B7987F982B4B
:100FB00093BF08959EB5987F982B9EBD089583E0BA
:100FC0000E94DA071DBC1CBC87B7846087BF0895E8
:100FD00095B5987F982B95BD089582E00E94E8070B
:100FE00014BC87B7806487BF0895EAE8F0E0908179
:100FF000987F982B9083089583E00E94F5071092C4
:10100000890010928800EDE7F0E0808184608083A1
:101010000895803140F4E82FF0E0EE0FFF1FE75C09
:10102000FD4F718360830895893031F48FB58260FC
:101030008FBD8FB58E7F0AC08A3019F48FB582605C
:1010400002C08FB58D7F8FBD8FB581608FBD1BBCFA
:101050001ABC19BC18BC109279001092780008953F
:101060008FB580688FBD8FB58F7B8FBD08958FB58D
:1010700080628FBD8FB58F7E8FBD08958FB58860DC
:101080008FBD8FB58B7F8FBD08959BBD8ABD0895A1
:1010900099BD88BD08959093790080937800089554
:1010A000893049F480918B00826080938B0080911D
:1010B0008B008E7F0EC08A3021F480918B0082607D
:1010C00003C080918B008D7F80938B0080918B007B
:1010D000816080938B00109287001092860010929E
:1010E000850010928400109283001092820008956F
:1010F000EBE8F0E080818068808380818F7B808353
:101100000895EBE8F0E080818062808380818F7EAB
:1011100080830895EBE8F0E080818860808380819F
:101120008B7F80830895853019F40E9430080895DC
:10113000843019F40E9437080895833019F40E940E
:101140003E080895823019F40E947808089581308D
:1011500019F40E9481080895882311F40E948A08D6
:10116000089590938700809386000895909385005A
:101170008093840008959093830080938200089563
:10118000EF92FF921F93CF93DF93182F7B018D3146
:10119000B0F08F3111F413E014C08E3111F414E06B
:1011A00010C08D3109F49BC0853211F410E03DC0B0
:1011B000843211F411E039C0833219F48EC08330C7
:1011C000A0F18091380286FD0BC00E94DF07789461
:1011D0008AE00E941408809138028064809338026B
:1011E00080913802C12FD0E090E0012E02C0959589
:1011F00087950A94E2F780FD4CC087B3FE01E7595A
:10120000FE4F9081892B87BB812F0E9493082091EC
:10121000380281E090E0012E02C0880F991F0A94E5
:10122000E2F7282B2093380234C08091380287FDE2
:101230000BC00E94FC0778948AE00E9450088091BD
:10124000380280688093380280913802C12FD0E044
:1012500090E0012E02C0959587950A94E2F780FDF3
:1012600024C082B1FE01E759FE4F9081892B82B9DB
:10127000812F0E9493082091380281E090E0012E96
:1012800002C0880F991F0A94E2F7282B2093380296
:101290000CC0153021F4C7010E94450822C014304B
:1012A00021F4C7010E9448081CC0133021F4C70173
:1012B0000E944B0816C0123021F4C7010E94B108E9
:1012C00010C0113021F4C7010E94B6080AC01123D2
:1012D00041F4C7010E94BB0804C012E0A6CF15E08C
:1012E00070CFDF91CF911F91FF90EF9008951F92E3
:1012F0000F920FB60F920BB60F9211242F933F93BC
:101300004F935F936F937F938F939F93AF93BF930D
:10131000EF93FF9380913F0290914002892B29F037
:10132000E0913F02F09140020995FF91EF91BF914A
:10133000AF919F918F917F916F915F914F913F916D
:101340002F910F900BBE0F900FBE0F901F9018950E
:101350001F920F920FB60F920BB60F9211242F937C
:101360003F934F935F936F937F938F939F93AF932D
:10137000BF93EF93FF938091490290914A02892B8A
:1013800029F0E0914902F0914A020995FF91EF910D
:10139000BF91AF919F918F917F916F915F914F918D
:1013A0003F912F910F900BBE0F900FBE0F901F908B
:1013B00018951F920F920FB60F920BB60F92112431
:1013C0002F933F934F935F936F937F938F939F934D
:1013D000AF93BF93EF93FF9380914F029091500290
:1013E000892B29F0E0914F02F09150020995FF916D
:1013F000EF91BF91AF919F918F917F916F915F918D
:101400004F913F912F910F900BBE0F900FBE0F90F9
:101410001F9018951F920F920FB60F920BB60F9256
:1014200011242F933F934F935F936F937F938F93E9
:101430009F93AF93BF93EF93FF9380913B02909163
:101440003C02892B29F0E0913B02F0913C02099586
:10145000FF91EF91BF91AF919F918F917F916F918C
:101460005F914F913F912F910F900BBE0F900FBE48
:101470000F901F9018951F920F920FB60F920BB6F8
:101480000F9211242F933F934F935F936F937F930A
:101490008F939F93AF93BF93EF93FF9380914102FC
:1014A00090914202892B29F0E0914102F091420291
:1014B0000995FF91EF91BF91AF919F918F917F918E
:1014C0006F915F914F913F912F910F900BBE0F90B5
:1014D0000FBE0F901F9018951F920F920FB60F928C
:1014E0000BB60F9211242F933F934F935F936F93FB
:1014F0007F938F939F93AF93BF93EF93FF938091CD
:10150000430290914402892B29F0E0914302F0912B
:1015100044020995FF91EF91BF91AF919F918F91F7
:101520007F916F915F914F913F912F910F900BBEE3
:101530000F900FBE0F901F9018951F920F920FB62D
:101540000F920BB60F9211242F933F934F935F93FB
:101550006F937F938F939F93AF93BF93EF93FF937B
:101560008091450290914602892B29F0E091450235
:10157000F09146020995FF91EF91BF91AF919F9134
:101580008F917F916F915F914F913F912F910F902C
:101590000BBE0F900FBE0F901F9018951F920F92C9
:1015A0000FB60F920BB60F9211242F933F934F93C8
:1015B0005F936F937F938F939F93AF93BF93EF93BB
:1015C000FF938091470290914802892B29F0E09186
:1015D0004702F09148020995FF91EF91BF91AF91B9
:1015E0009F918F917F916F915F914F913F912F913B
:1015F0000F900BBE0F900FBE0F901F9018951F926B
:101600000F920FB60F920BB60F9211242F933F93A8
:101610004F935F936F937F938F939F93AF93BF93FA
:10162000EF93FF9380914B0290914C02892B29F00C
:10163000E0914B02F0914C020995FF91EF91BF911F
:10164000AF919F918F917F916F915F914F913F915A
:101650002F910F900BBE0F900FBE0F901F901895FB
:101660001F920F920FB60F920BB60F9211242F9369
:101670003F934F935F936F937F938F939F93AF931A
:10168000BF93EF93FF938091510290915202892B67
:1016900029F0E0915102F09152020995FF91EF91EA
:1016A000BF91AF919F918F917F916F915F914F917A
:1016B0003F912F910F900BBE0F900FBE0F901F9078
:1016C00018951F920F920FB60F920BB60F9211241E
:1016D0002F933F934F935F936F937F938F939F933A
:1016E000AF93BF93EF93FF93809153029091540275
:1016F000892B29F0E0915302F09154020995FF9152
:10170000EF91BF91AF919F918F917F916F915F9179
:101710004F913F912F910F900BBE0F900FBE0F90E6
:101720001F9018951F920F920FB60F920BB60F9243
:1017300011242F933F934F935F936F937F938F93D6
:101740009F93AF93BF93EF93FF9380915502909136
:101750005602892B29F0E0915502F0915602099525
:10176000FF91EF91BF91AF919F918F917F916F9179
:101770005F914F913F912F910F900BBE0F900FBE35
:101780000F901F9018951F920F920FB60F920BB6E5
:101790000F9211242F933F934F935F936F937F93F7
:1017A0008F939F93AF93BF93EF93FF9380915702D3
:1017B00090915802892B29F0E0915702F09158023C
:1017C0000995FF91EF91BF91AF919F918F917F917B
:1017D0006F915F914F913F912F910F900BBE0F90A2
:1017E0000FBE0F901F90189583E061E00E947B0769
:1017F00084E061E00E947B0778940E949F060E942B
:101800004905FDCFDC01ED91FC910190F081E02DC7
:10181000099508950E94020C08950F931F93CF938A
:10182000DF938C01EB0104C02196C8010E940A0CD1
:1018300068816623C9F7DF91CF911F910F910895B9
:101840002F923F924F925F926F927F928F929F92D0
:10185000AF92BF92CF92DF92EF92FF920F931F93BE
:10186000DF93CF93CDB7DEB7A0970FB6F894DEBF66
:101870000FBECDBF1C016A017B01411551056105F9
:10188000710521F460E30E940A0C4FC0882499245A
:101890005401422E55246624772401E010E00C0FF9
:1018A0001D1F080D191DC701B601A30192010E9459
:1018B000630EF80160830894811C911CA11CB11C6B
:1018C000C701B601A30192010E94630EC901DA01AA
:1018D0006C017D01C114D104E104F104F1F681E051
:1018E000E82EF12CEC0EFD1EE80CF91C3E010894CC
:1018F000611C711CD501C4010197A109B1096C01DA
:10190000C818D9080FC0F601EE0DFF1D60816A30BE
:1019100010F4605D01C0695CC1010E940A0C08946A
:10192000E108F1086E147F0471F7A0960FB6F894E1
:10193000DEBF0FBECDBFCF91DF911F910F91FF9002
:10194000EF90DF90CF90BF90AF909F908F907F905F
:101950006F905F904F903F902F900895EF92FF927D
:101960000F931F93CF93DF93EC017A018B0177FFE5
:101970000BC06DE20E940A0C10950095F094E09463
:10198000E11CF11C011D111DCE01B801A7012AE0C7
:101990000E94200CDF91CF911F910F91FF90EF904B
:1019A0000895AB01662757FD6095762F0E94AE0C17
:1019B00008950CD0EBC0E3D040F0DAD030F021F441
:1019C0005F3F19F0CCC0511115C1CFC0F0D098F3D2
:1019D0009923C9F35523B1F3951B550BBB27AA27B0
:1019E00062177307840738F09F5F5F4F220F331F22
:1019F000441FAA1FA9F333D00E2E3AF0E0E830D0EE
:101A000091505040E695001CCAF729D0FE2F27D0F0
:101A1000660F771F881FBB1F261737074807AB07BE
:101A2000B0E809F0BB0B802DBF01FF2793585F4F33
:101A30002AF09E3F510568F092C0DCC05F3FECF396
:101A4000983EDCF3869577956795B795F7959F5FF8
:101A5000C9F7880F911D9695879597F90895E1E04C
:101A6000660F771F881FBB1F621773078407BA07AB
:101A700020F0621B730B840BBA0BEE1F88F7E09506
:101A8000089504D06894B111B5C0089598D088F035
:101A90009F5790F0B92F9927B751A0F0D1F0660F5A
:101AA000771F881F991F1AF0BA95C9F712C0B13075
:101AB00081F09FD0B1E008959CC0672F782F8827D0
:101AC000B85F39F0B93FCCF3869577956795B395B4
:101AD000D9F73EF490958095709561957F4F8F4F23
:101AE0009F4F0895E89409C097FB3EF49095809528
:101AF000709561957F4F8F4F9F4F9923A9F0F92FD4
:101B000096E9BB279395F695879577956795B79551
:101B1000F111F8CFFAF4BB0F11F460FF1BC06F5F37
:101B20007F4F8F4F9F4F16C0882311F096E911C049
:101B3000772321F09EE8872F762F05C0662371F06A
:101B400096E8862F70E060E02AF09A95660F771F7E
:101B5000881FDAF7880F9695879597F9089597F972
:101B60009F6780E870E060E008959FEF80EC089543
:101B700000240A941616170618060906089500246C
:101B80000A9412161306140605060895092E0394E6
:101B9000000C11F4882352F0BB0F40F4BF2B11F45A
:101BA00060FF04C06F5F7F4F8F4F9F4F089557FDB9
:101BB0009058440F551F59F05F3F71F04795880FBB
:101BC00097FB991F61F09F3F79F087950895121652
:101BD00013061406551FF2CF4695F1DF08C01616FE
:101BE00017061806991FF1CF8695710561050894AF
:101BF0000895E894BB2766277727CB0197F90895C6
:101C00000BD0C4CFB5DF28F0BADF18F0952309F068
:101C1000A6CFABCF1124EECFCADFA0F3959FD1F3AF
:101C2000950F50E0551F629FF001729FBB27F00D8A
:101C3000B11D639FAA27F00DB11DAA1F649F6627DF
:101C4000B00DA11D661F829F2227B00DA11D621F2E
:101C5000739FB00DA11D621F839FA00D611D221FE8
:101C6000749F3327A00D611D231F849F600D211DCC
:101C7000822F762F6A2F11249F5750408AF0E1F06F
:101C800088234AF0EE0FFF1FBB1F661F771F881FB8
:101C900091505040A9F79E3F510570F060CFAACFF8
:101CA0005F3FECF3983EDCF3869577956795B795A3
:101CB000F795E7959F5FC1F7FE2B880F911D9695CD
:101CC000879597F90895A1E21A2EAA1BBB1BFD0167
:101CD0000DC0AA1FBB1FEE1FFF1FA217B307E4070B
:101CE000F50720F0A21BB30BE40BF50B661F771F63
:101CF000881F991F1A9469F7609570958095909543
:101D00009B01AC01BD01CF010895EE0FFF1F0590AF
:0A1D1000F491E02D0994F894FFCF40
:101D1A00523A2000206B703A004C3A0020703A0088
:101D2A00FF320035003B00380023006200650031B5
:101D3A000034003A003700220061006400300033AA
:101D4A00003900360021002000630001FF00000076
:101D5A00002B027E00E001C501FA011800190026D5
:101D6A0000270005000400010000000000000073C5
:101D7A00040102040810204080201008804020003E
:00000001FF
