:100000000C9448000C947C000C947C000C947C00B4
:100010000C947C000C947C000C947C000C947C0070
:100020000C947C000C94FC0A0C94A5090C94CB0A4B
:100030000C94380A0C94690A0C9474090C94070AFD
:100040000C94B7060C947C000C94D6000C946501BB
:100050000C947C000C947C000C947C000C947C0030
:100060000C949A0A0C94C00B0C942D0B0C945E0B00
:100070000C948F0B0C94D6090C94A7000C941E01C1
:100080000C947C000C947C000C947C008D022E055A
:1000900011241FBECFEFD0E1DEBFCDBF88E483BF08
:1000A00084E00E94D20712BE87B7816087BF789430
:1000B00011E0A0E0B1E0E4E1FDE100E00BBF02C02F
:1000C00007900D92A037B107D9F712E0A0E7B1E091
:1000D00001C01D92A935B107E1F710E0C0E9D0E0F9
:1000E00004C02297FE010E94840ECC38D107C9F7C4
:1000F0000E94F10B0C94880E0C940000FC012481EA
:100100003581C9010895DC01FC01828193818097CA
:1001100014F080E00895FD0182819381019693831C
:10012000828384819581E80FF91F60870196FD0124
:10013000958384832D913C9111978217930714F432
:1001400081E00895FD011582148281E008951F92D7
:100150000F920FB60F920BB60F9211242F933F936D
:100160004F935F936F937F938F939F93AF93BF93BF
:10017000EF93FF93E0910602F091070260818EEB0E
:1001800091E00E948300FF91EF91BF91AF919F9109
:100190008F917F916F915F914F913F912F910F9030
:1001A0000BBE0F900FBE0F901F9018951F920F92CD
:1001B0000FB60F920BB60F9211242F933F934F93CC
:1001C0005F936F937F938F939F93AF93BF93EF93BF
:1001D000FF93E091BA01F091BB01608182E791E069
:1001E0000E948300FF91EF91BF91AF919F918F91FA
:1001F0007F916F915F914F913F912F910F900BBE27
:100200000F900FBE0F901F901895DC01FC018281AA
:10021000938101979383828386819781E80FF91FE9
:1002200040850196FD01978386832D913C9182172D
:10023000930714F017821682842F08951F920F924D
:100240000FB60F920BB60F9211240F931F932F939B
:100250003F934F935F936F937F938F939F93AF934E
:10026000BF93EF93FF938091E8019091E9011816F5
:10027000190654F4009106021091070286EE91E0EF
:100280000E940501F80180838091E8019091E901C5
:10029000892B31F4E0910402F091050288E9808312
:1002A000FF91EF91BF91AF919F918F917F916F914E
:1002B0005F914F913F912F911F910F910F900BBE26
:1002C0000F900FBE0F901F9018951F920F920FB6B0
:1002D0000F920BB60F9211240F931F932F933F93FE
:1002E0004F935F936F937F938F939F93AF93BF933E
:1002F000EF93FF9380919C0190919D011816190630
:1003000054F40091BA011091BB018AE991E00E9476
:100310000501F801808380919C0190919D01892BBA
:1003200031F4E091B801F091B90188E98083FF913F
:10033000EF91BF91AF919F918F917F916F915F915D
:100340004F913F912F911F910F910F900BBE0F90E6
:100350000FBE0F901F901895DC01FC0182819381E4
:1003600001979383828386819781E80FF91F4085E7
:100370000196FD01978386832D913C918217930707
:1003800014F017821682842F0895FC0184819581D0
:10039000892B19F42FEF3FEF06C0CF0102960E9480
:1003A000AC01282F30E0C9010895CF93DF93EC0111
:1003B000EE81FF81E80FF91F8085DF91CF910895CD
:1003C000FC0184819581892B19F42FEF3FEF06C042
:1003D000CF0102960E94D501282F30E0C90108956F
:1003E000FC01138212828281938197838683958395
:1003F0008483089502960E94F0010895FC0180E232
:1004000090E091838083CF010E94F0010895DC0188
:10041000FC0182819381409714F080E00895FD01F2
:100420008281938101969383828384819581E80FF1
:10043000F91F60870196FD01958384832D913C917E
:1004400011978217930714F481E00895FD01158236
:10045000148281E00895CF93DF93EC018CA59DA5D4
:100460004097E4F7F894CE018A960E940702C85B91
:10047000DF4FE881F9818081806280837894DF9109
:10048000CF910895FC011382128282819381978318
:100490008683958384830895FC0180E190E09183B5
:1004A0008083CF010E94420208956F927F928F92C3
:1004B0009F92AF92BF92CF92DF92EF92FF920F93F3
:1004C0001F936C015B014A013901FC0182E491E058
:1004D00081939193CF010E94FE01C6018A960E94EA
:1004E0004C0282E490E0C80ED91EF601A192B192AE
:1004F000819291926192719201931193F182E082C3
:100500001F910F91FF90EF90DF90CF90BF90AF9031
:100510009F908F907F906F900895EF92FF920F932E
:100520001F9380E791E060E970E049E250E02BE240
:1005300030E00AE210E0FCE2EF2EF12C0E945502BE
:100540008CEB91E068E970E049E950E02BE930E09C
:100550000AE910E0ECE9EE2EF12C0E9455021F9101
:100560000F91FF90EF90089585E060E070E00E94A9
:10057000BD0884E060E070E00E94BD0881E060E0BA
:1005800070E00E94BD0880E060E070E00E94BD085D
:1005900008950F931F93CF93DF93EB018A01CC0F44
:1005A000DD1F57FD0CC0FE01E45BFE4F808161E062
:1005B0000E944807CC5ADE4F8881B8010EC0FE0168
:1005C000E45BFE4F808160E00E944807CC5ADE4F1A
:1005D00066277727601B710B88810E94BD08DF9119
:1005E000CF911F910F9108951F93CF93DF93C0E098
:1005F000D0E0FE01E45BFE4F1081812F61E00E949C
:10060000FF06812F61E00E944807FE01EC5AFE4F71
:10061000808160E070E00E94BD082296C830D1055C
:1006200041F7DF91CF911F910895FC0110828AE07C
:1006300090E0938382830895E0911101E7FD15C056
:10064000FF27E7FDF095EE0FFF1FE85FFD4F0190DC
:10065000F081E02D818160E00E94480706C02F5F95
:1006600081919191892B69F00EC0209111012F5F2A
:10067000E22FFF27E7FDF0952150EE0FFF1FE85F07
:10068000FD4F273064F320931101E0911101FF2702
:10069000E7FDF095EE0FFF1FE85FFD4F0190F08141
:1006A000E02D309761F48FEF8093110124EF31E05A
:1006B0008091190290911A02281B390B12C0818176
:1006C00061E00E944807E0911101FF27E7FDF095E6
:1006D000EE0FFF1FE85FFD4F0190F081E02D2281BA
:1006E000338183B5820F83BD8091190290911A02E4
:1006F000820F931F90931A0280931902845F914096
:1007000020F010921A021092190208950E94EA072E
:1007100087B78F7787BF85E00E94E50789E06CE1A6
:1007200073E00E94060883B58C5083BD87B780684C
:1007300087BF10921A02109219028FEF8093110155
:100740000895CF93DF93EC0180911802893010F067
:1007500080E03DC06983862F61E00E94FF06E8814A
:10076000F0E0EE0FFF1FE85FFD4F80819181C81719
:10077000D90761F140911802442341F4E8E0F2E026
:100780001192119282E0E831F807D1F7E8E0F2E047
:1007900020E030E080819181892B61F4F901EE0F36
:1007A000FF1FE85FFD4FD183C08328834F5F4093D5
:1007B000180206C02F5F3F4F32962830310551F79F
:1007C00080911802813011F40E94860381E0DF914C
:1007D000CF910895CF93DF93EC018A8160E00E946E
:1007E00048078D8160E00E9478078D8160E00E945B
:1007F0009A078B8161E00E9448078C8161E00E942A
:1008000048070000000010C08C8160E00E9448078B
:1008100000000000000000008C8161E00E94480799
:1008200000000000000000008D810E948F0787FDFE
:10083000EBCF8C8160E00E944807DF91CF91089553
:10084000FF920F931F938C01F62E0E94EA03F8018A
:10085000828161E00E944807F801838160E00E9484
:100860004807F801848161E00E944807F80185810A
:1008700061E00E947807F80185816F2D0E949A0738
:100880000000000000000000F801848160E00E9488
:100890004807F801858160E00E947807F8018581AA
:1008A0006FEF0E949A071F910F91FF900895EF92AA
:1008B000FF920F931F93CF93DF937C01042F611559
:1008C000710551F0EB0110E005C0C70169910E946C
:1008D00020041F5F1017C8F3DF91CF911F910F9174
:1008E000FF90EF900895DF93CF930F92CDB7DEB7CF
:1008F0006983BE016F5F7F4F41E00E9457040F90F4
:10090000CF91DF910895FF920F931F938C01F62EE4
:100910000E94EA03F801828160E00E944807F80122
:10092000838160E00E944807F801848161E00E94B1
:100930004807F801858161E00E947807F801858108
:100940006F2D0E949A070000000000000000F801CF
:10095000848160E00E944807F801858160E00E9480
:100960007807F80185816FEF0E949A071F910F9118
:10097000FF900895423031F0433031F0413029F496
:10098000605C03C06C5E01C06C5A60680E948304A6
:10099000089562E00E948304089561E00E94830448
:1009A00008950F931F938C01FC01828160E00E94E7
:1009B0004807F801838160E00E944807F8018481BC
:1009C00060E00E944807F801828161E00E94FF0612
:1009D000F801838161E00E94FF06F801848161E0F3
:1009E0000E94FF06F801858160E00E947807F80107
:1009F00085816FEF0E949A071F910F9108950F93C1
:100A00001F938C010E94D104C80168E30E948304F3
:100A1000C80161E00E948304C80166E00E9483046B
:100A2000C8016CE00E948304C80162E00E94830454
:100A3000C80160E80E9483041F910F9108950F93ED
:100A4000FC0180E691E09183808362834383248369
:100A50000583CF010E94FF040F9108950F938BE14E
:100A600092E06AE14BE12CE102E00E941F0581E285
:100A700092E00E94F40283E292E00E94150387E272
:100A800092E00E9415038BE292E00E9415030F9101
:100A900008952F923F924F925F926F927F928F9222
:100AA0009F92AF92BF92CF92DF92EF92FF920F93FD
:100AB0001F93DF93CF9300D000D000D0CDB7DEB727
:100AC000CC24DD2400E010E01C821B821A821982F3
:100AD00088249924AA24BB24F8C080E00E94AE0791
:100AE0003C0181E00E94AE077C0186E00E94AE07D7
:100AF000AA2797FDA095BA2FBC01CD010E94710DC8
:100B000020E030E040E251E40E94D60C0E943E0D0D
:100B10001B0187E00E94AE07AA2797FDA095BA2F78
:100B2000BC01CD010E94710D20E030E040E251E4B3
:100B30000E94D60C0E943E0D2B0185E6E816F104BA
:100B400034F095E6691671040CF0E2C0E3C0E4E607
:100B5000EE16F10481F0F5E66F1671040CF0E3C0B7
:100B6000E5C017FF05C03BEFC32E3FEFD32E03C0F8
:100B700025E0C22ED12CC016D10639F01C830B8380
:100B80009A82898291E0892E912CC49C3001C59C67
:100B9000700CD49C700C1124B101882777FD8095CE
:100BA000982F0E94710D7B018C01B6018B819C8175
:100BB000681B790B882777FD8095982F0E94710D0F
:100BC0009B01AC01C801B7010E94FD0D7B018C01A6
:100BD00069817A81680D791D882777FD8095982F26
:100BE0000E94710D9B01AC01C801B7010E94D60C97
:100BF0000E943E0D7B018C01FB01E60DF71DFE837B
:100C0000ED83FEE1AF16B10409F042C08BE192E042
:100C10000E94CD048BE192E00E94C9048BE192E036
:100C200060E040E00E94BA048BE192E060E071E095
:100C30000E940A0C8BE192E0B2010E94CE0C8BE183
:100C400092E065E071E00E940A0C8BE192E0B10154
:100C50000E94CE0C8BE192E060E041E00E94BA0479
:100C60008BE192E06AE071E00E940A0C8BE192E075
:100C7000B3010E94CE0C8BE192E06DE071E00E9426
:100C80000A0C8BE192E0B7010E94CE0CAA24BB248F
:100C90000894A11CB11C0894811C911C4D815E819B
:100CA00046505F4F81E292E061E070E00E94C9022D
:100CB0004AEF50E08D819E81481B590B81E292E002
:100CC00063E070E00E94C902860182E30E942F0760
:100CD000882309F002CF81E292E00E94B4022696B6
:100CE0000FB6F894DEBF0FBECDBFCF91DF911F913D
:100CF0000F91FF90EF90DF90CF90BF90AF909F90BB
:100D00008F907F906F905F904F903F902F900895BD
:100D1000CC24DD2494E6691671040CF02CCF81E01C
:100D2000C82ED12C28CFCC24CA94DC2CE4E66E1635
:100D300071040CF416CF1FCF80E060E00E947807AA
:100D400081E060E00E94780783E292E063E270E075
:100D50000E94A10387E292E06FE170E00E94A1038C
:100D60008BE292E062E270E00E94A10308951F927C
:100D70000F920FB60F9211242F933F938F939F934F
:100D8000AF93BF938091330290913402A0913502CA
:100D9000B0913602309137020196A11DB11D232F6B
:100DA0002D5F2D3720F02D570196A11DB11D2093E9
:100DB00037028093330290933402A0933502B093AC
:100DC000360280912F0290913002A0913102B091B1
:100DD00032020196A11DB11D80932F029093300223
:100DE000A0933102B0933202BF91AF919F918F9146
:100DF0003F912F910F900FBE0F901F901895E82FE5
:100E0000E695E695E695A82FB0E0613099F42FB706
:100E1000F894F0E0EE0FFF1FE05EFE4F0190F081CE
:100E2000E02D9081A770B070AE59BE4F8C91982B79
:100E3000908313C02FB7F894F0E0EE0FFF1FE05E31
:100E4000FE4F0190F081E02D9081A770B070AE59F7
:100E5000BE4F8C918095892380832FBF0895A82F42
:100E6000E82FE695E695E695F0E0EE0FFF1FE25DD0
:100E7000FE4F0190F081E02DE081B0E0A770B070EE
:100E8000AE59BE4F8C91E82309F0E1E08E2F089512
:100E9000E82FE695E695E695A82FB0E0613099F445
:100EA0002FB7F894F0E0EE0FFF1FEE5EFE4F0190BB
:100EB000F081E02D9081A770B070AE59BE4F8C913B
:100EC000982B908313C02FB7F894F0E0EE0FFF1F1C
:100ED000EE5EFE4F0190F081E02D9081A770B07022
:100EE000AE59BE4F8C918095892380832FBF089582
:100EF000E82FF0E0613051F4EE0FFF1FE05EFE4F8F
:100F00000190F081E02D8FEF80830895EE0FFF1F99
:100F1000E05EFE4F0190F081E02D10820895E82FF1
:100F2000F0E0EE0FFF1FE25DFE4F0190F081E02D3B
:100F300080810895E82FF0E0EE0FFF1FEE5EFE4F78
:100F40000190F081E02D608308951092610010926D
:100F5000620080E487B987EE86B908951F93182F41
:100F600080913C01813021F40E94A50710923C0140
:100F700080913D01181721F4349A349BFECF0DC0A7
:100F800010933D0187B11770807E812B87B9349A09
:100F9000349BFECF349A349BFECF24B135B1C901C6
:100FA0001F91089593B7987F982B93BF08959EB58E
:100FB000987F982B9EBD089583E00E94D7071DBCA3
:100FC0001CBC87B7846087BF089595B5987F982B20
:100FD00095BD089582E00E94E50714BC87B7806440
:100FE00087BF0895EAE8F0E09081987F982B90837E
:100FF000089583E00E94F207109289001092880001
:10100000EDE7F0E08081846080830895803140F4D2
:10101000E82FF0E0EE0FFF1FE75CFD4F7183608368
:101020000895893031F48FB582608FBD8FB58E7F82
:101030000AC08A3019F48FB5826002C08FB58D7FE7
:101040008FBD8FB581608FBD1BBC1ABC19BC18BC8D
:10105000109279001092780008958FB580688FBD46
:101060008FB58F7B8FBD08958FB580628FBD8FB593
:101070008F7E8FBD08958FB588608FBD8FB58B7FB4
:101080008FBD08959BBD8ABD089599BD88BD089503
:1010900090937900809378000895893049F4809185
:1010A0008B00826080938B0080918B008E7F0EC0BE
:1010B0008A3021F480918B00826003C080918B0084
:1010C0008D7F80938B0080918B00816080938B005B
:1010D0001092870010928600109285001092840072
:1010E00010928300109282000895EBE8F0E0808176
:1010F0008068808380818F7B80830895EBE8F0E0B7
:1011000080818062808380818F7E80830895EBE878
:10111000F0E080818860808380818B7F8083089568
:10112000853019F40E942D080895843019F40E9426
:1011300034080895833019F40E943B0808958230E2
:1011400019F40E9475080895813019F40E947E08F0
:101150000895882311F40E948708089590938700CA
:10116000809386000895909385008093840008956D
:1011700090938300809382000895EF92FF921F93D3
:10118000CF93DF93182F7B018D31B0F08F3111F4A5
:1011900013E014C08E3111F414E010C08D3109F445
:1011A0009BC0853211F410E03DC0843211F411E08F
:1011B00039C0833219F48EC08330A0F18091380297
:1011C00086FD0BC00E94DC0778948AE00E9411081B
:1011D0008091380280648093380280913802C12F58
:1011E000D0E090E0012E02C0959587950A94E2F731
:1011F00080FD4CC087B3FE01E659FE4F9081892BDC
:1012000087BB812F0E9490082091380281E090E0F6
:10121000012E02C0880F991F0A94E2F7282B209311
:10122000380234C08091380287FD0BC00E94F90754
:1012300078948AE00E944D088091380280688093FB
:10124000380280913802C12FD0E090E0012E02C018
:10125000959587950A94E2F780FD24C082B1FE013E
:10126000E659FE4F9081892B82B9812F0E94900808
:101270002091380281E090E0012E02C0880F991F72
:101280000A94E2F7282B209338020CC0153021F481
:10129000C7010E94420822C0143021F4C7010E94F5
:1012A00045081CC0133021F4C7010E94480816C02D
:1012B000123021F4C7010E94AE0810C0113021F491
:1012C000C7010E94B3080AC0112341F4C7010E945C
:1012D000B80804C012E0A6CF15E070CFDF91CF911F
:1012E0001F91FF90EF9008951F920F920FB60F92EB
:1012F0000BB60F9211242F933F934F935F936F93ED
:101300007F938F939F93AF93BF93EF93FF938091BE
:101310003F0290914002892B29F0E0913F02F09129
:1013200040020995FF91EF91BF91AF919F918F91ED
:101330007F916F915F914F913F912F910F900BBED5
:101340000F900FBE0F901F9018951F920F920FB61F
:101350000F920BB60F9211242F933F934F935F93ED
:101360006F937F938F939F93AF93BF93EF93FF936D
:101370008091490290914A02892B29F0E09149021B
:10138000F0914A020995FF91EF91BF91AF919F9122
:101390008F917F916F915F914F913F912F910F901E
:1013A0000BBE0F900FBE0F901F9018951F920F92BB
:1013B0000FB60F920BB60F9211242F933F934F93BA
:1013C0005F936F937F938F939F93AF93BF93EF93AD
:1013D000FF9380914F0290915002892B29F0E09168
:1013E0004F02F09150020995FF91EF91BF91AF919B
:1013F0009F918F917F916F915F914F913F912F912D
:101400000F900BBE0F900FBE0F901F9018951F925C
:101410000F920FB60F920BB60F9211242F933F939A
:101420004F935F936F937F938F939F93AF93BF93EC
:10143000EF93FF9380913B0290913C02892B29F01E
:10144000E0913B02F0913C020995FF91EF91BF9131
:10145000AF919F918F917F916F915F914F913F914C
:101460002F910F900BBE0F900FBE0F901F901895ED
:101470001F920F920FB60F920BB60F9211242F935B
:101480003F934F935F936F937F938F939F93AF930C
:10149000BF93EF93FF938091410290914202892B79
:1014A00029F0E0914102F09142020995FF91EF91FC
:1014B000BF91AF919F918F917F916F915F914F916C
:1014C0003F912F910F900BBE0F900FBE0F901F906A
:1014D00018951F920F920FB60F920BB60F92112410
:1014E0002F933F934F935F936F937F938F939F932C
:1014F000AF93BF93EF93FF93809143029091440287
:10150000892B29F0E0914302F09144020995FF9163
:10151000EF91BF91AF919F918F917F916F915F916B
:101520004F913F912F910F900BBE0F900FBE0F90D8
:101530001F9018951F920F920FB60F920BB60F9235
:1015400011242F933F934F935F936F937F938F93C8
:101550009F93AF93BF93EF93FF9380914502909138
:101560004602892B29F0E0914502F0914602099547
:10157000FF91EF91BF91AF919F918F917F916F916B
:101580005F914F913F912F910F900BBE0F900FBE27
:101590000F901F9018951F920F920FB60F920BB6D7
:1015A0000F9211242F933F934F935F936F937F93E9
:1015B0008F939F93AF93BF93EF93FF9380914702D5
:1015C00090914802892B29F0E0914702F09148025E
:1015D0000995FF91EF91BF91AF919F918F917F916D
:1015E0006F915F914F913F912F910F900BBE0F9094
:1015F0000FBE0F901F9018951F920F920FB60F926B
:101600000BB60F9211242F933F934F935F936F93D9
:101610007F938F939F93AF93BF93EF93FF938091AB
:101620004B0290914C02892B29F0E0914B02F091F2
:101630004C020995FF91EF91BF91AF919F918F91CE
:101640007F916F915F914F913F912F910F900BBEC2
:101650000F900FBE0F901F9018951F920F920FB60C
:101660000F920BB60F9211242F933F934F935F93DA
:101670006F937F938F939F93AF93BF93EF93FF935A
:101680008091510290915202892B29F0E0915102F0
:10169000F09152020995FF91EF91BF91AF919F9107
:1016A0008F917F916F915F914F913F912F910F900B
:1016B0000BBE0F900FBE0F901F9018951F920F92A8
:1016C0000FB60F920BB60F9211242F933F934F93A7
:1016D0005F936F937F938F939F93AF93BF93EF939A
:1016E000FF938091530290915402892B29F0E0914D
:1016F0005302F09154020995FF91EF91BF91AF9180
:101700009F918F917F916F915F914F913F912F9119
:101710000F900BBE0F900FBE0F901F9018951F9249
:101720000F920FB60F920BB60F9211242F933F9387
:101730004F935F936F937F938F939F93AF93BF93D9
:10174000EF93FF938091550290915602892B29F0D7
:10175000E0915502F09156020995FF91EF91BF91EA
:10176000AF919F918F917F916F915F914F913F9139
:101770002F910F900BBE0F900FBE0F901F901895DA
:101780001F920F920FB60F920BB60F9211242F9348
:101790003F934F935F936F937F938F939F93AF93F9
:1017A000BF93EF93FF938091570290915802892B3A
:1017B00029F0E0915702F09158020995FF91EF91BD
:1017C000BF91AF919F918F917F916F915F914F9159
:1017D0003F912F910F900BBE0F900FBE0F901F9057
:1017E000189583E061E00E94780784E061E00E9440
:1017F000780778940E949C060E944905FDCFDC0181
:10180000ED91FC910190F081E02D099508950E94E1
:10181000FF0B08950F931F93CF93DF938C01EB0180
:1018200004C02196C8010E94070C68816623C9F78D
:10183000DF91CF911F910F9108952F923F924F9278
:101840005F926F927F928F929F92AF92BF92CF9250
:10185000DF92EF92FF920F931F93DF93CF93CDB759
:10186000DEB7A0970FB6F894DEBF0FBECDBF1C0148
:101870006A017B01411551056105710521F460E3A1
:101880000E94070C4FC0882499245401422E5524ED
:101890006624772401E010E00C0F1D1F080D191DB0
:1018A000C701B601A30192010E94600EF801608396
:1018B0000894811C911CA11CB11CC701B601A30195
:1018C00092010E94600EC901DA016C017D01C11410
:1018D000D104E104F104F1F681E0E82EF12CEC0EE4
:1018E000FD1EE80CF91C3E010894611C711CD50119
:1018F000C4010197A109B1096C01C818D9080FC02A
:10190000F601EE0DFF1D60816A3010F4605D01C0CC
:10191000695CC1010E94070C0894E108F1086E148B
:101920007F0471F7A0960FB6F894DEBF0FBECDBF4F
:10193000CF91DF911F910F91FF90EF90DF90CF90AB
:10194000BF90AF909F908F907F906F905F904F90DF
:101950003F902F900895EF92FF920F931F93CF9394
:10196000DF93EC017A018B0177FF0BC06DE20E94DF
:10197000070C10950095F094E094E11CF11C011DFA
:10198000111DCE01B801A7012AE00E941D0CDF91B4
:10199000CF911F910F91FF90EF900895AB016627B3
:1019A00057FD6095762F0E94AB0C08950CD0EBC0CC
:1019B000E3D040F0DAD030F021F45F3F19F0CCC032
:1019C000511115C1CFC0F0D098F39923C9F3552315
:1019D000B1F3951B550BBB27AA2762177307840722
:1019E00038F09F5F5F4F220F331F441FAA1FA9F3D8
:1019F00033D00E2E3AF0E0E830D091505040E695CA
:101A0000001CCAF729D0FE2F27D0660F771F881F2A
:101A1000BB1F261737074807AB07B0E809F0BB0B19
:101A2000802DBF01FF2793585F4F2AF09E3F51053D
:101A300068F092C0DCC05F3FECF3983EDCF3869523
:101A400077956795B795F7959F5FC9F7880F911DB3
:101A50009695879597F90895E1E0660F771F881F9F
:101A6000BB1F621773078407BA0720F0621B730B52
:101A7000840BBA0BEE1F88F7E095089504D06894A4
:101A8000B111B5C0089598D088F09F5790F0B92F44
:101A90009927B751A0F0D1F0660F771F881F991FC3
:101AA0001AF0BA95C9F712C0B13081F09FD0B1E0F9
:101AB00008959CC0672F782F8827B85F39F0B93F09
:101AC000CCF3869577956795B395D9F73EF49095C5
:101AD0008095709561957F4F8F4F9F4F0895E89443
:101AE00009C097FB3EF490958095709561957F4F66
:101AF0008F4F9F4F9923A9F0F92F96E9BB27939514
:101B0000F695879577956795B795F111F8CFFAF423
:101B1000BB0F11F460FF1BC06F5F7F4F8F4F9F4F54
:101B200016C0882311F096E911C0772321F09EE8B2
:101B3000872F762F05C0662371F096E8862F70E018
:101B400060E02AF09A95660F771F881FDAF7880FF2
:101B50009695879597F9089597F99F6780E870E0C3
:101B600060E008959FEF80EC089500240A94161613
:101B7000170618060906089500240A94121613067B
:101B8000140605060895092E0394000C11F4882309
:101B900052F0BB0F40F4BF2B11F460FF04C06F5F25
:101BA0007F4F8F4F9F4F089557FD9058440F551FFB
:101BB00059F05F3F71F04795880F97FB991F61F0CF
:101BC0009F3F79F087950895121613061406551F46
:101BD000F2CF4695F1DF08C0161617061806991FB2
:101BE000F1CF86957105610508940895E894BB27A7
:101BF00066277727CB0197F908950BD0C4CFB5DFBF
:101C000028F0BADF18F0952309F0A6CFABCF112446
:101C1000EECFCADFA0F3959FD1F3950F50E0551F8B
:101C2000629FF001729FBB27F00DB11D639FAA2731
:101C3000F00DB11DAA1F649F6627B00DA11D661F80
:101C4000829F2227B00DA11D621F739FB00DA11DA1
:101C5000621F839FA00D611D221F749F3327A00D5B
:101C6000611D231F849F600D211D822F762F6A2FF7
:101C700011249F5750408AF0E1F088234AF0EE0F7C
:101C8000FF1FBB1F661F771F881F91505040A9F789
:101C90009E3F510570F060CFAACF5F3FECF3983EB6
:101CA000DCF3869577956795B795F795E7959F5FF0
:101CB000C1F7FE2B880F911D9695879597F908958A
:101CC000A1E21A2EAA1BBB1BFD010DC0AA1FBB1F40
:101CD000EE1FFF1FA217B307E407F50720F0A21BB2
:101CE000B30BE40BF50B661F771F881F991F1A941F
:101CF00069F760957095809590959B01AC01BD0149
:101D0000CF010895EE0FFF1F0590F491E02D099487
:041D1000F894FFCF75
:101D14006B703A2000206B643A00703A0020643AF9
:101D240000FF320035003B003800230062006500EC
:101D3400310034003A0037002200610064003000B2
:101D440033003900360021002000630001FF000049
:101D540000002B027E00E001C501FA011800190001
:101D64002600270005000400010000000000000018
:101D740073040102040810204080201008804020D1
:00000001FF
