:100000000C9448000C947C000C947C000C947C00B4
:100010000C947C000C947C000C947C000C947C0070
:100020000C947C000C9420090C94C9070C94EF08E4
:100030000C945C080C948D080C9498070C942B0875
:100040000C94A0040C947C000C9442020C94D102F9
:100050000C947C000C947C000C947C000C947C0030
:100060000C94BE080C94E4090C9451090C94820978
:100070000C94B3090C94FA070C9413020C948A02A2
:100080000C947C000C947C000C947C00F9032004FC
:1000900011241FBECFEFD0E1DEBFCDBF88E483BF08
:1000A00084E00E940E0612BE87B7816087BF7894F5
:1000B00011E0A0E0B1E0E8E4F6E100E00BBF02C02F
:1000C00007900D92AA39B107D9F712E0AAE9B1E079
:1000D00001C01D92A037B107E1F710E0C0E9D0E000
:1000E00004C02297FE010E941E0BCC38D107C9F72D
:1000F0000E94150A0C94220B0C9400001F93CF93BE
:10010000DF93C0E0D0E0FE01E959FE4F1081812F5E
:1001100061E00E943B05812F61E00E948405FE01A1
:10012000E159FE4F808160E070E00E94E106229676
:10013000C830D10541F7DF91CF911F910895FC019F
:1001400010828AE090E0938382830895CF93DF93B7
:10015000EC018A8160E00E9484058D8160E00E944C
:10016000B4058D8160E00E94D6058B8161E00E941C
:1001700084058C8161E00E9484050000000010C0AD
:100180008C8160E00E9484050000000000000000F7
:100190008C8161E00E9484050000000000000000E6
:1001A0008D810E94CB0587FDEBCF8C8160E00E94A2
:1001B0008405DF91CF910895FF920F931F938C01D7
:1001C000F62E0E94A600F801828161E00E9484055B
:1001D000F801838160E00E948405F801848161E078
:1001E0000E948405F801858161E00E94B405F80150
:1001F00085816F2D0E94D6050000000000000000E0
:10020000F801848160E00E948405F801858160E046
:100210000E94B405F80185816FEF0E94D6051F91F9
:100220000F91FF900895EF92FF920F931F93CF933A
:10023000DF937C01042F6115710551F0EB0110E093
:1002400005C0C70169910E94DC001F5F1017C8F349
:10025000DF91CF911F910F91FF90EF900895DF9361
:10026000CF930F92CDB7DEB76983BE016F5F7F4F2B
:1002700041E00E9413010F90CF91DF910895FF920A
:100280000F931F938C01F62E0E94A600F801828125
:1002900060E00E948405F801838160E00E9484058B
:1002A000F801848161E00E948405F801858161E0A4
:1002B0000E94B405F80185816F2D0E94D6050000CB
:1002C000000000000000F801848160E00E948405C5
:1002D000F801858160E00E94B405F80185816FEF27
:1002E0000E94D6051F910F91FF900895423031F082
:1002F000433031F0413029F4605C03C06C5E01C0D2
:100300006C5A60680E943F01089562E00E943F01BC
:10031000089561E00E943F0108950F931F938C019F
:10032000FC01828160E00E948405F801838160E025
:100330000E948405F801848160E00E948405F80130
:10034000828161E00E943B05F801838161E00E94A7
:100350003B05F801848161E00E943B05F80185813D
:1003600060E00E94B405F80185816FEF0E94D60518
:100370001F910F9108950F931F938C010E948D017F
:10038000C80168E30E943F01C80161E00E943F018B
:10039000C80166E00E943F01C8016CE00E943F0175
:1003A000C80162E00E943F01C80160E80E943F016D
:1003B0001F910F9108950F93FC018BE791E09183BA
:1003C00080836283438324830583CF010E94BB0122
:1003D0000F910895FC0124813581C9010895DC0144
:1003E000FC0182819381809714F080E00895FD01E3
:1003F0008281938101969383828384819581E80F22
:10040000F91F60870196FD01958384832D913C91AE
:1004100011978217930714F481E00895FD01158266
:10042000148281E008951F920F920FB60F920BB6BF
:100430000F9211242F933F934F935F936F937F936A
:100440008F939F93AF93BF93EF93FF93E09130020D
:10045000F0913102608188EE91E00E94EF01FF91FE
:10046000EF91BF91AF919F918F917F916F915F912C
:100470004F913F912F910F900BBE0F900FBE0F9099
:100480001F9018951F920F920FB60F920BB60F92F6
:1004900011242F933F934F935F936F937F938F9389
:1004A0009F93AF93BF93EF93FF93E091E401F0919B
:1004B000E50160818CE991E00E94EF01FF91EF91ED
:1004C000BF91AF919F918F917F916F915F914F916C
:1004D0003F912F910F900BBE0F900FBE0F901F906A
:1004E0001895DC01FC0182819381019793838283BB
:1004F00086819781E80FF91F40850196FD0197835A
:1005000086832D913C918217930714F017821682EF
:10051000842F08951F920F920FB60F920BB60F9271
:1005200011240F931F932F933F934F935F936F93D8
:100530007F938F939F93AF93BF93EF93FF9380919C
:100540001202909113021816190654F40091300209
:100550001091310280E192E00E947102F8018083E3
:100560008091120290911302892B31F4E0912E02B6
:10057000F0912F0288E98083FF91EF91BF91AF91B5
:100580009F918F917F916F915F914F913F912F91AB
:100590001F910F910F900BBE0F900FBE0F901F90E9
:1005A00018951F920F920FB60F920BB60F9211244F
:1005B0000F931F932F933F934F935F936F937F936B
:1005C0008F939F93AF93BF93EF93FF938091C60157
:1005D0009091C7011816190654F40091E401109186
:1005E000E50184EC91E00E947102F8018083809122
:1005F000C6019091C701892B31F4E091E201F0919D
:10060000E30188E98083FF91EF91BF91AF919F91C2
:100610008F917F916F915F914F913F912F911F919A
:100620000F910F900BBE0F900FBE0F901F9018955B
:10063000DC01FC018281938101979383828386810F
:100640009781E80FF91F40850196FD019783868306
:100650002D913C918217930714F017821682842FF4
:100660000895FC0184819581892B19F42FEF3FEFC8
:1006700006C0CF0102960E941803282F30E0C9015E
:100680000895CF93DF93EC01EE81FF81E80FF91F0E
:100690008085DF91CF910895FC0184819581892B1C
:1006A00019F42FEF3FEF06C0CF0102960E944103DD
:1006B000282F30E0C9010895FC0113821282828143
:1006C00093819783868395838483089502960E94FD
:1006D0005C030895FC0180E290E091838083CF0168
:1006E0000E945C030895DC01FC01828193814097A4
:1006F00014F080E00895FD01828193810196938337
:10070000828384819581E80FF91F60870196FD013E
:10071000958384832D913C9111978217930714F44C
:1007200081E00895FD011582148281E00895CF9340
:10073000DF93EC018CA59DA54097E4F7F894CE01DA
:100740008A960E947303C85BDF4FE881F98180813C
:10075000806280837894DF91CF910895FC011382A9
:1007600012828281938197838683958384830895FF
:10077000FC0180E190E091838083CF010E94AE0371
:1007800008956F927F928F929F92AF92BF92CF9275
:10079000DF92EF92FF920F931F936C015B014A016E
:1007A0003901FC0181E891E081939193CF010E948E
:1007B0006A03C6018A960E94B80382E490E0C80EDC
:1007C000D91EF601A192B192819291926192719299
:1007D00001931193F182E0821F910F91FF90EF90AE
:1007E000DF90CF90BF90AF909F908F907F906F9051
:1007F0000895EF92FF920F931F938AE991E060E9C9
:1008000070E049E250E02BE230E00AE210E0FCE266
:10081000EF2EF12C0E94C10386EE91E068E970E0B2
:1008200049E950E02BE930E00AE910E0ECE9EE2E6E
:10083000F12C0E94C1031F910F91FF90EF9008953A
:100840000F9382E392E06AE14BE12CE102E00E9427
:10085000DB0188E392E00E947E008AE392E00E943E
:100860009F008EE392E00E949F0082E492E00E944B
:100870009F000F9108950F931F9302E312E0C801A8
:100880000E948901C8010E948501C80160E040E022
:100890000E947601C80160E071E00E942E0AC80142
:1008A0006CE040E00E94760180E00E94EA05BC0115
:1008B000C8010E94F20AC80160E041E00E9476018E
:1008C000C8016CE071E00E942E0AC8016DE041E0B1
:1008D0000E94760181E00E94EA05BC01C8010E94E5
:1008E000F20A62E370E080E090E00E9415051F913B
:1008F0000F91089580E060E00E94B40581E060E01F
:100900000E94B40582E392E060E040E00E9476013C
:1009100082E392E069E171E00E942E0A82E392E0B4
:1009200060E041E00E94760182E392E06AE271E0D9
:100930000E942E0A82E30E946B058823D9F708954E
:100940001F920F920FB60F9211242F933F938F9304
:100950009F93AF93BF9380914A0290914B02A091D5
:100960004C02B0914D0230914E020196A11DB11D75
:10097000232F2D5F2D3720F02D570196A11DB11D7E
:1009800020934E0280934A0290934B02A0934C0214
:10099000B0934D028091460290914702A091480287
:1009A000B09149020196A11DB11D8093460290931A
:1009B0004702A0934802B0934902BF91AF919F9123
:1009C0008F913F912F910F900FBE0F901F90189510
:1009D0006FB7F89420914602309147024091480247
:1009E0005091490282B790E0A0E0B0E006B600FE68
:1009F00009C08F3F9105A105B10521F02F5F3F4F41
:100A00004F4F5F4F6FBF542F432F322F2227280F96
:100A1000391F4A1F5B1F82E0220F331F441F551FDF
:100A20008A95D1F7B901CA010895EF92FF920F9309
:100A30001F93CF93DF937B018C010E94E804EB01AD
:100A40000EC00E94E8046C1B7D0B685E7340C8F307
:100A50000894E108F10801091109C851DC4FE114BB
:100A6000F1040105110569F7DF91CF911F910F91F5
:100A7000FF90EF900895E82FE695E695E695A82F6C
:100A8000B0E0613099F42FB7F894F0E0EE0FFF1F5B
:100A9000E75BFE4F0190F081E02D9081A770B07070
:100AA000A557BE4F8C91982B908313C02FB7F89405
:100AB000F0E0EE0FFF1FE75BFE4F0190F081E02DAD
:100AC0009081A770B070A557BE4F8C9180958923F7
:100AD00080832FBF0895A82FE82FE695E695E69529
:100AE000F0E0EE0FFF1FE95AFE4F0190F081E02D7C
:100AF000E081B0E0A770B070A557BE4F8C91E8239D
:100B000009F0E1E08E2F0895E82FE695E695E69549
:100B1000A82FB0E0613099F42FB7F894F0E0EE0F11
:100B2000FF1FE55CFE4F0190F081E02D9081A770E2
:100B3000B070A557BE4F8C91982B908313C02FB7E0
:100B4000F894F0E0EE0FFF1FE55CFE4F0190F0819E
:100B5000E02D9081A770B070A557BE4F8C91809505
:100B6000892380832FBF0895E82FF0E0613051F48E
:100B7000EE0FFF1FE75BFE4F0190F081E02D8FEF3E
:100B800080830895EE0FFF1FE75BFE4F0190F08119
:100B9000E02D10820895E82FF0E0EE0FFF1FE95AD4
:100BA000FE4F0190F081E02D80810895E82FF0E064
:100BB000EE0FFF1FE55CFE4F0190F081E02D60839A
:100BC0000895109261001092620080E487B987EE68
:100BD00086B908951F93182F80916501813021F403
:100BE0000E94E1051092650180916601181721F4B9
:100BF000349A349BFECF0DC01093660187B11770F5
:100C0000807E812B87B9349A349BFECF349A349BF3
:100C1000FECF24B135B1C9011F91089593B7987FD4
:100C2000982B93BF08959EB5987F982B9EBD0895ED
:100C300083E00E9413061DBC1CBC87B7846087BF7D
:100C40000895EAE8F0E09081987F982B90830895CA
:100C500083E00E9421061092890010928800EDE73F
:100C6000F0E08081846080830895893031F48FB50D
:100C700082608FBD8FB58E7F0AC08A3019F48FB520
:100C8000826002C08FB58D7F8FBD8FB581608FBDB3
:100C90001BBC1ABC19BC18BC1092790010927800C9
:100CA00008958FB580688FBD8FB58F7B8FBD0895F8
:100CB0008FB580628FBD8FB58F7E8FBD08958FB544
:100CC00088608FBD8FB58B7F8FBD08959BBD8ABD1A
:100CD000089599BD88BD0895909379008093780018
:100CE0000895893049F480918B00826080938B0055
:100CF00080918B008E7F0EC08A3021F480918B0012
:100D0000826003C080918B008D7F80938B008091E7
:100D10008B00816080938B00109287001092860078
:100D2000109285001092840010928300109282002D
:100D30000895EBE8F0E080818068808380818F7B7C
:100D400080830895EBE8F0E0808180628083808179
:100D50008F7E80830895EBE8F0E080818860808357
:100D600080818B7F80830895853019F40E9451061D
:100D70000895843019F40E9458060895833019F4B8
:100D80000E945F060895823019F40E949906089522
:100D9000813019F40E94A2060895882311F40E945C
:100DA000AB060895909387008093860008959093F2
:100DB000850080938400089590938300809382003F
:100DC0000895EF92FF921F93CF93DF93182F7B012B
:100DD0008D31B0F08F3111F413E014C08E3111F465
:100DE00014E010C08D3109F49BC0853211F410E07D
:100DF0003DC0843211F411E039C0833219F48EC041
:100E00008330A0F180914F0286FD0BC00E9418062E
:100E100078948AE00E94350680914F028064809326
:100E20004F0280914F02C12FD0E090E0012E02C00E
:100E3000959587950A94E2F780FD4CC087B3FE0133
:100E4000ED56FE4F9081892B87BB812F0E94B406FF
:100E500020914F0281E090E0012E02C0880F991F7F
:100E60000A94E2F7282B20934F0234C080914F025E
:100E700087FD0BC00E94280678948AE00E947106C4
:100E800080914F02806880934F0280914F02C12F62
:100E9000D0E090E0012E02C0959587950A94E2F784
:100EA00080FD24C082B1FE01ED56FE4F9081892B5A
:100EB00082B9812F0E94B40620914F0281E090E018
:100EC000012E02C0880F991F0A94E2F7282B209365
:100ED0004F020CC0153021F4C7010E94660622C0E3
:100EE000143021F4C7010E9469061CC0133021F49C
:100EF000C7010E946C0616C0123021F4C7010E947F
:100F0000D20610C0113021F4C7010E94D7060AC0D2
:100F1000112341F4C7010E94DC0604C012E0A6CFF1
:100F200015E070CFDF91CF911F91FF90EF90089562
:100F30001F920F920FB60F920BB60F9211242F93A0
:100F40003F934F935F936F937F938F939F93AF9351
:100F5000BF93EF93FF938091560290915702892B94
:100F600029F0E0915602F09157020995FF91EF9117
:100F7000BF91AF919F918F917F916F915F914F91B1
:100F80003F912F910F900BBE0F900FBE0F901F90AF
:100F900018951F920F920FB60F920BB60F92112455
:100FA0002F933F934F935F936F937F938F939F9371
:100FB000AF93BF93EF93FF93809160029091610292
:100FC000892B29F0E0916002F09161020995FF916F
:100FD000EF91BF91AF919F918F917F916F915F91B1
:100FE0004F913F912F910F900BBE0F900FBE0F901E
:100FF0001F9018951F920F920FB60F920BB60F927B
:1010000011242F933F934F935F936F937F938F930D
:101010009F93AF93BF93EF93FF938091660290915C
:101020006702892B29F0E0916602F0916702099529
:10103000FF91EF91BF91AF919F918F917F916F91B0
:101040005F914F913F912F910F900BBE0F900FBE6C
:101050000F901F9018951F920F920FB60F920BB61C
:101060000F9211242F933F934F935F936F937F932E
:101070008F939F93AF93BF93EF93FF93809152020F
:1010800090915302892B29F0E0915202F091530282
:101090000995FF91EF91BF91AF919F918F917F91B2
:1010A0006F915F914F913F912F910F900BBE0F90D9
:1010B0000FBE0F901F9018951F920F920FB60F92B0
:1010C0000BB60F9211242F933F934F935F936F931F
:1010D0007F938F939F93AF93BF93EF93FF938091F1
:1010E000580290915902892B29F0E0915802F09111
:1010F00059020995FF91EF91BF91AF919F918F9107
:101100007F916F915F914F913F912F910F900BBE07
:101110000F900FBE0F901F9018951F920F920FB651
:101120000F920BB60F9211242F933F934F935F931F
:101130006F937F938F939F93AF93BF93EF93FF939F
:1011400080915A0290915B02892B29F0E0915A021A
:10115000F0915B020995FF91EF91BF91AF919F9143
:101160008F917F916F915F914F913F912F910F9050
:101170000BBE0F900FBE0F901F9018951F920F92ED
:101180000FB60F920BB60F9211242F933F934F93EC
:101190005F936F937F938F939F93AF93BF93EF93DF
:1011A000FF9380915C0290915D02892B29F0E09180
:1011B0005C02F0915D020995FF91EF91BF91AF91B3
:1011C0009F918F917F916F915F914F913F912F915F
:1011D0000F900BBE0F900FBE0F901F9018951F928F
:1011E0000F920FB60F920BB60F9211242F933F93CD
:1011F0004F935F936F937F938F939F93AF93BF931F
:10120000EF93FF9380915E0290915F02892B29F00A
:10121000E0915E02F0915F020995FF91EF91BF911D
:10122000AF919F918F917F916F915F914F913F917E
:101230002F910F900BBE0F900FBE0F901F9018951F
:101240001F920F920FB60F920BB60F9211242F938D
:101250003F934F935F936F937F938F939F93AF933E
:10126000BF93EF93FF938091620290916302892B69
:1012700029F0E0916202F09163020995FF91EF91EC
:10128000BF91AF919F918F917F916F915F914F919E
:101290003F912F910F900BBE0F900FBE0F901F909C
:1012A00018951F920F920FB60F920BB60F92112442
:1012B0002F933F934F935F936F937F938F939F935E
:1012C000AF93BF93EF93FF9380916802909169026F
:1012D000892B29F0E0916802F09169020995FF914C
:1012E000EF91BF91AF919F918F917F916F915F919E
:1012F0004F913F912F910F900BBE0F900FBE0F900B
:101300001F9018951F920F920FB60F920BB60F9267
:1013100011242F933F934F935F936F937F938F93FA
:101320009F93AF93BF93EF93FF9380916A02909145
:101330006B02892B29F0E0916A02F0916B0209950A
:10134000FF91EF91BF91AF919F918F917F916F919D
:101350005F914F913F912F910F900BBE0F900FBE59
:101360000F901F9018951F920F920FB60F920BB609
:101370000F9211242F933F934F935F936F937F931B
:101380008F939F93AF93BF93EF93FF9380916C02E2
:1013900090916D02892B29F0E0916C02F0916D0221
:1013A0000995FF91EF91BF91AF919F918F917F919F
:1013B0006F915F914F913F912F910F900BBE0F90C6
:1013C0000FBE0F901F9018951F920F920FB60F929D
:1013D0000BB60F9211242F933F934F935F936F930C
:1013E0007F938F939F93AF93BF93EF93FF938091DE
:1013F0006E0290916F02892B29F0E0916E02F091BC
:101400006F020995FF91EF91BF91AF919F918F91DD
:101410007F916F915F914F913F912F910F900BBEF4
:101420000F900FBE0F901F90189583E061E00E940F
:10143000B40584E061E00E94B40578940E947A04C7
:101440000E943B04FDCFDC01ED91FC910190F08105
:10145000E02D099508950E94230A08950F931F9384
:10146000CF93DF938C01EB0104C02196C8010E9449
:101470002B0A68816623C9F7DF91CF911F910F91E5
:1014800008952F923F924F925F926F927F928F9228
:101490009F92AF92BF92CF92DF92EF92FF920F9303
:1014A0001F93DF93CF93CDB7DEB7A0970FB6F89415
:1014B000DEBF0FBECDBF1C016A017B014115510586
:1014C0006105710521F460E30E942B0A4FC0882456
:1014D00099245401422E55246624772401E010E01B
:1014E0000C0F1D1F080D191DC701B601A3019201A4
:1014F0000E94FA0AF80160830894811C911CA11CC7
:10150000B11CC701B601A30192010E94FA0AC901E8
:10151000DA016C017D01C114D104E104F104F1F69A
:1015200081E0E82EF12CEC0EFD1EE80CF91C3E01CA
:101530000894611C711CD501C4010197A109B1096E
:101540006C01C818D9080FC0F601EE0DFF1D6081AF
:101550006A3010F4605D01C0695CC1010E942B0A11
:101560000894E108F1086E147F0471F7A0960FB695
:10157000F894DEBF0FBECDBFCF91DF911F910F91C9
:10158000FF90EF90DF90CF90BF90AF909F908F90A3
:101590007F906F905F904F903F902F900895EF92C3
:1015A000FF920F931F93CF93DF93EC017A018B018E
:1015B00077FF0BC06DE20E942B0A10950095F09406
:1015C000E094E11CF11C011D111DCE01B801A70121
:1015D0002AE00E94410ADF91CF911F910F91FF9065
:1015E000EF900895AB01662757FD6095762F0E9416
:1015F000CF0A0895A1E21A2EAA1BBB1BFD010DC044
:10160000AA1FBB1FEE1FFF1FA217B307E407F507B2
:1016100020F0A21BB30BE40BF50B661F771F881F8E
:10162000991F1A9469F760957095809590959B0124
:10163000AC01BD01CF010895EE0FFF1F0590F4919D
:08164000E02D0994F894FFCF9E
:101648004C6566742053656E736F720052696768E3
:10165800742053656E736F720048656C6C6F205A06
:101668006163682C2070757368005374617274200C
:10167800746F2070726F6365656400320035003BDB
:10168800003800230062006500310034003A00375A
:101698000022006100640030003300390036002168
:1016A800002000630001FF1800190026002700052C
:1016B80000040001000000000000002F01000000ED
:1016C800009703EA014C0331036603010204081082
:0A16D8002040802010088040200010
:00000001FF
