:100000000C9448000C947C000C947C000C947C00B4
:100010000C947C000C947C000C947C000C947C0070
:100020000C947C000C942D0A0C94D6080C94FC09BA
:100030000C9469090C949A090C94A5080C9438093D
:100040000C94AD050C947C000C941E030C94AD0331
:100050000C947C000C947C000C947C000C947C0030
:100060000C94CB090C94F10A0C945E0A0C948F0A40
:100070000C94C00A0C9407090C94EF020C946603CC
:100080000C947C000C947C000C947C00D504FC0443
:1000900011241FBECFEFD0E1DEBFCDBF88E483BF08
:1000A00084E00E941B0712BE87B7816087BF7894E7
:1000B00011E0A0E0B1E0EAE4FEE100E00BBF02C025
:1000C00007900D92A238B107D9F712E0A2E8B1E08B
:1000D00001C01D92A036B107E1F710E0C0E9D0E001
:1000E00004C02297FE010E941F0FCC38D107C9F728
:1000F0000E94220B0C94230F0C9400001F93CF93AB
:10010000DF93C0E0D0E0FE01E05BFE4F1081812F65
:1001100061E00E944806812F61E00E949106FE0185
:10012000E85AFE4F808160E070E00E94EE07229660
:10013000C830D10541F7DF91CF911F910895FC019F
:1001400010828AE090E0938382830895CF93DF93B7
:10015000EC018A8160E00E9491068D8160E00E943E
:10016000C1068D8160E00E94E3068B8161E00E9400
:1001700091068C8161E00E9491060000000010C091
:100180008C8160E00E9491060000000000000000E9
:100190008C8161E00E9491060000000000000000D8
:1001A0008D810E94D80687FDEBCF8C8160E00E9494
:1001B0009106DF91CF910895FF920F931F938C01C9
:1001C000F62E0E94A600F801828161E00E9491064D
:1001D000F801838160E00E949106F801848161E06A
:1001E0000E949106F801858161E00E94C106F80134
:1001F00085816F2D0E94E3060000000000000000D2
:10020000F801848160E00E949106F801858160E038
:100210000E94C106F80185816FEF0E94E3061F91DD
:100220000F91FF900895EF92FF920F931F93CF933A
:10023000DF937C01042F6115710551F0EB0110E093
:1002400005C0C70169910E94DC001F5F1017C8F349
:10025000DF91CF911F910F91FF90EF900895DF9361
:10026000CF930F92CDB7DEB76983BE016F5F7F4F2B
:1002700041E00E9413010F90CF91DF910895FF920A
:100280000F931F938C01F62E0E94A600F801828125
:1002900060E00E949106F801838160E00E9491066F
:1002A000F801848161E00E949106F801858161E096
:1002B0000E94C106F80185816F2D0E94E3060000AF
:1002C000000000000000F801848160E00E949106B7
:1002D000F801858160E00E94C106F80185816FEF19
:1002E0000E94E3061F910F91FF900895423031F074
:1002F000433031F0413029F4605C03C06C5E01C0D2
:100300006C5A60680E943F01089562E00E943F01BC
:10031000089561E00E943F0108950F931F938C019F
:10032000FC01828160E00E949106F801838160E017
:100330000E949106F801848160E00E949106F80114
:10034000828161E00E944806F801838161E00E9499
:100350004806F801848161E00E944806F801858121
:1003600060E00E94C106F80185816FEF0E94E306FC
:100370001F910F9108950F931F938C010E948D017F
:10038000C80168E30E943F01C80161E00E943F018B
:10039000C80166E00E943F01C8016CE00E943F0175
:1003A000C80162E00E943F01C80160E80E943F016D
:1003B0001F910F9108950F93FC0184E691E09183C2
:1003C00080836283438324830583CF010E94BB0122
:1003D0000F9108955F926F927F928F929F92AF924A
:1003E000BF92CF92DF92EF92FF920F931F93CF9322
:1003F000DF93EC013A014B01413482E458078FE06E
:10040000680780E078070CF07FC060E874E88EE150
:1004100090E0A40193010E94020F2150304040401F
:100420005040CA01B90122E030E040E050E00E94B3
:10043000020F59016A01A60195012095309540955A
:10044000509594E0220F331F441F551F9A95D1F702
:1004500060E074E284EF90E00E94020FCA01B901EB
:100460002FEF30E040E050E00E94C10EA401930164
:100470000E94020FC90181509F4F181619061CF4E3
:10048000522E5A9403C055245394521A60E079E0D6
:100490008DE390E0A40193010E94020F21503040AF
:1004A00040405040CA01B90122E030E040E050E055
:1004B0000E94020F209530954095509583E0220FC1
:1004C000331F441F551F8A95D1F760E074E284EF13
:1004D00090E00E94020FCA01B9012FEF30E040E026
:1004E00050E00E94C10EA40193010E94020FC901B5
:1004F00081509F4F181619061CF4822F815002C09C
:1005000081E0821B8515E8F4CA5BDF4FE881F98141
:10051000C654D04082E0808360E079E08DE390E0D3
:10052000A40193010E94020F2150304040405040EE
:10053000CA01B90122E030E040E050E00E94020F21
:1005400008C0CA5BDF4FE881F981C654D0401082F1
:100550009501CE5BDF4FE991F9913083E881F98114
:1005600020832496E881F98188E98083DF91CF9107
:100570001F910F91FF90EF90DF90CF90BF90AF90C1
:100580009F908F907F906F905F900895FC012481E1
:100590003581C9010895DC01FC0182819381809736
:1005A00014F080E00895FD01828193810196938388
:1005B000828384819581E80FF91F60870196FD0190
:1005C000958384832D913C9111978217930714F49E
:1005D00081E00895FD011582148281E008951F9243
:1005E0000F920FB60F920BB60F9211242F933F93D9
:1005F0004F935F936F937F938F939F93AF93BF932B
:10060000EF93FF93E0911802F0911902608180ED61
:1006100091E00E94CB02FF91EF91BF91AF919F912A
:100620008F917F916F915F914F913F912F910F909B
:100630000BBE0F900FBE0F901F9018951F920F9238
:100640000FB60F920BB60F9211242F933F934F9337
:100650005F936F937F938F939F93AF93BF93EF932A
:10066000FF93E091CC01F091CD01608184E891E0AD
:100670000E94CB02FF91EF91BF91AF919F918F911B
:100680007F916F915F914F913F912F910F900BBE92
:100690000F900FBE0F901F901895DC01FC01828116
:1006A000938101979383828386819781E80FF91F55
:1006B00040850196FD01978386832D913C91821799
:1006C000930714F017821682842F08951F920F92B9
:1006D0000FB60F920BB60F9211240F931F932F9307
:1006E0003F934F935F936F937F938F939F93AF93BA
:1006F000BF93EF93FF938091FA019091FB0118163D
:10070000190654F4009118021091190288EF91E033
:100710000E944D03F80180838091FA019091FB01C2
:10072000892B31F4E0911602F091170288E9808359
:10073000FF91EF91BF91AF919F918F917F916F91B9
:100740005F914F913F912F911F910F910F900BBE91
:100750000F900FBE0F901F9018951F920F920FB61B
:100760000F920BB60F9211240F931F932F933F9369
:100770004F935F936F937F938F939F93AF93BF93A9
:10078000EF93FF938091AE019091AF011816190677
:1007900054F40091CC011091CD018CEA91E00E94BB
:1007A0004D03F80180838091AE019091AF01892BB8
:1007B00031F4E091CA01F091CB0188E98083FF9187
:1007C000EF91BF91AF919F918F917F916F915F91C9
:1007D0004F913F912F911F910F910F900BBE0F9052
:1007E0000FBE0F901F901895DC01FC018281938150
:1007F00001979383828386819781E80FF91F408553
:100800000196FD01978386832D913C918217930772
:1008100014F017821682842F0895FC01848195813B
:10082000892B19F42FEF3FEF06C0CF0102960E94EB
:10083000F403282F30E0C9010895CF93DF93EC0132
:10084000EE81FF81E80FF91F8085DF91CF91089538
:10085000FC0184819581892B19F42FEF3FEF06C0AD
:10086000CF0102960E941D04282F30E0C90108958F
:10087000FC01138212828281938197838683958300
:100880008483089502960E9438040895FC0180E252
:1008900090E091838083CF010E9438040895DC01A9
:1008A000FC0182819381409714F080E00895FD015E
:1008B0008281938101969383828384819581E80F5D
:1008C000F91F60870196FD01958384832D913C91EA
:1008D00011978217930714F481E00895FD011582A2
:1008E000148281E00895CF93DF93EC018CA59DA540
:1008F0004097E4F7F894CE018A960E944F04C85BB3
:10090000DF4FE881F9818081806280837894DF9174
:10091000CF910895FC011382128282819381978383
:100920008683958384830895FC0180E190E0918320
:100930008083CF010E948A0408956F927F928F92E4
:100940009F92AF92BF92CF92DF92EF92FF920F935E
:100950001F936C015B014A013901FC018AE691E0B9
:1009600081939193CF010E944604C6018A960E940A
:10097000940482E490E0C80ED91EF601A192B192CF
:10098000819291926192719201931193F182E0822E
:100990001F910F91FF90EF90DF90CF90BF90AF909D
:1009A0009F908F907F906F900895EF92FF920F939A
:1009B0001F9382E891E060E970E049E250E02BE2A9
:1009C00030E00AE210E0FCE2EF2EF12C0E949D04E0
:1009D0008EEC91E068E970E049E950E02BE930E005
:1009E0000AE910E0ECE9EE2EF12C0E949D041F9123
:1009F0000F91FF90EF9008950F938AE192E06AE1E2
:100A00004BE12CE102E00E94DB0180E292E00E94D7
:100A10007E0082E292E00E949F0086E292E00E94C5
:100A20009F008AE292E00E949F000F9108950F9329
:100A30001F9381E00E94F706AA2797FDA095BA2F81
:100A4000BC01CD010E94AE0D60932E0270932F0267
:100A5000809330029093310220E030E040EA50E48D
:100A60000E945E0E20E030EC4FE754E40E94130D2C
:100A70006093320270933302809334029093350274
:100A80000AE112E0C8010E948901C8010E948501A3
:100A9000C80160E040E00E947601C80160E071E0BA
:100AA0000E943B0BC80160E041E00E94760140914A
:100AB0003202509133026091340270913502C801C4
:100AC0000E949B0C64E670E080E090E00E942206A9
:100AD000409132025091330260913402709135029C
:100AE00082E891E00E949F0C1F910F91089580E091
:100AF00060E00E94C10681E060E00E94C10682E8D9
:100B000091E040E855E260E070E00E94EA018AE18D
:100B100092E00E9489018AE192E00E9485018AE1C7
:100B200092E060E040E00E9476018AE192E069E0B4
:100B300071E00E943B0B8AE192E060E041E00E949C
:100B400076018AE192E066E171E00E943B0B82E36C
:100B50000E9478068823D9F708951F920F920FB646
:100B60000F9211242F933F938F939F93AF93BF9333
:100B700080913A0290913B02A0913C02B0913D02DB
:100B800030913E020196A11DB11D232F2D5F2D37FF
:100B900020F02D570196A11DB11D20933E02809398
:100BA0003A0290933B02A0933C02B0933D028091A5
:100BB000360290913702A0913802B0913902019625
:100BC000A11DB11D8093360290933702A093380285
:100BD000B0933902BF91AF919F918F913F912F9127
:100BE0000F900FBE0F901F9018956FB7F89420913B
:100BF000360230913702409138025091390282B763
:100C000090E0A0E0B0E006B600FE09C08F3F91057D
:100C1000A105B10521F02F5F3F4F4F4F5F4F6FBFD1
:100C2000542F432F322F2227280F391F4A1F5B1FB3
:100C300082E0220F331F441F551F8A95D1F7B90157
:100C4000CA010895EF92FF920F931F93CF93DF9302
:100C50007B018C010E94F505EB010EC00E94F50599
:100C60006C1B7D0B685E7340C8F30894E108F108C3
:100C700001091109C851DC4FE114F1040105110506
:100C800069F7DF91CF911F910F91FF90EF90089539
:100C9000E82FE695E695E695A82FB0E0613099F447
:100CA0002FB7F894F0E0EE0FFF1FEE5CFE4F0190BF
:100CB000F081E02D9081A770B070AC58BE4F8C9140
:100CC000982B908313C02FB7F894F0E0EE0FFF1F1E
:100CD000EE5CFE4F0190F081E02D9081A770B07026
:100CE000AC58BE4F8C918095892380832FBF089587
:100CF000A82FE82FE695E695E695F0E0EE0FFF1FAA
:100D0000E05CFE4F0190F081E02DE081B0E0A77043
:100D1000B070AC58BE4F8C91E82309F0E1E08E2F03
:100D20000895E82FE695E695E695A82FB0E06130A6
:100D300099F42FB7F894F0E0EE0FFF1FEC5DFE4F33
:100D40000190F081E02D9081A770B070AC58BE4F3B
:100D50008C91982B908313C02FB7F894F0E0EE0F8E
:100D6000FF1FEC5DFE4F0190F081E02D9081A77098
:100D7000B070AC58BE4F8C918095892380832FBF73
:100D80000895E82FF0E0613051F4EE0FFF1FEE5CA4
:100D9000FE4F0190F081E02D8FEF80830895EE0FDC
:100DA000FF1FEE5CFE4F0190F081E02D1082089550
:100DB000E82FF0E0EE0FFF1FE05CFE4F0190F081A6
:100DC000E02D80810895E82FF0E0EE0FFF1FEC5D2D
:100DD000FE4F0190F081E02D608308951092610034
:100DE0001092620080E487B987EE86B908951F9358
:100DF000182F80914E01813021F40E94EE0610924E
:100E00004E0180914F01181721F4349A349BFECF84
:100E10000DC010934F0187B11770807E812B87B969
:100E2000349A349BFECF349A349BFECF24B135B133
:100E3000C9011F91089593B7987F982B93BF089588
:100E40009EB5987F982B9EBD089583E00E94200751
:100E50001DBC1CBC87B7846087BF0895EAE8F0E03A
:100E60009081987F982B9083089583E00E942E07AD
:100E70001092890010928800EDE7F0E08081846094
:100E800080830895893031F48FB582608FBD8FB52E
:100E90008E7F0AC08A3019F48FB5826002C08FB588
:100EA0008D7F8FBD8FB581608FBD1BBC1ABC19BCF7
:100EB00018BC109279001092780008958FB5806860
:100EC0008FBD8FB58F7B8FBD08958FB580628FBD2D
:100ED0008FB58F7E8FBD08958FB588608FBD8FB51C
:100EE0008B7F8FBD08959BBD8ABD089599BD88BD38
:100EF000089590937900809378000895893049F49B
:100F000080918B00826080938B0080918B008E7F1C
:100F10000EC08A3021F480918B00826003C08091E2
:100F20008B008D7F80938B0080918B0081608093FC
:100F30008B0010928700109286001092850010920C
:100F4000840010928300109282000895EBE8F0E094
:100F500080818068808380818F7B80830895EBE827
:100F6000F0E080818062808380818F7E808308951D
:100F7000EBE8F0E080818860808380818B7F8083D4
:100F80000895853019F40E945E070895843019F49D
:100F90000E9465070895833019F40E946C07089534
:100FA000823019F40E94A6070895813019F40E9436
:100FB000AF070895882311F40E94B807089590930D
:100FC0008700809386000895909385008093840025
:100FD000089590938300809382000895EF92FF928A
:100FE0001F93CF93DF93182F7B018D31B0F08F319A
:100FF00011F413E014C08E3111F414E010C08D31DF
:1010000009F49BC0853211F410E03DC0843211F424
:1010100011E039C0833219F48EC08330A0F1809181
:101020003F0286FD0BC00E94250778948AE00E944B
:10103000420780913F02806480933F0280913F028B
:10104000C12FD0E090E0012E02C0959587950A94BB
:10105000E2F780FD4CC087B3FE01E458FE4F90815B
:10106000892B87BB812F0E94C10720913F0281E01D
:1010700090E0012E02C0880F991F0A94E2F7282BF6
:1010800020933F0234C080913F0287FD0BC00E9435
:10109000350778948AE00E947E0780913F0280683D
:1010A00080933F0280913F02C12FD0E090E0012E5B
:1010B00002C0959587950A94E2F780FD24C082B11D
:1010C000FE01E458FE4F9081892B82B9812F0E9446
:1010D000C10720913F0281E090E0012E02C0880FFD
:1010E000991F0A94E2F7282B20933F020CC0153079
:1010F00021F4C7010E94730722C0143021F4C701F4
:101100000E9476071CC0133021F4C7010E947907A2
:1011100016C0123021F4C7010E94DF0710C0113041
:1011200021F4C7010E94E4070AC0112341F4C7015A
:101130000E94E90704C012E0A6CF15E070CFDF914E
:10114000CF911F91FF90EF9008951F920F920FB6CD
:101150000F920BB60F9211242F933F934F935F93EF
:101160006F937F938F939F93AF93BF93EF93FF936F
:101170008091460290914702892B29F0E091460226
:10118000F09147020995FF91EF91BF91AF919F9127
:101190008F917F916F915F914F913F912F910F9020
:1011A0000BBE0F900FBE0F901F9018951F920F92BD
:1011B0000FB60F920BB60F9211242F933F934F93BC
:1011C0005F936F937F938F939F93AF93BF93EF93AF
:1011D000FF938091500290915102892B29F0E09168
:1011E0005002F09151020995FF91EF91BF91AF919B
:1011F0009F918F917F916F915F914F913F912F912F
:101200000F900BBE0F900FBE0F901F9018951F925E
:101210000F920FB60F920BB60F9211242F933F939C
:101220004F935F936F937F938F939F93AF93BF93EE
:10123000EF93FF938091560290915702892B29F0EA
:10124000E0915602F09157020995FF91EF91BF91FD
:10125000AF919F918F917F916F915F914F913F914E
:101260002F910F900BBE0F900FBE0F901F901895EF
:101270001F920F920FB60F920BB60F9211242F935D
:101280003F934F935F936F937F938F939F93AF930E
:10129000BF93EF93FF938091420290914302892B79
:1012A00029F0E0914202F09143020995FF91EF91FC
:1012B000BF91AF919F918F917F916F915F914F916E
:1012C0003F912F910F900BBE0F900FBE0F901F906C
:1012D00018951F920F920FB60F920BB60F92112412
:1012E0002F933F934F935F936F937F938F939F932E
:1012F000AF93BF93EF93FF9380914802909149027F
:10130000892B29F0E0914802F09149020995FF915B
:10131000EF91BF91AF919F918F917F916F915F916D
:101320004F913F912F910F900BBE0F900FBE0F90DA
:101330001F9018951F920F920FB60F920BB60F9237
:1013400011242F933F934F935F936F937F938F93CA
:101350009F93AF93BF93EF93FF9380914A02909135
:101360004B02892B29F0E0914A02F0914B0209953A
:10137000FF91EF91BF91AF919F918F917F916F916D
:101380005F914F913F912F910F900BBE0F900FBE29
:101390000F901F9018951F920F920FB60F920BB6D9
:1013A0000F9211242F933F934F935F936F937F93EB
:1013B0008F939F93AF93BF93EF93FF9380914C02D2
:1013C00090914D02892B29F0E0914C02F0914D0251
:1013D0000995FF91EF91BF91AF919F918F917F916F
:1013E0006F915F914F913F912F910F900BBE0F9096
:1013F0000FBE0F901F9018951F920F920FB60F926D
:101400000BB60F9211242F933F934F935F936F93DB
:101410007F938F939F93AF93BF93EF93FF938091AD
:101420004E0290914F02892B29F0E0914E02F091EB
:101430004F020995FF91EF91BF91AF919F918F91CD
:101440007F916F915F914F913F912F910F900BBEC4
:101450000F900FBE0F901F9018951F920F920FB60E
:101460000F920BB60F9211242F933F934F935F93DC
:101470006F937F938F939F93AF93BF93EF93FF935C
:101480008091520290915302892B29F0E0915202EF
:10149000F09153020995FF91EF91BF91AF919F9108
:1014A0008F917F916F915F914F913F912F910F900D
:1014B0000BBE0F900FBE0F901F9018951F920F92AA
:1014C0000FB60F920BB60F9211242F933F934F93A9
:1014D0005F936F937F938F939F93AF93BF93EF939C
:1014E000FF938091580290915902892B29F0E09145
:1014F0005802F09159020995FF91EF91BF91AF9178
:101500009F918F917F916F915F914F913F912F911B
:101510000F900BBE0F900FBE0F901F9018951F924B
:101520000F920FB60F920BB60F9211242F933F9389
:101530004F935F936F937F938F939F93AF93BF93DB
:10154000EF93FF9380915A0290915B02892B29F0CF
:10155000E0915A02F0915B020995FF91EF91BF91E2
:10156000AF919F918F917F916F915F914F913F913B
:101570002F910F900BBE0F900FBE0F901F901895DC
:101580001F920F920FB60F920BB60F9211242F934A
:101590003F934F935F936F937F938F939F93AF93FB
:1015A000BF93EF93FF9380915C0290915D02892B32
:1015B00029F0E0915C02F0915D020995FF91EF91B5
:1015C000BF91AF919F918F917F916F915F914F915B
:1015D0003F912F910F900BBE0F900FBE0F901F9059
:1015E00018951F920F920FB60F920BB60F921124FF
:1015F0002F933F934F935F936F937F938F939F931B
:10160000AF93BF93EF93FF9380915E0290915F023F
:10161000892B29F0E0915E02F0915F020995FF911C
:10162000EF91BF91AF919F918F917F916F915F915A
:101630004F913F912F910F900BBE0F900FBE0F90C7
:101640001F90189583E061E00E94C10684E061E08C
:101650000E94C10678940E9477050E941705FDCF6D
:10166000DC01ED91FC910190F081E02D0995089548
:101670000E94300B08950F931F93CF93DF938C013B
:10168000EB0104C02196C8010E94380B68816623D3
:10169000C9F7DF91CF911F910F9108950F931F9379
:1016A0008C016DE00E94380BC8016AE00E94380B83
:1016B0001F910F9108952F923F924F925F926F92D8
:1016C0007F928F929F92AF92BF92CF92DF92EF92D2
:1016D000FF920F931F93DF93CF93CDB7DEB7A09701
:1016E0000FB6F894DEBF0FBECDBF1C016A017B01AF
:1016F000411551056105710521F460E30E94380B25
:101700004FC0882499245401422E552466247724FE
:1017100001E010E00C0F1D1F080D191DC701B601D7
:10172000A30192010E94E00EF80160830894811CDD
:10173000911CA11CB11CC701B601A30192010E941A
:10174000E00EC901DA016C017D01C114D104E1048C
:10175000F104F1F681E0E82EF12CEC0EFD1EE80C10
:10176000F91C3E010894611C711CD501C40101974C
:10177000A109B1096C01C818D9080FC0F601EE0D16
:10178000FF1D60816A3010F4605D01C0695CC101B9
:101790000E94380B0894E108F1086E147F0471F779
:1017A000A0960FB6F894DEBF0FBECDBFCF91DF91EC
:1017B0001F910F91FF90EF90DF90CF90BF90AF906F
:1017C0009F908F907F906F905F904F903F902F9061
:1017D00008952AE00E945B0B0895EF92FF920F9309
:1017E0001F93CF93DF93EC017A018B0177FF0BC03E
:1017F0006DE20E94380B10950095F094E094E11C86
:10180000F11C011D111DCE01B801A7012AE00E94A3
:101810005B0BDF91CF911F910F91FF90EF90089597
:10182000AB01662757FD6095762F0E94ED0B08955A
:101830009F92AF92BF92CF92DF92EF92FF920F935F
:101840001F93CF93DF93EC017A018B01922ECB0192
:10185000BA0120E030E040E050E00E940F0D882304
:1018600044F4CE016DE20E94380B17FB109517F976
:10187000109520E030E040E05FE3AA240BC0CA01ED
:10188000B90120E030E040E251E40E94130D9B01D9
:10189000AC01A394A91498F3C801B7010E94AB0C42
:1018A0005B016C010E94800D7B018C01CE01B801AF
:1018B000A7010E94E90B992029F0CE0162E271E0B4
:1018C0000E943B0BC801B7010E94AC0D9B01AC010B
:1018D000C601B5010E94AA0C20C020E030E040E221
:1018E00051E40E945E0E5B016C010E947B0D9B0126
:1018F000AC017B01CE01B9010E94100C0027F7FC5E
:101900000095102FC801B7010E94AE0D9B01AC01DC
:10191000C601B5010E94AA0C9A949920F1F6DF91B4
:10192000CF911F910F91FF90EF90DF90CF90BF90DC
:10193000AF909F90089522E00E94180C08950F9395
:101940001F938C010E949B0CC8010E944E0B1F919B
:101950000F9108955058BB27AA270ED075C166D1A4
:1019600030F06BD120F031F49F3F11F41EF45BC1D5
:101970000EF4E095E7FB51C1E92F77D180F3BA1758
:10198000620773078407950718F071F49EF58FC1FD
:101990000EF4E0950B2EBA2FA02D0B01B90190018A
:1019A0000C01CA01A0011124FF27591B99F0593FCE
:1019B00050F4503E68F11A16F040A22F232F342F16
:1019C0004427585FF3CF469537952795A795F04064
:1019D0005395C9F77EF41F16BA0B620B730B840B79
:1019E000BAF09150A1F0FF0FBB1F661F771F881F31
:1019F000C2F70EC0BA0F621F731F841F48F4879589
:101A000077956795B795F7959E3F08F0B3CF939577
:101A1000880F08F09927EE0F979587950895D9D0EC
:101A200008F481E008950CD00FC107D140F0FED03A
:101A300030F021F45F3F19F0F0C0511139C1F3C00B
:101A400014D198F39923C9F35523B1F3951B550B82
:101A5000BB27AA2762177307840738F09F5F5F4F81
:101A6000220F331F441FAA1FA9F333D00E2E3AF0C2
:101A7000E0E830D091505040E695001CCAF729D0DC
:101A8000FE2F27D0660F771F881FBB1F261737072B
:101A90004807AB07B0E809F0BB0B802DBF01FF275B
:101AA00093585F4F2AF09E3F510568F0B6C000C1C1
:101AB0005F3FECF3983EDCF3869577956795B79595
:101AC000F7959F5FC9F7880F911D9695879597F9B0
:101AD0000895E1E0660F771F881FBB1F6217730729
:101AE0008407BA0720F0621B730B840BBA0BEE1F3E
:101AF00088F7E095089504D06894B111D9C008958D
:101B0000BCD088F09F5790F0B92F9927B751A0F01B
:101B1000D1F0660F771F881F991F1AF0BA95C9F781
:101B200012C0B13081F0C3D0B1E00895C0C0672FBA
:101B3000782F8827B85F39F0B93FCCF38695779531
:101B40006795B395D9F73EF490958095709561951A
:101B50007F4F8F4F9F4F0895E89409C097FB3EF445
:101B600090958095709561957F4F8F4F9F4F9923EA
:101B7000A9F0F92F96E9BB279395F6958795779568
:101B80006795B795F111F8CFFAF4BB0F11F460FF28
:101B90001BC06F5F7F4F8F4F9F4F16C0882311F080
:101BA00096E911C0772321F09EE8872F762F05C094
:101BB000662371F096E8862F70E060E02AF09A952F
:101BC000660F771F881FDAF7880F9695879597F924
:101BD0000895990F0008550FAA0BE0E8FEEF1616BE
:101BE0001706E807F907C0F012161306E407F50711
:101BF00098F0621B730B840B950B39F40A2661F085
:101C0000232B242B252B21F408950A2609F4A14027
:101C1000A6958FEF811D811D089597F99F6780E834
:101C200070E060E008959FEF80EC089500240A942E
:101C30001616170618060906089500240A941216A7
:101C40001306140605060895092E0394000C11F4DA
:101C5000882352F0BB0F40F4BF2B11F460FF04C087
:101C60006F5F7F4F8F4F9F4F089557FD9058440FE0
:101C7000551F59F05F3F71F04795880F97FB991FEB
:101C800061F09F3F79F087950895121613061406A8
:101C9000551FF2CF4695F1DF08C016161706180635
:101CA000991FF1CF86957105610508940895E89410
:101CB000BB2766277727CB0197F908950BD0C4CFB0
:101CC000B5DF28F0BADF18F0952309F0A6CFABCF27
:101CD0001124EECFCADFA0F3959FD1F3950F50E00A
:101CE000551F629FF001729FBB27F00DB11D639FCE
:101CF000AA27F00DB11DAA1F649F6627B00DA11D74
:101D0000661F829F2227B00DA11D621F739FB00D19
:101D1000A11D621F839FA00D611D221F749F332789
:101D2000A00D611D231F849F600D211D822F762F22
:101D30006A2F11249F5750408AF0E1F088234AF01F
:101D4000EE0FFF1FBB1F661F771F881F915050406B
:101D5000A9F79E3F510570F060CFAACF5F3FECF32B
:101D6000983EDCF3869577956795B795F795E79557
:101D70009F5FC1F7FE2B880F911D9695879597F968
:101D80000895629FD001739FF001829FE00DF11DC5
:101D9000649FE00DF11D929FF00D839FF00D749FE5
:101DA000F00D659FF00D9927729FB00DE11DF91F91
:101DB000639FB00DE11DF91FBD01CF0111240895EE
:101DC000A1E21A2EAA1BBB1BFD010DC0AA1FBB1F3F
:101DD000EE1FFF1FA217B307E407F50720F0A21BB1
:101DE000B30BE40BF50B661F771F881F991F1A941E
:101DF00069F760957095809590959B01AC01BD0148
:101E0000CF01089597FB092E05260ED057FD04D06B
:101E1000D7DF0AD0001C38F45095409530952195B5
:101E20003F4F4F4F5F4F0895F6F79095809570950F
:101E300061957F4F8F4F9F4F0895EE0FFF1F0590C5
:0A1E4000F491E02D0994F894FFCF0F
:101E4A00566F6C746167653A0048656C6C6F205711
:101E5A006F726C64210050726573732053746172DF
:101E6A0074002E00320035003B0038002300620067
:101E7A006500310034003A00370022006100640036
:101E8A00300033003900360021002000630001FFD2
:101E9A0018001900260027000500040001000000B0
:101EAA00000000002F01000000007304C60228048D
:101EBA000D0442040102040810204080201008800A
:021ECA004020B6
:00000001FF
