:100000000C9448000C947C000C947C000C947C00B4
:100010000C947C000C947C000C947C000C947C0070
:100020000C947C000C94600A0C9409090C942F0A1F
:100030000C949C090C94CD090C94D8080C946B0971
:100040000C94C8050C947C000C94D6000C946501AB
:100050000C947C000C947C000C947C000C947C0030
:100060000C94FE090C94240B0C94910A0C94C20A73
:100070000C94F30A0C943A090C94A7000C941E01FA
:100080000C947C000C947C000C947C008D022E055A
:1000900011241FBECFEFD0E1DEBFCDBF88E483BF08
:1000A00084E00E94360712BE87B7816087BF7894CC
:1000B00011E0A0E0B1E0E8ECF8E100E00BBF02C025
:1000C00007900D92A836B107D9F712E0A8E6B1E083
:1000D00001C01D92A135B107E1F710E0C0E9D0E001
:1000E00004C02297FE010E945E0CCC38D107C9F7EC
:1000F0000E94550B0C94620C0C940000FC012481AE
:100100003581C9010895DC01FC01828193818097CA
:1001100014F080E00895FD0182819381019693831C
:10012000828384819581E80FF91F60870196FD0124
:10013000958384832D913C9111978217930714F432
:1001400081E00895FD011582148281E008951F92D7
:100150000F920FB60F920BB60F9211242F933F936D
:100160004F935F936F937F938F939F93AF93BF93BF
:10017000EF93FF93E091FE01F091FF01608186EB28
:1001800091E00E948300FF91EF91BF91AF919F9109
:100190008F917F916F915F914F913F912F910F9030
:1001A0000BBE0F900FBE0F901F9018951F920F92CD
:1001B0000FB60F920BB60F9211242F933F934F93CC
:1001C0005F936F937F938F939F93AF93BF93EF93BF
:1001D000FF93E091B201F091B30160818AE691E072
:1001E0000E948300FF91EF91BF91AF919F918F91FA
:1001F0007F916F915F914F913F912F910F900BBE27
:100200000F900FBE0F901F901895DC01FC018281AA
:10021000938101979383828386819781E80FF91FE9
:1002200040850196FD01978386832D913C9182172D
:10023000930714F017821682842F08951F920F924D
:100240000FB60F920BB60F9211240F931F932F939B
:100250003F934F935F936F937F938F939F93AF934E
:10026000BF93EF93FF938091E0019091E101181605
:10027000190654F40091FE011091FF018EED91E0FA
:100280000E940501F80180838091E0019091E101D5
:10029000892B31F4E091FC01F091FD0188E9808324
:1002A000FF91EF91BF91AF919F918F917F916F914E
:1002B0005F914F913F912F911F910F910F900BBE26
:1002C0000F900FBE0F901F9018951F920F920FB6B0
:1002D0000F920BB60F9211240F931F932F933F93FE
:1002E0004F935F936F937F938F939F93AF93BF933E
:1002F000EF93FF9380919401909195011816190640
:1003000054F40091B2011091B30182E991E00E948E
:100310000501F80180838091940190919501892BCA
:1003200031F4E091B001F091B10188E98083FF914F
:10033000EF91BF91AF919F918F917F916F915F915D
:100340004F913F912F911F910F910F900BBE0F90E6
:100350000FBE0F901F901895DC01FC0182819381E4
:1003600001979383828386819781E80FF91F4085E7
:100370000196FD01978386832D913C918217930707
:1003800014F017821682842F0895FC0184819581D0
:10039000892B19F42FEF3FEF06C0CF0102960E9480
:1003A000AC01282F30E0C9010895CF93DF93EC0111
:1003B000EE81FF81E80FF91F8085DF91CF910895CD
:1003C000FC0184819581892B19F42FEF3FEF06C042
:1003D000CF0102960E94D501282F30E0C90108956F
:1003E000FC01138212828281938197838683958395
:1003F0008483089502960E94F0010895FC0180E232
:1004000090E091838083CF010E94F0010895DC0188
:10041000FC0182819381409714F080E00895FD01F2
:100420008281938101969383828384819581E80FF1
:10043000F91F60870196FD01958384832D913C917E
:1004400011978217930714F481E00895FD01158236
:10045000148281E00895CF93DF93EC018CA59DA5D4
:100460004097E4F7F894CE018A960E940702C85B91
:10047000DF4FE881F9818081806280837894DF9109
:10048000CF910895FC011382128282819381978318
:100490008683958384830895FC0180E190E09183B5
:1004A0008083CF010E94420208956F927F928F92C3
:1004B0009F92AF92BF92CF92DF92EF92FF920F93F3
:1004C0001F936C015B014A013901FC0189E391E052
:1004D00081939193CF010E94FE01C6018A960E94EA
:1004E0004C0282E490E0C80ED91EF601A192B192AE
:1004F000819291926192719201931193F182E082C3
:100500001F910F91FF90EF90DF90CF90BF90AF9031
:100510009F908F907F906F900895EF92FF920F932E
:100520001F9388E691E060E970E049E250E02BE239
:1005300030E00AE210E0FCE2EF2EF12C0E945502BE
:1005400084EB91E068E970E049E950E02BE930E0A4
:100550000AE910E0ECE9EE2EF12C0E9455021F9101
:100560000F91FF90EF90089585E060E070E00E94A9
:10057000210884E060E070E00E94210881E060E0F2
:1005800070E00E94210880E060E070E00E94210895
:1005900008950F931F93CF93DF93EB018A01CC0F44
:1005A000DD1F57FD0CC0FE01ED5BFE4F808161E059
:1005B0000E94AC06C55BDE4F8881B8010EC0FE010B
:1005C000ED5BFE4F808160E00E94AC06C55BDE4FB4
:1005D00066277727601B710B88810E942108DF91B5
:1005E000CF911F910F9108951F93CF93DF93C0E098
:1005F000D0E0FE01ED5BFE4F1081812F61E00E9493
:100600006306812F61E00E94AC06FE01E55BFE4FB0
:10061000808160E070E00E9421082296C830D105F8
:1006200041F7DF91CF911F910895FC0110828AE07C
:1006300090E0938382830895E0910801E7FD15C05F
:10064000FF27E7FDF095EE0FFF1FE050FE4F0190F2
:10065000F081E02D818160E00E94AC0606C02F5F32
:1006600081919191892B69F00EC0209108012F5F33
:10067000E22FFF27E7FDF0952150EE0FFF1FE0501E
:10068000FE4F273064F320930801E0910801FF2713
:10069000E7FDF095EE0FFF1FE050FE4F0190F08157
:1006A000E02D309761F48FEF8093080124EF31E063
:1006B0008091110290911202281B390B12C0818186
:1006C00061E00E94AC06E0910801FF27E7FDF0958C
:1006D000EE0FFF1FE050FE4F0190F081E02D2281D0
:1006E000338183B5820F83BD8091110290911202F4
:1006F000820F931F9093120280931102845F9140A6
:1007000020F0109212021092110208950E944E07DA
:1007100087B78F7787BF85E00E94490789E06CE142
:1007200073E00E946A0783B58C5083BD87B78068E9
:1007300087BF10921202109211028FEF809308016E
:100740000895CF93DF93EC0180911002893010F06F
:1007500080E03DC06983862F61E00E946306E881E6
:10076000F0E0EE0FFF1FE050FE4F80819181C8172F
:10077000D90761F140911002442341F4E0E0F2E036
:100780001192119282E0E031F807D1F7E0E0F2E057
:1007900020E030E080819181892B61F4F901EE0F36
:1007A000FF1FE050FE4FD183C08328834F5F4093EB
:1007B000100206C02F5F3F4F32962830310551F7A7
:1007C00080911002813011F40E94860381E0DF9154
:1007D000CF910895CF93DF93EC018A8160E00E946E
:1007E000AC068D8160E00E94DC068D8160E00E9495
:1007F000FE068B8161E00E94AC068C8161E00E9464
:10080000AC060000000010C08C8160E00E94AC06C5
:1008100000000000000000008C8161E00E94AC0636
:1008200000000000000000008D810E94F30687FD9B
:10083000EBCF8C8160E00E94AC06DF91CF910895F0
:10084000FF920F931F938C01F62E0E94EA03F8018A
:10085000828161E00E94AC06F801838160E00E9421
:10086000AC06F801848161E00E94AC06F801858144
:1008700061E00E94DC06F80185816F2D0E94FE0672
:100880000000000000000000F801848160E00E9488
:10089000AC06F801858160E00E94DC06F8018581E4
:1008A0006FEF0E94FE061F910F91FF900895EF9247
:1008B000FF920F931F93CF93DF937C01042F611559
:1008C000710551F0EB0110E005C0C70169910E946C
:1008D00020041F5F1017C8F3DF91CF911F910F9174
:1008E000FF90EF900895DF93CF930F92CDB7DEB7CF
:1008F0006983BE016F5F7F4F41E00E9457040F90F4
:10090000CF91DF910895FF920F931F938C01F62EE4
:100910000E94EA03F801828160E00E94AC06F801BF
:10092000838160E00E94AC06F801848161E00E944E
:10093000AC06F801858161E00E94DC06F801858142
:100940006F2D0E94FE060000000000000000F8016C
:10095000848160E00E94AC06F801858160E00E941D
:10096000DC06F80185816FEF0E94FE061F910F9152
:10097000FF900895423031F0433031F0413029F496
:10098000605C03C06C5E01C06C5A60680E948304A6
:10099000089562E00E948304089561E00E94830448
:1009A00008950F931F938C01FC01828160E00E94E7
:1009B000AC06F801838160E00E94AC06F8018481F6
:1009C00060E00E94AC06F801828161E00E9463064B
:1009D000F801838161E00E946306F801848161E08F
:1009E0000E946306F801858160E00E94DC06F80140
:1009F00085816FEF0E94FE061F910F9108950F935E
:100A00001F938C010E94D104C80168E30E948304F3
:100A1000C80161E00E948304C80166E00E9483046B
:100A2000C8016CE00E948304C80162E00E94830454
:100A3000C80160E80E9483041F910F9108950F93ED
:100A4000FC0187E591E09183808362834383248363
:100A50000583CF010E94FF040F9108950F9383E156
:100A600092E06AE14BE12CE102E00E941F0589E17E
:100A700092E00E94F4028BE192E00E9415038FE164
:100A800092E00E94150383E292E00E9415030F9109
:100A90000895EF92FF920F931F9350C086E00E943B
:100AA00012078C01000F111F0F5F134087E00E9497
:100AB00012077C01EE0CFF1C81E09CEFE80EF91E92
:100AC00083E192E00E94CD0483E192E00E94C90498
:100AD00083E192E060E040E00E94BA0483E192E0AA
:100AE00060E071E00E946E0B83E192E0B8010E9429
:100AF000320C83E192E060E041E00E94BA0483E1BD
:100B000092E064E071E00E946E0B83E192E0B70135
:100B10000E94320C89E192E062E070E0A8010E943C
:100B2000C90289E192E063E070E0A7010E94C90276
:100B300068EC70E080E090E00E943D0681E30E9456
:100B40009306882309F0AACF89E192E00E94B402BB
:100B50001F910F91FF90EF90089580E060E00E9458
:100B6000DC0681E060E00E94DC068BE192E063E25B
:100B700070E00E94A1038FE192E06FE170E00E94BB
:100B8000A10383E292E062E270E00E94A103089573
:100B90001F920F920FB60F9211242F933F938F93B2
:100BA0009F93AF93BF9380912B0290912C02A091C1
:100BB0002D02B0912E0230912F020196A11DB11D80
:100BC000232F2D5F2D3720F02D570196A11DB11D2C
:100BD00020932F0280932B0290932C02A0932D023E
:100BE000B0932E028091270290912802A0912902B1
:100BF000B0912A020196A11DB11D80932702909306
:100C00002802A0932902B0932A02BF91AF919F912D
:100C10008F913F912F910F900FBE0F901F901895BD
:100C20006FB7F89420912702309128024091290251
:100C300050912A0282B790E0A0E0B0E006B600FE34
:100C400009C08F3F9105A105B10521F02F5F3F4FEE
:100C50004F4F5F4F6FBF542F432F322F2227280F44
:100C6000391F4A1F5B1F82E0220F331F441F551F8D
:100C70008A95D1F7B901CA010895EF92FF920F93B7
:100C80001F93CF93DF937B018C010E941006EB0131
:100C90000EC00E9410066C1B7D0B685E7340C8F38B
:100CA0000894E108F10801091109C851DC4FE11469
:100CB000F1040105110569F7DF91CF911F910F91A3
:100CC000FF90EF900895E82FE695E695E695A82F1A
:100CD000B0E0613099F42FB7F894F0E0EE0FFF1F09
:100CE000E95EFE4F0190F081E02D9081A770B07019
:100CF000A75ABE4F8C91982B908313C02FB7F894AE
:100D0000F0E0EE0FFF1FE95EFE4F0190F081E02D55
:100D10009081A770B070A75ABE4F8C91809589239F
:100D200080832FBF0895A82FE82FE695E695E695D6
:100D3000F0E0EE0FFF1FEB5DFE4F0190F081E02D24
:100D4000E081B0E0A770B070A75ABE4F8C91E82345
:100D500009F0E1E08E2F0895E82FE695E695E695F7
:100D6000A82FB0E0613099F42FB7F894F0E0EE0FBF
:100D7000FF1FE75FFE4F0190F081E02D9081A7708B
:100D8000B070A75ABE4F8C91982B908313C02FB789
:100D9000F894F0E0EE0FFF1FE75FFE4F0190F08147
:100DA000E02D9081A770B070A75ABE4F8C918095AE
:100DB000892380832FBF0895E82FF0E0613051F43C
:100DC000EE0FFF1FE95EFE4F0190F081E02D8FEFE7
:100DD00080830895EE0FFF1FE95EFE4F0190F081C2
:100DE000E02D10820895E82FF0E0EE0FFF1FEB5D7D
:100DF000FE4F0190F081E02D80810895E82FF0E012
:100E0000EE0FFF1FE75FFE4F0190F081E02D608342
:100E10000895109261001092620080E487B987EE15
:100E200086B908951F93182F80913301813021F4E2
:100E30000E9409071092330180913401181721F4A0
:100E4000349A349BFECF0DC01093340187B11770D4
:100E5000807E812B87B9349A349BFECF349A349BA1
:100E6000FECF24B135B1C9011F91089593B7987F82
:100E7000982B93BF08959EB5987F982B9EBD08959B
:100E800083E00E943B071DBC1CBC87B7846087BF02
:100E9000089595B5987F982B95BD089582E00E949E
:100EA000490714BC87B7806487BF0895EAE8F0E07B
:100EB0009081987F982B9083089583E00E94560735
:100EC0001092890010928800EDE7F0E08081846044
:100ED00080830895803140F4E82FF0E0EE0FFF1F8B
:100EE000EF5CFD4F718360830895893031F48FB5D5
:100EF00082608FBD8FB58E7F0AC08A3019F48FB59E
:100F0000826002C08FB58D7F8FBD8FB581608FBD30
:100F10001BBC1ABC19BC18BC109279001092780046
:100F200008958FB580688FBD8FB58F7B8FBD089575
:100F30008FB580628FBD8FB58F7E8FBD08958FB5C1
:100F400088608FBD8FB58B7F8FBD08959BBD8ABD97
:100F5000089599BD88BD0895909379008093780095
:100F60000895893049F480918B00826080938B00D2
:100F700080918B008E7F0EC08A3021F480918B008F
:100F8000826003C080918B008D7F80938B00809165
:100F90008B00816080938B001092870010928600F6
:100FA00010928500109284001092830010928200AB
:100FB0000895EBE8F0E080818068808380818F7BFA
:100FC00080830895EBE8F0E08081806280838081F7
:100FD0008F7E80830895EBE8F0E0808188608083D5
:100FE00080818B7F80830895853019F40E9491075A
:100FF0000895843019F40E9498070895833019F4F5
:101000000E949F070895823019F40E94D90708951D
:10101000813019F40E94E2070895882311F40E9498
:10102000EB0708959093870080938600089590932E
:1010300085008093840008959093830080938200BC
:101040000895EF92FF921F93CF93DF93182F7B01A8
:101050008D31B0F08F3111F413E014C08E3111F4E2
:1010600014E010C08D3109F49BC0853211F410E0FA
:101070003DC0843211F411E039C0833219F48EC0BE
:101080008330A0F18091300286FD0BC00E944007A2
:1010900078948AE00E947507809130028064809382
:1010A000300280913002C12FD0E090E0012E02C0CA
:1010B000959587950A94E2F780FD4CC087B3FE01B1
:1010C000EF59FE4F9081892B87BB812F0E94F40737
:1010D0002091300281E090E0012E02C0880F991F1C
:1010E0000A94E2F7282B2093300234C0809130021A
:1010F00087FD0BC00E945D0778948AE00E94B107CB
:101100008091300280688093300280913002C12F3C
:10111000D0E090E0012E02C0959587950A94E2F701
:1011200080FD24C082B1FE01EF59FE4F9081892BD2
:1011300082B9812F0E94F4072091300281E090E073
:10114000012E02C0880F991F0A94E2F7282B2093E2
:1011500030020CC0153021F4C7010E94A60722C03E
:10116000143021F4C7010E94A9071CC0133021F4D8
:10117000C7010E94AC0716C0123021F4C7010E94BB
:10118000120810C0113021F4C7010E9417080AC0CC
:10119000112341F4C7010E941C0804C012E0A6CF2D
:1011A00015E070CFDF91CF911F91FF90EF900895E0
:1011B0001F920F920FB60F920BB60F9211242F931E
:1011C0003F934F935F936F937F938F939F93AF93CF
:1011D000BF93EF93FF938091370290913802892B50
:1011E00029F0E0913702F09138020995FF91EF91D3
:1011F000BF91AF919F918F917F916F915F914F912F
:101200003F912F910F900BBE0F900FBE0F901F902C
:1012100018951F920F920FB60F920BB60F921124D2
:101220002F933F934F935F936F937F938F939F93EE
:10123000AF93BF93EF93FF9380914102909142024D
:10124000892B29F0E0914102F09142020995FF912A
:10125000EF91BF91AF919F918F917F916F915F912E
:101260004F913F912F910F900BBE0F900FBE0F909B
:101270001F9018951F920F920FB60F920BB60F92F8
:1012800011242F933F934F935F936F937F938F938B
:101290009F93AF93BF93EF93FF93809147029091F9
:1012A0004802892B29F0E0914702F0914802099504
:1012B000FF91EF91BF91AF919F918F917F916F912E
:1012C0005F914F913F912F910F900BBE0F900FBEEA
:1012D0000F901F9018951F920F920FB60F920BB69A
:1012E0000F9211242F933F934F935F936F937F93AC
:1012F0008F939F93AF93BF93EF93FF9380913302AC
:1013000090913402892B29F0E0913302F09134025C
:101310000995FF91EF91BF91AF919F918F917F912F
:101320006F915F914F913F912F910F900BBE0F9056
:101330000FBE0F901F9018951F920F920FB60F922D
:101340000BB60F9211242F933F934F935F936F939C
:101350007F938F939F93AF93BF93EF93FF9380916E
:10136000390290913A02892B29F0E0913902F091EB
:101370003A020995FF91EF91BF91AF919F918F91A3
:101380007F916F915F914F913F912F910F900BBE85
:101390000F900FBE0F901F9018951F920F920FB6CF
:1013A0000F920BB60F9211242F933F934F935F939D
:1013B0006F937F938F939F93AF93BF93EF93FF931D
:1013C00080913B0290913C02892B29F0E0913B02F5
:1013D000F0913C020995FF91EF91BF91AF919F91E0
:1013E0008F917F916F915F914F913F912F910F90CE
:1013F0000BBE0F900FBE0F901F9018951F920F926B
:101400000FB60F920BB60F9211242F933F934F9369
:101410005F936F937F938F939F93AF93BF93EF935C
:10142000FF9380913D0290913E02892B29F0E0913B
:101430003D02F0913E020995FF91EF91BF91AF916E
:101440009F918F917F916F915F914F913F912F91DC
:101450000F900BBE0F900FBE0F901F9018951F920C
:101460000F920FB60F920BB60F9211242F933F934A
:101470004F935F936F937F938F939F93AF93BF939C
:10148000EF93FF9380913F0290914002892B29F0C6
:10149000E0913F02F09140020995FF91EF91BF91D9
:1014A000AF919F918F917F916F915F914F913F91FC
:1014B0002F910F900BBE0F900FBE0F901F9018959D
:1014C0001F920F920FB60F920BB60F9211242F930B
:1014D0003F934F935F936F937F938F939F93AF93BC
:1014E000BF93EF93FF938091430290914402892B25
:1014F00029F0E0914302F09144020995FF91EF91A8
:10150000BF91AF919F918F917F916F915F914F911B
:101510003F912F910F900BBE0F900FBE0F901F9019
:1015200018951F920F920FB60F920BB60F921124BF
:101530002F933F934F935F936F937F938F939F93DB
:10154000AF93BF93EF93FF938091490290914A022A
:10155000892B29F0E0914902F0914A020995FF9107
:10156000EF91BF91AF919F918F917F916F915F911B
:101570004F913F912F910F900BBE0F900FBE0F9088
:101580001F9018951F920F920FB60F920BB60F92E5
:1015900011242F933F934F935F936F937F938F9378
:1015A0009F93AF93BF93EF93FF9380914B029091E2
:1015B0004C02892B29F0E0914B02F0914C020995E5
:1015C000FF91EF91BF91AF919F918F917F916F911B
:1015D0005F914F913F912F910F900BBE0F900FBED7
:1015E0000F901F9018951F920F920FB60F920BB687
:1015F0000F9211242F933F934F935F936F937F9399
:101600008F939F93AF93BF93EF93FF9380914D027E
:1016100090914E02892B29F0E0914D02F0914E02FB
:101620000995FF91EF91BF91AF919F918F917F911C
:101630006F915F914F913F912F910F900BBE0F9043
:101640000FBE0F901F9018951F920F920FB60F921A
:101650000BB60F9211242F933F934F935F936F9389
:101660007F938F939F93AF93BF93EF93FF9380915B
:101670004F0290915002892B29F0E0914F02F09196
:1016800050020995FF91EF91BF91AF919F918F917A
:101690007F916F915F914F913F912F910F900BBE72
:1016A0000F900FBE0F901F90189583E061E00E948D
:1016B000DC0684E061E00E94DC0678940E94AD05BF
:1016C0000E944905FDCFDC01ED91FC910190F08174
:1016D000E02D099508950E94630B08950F931F93C1
:1016E000CF93DF938C01EB0104C02196C8010E94C7
:1016F0006B0B68816623C9F7DF91CF911F910F9122
:1017000008952F923F924F925F926F927F928F92A5
:101710009F92AF92BF92CF92DF92EF92FF920F9380
:101720001F93DF93CF93CDB7DEB7A0970FB6F89492
:10173000DEBF0FBECDBF1C016A017B014115510503
:101740006105710521F460E30E946B0B4FC0882492
:1017500099245401422E55246624772401E010E098
:101760000C0F1D1F080D191DC701B601A301920121
:101770000E943A0CF80160830894811C911CA11C02
:10178000B11CC701B601A30192010E943A0CC90124
:10179000DA016C017D01C114D104E104F104F1F618
:1017A00081E0E82EF12CEC0EFD1EE80CF91C3E0148
:1017B0000894611C711CD501C4010197A109B109EC
:1017C0006C01C818D9080FC0F601EE0DFF1D60812D
:1017D0006A3010F4605D01C0695CC1010E946B0B4E
:1017E0000894E108F1086E147F0471F7A0960FB613
:1017F000F894DEBF0FBECDBFCF91DF911F910F9147
:10180000FF90EF90DF90CF90BF90AF909F908F9020
:101810007F906F905F904F903F902F900895EF9240
:10182000FF920F931F93CF93DF93EC017A018B010B
:1018300077FF0BC06DE20E946B0B10950095F09442
:10184000E094E11CF11C011D111DCE01B801A7019E
:101850002AE00E94810BDF91CF911F910F91FF90A1
:10186000EF900895AB01662757FD6095762F0E9493
:101870000F0C0895A1E21A2EAA1BBB1BFD010DC07F
:10188000AA1FBB1FEE1FFF1FA217B307E407F50730
:1018900020F0A21BB30BE40BF50B661F771F881F0C
:1018A000991F1A9469F760957095809590959B01A2
:1018B000AC01BD01CF010895EE0FFF1F0590F4911B
:0818C000E02D0994F894FFCF1C
:1018C8004D363A004D373A00FF320035003B0038BC
:1018D80000230062006500310034003A003700221E
:1018E8000061006400300033003900360021002018
:1018F80000630001FF000000002B027E00E001C52C
:1019080001FA01180019002600270005000400014B
:1019180000000000000000730401020408102040C9
:0819280080201008804020001F
:00000001FF
