:100000000C9448000C947C000C947C000C947C00B4
:100010000C947C000C947C000C947C000C947C0070
:100020000C947C000C945A0A0C9403090C94290A31
:100030000C9496090C94C7090C94D2080C94650989
:100040000C94DA050C947C000C946D020C94FC0268
:100050000C947C000C947C000C947C000C947C0030
:100060000C94F8090C941E0B0C948B0A0C94BC0A8B
:100070000C94ED0A0C9434090C943E020C94B502D5
:100080000C947C000C947C000C947C0024044B04A5
:1000900011241FBECFEFD0E1DEBFCDBF88E483BF08
:1000A00084E00E94480712BE87B7816087BF7894BA
:1000B00011E0A0E0B1E0E0EDFBE100E00BBF02C029
:1000C00007900D92A639B107D9F712E0A6E9B1E081
:1000D00001C01D92AE37B107E1F710E0C0E9D0E0F2
:1000E00004C02297FE010E94E20DCC38D107C9F767
:1000F0000E944F0B0C94E60D0C9400000F931F937D
:10010000CF93DF93EB018A01CC0FDD1F57FD0CC0AD
:10011000FE01EC59FE4F808161E00E94BE06C45989
:10012000DE4F8881B8010EC0FE01EC59FE4F808180
:1001300060E00E94BE06C459DE4F66277727601B29
:10014000710B88810E941B08DF91CF911F910F9145
:1001500008951F93CF93DF93C0E0D0E0FE01EC59E8
:10016000FE4F1081812F61E00E947506812F61E0B2
:100170000E94BE06FE01E459FE4F808160E070E0FF
:100180000E941B082296C830D10541F7DF91CF911C
:100190001F910895FC0110828AE090E0938382838E
:1001A0000895CF93DF93EC018A8160E00E94BE0640
:1001B0008D8160E00E94EE068D8160E00E94100754
:1001C0008B8161E00E94BE068C8161E00E94BE06C8
:1001D0000000000010C08C8160E00E94BE0600009C
:1001E0000000000000008C8161E00E94BE0600005B
:1001F0000000000000008D810E94050787FDEBCF05
:100200008C8160E00E94BE06DF91CF910895FF923D
:100210000F931F938C01F62E0E94D100F80182816A
:1002200061E00E94BE06F801838160E00E94BE0684
:10023000F801848161E00E94BE06F801858161E0D9
:100240000E94EE06F80185816F2D0E9410070000C4
:10025000000000000000F801848160E00E94BE06FA
:10026000F801858160E00E94EE06F80185816FEF5C
:100270000E9410071F910F91FF900895EF92FF9237
:100280000F931F93CF93DF937C01042F61157105AA
:1002900051F0EB0110E005C0C70169910E94070110
:1002A0001F5F1017C8F3DF91CF911F910F91FF903F
:1002B000EF900895DF93CF930F92CDB7DEB76983A8
:1002C000BE016F5F7F4F41E00E943E010F90CF91D2
:1002D000DF910895FF920F931F938C01F62E0E94D9
:1002E000D100F801828160E00E94BE06F80183819E
:1002F00060E00E94BE06F801848161E00E94BE06B3
:10030000F801858161E00E94EE06F80185816F2D7C
:100310000E9410070000000000000000F801848126
:1003200060E00E94BE06F801858160E00E94EE0652
:10033000F80185816FEF0E9410071F910F91FF90C8
:100340000895423031F0433031F0413029F4605C9F
:1003500003C06C5E01C06C5A60680E946A01089517
:1003600062E00E946A01089561E00E946A010895B6
:100370000F931F938C01FC01828160E00E94BE06F6
:10038000F801838160E00E94BE06F801848160E08C
:100390000E94BE06F801828161E00E947506F801A4
:1003A000838161E00E947506F801848161E00E940A
:1003B0007506F801858160E00E94EE06F8018581EE
:1003C0006FEF0E9410071F910F9108950F931F93D5
:1003D0008C010E94B801C80168E30E946A01C8014B
:1003E00061E00E946A01C80166E00E946A01C801DA
:1003F0006CE00E946A01C80162E00E946A01C801C3
:1004000060E80E946A011F910F9108950F93FC010B
:1004100088E791E09183808362834383248305830B
:10042000CF010E94E6010F910895FC0124813581DE
:10043000C9010895DC01FC0182819381809714F049
:1004400080E00895FD0182819381019693838283E8
:1004500084819581E80FF91F60870196FD019583DE
:1004600084832D913C9111978217930714F481E0B6
:100470000895FD011582148281E008951F920F9264
:100480000FB60F920BB60F9211242F933F934F93F9
:100490005F936F937F938F939F93AF93BF93EF93EC
:1004A000FF93E0912C02F0912D02608184EE91E0A7
:1004B0000E941A02FF91EF91BF91AF919F918F918E
:1004C0007F916F915F914F913F912F910F900BBE54
:1004D0000F900FBE0F901F9018951F920F920FB69E
:1004E0000F920BB60F9211242F933F934F935F936C
:1004F0006F937F938F939F93AF93BF93EF93FF93EC
:10050000E091E001F091E101608188E991E00E94D1
:100510001A02FF91EF91BF91AF919F918F917F91BF
:100520006F915F914F913F912F910F900BBE0F9064
:100530000FBE0F901F901895DC01FC018281938102
:1005400001979383828386819781E80FF91F408505
:100550000196FD01978386832D913C918217930725
:1005600014F017821682842F08951F920F920FB6EF
:100570000F920BB60F9211240F931F932F933F935B
:100580004F935F936F937F938F939F93AF93BF939B
:10059000EF93FF9380910E0290910F0218161906A7
:1005A00054F400912C0210912D028CE092E00E94F4
:1005B0009C02F801808380910E0290910F02892B9A
:1005C00031F4E0912A02F0912B0288E98083FF91B7
:1005D000EF91BF91AF919F918F917F916F915F91BB
:1005E0004F913F912F911F910F910F900BBE0F9044
:1005F0000FBE0F901F9018951F920F920FB60F927B
:100600000BB60F9211240F931F932F933F934F9389
:100610005F936F937F938F939F93AF93BF93EF936A
:10062000FF938091C2019091C3011816190654F4EA
:100630000091E0011091E10180EC91E00E949C02A8
:10064000F80180838091C2019091C301892B31F41C
:10065000E091DE01F091DF0188E98083FF91EF9165
:10066000BF91AF919F918F917F916F915F914F91CA
:100670003F912F911F910F910F900BBE0F900FBEC6
:100680000F901F901895DC01FC01828193810197E6
:100690009383828386819781E80FF91F40850196B5
:1006A000FD01978386832D913C918217930714F067
:1006B00017821682842F0895FC0184819581892BED
:1006C00019F42FEF3FEF06C0CF0102960E944303BB
:1006D000282F30E0C9010895CF93DF93EC01EE811C
:1006E000FF81E80FF91F8085DF91CF910895FC010C
:1006F00084819581892B19F42FEF3FEF06C0CF013C
:1007000002960E946C03282F30E0C9010895FC0175
:100710001382128282819381978386839583848357
:10072000089502960E9487030895FC0180E290E0FC
:1007300091838083CF010E9487030895DC01FC012F
:1007400082819381409714F080E00895FD018281B9
:10075000938101969383828384819581E80FF91FA9
:1007600060870196FD01958384832D913C911197BB
:100770008217930714F481E00895FD011582148215
:1007800081E00895CF93DF93EC018CA59DA5409760
:10079000E4F7F894CE018A960E949E03C85BDF4F6F
:1007A000E881F9818081806280837894DF91CF91A4
:1007B0000895FC011382128282819381978386833C
:1007C000958384830895FC0180E190E09183808388
:1007D000CF010E94D90308956F927F928F929F92CA
:1007E000AF92BF92CF92DF92EF92FF920F931F933F
:1007F0006C015B014A013901FC018EE791E08193B4
:100800009193CF010E949503C6018A960E94E3034B
:1008100082E490E0C80ED91EF601A192B1928192B5
:1008200091926192719201931193F182E0821F91F2
:100830000F91FF90EF90DF90CF90BF90AF909F907F
:100840008F907F906F900895EF92FF920F931F9378
:1008500086E991E060E970E049E250E02BE230E0A7
:100860000AE210E0FCE2EF2EF12C0E94EC0382EE93
:1008700091E068E970E049E950E02BE930E00AE9ED
:1008800010E0ECE9EE2EF12C0E94EC031F910F9189
:10089000FF90EF9008950F938EE292E06AE14BE1B2
:1008A0002CE102E00E94060284E392E00E94A9008B
:1008B00086E392E00E94CA008AE392E00E94CA00A6
:1008C0008EE392E00E94CA000F9108954F925F92CA
:1008D0006F927F928F929F92AF92BF92CF92DF9250
:1008E000EF92FF920F931F93CF93DF9380E00E94CC
:1008F00024074C0181E00E9424075C0186E00E94ED
:1009000024073C0187E00E9424072C0180913401D8
:10091000909135018815990544F48A159B0574F466
:10092000109243021092420224C08816990664F481
:100930008A159B054CF48FEF9FEF17C0A816B906D8
:100940001CF481E090E011C08230910594F0A8166B
:10095000B9067CF4809142029091430297FF03C054
:100960008BEF9FEF02C085E090E09093430280936D
:100970004202C0914202D09143028091460290917E
:100980004702C817D90791F090934502809344021B
:1009900080914A0290914B029093490280934802C1
:1009A00081E090E090934B0280934A026C9E80011C
:1009B0006D9E100D7C9E100D112410934F0200931C
:1009C0004E02B201882777FD8095982F0E94CF0CA8
:1009D0006B017C018091440290914502C81BD90BA8
:1009E000BE01882777FD8095982F0E94CF0C9B0130
:1009F000AC01C701B6010E945B0D6B017C016091E7
:100A000048027091490220914A0230914B02620FD4
:100A1000731F882777FD8095982F0E94CF0C9B012C
:100A2000AC01C701B6010E94340C0E949C0C70936B
:100A30005102609350024091360150913701040FEA
:100A4000151F060F171F1093530200935202401BED
:100A5000510B84E392E063E070E00E947E004091DD
:100A60005202509153028091360190913701480F04
:100A7000591F84E392E062E070E00E947E00809162
:100A80004C0290914D02C297F1F58EE292E00E94E5
:100A9000B4018EE292E00E94B0018EE292E060E04A
:100AA00071E00E94680B8EE292E0B4010E942C0C6F
:100AB0008EE292E064E071E00E94680B8EE292E0C8
:100AC000B5010E942C0C8EE292E060E041E00E94B1
:100AD000A1018EE292E069E071E00E94680B8EE273
:100AE00092E0B3010E942C0C8EE292E06DE071E086
:100AF0000E94680B8EE292E0B2010E942C0C1092D0
:100B00004D0210924C0280914C0290914D02019640
:100B100090934D0280934C0280914A0290914B0237
:100B2000019690934B0280934A02809142029091E9
:100B300043029093470280934602DF91CF911F9129
:100B40000F91FF90EF90DF90CF90BF90AF909F906C
:100B50008F907F906F905F904F90089580E060E05D
:100B60000E94EE0681E060E00E94EE068EE292E0D6
:100B700060E040E00E94A1018EE292E062E171E05B
:100B80000E94680B8EE292E060E041E00E94A101C9
:100B90008EE292E061E271E00E94680B62E370E035
:100BA00080E090E00E944F0682E30E94A506882321
:100BB000D9F708951F920F920FB60F9211242F9319
:100BC0003F938F939F93AF93BF93809158029091DF
:100BD0005902A0915A02B0915B0230915C020196D9
:100BE000A11DB11D232F2D5F2D3720F02D5701960C
:100BF000A11DB11D20935C0280935802909359026D
:100C0000A0935A02B0935B028091540290915502D6
:100C1000A0915602B09157020196A11DB11D80937B
:100C2000540290935502A0935602B0935702BF917D
:100C3000AF919F918F913F912F910F900FBE0F9089
:100C40001F9018956FB7F894209154023091550277
:100C5000409156025091570282B790E0A0E0B0E078
:100C600006B600FE09C08F3F9105A105B10521F030
:100C70002F5F3F4F4F4F5F4F6FBF542F432F322F88
:100C80002227280F391F4A1F5B1F82E0220F331FC4
:100C9000441F551F8A95D1F7B901CA010895EF92F3
:100CA000FF920F931F93CF93DF937B018C010E94E0
:100CB0002206EB010EC00E9422066C1B7D0B685EB3
:100CC0007340C8F30894E108F10801091109C851FB
:100CD000DC4FE114F1040105110569F7DF91CF91B3
:100CE0001F910F91FF90EF900895E82FE695E695FC
:100CF000E695A82FB0E0613099F42FB7F894F0E0B2
:100D0000EE0FFF1FEA5BFE4F0190F081E02D908116
:100D1000A770B070A857BE4F8C91982B908313C0CA
:100D20002FB7F894F0E0EE0FFF1FEA5BFE4F019043
:100D3000F081E02D9081A770B070A857BE4F8C91C4
:100D40008095892380832FBF0895A82FE82FE695EB
:100D5000E695E695F0E0EE0FFF1FEC5AFE4F01908E
:100D6000F081E02DE081B0E0A770B070A857BE4FD1
:100D70008C91E82309F0E1E08E2F0895E82FE695A5
:100D8000E695E695A82FB0E0613099F42FB7F89476
:100D9000F0E0EE0FFF1FE85CFE4F0190F081E02DC8
:100DA0009081A770B070A857BE4F8C91982B9083FC
:100DB00013C02FB7F894F0E0EE0FFF1FE85CFE4F72
:100DC0000190F081E02D9081A770B070A857BE4FC0
:100DD0008C918095892380832FBF0895E82FF0E0C0
:100DE000613051F4EE0FFF1FEA5BFE4F0190F0817E
:100DF000E02D8FEF80830895EE0FFF1FEA5BFE4F1B
:100E00000190F081E02D10820895E82FF0E0EE0FC0
:100E1000FF1FEC5AFE4F0190F081E02D8081089574
:100E2000E82FF0E0EE0FFF1FE85CFE4F0190F0812D
:100E3000E02D60830895109261001092620080E4BA
:100E400087B987EE86B908951F93182F80916201A4
:100E5000813021F40E941B0710926201809163018E
:100E6000181721F4349A349BFECF0DC01093630100
:100E700087B11770807E812B87B9349A349BFECF5F
:100E8000349A349BFECF24B135B1C9011F91089526
:100E900093B7987F982B93BF08959EB5987F982B12
:100EA0009EBD089583E00E944D071DBC1CBC87B702
:100EB000846087BF0895EAE8F0E09081987F982BDE
:100EC0009083089583E00E945B071092890010923E
:100ED0008800EDE7F0E080818460808308958930A8
:100EE00031F48FB582608FBD8FB58E7F0AC08A3096
:100EF00019F48FB5826002C08FB58D7F8FBD8FB51D
:100F000081608FBD1BBC1ABC19BC18BC1092790043
:100F10001092780008958FB580688FBD8FB58F7B54
:100F20008FBD08958FB580628FBD8FB58F7E8FBDC9
:100F300008958FB588608FBD8FB58B7F8FBD089565
:100F40009BBD8ABD089599BD88BD08959093790091
:100F5000809378000895893049F480918B008260F5
:100F600080938B0080918B008E7F0EC08A3021F49D
:100F700080918B00826003C080918B008D7F809375
:100F80008B0080918B00816080938B001092870092
:100F900010928600109285001092840010928300B7
:100FA000109282000895EBE8F0E0808180688083F1
:100FB00080818F7B80830895EBE8F0E08081806200
:100FC000808380818F7E80830895EBE8F0E08081CC
:100FD0008860808380818B7F80830895853019F4B9
:100FE0000E948B070895843019F40E949207089597
:100FF000833019F40E9499070895823019F40E94F1
:10100000D3070895813019F40E94DC0708958823DE
:1010100011F40E94E507089590938700809386005D
:1010200008959093850080938400089590938300A1
:10103000809382000895EF92FF921F93CF93DF93E6
:10104000182F7B018D31B0F08F3111F413E014C0F3
:101050008E3111F414E010C08D3109F49BC085323B
:1010600011F410E03DC0843211F411E039C0833234
:1010700019F48EC08330A0F180915D0286FD0BC013
:101080000E94520778948AE00E946F0780915D0267
:10109000806480935D0280915D02C12FD0E090E07A
:1010A000012E02C0959587950A94E2F780FD4CC009
:1010B00087B3FE01E057FE4F9081892B87BB812FBC
:1010C0000E94EE0720915D0281E090E0012E02C0B7
:1010D000880F991F0A94E2F7282B20935D0234C0F1
:1010E00080915D0287FD0BC00E94620778948AE0C0
:1010F0000E94AB0780915D02806880935D028091C1
:101100005D02C12FD0E090E0012E02C09595879539
:101110000A94E2F780FD24C082B1FE01E057FE4F41
:101120009081892B82B9812F0E94EE0720915D0268
:1011300081E090E0012E02C0880F991F0A94E2F727
:10114000282B20935D020CC0153021F4C7010E94AA
:10115000A00722C0143021F4C7010E94A3071CC0BD
:10116000133021F4C7010E94A60716C0123021F4E3
:10117000C7010E940C0810C0113021F4C7010E9461
:1011800011080AC0112341F4C7010E94160804C0C7
:1011900012E0A6CF15E070CFDF91CF911F91FF90A5
:1011A000EF9008951F920F920FB60F920BB60F9209
:1011B00011242F933F934F935F936F937F938F935C
:1011C0009F93AF93BF93EF93FF93809164029091AD
:1011D0006502892B29F0E0916402F091650209957E
:1011E000FF91EF91BF91AF919F918F917F916F91FF
:1011F0005F914F913F912F910F900BBE0F900FBEBB
:101200000F901F9018951F920F920FB60F920BB66A
:101210000F9211242F933F934F935F936F937F937C
:101220008F939F93AF93BF93EF93FF9380916E0241
:1012300090916F02892B29F0E0916E02F0916F027C
:101240000995FF91EF91BF91AF919F918F917F9100
:101250006F915F914F913F912F910F900BBE0F9027
:101260000FBE0F901F9018951F920F920FB60F92FE
:101270000BB60F9211242F933F934F935F936F936D
:101280007F938F939F93AF93BF93EF93FF9380913F
:10129000740290917502892B29F0E0917402F0910B
:1012A00075020995FF91EF91BF91AF919F918F9139
:1012B0007F916F915F914F913F912F910F900BBE56
:1012C0000F900FBE0F901F9018951F920F920FB6A0
:1012D0000F920BB60F9211242F933F934F935F936E
:1012E0006F937F938F939F93AF93BF93EF93FF93EE
:1012F0008091600290916102892B29F0E091600257
:10130000F09161020995FF91EF91BF91AF919F918B
:101310008F917F916F915F914F913F912F910F909E
:101320000BBE0F900FBE0F901F9018951F920F923B
:101330000FB60F920BB60F9211242F933F934F933A
:101340005F936F937F938F939F93AF93BF93EF932D
:10135000FF938091660290916702892B29F0E091BA
:101360006602F09167020995FF91EF91BF91AF91ED
:101370009F918F917F916F915F914F913F912F91AD
:101380000F900BBE0F900FBE0F901F9018951F92DD
:101390000F920FB60F920BB60F9211242F933F931B
:1013A0004F935F936F937F938F939F93AF93BF936D
:1013B000EF93FF938091680290916902892B29F045
:1013C000E0916802F09169020995FF91EF91BF9158
:1013D000AF919F918F917F916F915F914F913F91CD
:1013E0002F910F900BBE0F900FBE0F901F9018956E
:1013F0001F920F920FB60F920BB60F9211242F93DC
:101400003F934F935F936F937F938F939F93AF938C
:10141000BF93EF93FF9380916A0290916B02892BA7
:1014200029F0E0916A02F0916B020995FF91EF912A
:10143000BF91AF919F918F917F916F915F914F91EC
:101440003F912F910F900BBE0F900FBE0F901F90EA
:1014500018951F920F920FB60F920BB60F92112490
:101460002F933F934F935F936F937F938F939F93AC
:10147000AF93BF93EF93FF9380916C0290916D02B5
:10148000892B29F0E0916C02F0916D020995FF9192
:10149000EF91BF91AF919F918F917F916F915F91EC
:1014A0004F913F912F910F900BBE0F900FBE0F9059
:1014B0001F9018951F920F920FB60F920BB60F92B6
:1014C00011242F933F934F935F936F937F938F9349
:1014D0009F93AF93BF93EF93FF938091700290918E
:1014E0007102892B29F0E0917002F0917102099547
:1014F000FF91EF91BF91AF919F918F917F916F91EC
:101500005F914F913F912F910F900BBE0F900FBEA7
:101510000F901F9018951F920F920FB60F920BB657
:101520000F9211242F933F934F935F936F937F9369
:101530008F939F93AF93BF93EF93FF938091760226
:1015400090917702892B29F0E0917602F091770251
:101550000995FF91EF91BF91AF919F918F917F91ED
:101560006F915F914F913F912F910F900BBE0F9014
:101570000FBE0F901F9018951F920F920FB60F92EB
:101580000BB60F9211242F933F934F935F936F935A
:101590007F938F939F93AF93BF93EF93FF9380912C
:1015A000780290917902892B29F0E0917802F091EC
:1015B00079020995FF91EF91BF91AF919F918F9122
:1015C0007F916F915F914F913F912F910F900BBE43
:1015D0000F900FBE0F901F9018951F920F920FB68D
:1015E0000F920BB60F9211242F933F934F935F935B
:1015F0006F937F938F939F93AF93BF93EF93FF93DB
:1016000080917A0290917B02892B29F0E0917A02F5
:10161000F0917B020995FF91EF91BF91AF919F915E
:101620008F917F916F915F914F913F912F910F908B
:101630000BBE0F900FBE0F901F9018951F920F9228
:101640000FB60F920BB60F9211242F933F934F9327
:101650005F936F937F938F939F93AF93BF93EF931A
:10166000FF9380917C0290917D02892B29F0E0917B
:101670007C02F0917D020995FF91EF91BF91AF91AE
:101680009F918F917F916F915F914F913F912F919A
:101690000F900BBE0F900FBE0F901F90189583E018
:1016A00061E00E94EE0684E061E00E94EE0678941C
:1016B0000E94AE050E946604FDCFDC01ED91FC9115
:1016C0000190F081E02D099508950E945D0B089529
:1016D0000F931F93CF93DF938C01EB0104C02196EE
:1016E000C8010E94650B68816623C9F7DF91CF911D
:1016F0001F910F9108952F923F924F925F926F9298
:101700007F928F929F92AF92BF92CF92DF92EF9291
:10171000FF920F931F93DF93CF93CDB7DEB7A097C0
:101720000FB6F894DEBF0FBECDBF1C016A017B016E
:10173000411551056105710521F460E30E94650BB7
:101740004FC0882499245401422E552466247724BE
:1017500001E010E00C0F1D1F080D191DC701B60197
:10176000A30192010E94BE0DF80160830894811CC0
:10177000911CA11CB11CC701B601A30192010E94DA
:10178000BE0DC901DA016C017D01C114D104E1046F
:10179000F104F1F681E0E82EF12CEC0EFD1EE80CD0
:1017A000F91C3E010894611C711CD501C40101970C
:1017B000A109B1096C01C818D9080FC0F601EE0DD6
:1017C000FF1D60816A3010F4605D01C0695CC10179
:1017D0000E94650B0894E108F1086E147F0471F70C
:1017E000A0960FB6F894DEBF0FBECDBFCF91DF91AC
:1017F0001F910F91FF90EF90DF90CF90BF90AF902F
:101800009F908F907F906F905F904F903F902F9020
:101810000895EF92FF920F931F93CF93DF93EC0104
:101820007A018B0177FF0BC06DE20E94650B10956A
:101830000095F094E094E11CF11C011D111DCE01F6
:10184000B801A7012AE00E947B0BDF91CF911F9185
:101850000F91FF90EF900895AB01662757FD6095BB
:10186000762F0E94090C08950CD0EBC0E3D040F015
:10187000DAD030F021F45F3F19F0CCC0511115C11E
:10188000CFC0F0D098F39923C9F35523B1F3951B3A
:10189000550BBB27AA2762177307840738F09F5F91
:1018A0005F4F220F331F441FAA1FA9F333D00E2E00
:1018B0003AF0E0E830D091505040E695001CCAF76D
:1018C00029D0FE2F27D0660F771F881FBB1F261732
:1018D00037074807AB07B0E809F0BB0B802DBF0105
:1018E000FF2793585F4F2AF09E3F510568F092C042
:1018F000DCC05F3FECF3983EDCF386957795679507
:10190000B795F7959F5FC9F7880F911D96958795B5
:1019100097F90895E1E0660F771F881FBB1F6217D4
:1019200073078407BA0720F0621B730B840BBA0B92
:10193000EE1F88F7E095089504D06894B111B5C002
:10194000089598D088F09F5790F0B92F9927B751F4
:10195000A0F0D1F0660F771F881F991F1AF0BA9573
:10196000C9F712C0B13081F09FD0B1E008959CC09A
:10197000672F782F8827B85F39F0B93FCCF3869569
:1019800077956795B395D9F73EF4909580957095C6
:1019900061957F4F8F4F9F4F0895E89409C097FB43
:1019A0003EF490958095709561957F4F8F4F9F4F36
:1019B0009923A9F0F92F96E9BB279395F69587957A
:1019C00077956795B795F111F8CFFAF4BB0F11F43D
:1019D00060FF1BC06F5F7F4F8F4F9F4F16C08823E4
:1019E00011F096E911C0772321F09EE8872F762F1A
:1019F00005C0662371F096E8862F70E060E02AF05B
:101A00009A95660F771F881FDAF7880F9695879546
:101A100097F9089597F99F6780E870E060E008956E
:101A20009FEF80EC089500240A94161617061806F6
:101A30000906089500240A941216130614060506D2
:101A40000895092E0394000C11F4882352F0BB0F63
:101A500040F4BF2B11F460FF04C06F5F7F4F8F4FC6
:101A60009F4F089557FD9058440F551F59F05F3F01
:101A700071F04795880F97FB991F61F09F3F79F0B0
:101A800087950895121613061406551FF2CF469532
:101A9000F1DF08C0161617061806991FF1CF8695B4
:101AA0007105610508940895E894BB276627772798
:101AB000CB0197F908950BD0C4CFB5DF28F0BADF7A
:101AC00018F0952309F0A6CFABCF1124EECFCADFD3
:101AD000A0F3959FD1F3950F50E0551F629FF00141
:101AE000729FBB27F00DB11D639FAA27F00DB11D9A
:101AF000AA1F649F6627B00DA11D661F829F222723
:101B0000B00DA11D621F739FB00DA11D621F839FA9
:101B1000A00D611D221F749F3327A00D611D231F7F
:101B2000849F600D211D822F762F6A2F11249F57CD
:101B300050408AF0E1F088234AF0EE0FFF1FBB1FF0
:101B4000661F771F881F91505040A9F79E3F51058F
:101B500070F060CFAACF5F3FECF3983EDCF3869540
:101B600077956795B795F795E7959F5FC1F7FE2B3A
:101B7000880F911D9695879597F90895A1E21A2EE1
:101B8000AA1BBB1BFD010DC0AA1FBB1FEE1FFF1F21
:101B9000A217B307E407F50720F0A21BB30BE40B71
:101BA000F50B661F771F881F991F1A9469F76095B8
:101BB0007095809590959B01AC01BD01CF01089572
:101BC000EE0FFF1F0590F491E02D0994F894FFCFDC
:101BD0004C3A200020523A20004B703A00204B64CF
:101BE0003A00436F6F6C207261646963616C6C7959
:101BF00000617765736F6D652070726F6772616DDC
:101C000021212100C800F401320035003B003800DA
:101C1000230062006500310034003A0037002200E2
:101C200061006400300033003900360021002000DC
:101C3000630001FF180019002600270005000400BA
:101C400001000000000000005A0100000000C20373
:101C5000150277035C039103010204081020408001
:061C600020100880402066
:00000001FF
